:100000000C94E7000C940F010C940F010C940F0159
:100010000C940F010C940F010C940F010C940F0120
:100020000C940F010C940F010C94E90A0C945605E2
:100030000C940F010C940F010C940F010C940F0100
:100040000C940F010C940F010C940F010C940F01F0
:100050000C940F010C940F010C940F010C94B80731
:100060000C940F010C940F010C940F010C940F01D0
:100070000C940F010C940F010C940F010C940F01C0
:100080000C940F010C940F010C940F010C940F01B0
:100090000C9402080C940F010C940F010C940F01A6
:1000A0000C940F010C940F010C940F01010A040A27
:1000B000F309F709FB09250A250A250A080A0C0A8B
:1000C000100A160A1A0A250A200A00000000240055
:1000D00027002A002D003000080B00020202010058
:1000E000090400000102020000052400100105249B
:1000F000010101042402060524060001070581030D
:1001000010004009040100020A0000000705020275
:100110004000000705830240000004030904417207
:100120006475696E6F204C4C430041726475696E52
:100130006F204C656F6E6172646F001201000200E7
:10014000000040412336800001010203011201003A
:1001500002EF020140412336800001010203010049
:10016000000000250028002B002E003100040404AC
:10017000040403040502020202040302020202064E
:10018000060606060604040202020404040802012C
:1001900010408040102040804080080204018040D0
:1001A00020100201108010204040200000000200BA
:1001B000090F0000030401000C0000000000000013
:1001C00000000000000000000000550C540C112439
:1001D0001FBECFEFDAE0DEBFCDBF11E0A0E0B1E09F
:1001E000E4EFFBE102C005900D92AA33B107D9F705
:1001F00022E0AAE3B1E001C01D92AA3CB207E1F7F8
:1002000010E0C6EED0E004C02197FE010E94AE0CC3
:10021000C53ED107C9F70E945B0B0C94ED0D0C9401
:1002200000004091F6015091F7012091F4013091C6
:10023000F50142175307B4F49091E8009570E1F38B
:100240009091E80092FD19C08093F1008091F60131
:100250009091F70101968F739927892B19F48EEFEE
:100260008093E8008091F6019091F70101969093B8
:10027000F7018093F60181E0089580E00895CF9220
:10028000DF92EF92FF920F931F93CF93DF931F9212
:10029000CDB7DEB7182F062FE42E862F880F8E5F7E
:1002A00099830E94110183E00E941101F12EC12E59
:1002B0009981D92E8C2D8F19801798F4F601E7FEBD
:1002C00002C0849101C080810E941101182F80E03A
:1002D0000E9411018123FFEFCF1ADF0A8111EACFBB
:1002E00001C081E00F90DF91CF911F910F91FF909E
:1002F000EF90DF90CF900895DF92EF92FF920F93EF
:100300001F93CF93DF93D82E8A017B01E40EF51E55
:10031000EB01CE15DF0571F0D7FE03C0FE0184911D
:1003200001C088810E94110121968111F2CF8FEFC7
:100330009FEF01C0C801DF91CF911F910F91FF90F6
:10034000EF90DF900895615030F02091F100FC01B2
:1003500020830196F8CF289884E68093FB010895C6
:10036000E0915B01F0915C01309729F01092D1018E
:100370001092D00109940895CF93DF93AC01E091DE
:10038000D801F091D9013097F1F09091D30180918B
:10039000D2019817C0F090E0292F30E026173707D8
:1003A00054F4D901A55CBE4FEA01C20FD31F888166
:1003B0008C939F5FF1CF1092D3016093D201CB0158
:1003C000DF91CF910994DF91CF910895CF92DF9281
:1003D000EF92FF920F931F93CF93DF936C017A01FB
:1003E0008B01C0E0D0E0CE15DF0589F0D8016D911A
:1003F0008D01D601ED91FC910190F081E02DC601B7
:100400000995892B11F47E0102C02196ECCFC7011A
:10041000DF91CF911F910F91FF90EF90DF90CF90E0
:10042000089585ED8093BC008091BC0084FDFCCFD5
:100430001092CF01089540917D01262F30E0240FC6
:10044000311D21323105DCF42091CF012430C9F473
:10045000FC0180E090E0861758F430917D012191F5
:10046000DC01A35ABE4FA30FB11D2C930196F3CF0D
:1004700080917D01680F60937D0180E0089581E0A7
:10048000089582E008950895E091D3018091D2010A
:10049000E81730F4F0E0E55CFE4F808190E00895CD
:1004A0008FEF9FEF08959091D3018091D20198171B
:1004B00050F4E92FF0E0E55CFE4F208130E09F5FD3
:1004C0009093D30102C02FEF3FEFC90108958091AF
:1004D000D20190E02091D301821B91090895CF931E
:1004E000DF9300D0CDB7DEB7CB01642F49835A83A9
:1004F0000E941B024981842F5A81952F0F900F90E3
:10050000DF91CF910895CF93DF931F92CDB7DEB7E0
:10051000698361E0CE0101960E941B0281E090E0B8
:100520000F90DF91CF910895DC0170E0FB01E4575B
:10053000FE4FE4911B96EC931B9763597E4FFB0192
:100540008491E82FF0E0EE0FFF1FE15AFE4F8591F6
:10055000949118969C938E931797FB016491E62FC4
:10056000F0E0EE0FFF1FE653FF4F859194911A962E
:100570009C938E9319970895CF93DF93EC01888114
:10058000998168177907F8F4FB01EE0FFF1F6E0FD2
:100590007F1F8C81AA81BB81A60FB71FA80FB11D39
:1005A0004C938D81AA81BB81A60FB71FA80FB11DE7
:1005B0003C938E81EA81FB81E60FF71FE80FF11D66
:1005C000208380E001C081E0DF91CF9108950F93F7
:1005D0001F93CF93DF931F92CDB7DEB782E089835D
:1005E00042E450E068ED70E080E80E947C010E94E7
:1005F000D50ADC0112960D911C9113970115110576
:1006000069F0D801ED91FC910280F381E02DBE01EB
:100610006F5F7F4FC801099597FF07C089810F90D1
:10062000DF91CF911F910F910895F80100851185F9
:10063000E5CF0E94E10D2F923F924F925F926F9211
:100640007F928F929F92AF92BF92CF92DF92EF9262
:10065000FF920F931F93CF93DF93CDB7DEB76197D0
:100660000FB6F894DEBF0FBECDBF8C01D12CED2CA0
:10067000F12CE016F1069CF42FE08DEF91E02D15A2
:1006800050F00E945302E1E0F0E0EC0FFD1FEE0D90
:10069000FF1D808302C00E945302D394E8CF99814A
:1006A0009F70923009F445C020F4913009F403C1E1
:1006B000E4C1933009F497C0943009F0DEC18B8116
:1006C00090E0A0E0B0E0AC01BD01B7E0440F551FE1
:1006D000661F771FBA95D1F79C81892F90E0A0E023
:1006E000B0E01EE0880F991FAA1FBB1F1A95D1F713
:1006F000840F951FA61FB71F2A81820F911DA11D70
:10070000B11DCD80D12CE12CF12C05E1CC0CDD1CF0
:10071000EE1CFF1C0A95D1F7C80ED91EEA1EFB1E5F
:1007200009E012E08AEDA82E81E0B82E77247394B8
:1007300041C080913A018111A0C181E080933A01CA
:10074000E9E0F2E06AED71E044E152E080819181FC
:10075000892B39F0DB018C91811156C102C0DFBEBB
:100760007894DB011D92BD013C96445F5F4FB2E07F
:10077000E936FB0759F710923A017FC1C114D10441
:10078000E104F104F1F4CA01880F991F480F591FC1
:1007900060E070E0828193810E94E60DF501708235
:1007A000045F1F4FFFEFAF1ABF0A22E0093612079E
:1007B00009F463C1F801408151814115510581F36C
:1007C000DDCF812C912CD8018D919C9188169906B2
:1007D00028F7A7019601B401C8010E94BC02FFEFEF
:1007E0008F1A9F0AF0CF8B816A8170E030E8839F77
:1007F000600D711D11243C812D81CE808F81E2EE30
:10080000F1E010E0419151916417750790F590E087
:10081000A0E0B0E045E1880F991FAA1FBB1F4A95D1
:10082000D1F7D12CE12CF12C5EE0CC0CDD1CEE1CC0
:10083000FF1C5A95D1F78C0D9D1DAE1DBF1D830F5A
:10084000911DA11DB11DC22ED12CE12CF12CE7E090
:10085000CC0CDD1CEE1CFF1CEA95D1F79C01AD0110
:100860002C0D3D1D4E1D5F1D111107C089E092E04A
:1008700019C01F5F183031F600C1A12F012E000CE6
:10088000BB0BFD01EE0FFF1FE052FE4F80819181F7
:10089000681B790BECE0EA9FC001EB9F900D1124DF
:1008A000875F9D4F0E94BC02E12FF0E0E652FE4FB1
:1008B00081E08083E2C0033008F4DFC08BEA089F48
:1008C000012D11240695098B42EE642E41E0742E11
:1008D00009E012E04E0184E0880E911C5EE0A52E36
:1008E00052E0B52E6DE0C62E62E0D62E7FE0E72EF8
:1008F00072E0F72E512CE2E04E2E8091F201D401ED
:1009000012971D01811105C06C916F71C8010E9481
:100910009402F101808190E035E0959587953A95B4
:10092000E1F78130910559F08230910579F0892BFA
:10093000A1F4D5011C9221E0F601208305C0F60147
:100940001082E1E0D501EC93D70106C0F7011082D7
:10095000E1E0D601EC93D5014C92F401319780810E
:10096000F4012080F0E82F9E10011124280E311C84
:10097000D80112968D919C911397009711F00E94C7
:10098000490DF8013182208221143104C1F0A10106
:10099000440F551F240E351EC1010E94B40CD8010E
:1009A00013969C938E931297009731F0A10160E00B
:1009B00070E00E94E60D03C0F801118210825520FC
:1009C00029F0F30132972081318102C020E030E02C
:1009D000D8018D919C91820F931FF3018193919384
:1009E0003F015394045F1F4FF3E08F0E911C2CE0E6
:1009F000A20EB11C3CE0C30ED11C8CE0E80EF11C31
:100A0000298952127ACF39C021853285D9019C912A
:100A1000DA018C91892BD9018C93A780B084DA01FB
:100A20008C91208131818901000F111F020F131F4A
:100A3000E280F380D5012C91382F30953223C22EDD
:100A4000C82ADFB6F894C701080F191F801791074D
:100A500009F485CEDC01FD90CD01D50128E0CC92D2
:100A600000C0F7FE3C93FF0C00C000C000C008F4BB
:100A70003C9300C02A9599F7E9CF61960FB6F89498
:100A8000DEBF0FBECDBFDF91CF911F910F91FF90C1
:100A9000EF90DF90CF90BF90AF909F908F907F901E
:100AA0006F905F904F903F902F9008951F920F92FC
:100AB0000FB60F921124CF92DF92EF92FF920F9315
:100AC0001F932F933F934F935F936F937F938F93D6
:100AD0009F93AF93BF93EF93FF93CF93DF93CDB7E4
:100AE000DEB76C97DEBFCDBF1092E9008091E800C1
:100AF00083FFFAC168E0CE0145960E94A30182EF10
:100B00008093E8008D8987FF05C09091E80090FFF1
:100B1000FCCF03C09EEF9093E800982F907609F0E9
:100B2000C6C09E892F89188D91110CC0803829F478
:100B30008091F9018093F10002C01092F1001092AF
:100B4000F10047C1422F50E0512B913051F48111F7
:100B500040C14130510509F03CC18091F9018D7FC0
:100B60000BC0933061F4811134C14130510509F05B
:100B700030C18091F90182608093F9012AC19530DA
:100B800041F48091E80080FFFCCF20682093E300CF
:100B900020C1963009F05FC0EB8CFC8C1092E9000C
:100BA0001092F7011092F601123091F51092F501B2
:100BB0001092F4010E94E70299E0BE016F5F7F4F3F
:100BC000DB01E92F1D92EA95E9F799831A8391E0F9
:100BD0009E8390EA98879AEF99872091F601309149
:100BE000F701275F3F4F3C832B838D831092E900F1
:100BF0001092F7011092F601F092F501E092F401E3
:100C000049E050E080E00E947C010E94E702E1C0E0
:100C1000F092F501E092F4010E94D50ADC011296EF
:100C2000ED90FC901397E114F10409F4C0C0D701D2
:100C3000ED91FC910480F581E02DBE016B5E7F4F4C
:100C4000C7010995009719F00CF0C3C0C6C0F701A1
:100C5000E084F184E8CF973009F4BFC0983021F4E4
:100C600081E08093F100B5C0993009F0B2C0837083
:100C700009F0B3C0E3E1F1E081E021E036E39081E7
:100C8000992361F08093E9002093EB009191909378
:100C9000EC003093ED008F5F873089F78EE780930B
:100CA000EA001092EA008F898093FC0192C08B8D3C
:100CB0009C8D1092E9001092F7011092F60190932A
:100CC000F5018093F401898D811156C08E899D892B
:100CD000913A59F4813209F080C047E050E064E075
:100CE00071E080E00E947C0174C0913209F075C00F
:100CF000833289F4888D90E0982F88272F89822B62
:100D0000A0E0B0E08093000190930101A093020164
:100D1000B09303015EC0803269F48091E80082FFE5
:100D2000FCCF67E084E091E00E94A3018BEF809309
:100D3000E80006C0823209F04CC08F8980930B0115
:100D40008091F801882319F0EEEFFAE002C0E0E0AC
:100D5000F8E08091040190910501A0910601B09105
:100D60000701803B9440A105B10509F088C080913E
:100D70000B0180FFA0C083C00E94D50ADC0112963F
:100D80000D911C9113970115110539F1D801ED91C1
:100D9000FC910190F081E02DBE016B5E7F4FC80198
:100DA0000995811116C0F80100851185ECCF11302D
:100DB000C1F0133091F48F89882309F455C0823033
:100DC000E9F440E860E18AE291E00E943F01882373
:100DD00021F08EEF8093E80087C081E28093EB00E2
:100DE00083C08B8D9C8D089711F41093F301809133
:100DF000F301811136C06BE371E038C0813029F412
:100E000040E86BE08EE191E0E0CF833031F70E9463
:100E1000D50ADC011296ED90FC9013978E010F5FBE
:100E20001F4F6801E114F10479F0D701ED91FC91B5
:100E30000680F781E02DB801C7010995080F111D43
:100E4000F701E084F184EECFD8011C92F601019005
:100E50000020E9F73197BF016C197D0940E0C60118
:100E6000B4CF6DE471E002C06AE171E06115710513
:100E700009F4B3CFFB01449150E080E833CF0FB6C3
:100E8000F894A8958091600088618093600010922A
:100E900060000FBEA895EE3F2AE0F20739F080917E
:100EA000FE0A9091FF0A9183808393CF1092FF0AEC
:100EB0001092FE0A8ECFEE3F8AE0F80731F0808173
:100EC00091819093FF0A8093FE0A87E797E79183C9
:100ED00080839BE088E10FB6F894A895809360002A
:100EE0000FBE9093600075CF6C960FB6F894DEBF7E
:100EF0000FBECDBFDF91CF91FF91EF91BF91AF9129
:100F00009F918F917F916F915F914F913F912F9121
:100F10001F910F91FF90EF90DF90CF900F900FBE39
:100F20000F901F9018953FB7F8948091C901909148
:100F3000CA01A091CB01B091CC0126B5A89B05C0F8
:100F40002F3F19F00196A11DB11D3FBFBA2FA92F48
:100F5000982F8827820F911DA11DB11DBC01CD01C5
:100F600042E0660F771F881F991F4A95D1F70895B1
:100F70001F920F920FB60F9211242F933F938F93CE
:100F80009F93AF93BF938091C5019091C601A091AB
:100F9000C701B091C8013091C40123E0230F2D3760
:100FA00020F40196A11DB11D05C026E8230F02966D
:100FB000A11DB11D2093C4018093C5019093C6016A
:100FC000A093C701B093C8018091C9019091CA0153
:100FD000A091CB01B091CC010196A11DB11D8093D0
:100FE000C9019093CA01A093CB01B093CC01BF91EA
:100FF000AF919F918F913F912F910F900FBE0F90C6
:101000001F9018951F920F920FB60F9211242F93D5
:101010003F934F935F936F937F938F939F93AF9380
:10102000BF93EF93FF938091B900887F803609F4D6
:101030009CC068F5883209F45BC090F4803109F4F3
:1010400054C038F4882309F4F6C0883009F44DC040
:10105000F6C0883109F44CC0803209F45DC0EFC09D
:10106000803409F468C048F4803309F455C08833EB
:1010700009F0E5C08093A001D8C0803509F44FC0C5
:10108000883509F45DC0883409F0D9C0D6C08839E4
:1010900009F4C7C0A8F4883709F467C038F4883663
:1010A00009F463C0803709F460C0C9C0883809F406
:1010B000B8C0803909F45FC0803809F0C0C05BC097
:1010C000803B09F486C038F4803A09F466C0883A57
:1010D00009F47FC0B4C0803C09F4A7C0883C09F47F
:1010E000A4C0883B09F48AC0AAC08091C30110C083
:1010F0009091C2018091C101981770F5E091C201F1
:1011000081E08E0F8093C201F0E0EF55FE4F8081A9
:101110008093BB0085EC86C08093A0018EC0E091D7
:10112000C20181E08E0F8093C2018091BB00F0E08C
:10113000EF55FE4F80839091C2018091C1016EC036
:10114000E091C20181E08E0F8093C2018091BB00CB
:10115000F0E0EF55FE4F80838091CE0181116DC08C
:1011600081E08093CD0184EA61C083E08093CF0168
:1011700010929F01CFCF80919F01803208F051C023
:10118000E0919F0181E08E0F80939F018091BB00D1
:10119000F0E0E158FE4F8083BDCF85EC8093BC002A
:1011A0001092CF0180919F01803230F4E0919F0135
:1011B000F0E0E158FE4F108260919F0170E0E091F5
:1011C000D401F091D5018FE791E0099510929F012C
:1011D00036C084E08093CF0110927E0110927D0191
:1011E000E091D601F091D701099580917D0181119F
:1011F00005C081E080937D0110925D01E0917E0148
:1012000081E08E0F80937E01F0E0E35AFE4F8081F3
:101210008093BB0090917E0180917D01981708F426
:1012200079CF85E88093BC000AC085EC8093BC0030
:101230001092CF0104C01092A0010E941102FF91F0
:10124000EF91BF91AF919F918F917F916F915F913E
:101250004F913F912F910F900FBE0F901F901895B7
:10126000FC018091FC01811103C08FEF9FEF089575
:101270009FB7F89482E08093E9002091F20030E07B
:101280001216130614F421E030E02115310559F04F
:10129000289884E68093FB018091F10080838091FF
:1012A000F200882319F09FBFC90108958BE680934F
:1012B000E800F9CFCF93DF931F92CDB7DEB76983F4
:1012C000DC01ED91FC910280F381E02D41E050E0E2
:1012D000BE016F5F7F4F09950F90DF91CF91089509
:1012E00083E08093E9008091F200882319F08AE37B
:1012F0008093E8000895CF93DF931F92CDB7DEB7B8
:10130000FC018485958597FD05C02FEF3FEF35875C
:1013100024870BC0CE0101960E943009019719F471
:10132000898190E002C08FEF9FEF0F90DF91CF9106
:1013300008950F931F93CF93DF931F92CDB7DEB71E
:101340008C01FC018485958597FF0EC0CE01019626
:101350000E943009019719F4298130E002C02FEF73
:101360003FEFF80135872487F801848595850F9034
:10137000DF91CF911F910F910895FC018485958590
:1013800097FD0BC09FB7F89482E08093E9008091AD
:10139000F2009FBF90E0019608959FB7F89482E015
:1013A0008093E9008091F2009FBF90E0089590E063
:1013B000FC01E555FE4F4491FC01E457FE4F24919A
:1013C000FC01E359FE4F8491882309F44CC0442367
:1013D000E1F150E0FA013197EF30F105B0F5EA5A4A
:1013E000FF4F0C94AE0C909180009F7707C09091B6
:1013F00080009F7D03C090918000977F9093800034
:1014000024C094B59F7702C094B59F7D94BD1DC044
:10141000909190009F7707C0909190009F7D03C0AE
:1014200090919000977F909390000FC09091C00092
:101430009F7703C09091C0009F7D9093C00005C02E
:101440009091C200977F9093C200E82FF0E0EE0FDA
:10145000FF1FE15AFE4FA591B4918FB7F894EC911C
:101460002E2B2C938FBF0895CF92DF92EF92FF9295
:101470000E9493076B017C010E949307DC01CB0162
:101480008C199D09AE09BF09883E9340A105B1059D
:1014900098F3FF90EF90DF90CF9008958F929F92F6
:1014A000AF92BF92CF92DF92EF92FF920F931F9372
:1014B000CF93DF935C016B018A0180910B0188233C
:1014C00009F459C08091FC01882309F454C080912B
:1014D000FA0180FF05C08091E00082608093E00007
:1014E000E8018AEFF82E93E0E92E2FE3822E3AE30B
:1014F000932E2097C9F18FB7F894E092E90090916C
:10150000E80095FF06C09091F200282D291B922F2C
:1015100001C090E08FBF911106C0FA94FF2059F1ED
:101520000E94340AE6CF292F30E0C217D3070CF40B
:101530009C2F8FB7F894E092E9002091E80025FFF6
:1015400011C0292F30E0C21BD30BF601915020F0BF
:1015500041914093F100FACFC20ED31E9091E80062
:1015600095FF13C08FBFC5CF5D9884E68093690255
:101570001016110644F081E090E0F5019383828318
:1015800080E090E005C0C80103C09092E800EACF77
:10159000DF91CF911F910F91FF90EF90DF90CF904F
:1015A000BF90AF909F908F90089580916E028111AF
:1015B0000DC082E080936A0284E080936B021092F7
:1015C0006D0210926C0281E080936E028AE692E0D6
:1015D00008951F920F920FB60F9211248F939F932D
:1015E0008091E1009091E100937F9093E10083FF6F
:1015F0000FC01092E90091E09093EB001092EC0084
:1016000092E39093ED001092FC0198E09093F0002B
:1016100082FF20C093E09093E9009091F20099231B
:1016200019F09AE39093E80090916902992339F0B8
:1016300090916902915090936902992389F1909158
:10164000FB01992339F09091FB0191509093FB019C
:10165000992341F184FF10C08091E2008E7E816069
:101660008093E2008091E1008F7E8093E100809181
:10167000FA018E7E806111C080FF16C08091E20069
:101680008E7E80618093E2008091E1008E7E809367
:10169000E1008091FA018E7E81608093FA0104C09E
:1016A0005D9ACDCF289AD6CF9F918F910F900FBE84
:1016B0000F901F901895789484B5826084BD84B58E
:1016C000816084BD85B5826085BD85B5816085BD3D
:1016D00080916E00816080936E00109281008091F5
:1016E000810082608093810080918100816080937D
:1016F00081008091800081608093800080919100C2
:10170000826080939100809191008160809391002C
:10171000809190008160809390008091C1008460EE
:101720008093C1008091C10082608093C10080914C
:10173000C10081608093C1008091C300816080936B
:10174000C3008091C00082608093C0008091C2007D
:1017500081608093C20080917A00846080937A00D7
:1017600080917A00826080937A0080917A00816013
:1017700080937A0080917A00806880937A0010923A
:10178000FC011092F9011092FA018091D70081605A
:101790008093D70080EA8093D80089B5806189BDA5
:1017A00089B5826089BD09B400FEFDCF0E94340A6C
:1017B0008091D8008F7C80618093D8008091E00078
:1017C000807F8093E0008091E1008E7E8093E10035
:1017D0008DE08093E200559A209AEEEFFFE7859125
:1017E00094918B3F9C4D19F481E08093F80184E83B
:1017F0008093BA0080EB91E09093D7018093D6015B
:101800008CEB91E09093D5018093D4011092D30199
:101810001092D2011092D1011092D0011092CF01FA
:10182000C1E0C093CE011092CD0182E00E94D709A1
:1018300083E00E94D7098091B9008E7F8093B90020
:101840008091B9008D7F8093B90088E48093B800BF
:1018500085E48093BC008BE193E09093D901809361
:10186000D801C093F201E2EEF1E0AAEDB1E01192ED
:1018700011921D9281E0E23FF807C9F709E012E0FA
:10188000C0E06C2FC8010E949402CF5F045F1F4F1D
:10189000C830B9F700E010E00E94340A01151105C4
:1018A000D9F30E940000F8CF0895EF92FF920F93B2
:1018B0001F93CF93DF93109279021092780288EEF3
:1018C00093E0A0E0B0E080937A0290937B02A09333
:1018D0007C02B0937D022DE131E0309377022093BA
:1018E00076022FEF3FEF3093830220938202109213
:1018F00000021092FF018093010290930202A093D4
:101900000302B09304028DE291E09093FE01809374
:10191000FD0109E012E0C0E0D0E0EE24E39482E0B3
:10192000F82EF80182819381009711F00E94490DF1
:10193000F80111821082FE01E75FFD4F1582E482FB
:10194000F6822C96045F1F4FC036D10551F7DF9108
:10195000CF911F910F91FF90EF900895EE0FFF1F11
:101960000590F491E02D0994CF93DF938230910597
:1019700010F482E090E0E091C802F091C90220E00A
:1019800030E0C0E0D0E0309711F14081518148173C
:101990005907C0F04817590761F482819381209755
:1019A00019F09B838A832BC09093C9028093C8024D
:1019B00026C02115310519F04217530718F49A0172
:1019C000BE01DF01EF010280F381E02DDCCF2115A4
:1019D000310509F1281B390B2430310590F412969A
:1019E0008D919C9113976115710521F0FB019383F3
:1019F000828304C09093C9028093C802FD0132968D
:101A000044C0FD01E20FF31F8193919322503109ED
:101A10002D933C933AC02091C6023091C702232BEC
:101A200041F420910E0130910F013093C7022093B1
:101A3000C60220910C0130910D012115310541F4B0
:101A40002DB73EB74091100150911101241B350B69
:101A5000E091C602F091C702E217F307A0F42E1B33
:101A60003F0B2817390778F0AC014E5F5F4F241702
:101A7000350748F04E0F5F1F5093C7024093C602D0
:101A80008193919302C0E0E0F0E0CF01DF91CF912C
:101A900008950F931F93CF93DF93009709F48CC0A1
:101AA000FC013297138212820091C8021091C90280
:101AB0000115110581F420813181820F931F20913E
:101AC000C6023091C7022817390779F5F093C7028B
:101AD000E093C60271C0D80140E050E0AE17BF07E6
:101AE00050F412962D913C911397AD0121153105BB
:101AF00009F1D901F3CF9D01DA013383228360819B
:101B00007181860F971F8217930769F4EC01288172
:101B10003981260F371F2E5F3F4F318320838A8103
:101B20009B8193838283452B29F4F093C902E09330
:101B3000C80242C01396FC93EE931297ED014991AF
:101B400059919E01240F351FE217F30771F480812C
:101B50009181840F951F029611969C938E9382819A
:101B6000938113969C938E931297E0E0F0E0D80156
:101B700012968D919C911397009719F0F8018C01A2
:101B8000F6CF8D919C9198012E5F3F4F820F931F4E
:101B90002091C6023091C7022817390769F430979F
:101BA00029F41092C9021092C80202C01382128254
:101BB0001093C7020093C602DF91CF911F910F913E
:101BC000089581E090E0F8940C94ED0DDC0101C0E3
:101BD0006D9341505040E0F7089510E0C6EED0E01C
:101BE00004C0FE010E94AE0C2196C73ED107C9F782
:041BF000F894FFCF97
:101BF400FFFFFFFF00E10000000000000000CA0238
:101C0400800000C18081000000000000005A094EDD
:101C14000ABD097B09990970090000000083026F5D
:0A1C2400026702530244024302006B
:00000001FF
