:1000000033C1000062C1000060C100005EC1000099
:100010005CC100005AC1000058C1000056C1000078
:1000200054C1000052C1000050C100004EC1000088
:100030004CC100004AC1000048C1000046C1000098
:1000400044C100000C949C1540C100003EC100005A
:100050003CC100003AC1000038C100000C94F10F0F
:1000600034C100000C94D10E0C94A80E2EC10000D7
:100070002CC100002AC1000028C1000026C10000D8
:100080000C946F1522C1000020C100001EC10000A9
:100090001CC100001AC1000018C100000C943B10E4
:1000A00014C1000012C100000C9442150EC10000E2
:1000B0000CC100000AC1000008C100000C94151515
:1000C00004C1000002C1000000C10000FEC0000029
:1000D000FCC00000FAC00000F8C00000F6C000003C
:1000E000F4C00000120917091C0926093009A909E2
:1000F0003A0942094A0954095E09680977098109E0
:10010000A9098B0995099F09DA0BFF0BC90B110C83
:100110002A0C5E0C520C5E0C5E0C5E0C8A0CE90B19
:10012000180E1B0E0A0E0E0E140E520E1F0E230E6C
:10013000290E2D0E310E370E3B0E3F0E520E450E80
:10014000490E4D0E00002100240027002A002D003A
:100150003000330001010000040107010A01000022
:100160002200250028002B002E003100340002015F
:100170000000050108010B010000200023002600FB
:1001800029002C002F0032000001000003010601AD
:10019000090105050505070508080808020202020D
:1001A0000A0A080804040404010101010101010113
:1001B0000303030303030303040707070C0C0C0CDE
:1001C0000C0C0C0C020202020606060606060606C7
:1001D0000B0B0B0B0B0B0B0B010210202008081054
:1001E00020401020408002010201080402010102A7
:1001F0000408102040808040201008040201800480
:1002000002018040201008040201080402010102DA
:1002100004081020408001020408102040800000E3
:100220000A0B02090C0D0E08070304010000000070
:1002300000000000000000000000000000000000BE
:10024000000000000000000000001211100000007B
:10025000000000000000000000000000000000009E
:10026000000000002D1CB81C11241FBECFEFD1E2EE
:10027000DEBFCDBF00E00CBF28E0A4E1B3E001C0C9
:100280001D92A734B207E1F713E0A0E0B2E0E8E383
:10029000FDE300E00BBF02C007900D92A431B1074F
:1002A000D9F711E0C3E3D1E000E006C021970109CE
:1002B000802FFE010E94C51CC233D10780E00807D1
:1002C000A9F70E9404160C948B1E9ACE7F928F92EF
:1002D0009F92AF92BF92CF92DF92EF92FF920F93D5
:1002E0001F93CF93DF93EA018F3609F4B5C1F62E41
:1002F000803778F4893609F473C220F4813509F423
:1003000081C239C58B3609F4D0C18D3609F418C2C3
:1003100032C5863761F020F4803709F43DC12BC522
:10032000883709F4F0C08A3709F481C124C52981CE
:10033000922F987125FF03C085E892E062C0888102
:1003400031E026FB222720F92327983069F160F459
:10035000911111C53093660480938804109267044C
:100360001092890412E007C0903109F444C098311A
:1003700009F47CC000C51F1578F4FE01E10FF11DE2
:100380008181608130E8839F6019112487E295E0C4
:100390000E942F131E5FEFCF81E00E949B1283E12A
:1003A00091E00197F1F7E7C44A816B8196E0F91279
:1003B0000DC0E0E86E9FB0011124640F711D9D8196
:1003C0004C81F0E89F9F4019112406C030E8639FDC
:1003D000401911246FEF7FEFDF91CF911F910F91A3
:1003E000FF90EF90DF90CF90BF90AF909F908F9055
:1003F0007F900C940B0AE0910002E7308CF085EAC4
:1004000092E0DF91CF911F910F91FF90EF90DF90DD
:10041000CF90BF90AF909F908F907F900C9483125D
:100420009A814B8166E0F0E8F6120CC04F9FA00164
:100430001124490F511D3D819C8160E8369F901920
:10044000112405C04F9F901911244FEF5FEFEF5F0C
:10045000E093000235E0E302F0011124E65DFC4F79
:100460008083528341839383248385C42091000237
:10047000121614F08FEF44C090E0622F022E000C91
:10048000770B35E0492F50E06417750774F0349FFF
:10049000F001359FF00D1124E65DFC4F40814813BB
:1004A00002C085E026C09F5FEDCF90E0FACF983084
:1004B000F8F4FA0131968E9FD0018F9FB00D112470
:1004C000A65DBC4F3C91849FF001859FF00D1124E7
:1004D000E65DFC4F308311964D915C9112975283EB
:1004E000418313963C911397338314963C91348344
:1004F0009F5F492F50E064177507CCF68FEF820F8E
:100500008093000238C42881898140E8849FC0011B
:100510001124820F911D009721F090935D03809329
:100520005C0380911D08811126C4C0E08CEE8C0F05
:10053000823028F466E070E08C2F0E94350BCF5F8C
:10054000C634A1F781E080931D081092F203109247
:10055000F10310926704109289041092650480934D
:10056000640410923F0461E084E10E942F0F61E077
:1005700085E10E942F0F8091B9008E7F8093B90092
:100580008091B9008D7F8093B90088E48093B80092
:1005900085E48093BC00EFC364E06F1508F0EBC303
:1005A0001881F9800A81EB80CC818EEF810F843431
:1005B00008F0E1C3E12FF0E0E253F84F208120334F
:1005C000B0F430E0F901EE0FFF1F2E0F3F1FF901CD
:1005D000E45FF94F208130E0F901EE0FFF1F2E0F8D
:1005E0003F1FF901E558FA4F808186FDAAC380E8D4
:1005F000C89FA00111244E0D511D90E8099FB00124
:1006000011246F0D711D812FF1D764E070E0812FEF
:10061000DF91CF911F910F91FF90EF90DF90CF90DE
:10062000BF90AF909F908F907F900C94350BE1E03E
:10063000E61708F0A0C328818981F0E88F9FC001E8
:100640001124820F911D009711F481E090E09093A6
:100650000202809301028FC3623008F48CC3898147
:1006600090E0623091F02A8140E8249F90011124AB
:10067000822B932B633049F02B8130E030E4239FB1
:10068000302D22271124822B932BBC018881DF91EE
:10069000CF911F910F91FF90EF90DF90CF90BF907F
:1006A000AF909F908F907F90E1C480EF0E948E1258
:1006B0008CE60E948E12CEEF8CEC8C0F803138F4D9
:1006C00082E00E948E128AE00E948E1202C0CC301C
:1006D00020F086ED8C0F833030F483E00E948E1280
:1006E00088E00E948E12C43430F484E00E948E129E
:1006F0008EE00E948E128EEE8C0F823030F486E0F7
:100700000E948E1281E00E948E128FE70E948E124C
:10071000CF5FC43421F1C43478F680E00E948E1299
:1007200081E00E948E128BE00E948E1281E00E9476
:100730008E1281E00E948E1281E00E948E12BCCF48
:10074000662309F418C3C88180EF0E948E128EE6DA
:100750000E948E128C2F0E948E12C63480F087EF7A
:10076000DF91CF911F910F91FF90EF90DF90CF908D
:10077000BF90AF909F908F907F900C948E12D0E09E
:10078000FE01E951F94F80810E948E12CC0FDD1FCE
:100790008E01035D184FF80180818F770E948E12C1
:1007A000F801808191819C012078232B39F0880FFA
:1007B000892F881F990B8F770E948E12C35DD84FA7
:1007C000888199819C012227307C232B41F2990F4B
:1007D000880B990F982F881F8F770E948E12BFCF9A
:1007E00080EF0E948E128AE60E948E12CAECC031FF
:1007F00010F48C2F01C08FE70E948E12CF5FC031A2
:10080000B1F7ADCF662309F4B6C29881892F8F70F6
:10081000833009F4CEC030F4813009F424C1823031
:1008200041F0A9C2843009F46AC0853009F4DBC103
:10083000A2C28091600381119EC280915F038111E9
:100840009AC281E08093600310E009E0809139084A
:10085000181708F051C0812F90E0BC01615E774FFE
:10086000FB012081222309F443C0E0913D08F0916F
:100870003E08089FE001099FD00D1124CD5CDA4F9E
:10088000AE81BF818C919885982B9C93AC81BD8162
:10089000288588819981AC01440F551F480F591F45
:1008A0008A819B81EC01CC0FDD1F8C0F9D1FE80F0F
:1008B000F91F8C91322F30953823282BCFB7F8941D
:1008C000CF01840F951FE817F90781F0419158E097
:1008D0002C9300C047FF3C93440F00C000C000C0F1
:1008E00008F43C9300C05A9599F7EDCFCFBF7894A8
:1008F000FB0110821F5FAACF109260033CC24981A6
:10090000CA800B818C8190915F03911134C290E079
:10091000A0E0B0E0C5E1880F991FAA1FBB1FCA95D0
:10092000D1F710E020E030E0DEE0000F111F221FC1
:10093000331FDA95D1F7800F911FA21FB31F840FC9
:10094000911DA11DB11DD12CE12CF12C17E0CC0C77
:10095000DD1CEE1CFF1C1A95D1F7C80ED91EEA1E2D
:10096000FB1EC114D104E104F10491F44091370855
:1009700050913808CA01880F991F480F591F60E02D
:1009800070E080913D0890913E080E94181EC3C1FE
:10099000C0E0D0E08091370890913808C817D90797
:1009A00008F0B9C1B701A601CE010E94C915219670
:1009B000F1CF99812A818B814C81CD800E8130913C
:1009C0005F033111D8C1C92FD0E0F0E82F9FC00DCF
:1009D000D11D11242091370830913808C217D30750
:1009E00068F510E020E030E065E1000F111F221FE4
:1009F000331F6A95D1F7D12CE12CF12C7EE0CC0C81
:100A0000DD1CEE1CFF1C7A95D1F70C0D1D1D2E1D53
:100A10003F1D080F111D211D311D50E060E070E0E9
:100A2000E7E0440F551F661F771FEA95D1F7400F87
:100A3000511F621F731FCE010E94C91520913908F2
:100A4000A7E2B8E080E090E0821708F094C1FC01D2
:100A50004D915D910196C417D507B0F7E15EF74F50
:100A600081E0808388C1913009F085C132E036177A
:100A700008F081C1D0905E030E94F215D11012C01F
:100A80006BEAF69EC12C1124C69447E2E42E48E09E
:100A9000F42E03E315E02396912C8824839452E0EE
:100AA000752E5AC033E3A32E35E0B32E10E0612F2C
:100AB000C5013ED71F5F49E0A40EB11C1830B9F73D
:100AC000DFCFF501808190E025E0959587952A9507
:100AD000E1F78130910509F44AC08230910509F4AB
:100AE0004BC0892B31F410923B0880923C087092E5
:100AF0003A08FE01319780812881F0E82F9F90010C
:100B00001124280F311DF801318320839920D9F158
:100B1000F701329780819181280F391FF7012193C6
:100B200031937F01F80193838283A0903708B090BE
:100B3000380880819181A80EB91EB0923808A09221
:100B40003708809139088F5F809339089394075F45
:100B50001F4F23969C14D1F0CE0102975C01D11057
:100B6000B0CFFC0160816F71C801E2D6AACF1092AC
:100B70003C0880923B08BBCF10923A0880923C0818
:100B800070923B08B6CF80E090E0C6CF80913D08E0
:100B900090913E08009731F00E94621D1092380833
:100BA00010923708A114B10409F4E5C0E501CC0F97
:100BB000DD1FCA0DDB1DCE010E94CD1C90933E08A7
:100BC00080933D08009751F0AE0160E070E00E9414
:100BD000181EB0923808A0923708CDC0109238087D
:100BE00010923708C8C08981982F9F7109F493C06B
:100BF00085FBCC24C0F8C92FCC0FC90F21E020936E
:100C00005F03D0E0E92EF12C86FBDD24D0F886FFCF
:100C100028C0CE010E94CD1C8C01009729F0AE01A6
:100C200060E070E00E94181ECC2039F06091370817
:100C3000709138086E197F0902C060E070E0CB0146
:100C4000880F991F680F791F80913D0890913E0889
:100C5000680F791FAE01C8010E94FE1DC11074C04B
:100C600019C0CC20B9F080913D0890913E08409188
:100C70003708509138084E195F099A01220F331F27
:100C8000420F531FBC018C0F9D1F0E94071E20E0C6
:100C900030E02FC080913D0890913E084091370888
:100CA000509138084E195F099A01220F331F420FE5
:100CB000531FBC016C0F7D1F0E94071E2091370837
:100CC000309138082E193F09DD2099F0C901880FAD
:100CD000991F280F391F80913D0890913E08AE0161
:100CE000B801820F931F0E94FE1DC8010E94621D61
:100CF00010C0C901880F991F280F391F80913D0826
:100D000090913E08AE0160E070E0820F931F0E9458
:100D1000181E10925F034091390850E061E070E0C6
:100D20008FE198E0DF91CF911F910F91FF90EF90AD
:100D3000DF90CF90BF90AF909F908F907F900C945A
:100D4000181E812F20D453CC80913D0890913E08ED
:100D500040913708509138084E195F099A01220FC7
:100D6000331F420F531FBC018C0F9D1F0E94071E93
:100D700020E030E0ABCFDF91CF911F910F91FF903A
:100D8000EF90DF90CF90BF90AF909F908F907F902B
:100D900008950F931F93CF93DF93082F893008F0A6
:100DA00072C090E0FC01E35EFC4F6083672B09F4A6
:100DB0006AC0FC01EC5EFC4F1081D02FDD0FDD0F0F
:100DC000DD0F8EEF8D0F843408F04DC010FF4BC047
:100DD0008D2F0E94070F892B09F445C0C1E08FEFCA
:100DE0008D0F843448F411FF07C081E08D0F0E94FD
:100DF000070F892B09F039C012FF06C082E08D0F62
:100E00000E94070F892B99F513FF05C083E08D0F12
:100E1000FED7892B71F514FF05C084E08D0FF7D73D
:100E2000892B49F515FF05C085E08D0FF0D7892B7B
:100E300021F5D03481F016FF05C086E08D0FE7D78D
:100E4000892BE9F4DF3338F417FF05C087E08D0FF5
:100E5000DED7892BB1F441E06C2F802FDF91CF9149
:100E60001F910F9193C2C0E0BACFC260C5CFC460DA
:100E7000CBCFC860D0CFC061D5CFC062DACFC0645D
:100E8000E1CFC068E8CFDF91CF911F910F91089516
:100E9000CF93803180F5409152035091530321E06C
:100EA00030E0672B81F4B90102C0660F771F8A9585
:100EB000E2F7CB018095909584239523909353037B
:100EC0008093520318C0082E02C0220F331F0A94C9
:100ED000E2F7242B352B3093530320935203909148
:100EE0001E08911108C0C82F0E949A0FBC018C2FB8
:100EF000CF910C943812CF910895AF92BF92CF92B8
:100F0000DF92EF92FF920F931F93CF93DF931F9285
:100F1000CDB7DEB7893008F089C0982F990F990FA7
:100F2000990F985F973408F096E4D62EB82EBB0C34
:100F3000BB0CBB0CFB2CA12CCC24C394F91610F5D4
:100F40008EEF8F0D8434D8F40F2D10E0F801E951A5
:100F5000F94F2081223098F4EE24E3948C2D8D21DA
:100F600009F4E12C000F111F213009F04DC0AC280D
:100F7000F801E35DF84F2E2D30E031832083CC0C57
:100F8000F394DCCFA0FE04C06D2D61708B2D67D76C
:100F9000A1FE05C06D2D627081E08B0D60D7A2FEB1
:100FA00005C06D2D647082E08B0D59D7A3FE05C07E
:100FB0006D2D687083E08B0D52D7A4FE05C06D2D9A
:100FC000607184E08B0D4BD7A5FE05C06D2D60725E
:100FD00085E08B0D44D7A6FE05C06D2D607486E0BC
:100FE0008B0D3DD7A7FE22C06D2D607887E08B0D5D
:100FF0000F90DF91CF911F910F91FF90EF90DF90B5
:10100000CF90BF90AF902BC7EE2009F4B1CFF8017D
:10101000E35DF84F208131812130310509F4A8CFFB
:1010200062E08F2D99834AD79981A2CF0F90DF91EB
:10103000CF911F910F91FF90EF90DF90CF90BF90D5
:10104000AF9008959EEF980F943478F4E82FF0E075
:10105000DF01A951B94F9C91913039F4EE0FFF1F78
:10106000E35DF84F60837183FAC608956F927F92B3
:101070008F929F92AF92BF92CF92DF92EF92FF92A8
:101080000F931F93CF93DF931F92CDB7DEB7982FA7
:101090003B01863408F06AC1082F10E0F801E951DD
:1010A000F94F8081833009F490C0843009F05EC12B
:1010B0009250943408F053C1F801E253F84FE080A5
:1010C000F12C6701CC0CDD1C603282E078070CF05B
:1010D00042C077FD05C0653B710524F4DB0104C007
:1010E000A0E001C0A4EBB0E0F601EE0DFF1DE45F4F
:1010F000F94F818128E830E04901881A910887FD7D
:101100009394880C991C880C991C092C000CAA0833
:10111000BB08828128E532E0281B310987FD339521
:10112000220F331F220F331FA901330F660B770BDA
:101130009A01AB01281939094A095B090E94541E1A
:1011400024EB30E040E050E00E942E1E820E931E01
:10115000A41EB51E01C04B01F601EE0DFF1DE45F9C
:10116000F94F2081203308F0FAC0318188E890E0FF
:10117000831B910937FD9395880F991F880F991F3D
:101180008816990684F0828148E552E0481B51098F
:1011900087FD5395440F551F440F551FC401481533
:1011A00059050CF4CA010297880F991F4FB7F8949C
:1011B00030E0F901EE0FFF1F2E0F3F1FF901E55838
:1011C000FA4F928381834FBFCAC08EEF890F8C3054
:1011D00028F084ED890F833008F0C1C061E0892FC9
:1011E00099836CD699816114710411F460E005C093
:1011F0008FEF6816710421F461E0892F30D6AFC0FB
:10120000F801E25EFD4FE4914E2F50E0FA01319774
:10121000E231F10508F09DC08827EE58FF4F8F4F4F
:101220000C94C51C84B5806884BD67BC98C084B527
:10123000806284BD68BC93C0809180008068809388
:101240008000709289006092880089C0809180003F
:1012500080628093800070928B0060928A007FC0D1
:101260008091800088608093800070928D006092F1
:101270008C0075C08091B00080688093B00060924F
:10128000B3006DC08091B00080628093B000609226
:10129000B40065C080919000806880939000709247
:1012A0009900609298005BC080919000806280936A
:1012B000900070929B0060929A0051C080919000C3
:1012C00088608093900070929D0060929C0047C05F
:1012D0008091A00080688093A0008091A0008F7B07
:1012E0008093A0007092A9006092A80038C08091FD
:1012F000A00080628093A0007092AB006092AA0070
:101300002EC08091A00088608093A0007092AD00F4
:101310006092AC0024C080912001806880932001FD
:1013200070922901609228011AC080912001806288
:101330008093200170922B0160922A0110C080914D
:10134000200188608093200170922D0160922C0111
:1013500006C080E8681671040CF04ECF47CF000F2E
:10136000111FF801E35DF84F718260820F90DF91E9
:10137000CF911F910F91FF90EF90DF90CF90BF9092
:10138000AF909F908F907F906F9008950F931F93D1
:10139000CF93082F10E0F801EC5EFC4F9081C62F30
:1013A000C9230C5E174F411104C0D8019C919C17B2
:1013B00071F1682F80919C0690919D06DC01ED9162
:1013C000FC916F7060690190F081E02D199580911A
:1013D0009C0690919D06DC01ED91FC916C2F6F773E
:1013E0000190F081E02D199580919C0690919D06C9
:1013F000DC01ED91FC916C2F70E0660F672F661F8A
:10140000770B0190F081E02D1995F801C083CF9101
:101410001F910F910895CF92DF92EF92FF920F9359
:101420001F93CF93DF931F92CDB7DEB7082F6B01C9
:10143000142F6F3F8FEF780709F181E080936604E6
:1014400000938804109267041092890487E295E063
:1014500029830E942F132981822F0E949B12E091E1
:101460005C03F0915D03E230F10550F0EE0FFF1FD9
:10147000EE0FFF1F35973197F1F702C0C12CD12C29
:10148000809165048111FCCF212F113208F020E2F8
:1014900081E080936504809364049FEF90936304DC
:1014A00010926204920F90936104809340048091A3
:1014B0004004902F990F892B8093400480913F0422
:1014C000813061F410923F04809140048093BB000E
:1014D0008091BC0083FDF8CF85EC01C085EE809340
:1014E000BC00809165048130E1F380916204821731
:1014F00010F420916204A1E4B4E041ED53E0FA015C
:101500008E2F841B821718F48D918193F9CF10923E
:10151000F2032093F103E12EF12C30E0E216F30602
:101520001CF486EB92E005C02E153F051CF483EDFC
:1015300092E0E9D700939103C0929203C12CD12C81
:10154000CE14DF0434F49091F1038091F2039813E8
:101550000FC062E0610F41E953E087E70F90DF9130
:10156000CF911F910F91FF90EF90DF90CF9096C792
:1015700087E295E0D7D3F601EF56FC4F82838FEFD9
:10158000C81AD80ADDCFA82FB0E0A253B84F9C915B
:10159000292F30E0F901EE0FFF1F2E0F3F1FF90139
:1015A000E45FF94FE081F0E09F01220F331FE20F6B
:1015B000F31FE558FA4F80818F7B80838091CC07A1
:1015C000981306C0992379F091509093CC070BC0E3
:1015D000882349F0E091CD07EF5FE093CD07F0E07D
:1015E000E05AFC4F90838FEF8C930895DB0190912C
:1015F000CC079033A8F53091CD07682F70E03323E6
:1016000069F0E32FF0E0E05AFC4F8081FB01E253E8
:10161000F84F808331503093CD0707C0FB01E25370
:10162000F84F90839F5F9093CC07FB01E253F84FF4
:10163000808190E09C01220F331F820F931F1A16A6
:101640001B0634F4141615061CF49A01AD0104C0EF
:1016500020E639E040E252E0845F994F0C94681430
:101660004FEE52E063E181E719C78F929F92AF92EC
:10167000BF92CF92DF92EF92FF920F931F93CF937F
:10168000DF931F92CDB7DEB7E82EF12C97012456D9
:10169000394F4901F901E55BFF4F90819F3709F40C
:1016A00039C1963041F490911D08992321F066309C
:1016B000710509F013C16B01182F0EEF080F0434E8
:1016C000F8F464307105E1F0F701E253F84F8081DE
:1016D0008033B0F490E0FC01EE0FFF1F8E0F9F1FD0
:1016E000FC01E45FF94F808190E0FC01EE0FFF1FE9
:1016F0008E0F9F1FFC01E558FA4F808186FDF4C0D4
:101700009AEC910F903160F461E070E082E0C816CD
:10171000D10411F060E070E0892F9983B9DB9981E1
:10172000043418F5A12FA695A695A695812F87704C
:10173000B0E0AC5EBC4FC114D10421F02BE0C21666
:10174000D10449F421E030E001C0220F8A95EAF784
:101750008C91282B09C021E030E001C0220F8A952E
:10176000EAF720958C9128232C935701AA0CBB1CD7
:10177000F501E35DF84F118210823CE0C316D104FD
:1017800008F09CC0F6018827EC57FF4F8F4F0C9450
:10179000C51C903108F0BEC0043418F460E0812FFD
:1017A0008DD3F401E55BFF4F80818F3709F4B2C020
:1017B00082E082C0043408F0ADC060E0812F7ED3A7
:1017C000F401E55BFF4F80818F3709F4A3C01082DD
:1017D000A1C0043408F09EC062E0812F6FD3F401F1
:1017E000E55BFF4F80818F3711F08BE08083F5013F
:1017F000E35DF84F81E090E0918380838BC00434F7
:1018000008F088C060E0812F2AD361E0812F56D391
:10181000F401E55BFF4F80818F3709F47BC081E0E5
:101820004BC00C3028F084ED810F833008F072C07B
:1018300061E0812F43D361E0812F40D360E0812FAD
:101840000ED3F401E55BFF4F80818F3709F462C04E
:1018500083E032C0043408F05DC0F401E55BFF4F63
:1018600080818F3711F084E08083F701E253F84FD5
:1018700080818F3FE1F190E0FC01EE0FFF1F8E0FA2
:101880009F1FFC01E45FF94F808190E0FC01EE0FA7
:10189000FF1F8E0F9F1FFC01E558FA4F808186FDC8
:1018A00039C025C014511230A8F5F401E55BFF4F93
:1018B00080818F3779F186E080832CC083E093E0CC
:1018C0000F90DF91CF911F910F91FF90EF90DF90DC
:1018D000CF90BF90AF909F908F9015C610921D082B
:1018E0009FEF90930002E7CE812F4DDE09CF4FEF9F
:1018F0005FEF6FEF7FEF812F0F90DF91CF911F91FF
:101900000F91FF90EF90DF90CF90BF90AF909F909E
:101910008F906CCE0F90DF91CF911F910F91FF9020
:10192000EF90DF90CF90BF90AF909F908F900895F1
:10193000DC0170E0FB01E852FE4FE4911896EC9355
:1019400018976E567E4FFB018491E82FF0E0EE0F62
:10195000FF1FE25AFE4F8591949115969C938E93AA
:101960001497FB016491E62FF0E0EE0FFF1FEC5B94
:10197000FE4F8591949117969C938E931697089598
:10198000FC01158216821782DC011896885B9F4F36
:101990001D92A817B907E1F71C92DF01A75BBF4FA3
:1019A0001D921C92E75DFE4F0190F081E02D309773
:1019B00009F019940895CF92DF92EF92FF920F935E
:1019C0001F93CF93DF936C017A018B01C0E0D0E0CD
:1019D000CE15DF0589F0D8016D918D01D601ED910D
:1019E000FC910190F081E02DC6011995892B11F42D
:1019F0007E0102C02196ECCFC701DF91CF911F91EC
:101A00000F91FF90EF90DF90CF900895FC01918DA2
:101A1000828D981761F0828DDF01A80FB11D5D9650
:101A20008C91928D9F5F9F73928F90E008958FEFBE
:101A30009FEF0895FC01918D828D981731F0828D72
:101A4000E80FF11D858D90E008958FEF9FEF0895C9
:101A5000FC01918D228D892F90E0805C9F4F821B2D
:101A600091098F73992708958AE894E0F1DF21E0C6
:101A7000892B09F420E0822F0895FC01848DDF0179
:101A8000A80FB11DA35ABF4F2C91848D90E00196F1
:101A90008F739927848FA689B7892C93A089B189E0
:101AA0008C9180648C93938D848D981306C00288EA
:101AB000F389E02D80818F7D80830895EF92FF92DE
:101AC0000F931F93CF93DF93EC0181E0888F9B8D61
:101AD0008C8D981305C0E889F989808185FD23C024
:101AE000F62E0B8D10E00F5F1F4F0F731127E02EA6
:101AF0008C8DE8120BC00FB607FCFACFE889F98984
:101B0000808185FFF5CFCE01B8DFF2CF8B8DFE014E
:101B1000E80FF11DE35AFF4FF0820B8FEA89FB8932
:101B20008081806207C0EE89FF896083E889F98936
:101B300080818064808381E090E0DF91CF911F916C
:101B40000F91FF90EF900895CF93DF93EC01888D74
:101B50008823C1F0EA89FB89808185FD05C0A889B9
:101B6000B9898C9186FD0EC00FB607FCF5CF808138
:101B700085FFF2CFA889B9898C9185FFEDCFCE0181
:101B80007CDFE8CFDF91CF91089580E090E0892B52
:101B900019F06ADF811125C080E090E0892B41F0C7
:101BA00080E090E0892B21F00E94000081111CC090
:101BB00080E090E0892B41F080E090E0892B21F0DB
:101BC0000E940000811113C080E090E0892BA1F0F9
:101BD00080E090E0892B81F00E94000081110AC012
:101BE00008950E940000D8CF0E940000E1CF0E941B
:101BF0000000EACF0C940000089590E0FC013197BA
:101C0000E231F10508F04EC08827E057FF4F8F4FB3
:101C10000C94C51C809180008F7703C08091800058
:101C20008F7D80938000089580918000877FF9CF19
:101C300084B58F7702C084B58F7D84BD089580916F
:101C4000B0008F7703C08091B0008F7D8093B0008B
:101C50000895809190008F7707C0809190008F7DCC
:101C600003C080919000877F8093900008958091B9
:101C7000A0008F7707C08091A0008F7D03C0809166
:101C8000A000877F8093A0000895809120018F7726
:101C900007C0809120018F7D03C080912001877F44
:101CA0008093200108953FB7F89480913B04909170
:101CB0003C04A0913D04B0913E0426B5A89B05C00C
:101CC0002F3F19F00196A11DB11D3FBFBA2FA92FBB
:101CD000982F8827820F911DA11DB11DBC01CD0138
:101CE00042E0660F771F881F991F4A95D1F7089524
:101CF00085ED8093BC008091BC0084FDFCCF1092E8
:101D0000650408950895E091F2038091F103E817C6
:101D100030F4F0E0EF52FC4F808190E008958FEFB7
:101D20009FEF08959091F2038091F103981750F47A
:101D3000E92FF0E0EF52FC4F208130E09F5F90935D
:101D4000F20302C02FEF3FEFC90108950E94FA1D70
:101D50001F920F920FB60F9211240BB60F922F9372
:101D60003F934F935F936F937F938F939F93AF9323
:101D7000BF93EF93FF938AE894E07FDEFF91EF91AA
:101D8000BF91AF919F918F917F916F915F914F9193
:101D90003F912F910F900BBE0F900FBE0F901F9091
:101DA00018951F920F920FB60F9211240BB60F9237
:101DB0002F938F939F93EF93FF93E0919A04F09169
:101DC0009B048081E091A004F091A10482FD12C0E7
:101DD00090818091A3048F5F8F732091A404821758
:101DE00051F0E091A304F0E0E657FB4F958F80930C
:101DF000A30401C08081FF91EF919F918F912F915A
:101E00000F900BBE0F900FBE0F901F901895CF93A1
:101E1000DF93282F30E0F901E25EFD4F8491F90154
:101E2000E852FE4FD491F901EE56FE4FC491CC23F7
:101E300089F08111E2DEEC2FF0E0EE0FFF1FE85891
:101E4000FE4FA591B491EC91ED2381E090E021F457
:101E500080E002C080E090E0DF91CF9108951F9371
:101E6000CF93DF93282F30E0F901E25EFD4F84919C
:101E7000F901E852FE4FD491F901EE56FE4FC4919C
:101E8000CC23C1F0162F8111B8DEEC2FF0E0EE0F5D
:101E9000FF1FE25AFE4FA591B4918FB7F89411112C
:101EA00005C09C91ED2FE095E92302C0EC91ED2B4C
:101EB000EC938FBFDF91CF911F910895CF93DF9364
:101EC00090E0FC01E852FE4F2491FC01EE56FE4FDB
:101ED0008491882361F190E0880F991FFC01EC5BED
:101EE000FE4FC591D491FC01E25AFE4FA591B491E9
:101EF000611109C09FB7F894888120958223888357
:101F0000EC912E230BC0623061F49FB7F8943881B6
:101F1000822F809583238883EC912E2B2C939FBF57
:101F200006C08FB7F894E8812E2B28838FBFDF91EE
:101F3000CF910895863308F0865390917B00282F27
:101F40002870977F922B90937B008770806480939A
:101F50007C0080917A00806480937A0080917A007E
:101F600086FDFCCF809178002091790090E0922B43
:101F700008958F929F92AF92BF92CF92DF92EF928D
:101F8000FF926B017C018FDE4B015C01C114D10417
:101F9000E104F104E9F087DEDC01CB01881999093D
:101FA000AA09BB09883E9340A105B10578F321E059
:101FB000C21AD108E108F10888EE880E83E0981E65
:101FC000A11CB11CC114D104E104F10421F7DECF3E
:101FD000FF90EF90DF90CF90BF90AF909F908F9049
:101FE00008951F920F920FB60F9211242F933F93D3
:101FF0008F939F93AF93BF93809126039091270374
:10200000A0912803B091290330913A0423E0230FD3
:102010002D3720F40196A11DB11D05C026E8230F20
:102020000296A11DB11D20933A048093260390933C
:102030002703A0932803B093290380913B04909138
:102040003C04A0913D04B0913E040196A11DB11D38
:1020500080933B0490933C04A0933D04B0933E04D2
:10206000BF91AF919F918F913F912F910F900FBE94
:102070000F901F9018951F920F920FB60F92112478
:102080000BB60F922F933F934F935F936F937F9372
:102090008F939F93AF93BF93EF93FF938091B9007A
:1020A000887F803609F49CC068F5883209F45BC0EB
:1020B00090F4803109F454C038F4882309F4F6C050
:1020C000883009F44DC0F5C0883109F44CC0803225
:1020D00009F45DC0EEC0803409F468C048F4803370
:1020E00009F455C0883309F0E4C080936304D8C074
:1020F000803509F44FC0883509F45DC0883409F093
:10210000D8C0D6C0883909F4C7C0A8F4883709F404
:1021100067C038F4883609F463C0803709F460C0BA
:10212000C8C0883809F4B8C0803909F45FC0803865
:1021300009F0BFC05BC0803B09F486C038F4803A28
:1021400009F466C0883A09F47FC0B3C0803C09F442
:10215000A7C0883C09F4A4C0883B09F48AC0A9C080
:102160008091400410C0909162048091610498179E
:1021700070F5E091620481E08E0F80936204F0E0DC
:10218000EF5BFB4F80818093BB0085EC86C0809322
:1021900063048EC0E091620481E08E0F809362043C
:1021A0008091BB00F0E0EF5BFB4F80839091620475
:1021B000809161046EC0E091620481E08E0F809393
:1021C00062048091BB00F0E0EF5BFB4F8083809165
:1021D000640481116DC081E080933F0484EA61C092
:1021E00083E08093650410923904CFCF8091390445
:1021F000803208F051C0E091390481E08E0F809365
:1022000039048091BB00F0E0E75EFB4F8083BDCFD7
:1022100085EC8093BC001092650480913904803273
:1022200030F4E0913904F0E0E75EFB4F10826091FA
:10223000390470E0E0911704F091180489E194E00A
:1022400019951092390435C084E08093650410928A
:10225000160410921504E0911304F09114041995DA
:1022600080911504811105C081E0809315041092BE
:10227000F303E091160481E08E0F80931604F0E0E2
:10228000ED50FC4F80818093BB00909116048091AB
:102290001504981708F479CF85E88093BC0009C02D
:1022A00085EC8093BC001092650403C01092630417
:1022B0001FDDFF91EF91BF91AF919F918F917F9122
:1022C0006F915F914F913F912F910F900BBE0F90A7
:1022D0000FBE0F901F90189540911504262F30E0E7
:1022E000240F311D21323105DCF4209165042430A6
:1022F000C9F4FC0180E090E0861758F43091150491
:102300002191DC01AD50BC4FA30FB11D2C93019660
:10231000F3CF80911504680F6093150480E0089551
:1023200081E0089582E0089580919C0690919D0639
:10233000DC01ED91FC910190F081E02D60EF1994AA
:102340000F931F93CF93DF93EC010CE916E0D801B4
:102350008D919C91DC01ED91FC916C2F6F77019038
:10236000F081E02D1995F80180819181DC01ED91DA
:10237000FC91CC0FCD2FCC1FDD0B6C2F6F77019014
:10238000F081E02DDF91CF911F910F9119948091F1
:102390009C0690919D06DC01ED91FC910190F081ED
:1023A000E02D67EF1994CF93BFDF80919C06909149
:1023B0009D06DC01ED91FC910190F081E02D69E733
:1023C000199580919C0690919D06DC01ED91FC9100
:1023D000A0919F06B091A0060190F081E02D6C9134
:1023E000199580919C0690919D06DC01ED91FC91E0
:1023F000A0919F06B091A0060190F081E02D11966A
:102400006C911995C2E080919E06C81758F4E0912E
:102410009F06F091A006EC0FF11D808190E090DF07
:10242000CF5FF1CFCF91B3CFCF93DF93CCE9D6E09D
:1024300088819981DC01ED91FC910190F081E02D82
:1024400069EF199588819981DC01ED91FC910190EA
:10245000F081E02D62E0199588819981DC01ED9190
:10246000FC910190F081E02D65E0DF91CF9119940E
:10247000CF93DF93EB01A0919C06B0919D06ED9167
:10248000FC9111978F70682F606E0190F081E02DA4
:10249000CD011995CE01DF91CF9152CFEF92FF92EE
:1024A0000F931F93CF93DF9300D0CDB7DEB7162FD6
:1024B0004A835B83898338DFA0919C06B0919D0697
:1024C000ED91FC9111970190F081E02D8981682FA9
:1024D000CD0119954A81042FE42E5B81F52E8E2DB6
:1024E000801B811730F4F70181917F0190E028DF94
:1024F000F6CF0F900F900F90DF91CF911F910F911A
:10250000FF90EF9044CFFC0101900020E9F7319754
:10251000BF01681B790BAC0181E7C0CFA0919C067D
:10252000B0919D06ED91FC9111970190F081E02D05
:10253000682FCD011994382F209189049091880437
:10254000213208F049C0809165048111FCCF42E03E
:1025500040936504309364043FEF3093630410921A
:10256000620420936104A8E6B4E041E454E0FA0177
:102570003E2F341B321718F43D913193F9CF10924E
:10258000400420914004990F922B90934004909125
:102590003F04913061F410923F0490914004909375
:1025A000BB009091BC0093FDF8CF95EC01C095EE77
:1025B0009093BC00909165049230E1F39091630494
:1025C0009F3F79F080916304803241F080916304F1
:1025D000803331F084E005C081E003C082E001C0B7
:1025E00083E01092670410928904109266040895A3
:1025F0008091F10390E02091F203821B91090895EC
:10260000CF92DF92EF92FF920F931F93CF93DF93BE
:102610007C01262F972F8A0180916604882391F0F0
:10262000C62FD72F6E01C40ED51ECC15DD0569F05F
:102630006991D701ED91FC910190F081E02DC701E6
:102640001995F3CF642F822F47DEC801DF91CF9118
:102650001F910F91FF90EF90DF90CF900895CF934F
:10266000DF931F92CDB7DEB76983209166042223E2
:10267000D1F020918904203240F021E030E0FC01CB
:102680003383228380E090E014C080916704E82FB8
:10269000F0E0E859FB4F998190838F5F8093670446
:1026A0008093890404C061E0CE01019615DE81E0CB
:1026B00090E00F90DF91CF910895CF92DF92EF924B
:1026C000FF920F931F93CF93DF936C018B017A01DD
:1026D000EC01C15CD74F888187FF04C0FB011182E8
:1026E000108224C08CE08C9D90018D9D300D1124B2
:1026F0008881A901480F511D87FD5A9580910B06CD
:1027000090E04817590794F48881A901480F511D9A
:1027100087FD5A95CA01FA01EE0FFF1F8E0F9F1F0A
:10272000FC01E558FA4F808186FD19C088818F5FD2
:1027300088838CE08C9D90018D9D300D11248881C3
:10274000A901480F511D87FD5A9580910B0690E015
:1027500048175907B4F488818C303CF112C0888145
:10276000280F311D87FD3A95F901EE0FFF1F2E0F3F
:102770003F1FF901E558FA4F808160E08F736FDBEE
:10278000D5CFF80180819181049680349C4918F45A
:1027900080E49CE904C0F801808191810496F701EE
:1027A000918380838FEF888344C0F80140815181F9
:1027B0008881B901680F711D87FD7A95CB01FB01F6
:1027C000EE0FFF1F8E0F9F1FFC01E558FA4F81810E
:1027D0009281840F951FF701918380838881A901DD
:1027E000480F511D87FD5A95CA01FA01EE0FFF1FD0
:1027F0008E0F9F1FFC01E558FA4F808186FF19C09C
:102800008881280F311D87FD3A95F901EE0FFF1FD2
:102810002E0F3F1FF901E558FA4F808161E08F7359
:10282000DF91CF911F910F91FF90EF90DF90CF90AC
:1028300016CBDF91CF911F910F91FF90EF90DF901A
:10284000CF9008950F931F93CF93DF9381E08093F0
:102850001E0880911D08882329F010921D088FEF13
:1028600080930002C4E1D3E0A4E1B8E0EDE1F3E03D
:1028700089E08E0F119219921D928E13FBCF0EECF0
:1028800017E0C0E0DFEF8AEC8C0F803118F462E0D3
:1028900070E006C08EEF8C0F843428F461E070E0A5
:1028A0008C2F0E94350BF801D1938F01CF5FC63476
:1028B00051F710925303109252031092CD071092C9
:1028C000CC0710921E08DF91CF911F910F910895B0
:1028D000DF92EF92FF920F931F93CF93DF93EC0160
:1028E000D62E7A0189018881803308F069C061E0C1
:1028F0008D2DE4DA8881E82FF0E09F01220F331F4D
:10290000E20FF31FE558FA4F9D2D9F732081207C25
:10291000D22ED92AD08260E272E0AB014E195F0953
:1029200057FF02C04D5F5F4F5595479555954795A9
:10293000498340E659E09A01201B310B37FF02C062
:102940002D5F3F4F35952795359527952A836CE068
:102950000E94B91C9CE0899FB001112440E050E026
:102960009A01260F371FF901EE0FFF1F2E0F3F1F91
:10297000F901E558FA4F908196FD16C04F5F5F4F01
:102980004C30510569F7813021F51092800082E0CA
:10299000809381001092850010928400B19A8091FA
:1029A0006F00826080936F00E881F0E0CF01880FB4
:1029B000991FE80FF91FE558FA4F808180648083E2
:1029C0008881DF91CF911F910F91FF90EF90DF9061
:1029D0000895823061F410929000809391001092DB
:1029E00095001092940088BB80937100DDCF8330F6
:1029F00069F41092A00082E08093A1001092A500DB
:102A00001092A40089BB80937200CECF8111CCCFED
:102A10001092200182E080932101109225011092F2
:102A200024018ABB80937300BFCF1F920F920FB611
:102A30000F9211240BB60F922F933F934F935F93F6
:102A40006F937F938F939F93AF93BF93EF93FF9376
:102A500048E251E064E271E080E090E02EDEFF9118
:102A6000EF91BF91AF919F918F917F916F915F9106
:102A70004F913F912F910F900BBE0F900FBE0F9073
:102A80001F9018951F920F920FB60F9211240BB63C
:102A90000F922F933F934F935F936F937F938F93F7
:102AA0009F93AF93BF93EF93FF9348EA50E064EA9C
:102AB00070E083E090E001DEFF91EF91BF91AF9174
:102AC0009F918F917F916F915F914F913F912F9146
:102AD0000F900BBE0F900FBE0F901F9018951F9276
:102AE0000F920FB60F9211240BB60F922F933F93B4
:102AF0004F935F936F937F938F939F93AF93BF9306
:102B0000EF93FF9348E950E064E970E082E090E0E1
:102B1000D4DDFF91EF91BF91AF919F918F917F9104
:102B20006F915F914F913F912F910F900BBE0F903E
:102B30000FBE0F901F9018951F920F920FB60F9215
:102B400011240BB60F922F933F934F935F936F9384
:102B50007F938F939F93AF93BF93EF93FF9348E837
:102B600050E064E870E081E090E0A7DDFF91EF9134
:102B7000BF91AF919F918F917F916F915F914F9195
:102B80003F912F910F900BBE0F900FBE0F901F9093
:102B900018959C01220F331F820F931F20913C0830
:102BA000E0913D08F0913E08E80FF91FE20FF11D9A
:102BB000608320913B08E0913D08F0913E08E80FCA
:102BC000F91FE20FF11D508320913A08E0913D0872
:102BD000F0913E088E0F9F1FFC01E20FF11D408314
:102BE00080E0089510923908109238081092370842
:102BF000E7E2F8E0AFE1B8E0119211921D9288E0AF
:102C0000E733F807C9F70895789484B5826084BDE6
:102C100084B5816084BD85B5826085BD85B58160E0
:102C200085BD80916E00816080936E00109281005E
:102C30008091810082608093810080918100816019
:102C400080938100809180008160809380008091DA
:102C5000B10084608093B1008091B0008160809366
:102C6000B0008091910082608093910080919100EA
:102C700081608093910080919000816080939000AA
:102C80008091A10082608093A1008091A100816069
:102C90008093A1008091A00081608093A00080912A
:102CA00021018260809321018091210181608093C4
:102CB00021018091200181608093200180917A0020
:102CC000846080937A0080917A00826080937A0099
:102CD00080917A00816080937A0080917A00806888
:102CE00080937A001092C10088E180939E068091C3
:102CF0009F069091A006E6D6C0919E06D0E0CE0138
:102D000001964BD69093A00680939F06FC01EC0F92
:102D1000FD1F108212E0DC011C9325E011962C931C
:102D2000AE01425051096EE672E0029688D786E302
:102D300098E09093BA078093B9078DE797E0909356
:102D4000BC078093BB0788E497E09093BE0780930D
:102D5000BD0789EC96E09093C0078093BF0785E399
:102D60009BE09093C2078093C10782E298E0909322
:102D7000C4078093C30786E691E09093CA078093C7
:102D8000C90782E294E19093C6078093C507E0915A
:102D90009A04F0919B041083E0919A04F0919B04B3
:102DA0001082E0919604F09197041082E0919804CB
:102DB000F091990480E180831092A204E0919E0436
:102DC000F0919F0486E08083E0919C04F0919D0443
:102DD000808180618083E0919C04F0919D048081DA
:102DE00088608083E0919C04F0919D0480818068DC
:102DF0008083E0919C04F0919D0480818F7D80838D
:102E00008AE894E090939D0680939C068091CB077E
:102E1000811143C061E08DE051D862ED70E080E047
:102E200090E0A7D861E08DE01AD868E270E080E019
:102E300090E09FD860E08DE012D862ED70E080E015
:102E400090E097D861E08DE00AD868E270E080E019
:102E500090E08FD860E08DE002D86AEF70E080E00B
:102E600090E087D8C0E062ED70E080E090E081D82B
:102E700061E08DE00E942F0F68E270E080E090E05A
:102E800078D860E08DE00E942F0FCF5FC53059F7F2
:102E90006DE770E080E090E06CD8C6DA80919E0625
:102EA000811181DACFDC9EDE15E0BB24B39402E011
:102EB00080911D038823C1F1F0901403F2FE45C4F4
:102EC00082E00E94070F892B09F43FC4C4E0F3FE9F
:102ED00006C083E00E94070F892B09F038C4F4FE76
:102EE00006C084E00E94070F892B09F032C4F5FE6A
:102EF00006C085E00E94070F892B09F02CC4F6FE5E
:102F000006C086E00E94070F892B09F026C4F7FE51
:102F100006C087E00E94070F892B09F020C440E01B
:102F20006C2F80E00E94C60980911E03882309F45B
:102F300048C0F0901503F0FE14C488E00E94070F0B
:102F4000892B09F40EC4C1E0F1FE06C089E00E949D
:102F5000070F892B09F007C4F2FE06C08AE00E9421
:102F6000070F892B09F001C4F3FE06C08BE00E9415
:102F7000070F892B09F0FBC3F4FE06C08CE00E940A
:102F8000070F892B09F0F5C3F5FE06C08DE00E94FE
:102F9000070F892B09F0EFC3F6FE06C08EE00E94F2
:102FA000070F892B09F0E9C3F7FE06C08FE00E94E6
:102FB000070F892B09F0E3C340E06C2F81E00E94EA
:102FC000C60980911F03882309F448C0F0901603B6
:102FD000F0FED7C380E10E94070F892B09F4D1C30B
:102FE000C1E0F1FE06C081E10E94070F892B09F0C4
:102FF000CAC3F2FE06C082E10E94070F892B09F0C6
:10300000C4C3F3FE06C083E10E94070F892B09F0B9
:10301000BEC3F4FE06C084E10E94070F892B09F0AD
:10302000B8C3F5FE06C085E10E94070F892B09F0A1
:10303000B2C3F6FE06C086E10E94070F892B09F095
:10304000ACC3F7FE06C087E10E94070F892B09F089
:10305000A6C340E06C2F82E00E94C6098091200345
:10306000882309F448C0F0901703F0FE9AC388E162
:103070000E94070F892B09F494C3C1E0F1FE06C03A
:1030800089E10E94070F892B09F08DC3F2FE06C06B
:103090008AE10E94070F892B09F087C3F3FE06C05F
:1030A0008BE10E94070F892B09F081C3F4FE06C053
:1030B0008CE10E94070F892B09F07BC3F5FE06C047
:1030C0008DE10E94070F892B09F075C3F6FE06C03B
:1030D0008EE10E94070F892B09F06FC3F7FE06C02F
:1030E0008FE10E94070F892B09F069C340E06C2F24
:1030F00083E00E94C60980912103882309F448C017
:10310000F0901803F0FE5DC380E20E94070F892B48
:1031100009F457C3C1E0F1FE06C081E20E94070F27
:10312000892B09F050C3F2FE06C082E20E94070F0D
:10313000892B09F04AC3F3FE06C083E20E94070F01
:10314000892B09F044C3F4FE06C084E20E94070FF5
:10315000892B09F03EC3F5FE06C085E20E94070FE9
:10316000892B09F038C3F6FE06C086E20E94070FDD
:10317000892B09F032C3F7FE06C087E20E94070FD1
:10318000892B09F02CC340E06C2F84E00E94C60913
:1031900080912203882309F448C0F0901903F0FEBF
:1031A00020C388E20E94070F892B09F41AC3C1E0EB
:1031B000F1FE06C089E20E94070F892B09F013C3B4
:1031C000F2FE06C08AE20E94070F892B09F00DC3A8
:1031D000F3FE06C08BE20E94070F892B09F007C39C
:1031E000F4FE06C08CE20E94070F892B09F001C390
:1031F000F5FE06C08DE20E94070F892B09F0FBC285
:10320000F6FE06C08EE20E94070F892B09F0F5C278
:10321000F7FE06C08FE20E94070F892B09F0EFC26C
:1032200040E06C2F85E00E94C6098091230388232B
:1032300009F448C0F0901A03F0FEE3C280E30E9454
:10324000070F892B09F4DDC2C1E0F1FE06C081E35E
:103250000E94070F892B09F0D6C2F2FE06C082E356
:103260000E94070F892B09F0D0C2F3FE06C083E34A
:103270000E94070F892B09F0CAC2F4FE06C084E33E
:103280000E94070F892B09F0C4C2F5FE06C085E332
:103290000E94070F892B09F0BEC2F6FE06C086E326
:1032A0000E94070F892B09F0B8C2F7FE06C087E31A
:1032B0000E94070F892B09F0B2C240E06C2F86E014
:1032C0000E94C60980912403882309F448C0F09025
:1032D0001B03F0FEA6C288E30E94070F892B09F4A6
:1032E000A0C2C1E0F1FE06C089E30E94070F892B4E
:1032F00009F099C2F2FE06C08AE30E94070F892BEB
:1033000009F093C2F3FE06C08BE30E94070F892BDE
:1033100009F08DC2F4FE06C08CE30E94070F892BD2
:1033200009F087C2F5FE06C08DE30E94070F892BC6
:1033300009F081C2F6FE06C08EE30E94070F892BBA
:1033400009F07BC2F7FE06C08FE30E94070F892BAE
:1033500009F075C240E06C2F87E00E94C609809199
:103360002503882309F448C0F0901C03F0FE69C2CD
:1033700080E40E94070F892B09F463C2C1E0F1FECB
:1033800006C081E40E94070F892B09F05CC2F2FE9F
:1033900006C082E40E94070F892B09F056C2F3FE93
:1033A00006C083E40E94070F892B09F050C2F4FE87
:1033B00006C084E40E94070F892B09F04AC2F5FE7B
:1033C00006C085E40E94070F892B09F044C240E043
:1033D0006C2F88E00E94C6090FC080919C069091D6
:1033E0009D06EC01E881F9810680F781E02D1995B1
:1033F0008F3FDFEF9D0771F480919C0690919D06B1
:10340000DC01ED91FC910480F581E02D1995892B6B
:1034100021F71EC1382F2091E406222309F467C04A
:10342000873F09F055C01092E4068091A4068137C9
:1034300051F0893709F03EC080919E068823E1F261
:103440000E94D311D9CFE091C707F091C8073097F8
:1034500099F22091E5063091E606C901019797FDA2
:10346000C90195958795F82EA4EAB6E040E050E0B2
:1034700030E04E5F5F4F3F1570F4BA016456794FEC
:10348000EB012F812C936885D0E86D9F20191124C2
:103490002D933F5FEECF9927DC01A456B94F1796C5
:1034A0008C911797882311F018961C9284EA96E065
:1034B0001995A2CFE091C907F091CA07309709F496
:1034C0009BCF6091E506615045EA56E0199594CF8F
:1034D0002091E5063091E606F901E456F94F808720
:1034E0002F5F3F4F3093E6062093E50685CF20916E
:1034F000A106222309F469C087FD67C09FEF920FE0
:103500009093A106E92FF0E0E456F94F80879111DE
:1035100073CF8091A206882309F46ECF803D09F411
:1035200045C050F4803901F1803C09F04BC0E09176
:10353000BD07F091BE073EC0843F39F1853F51F190
:10354000803E09F03FC0E091B907F091BA0730978B
:10355000C9F18091A4066091A50670E020E8829FE1
:10356000600D711D11242BC0E091BB07F091BC07C9
:10357000309741F18091A4066091A50670E090E833
:10358000899F600D711D11241AC0E091C107F0914F
:10359000C20704C0E091C307F091C407309791F0CF
:1035A0006091A40670E08091A5060BC0E091BF0772
:1035B000F091C007309731F06091A40670E08091DF
:1035C000A30619951092A20617CF303F38F4282F82
:1035D000207F30E08F708093A30602C09C013327C8
:1035E000203F310559F17CF4203C310511F124F4E0
:1035F00020393105D9F000CF203D3105D1F0203EF2
:103600003105A1F0F9CE293F3105F9F034F4C901B3
:10361000845F9109029750F0EFCE2F3F310509F0FA
:10362000EBCE8CE996E00E94C00CE6CE0093A1069A
:1036300002C0B092A1062093A206DECEB092E406AC
:103640001092E6061092E506D7CE0E941412D4CE50
:103650008FB7F894C0902603D0902703E0902803FA
:10366000F09029038FBFC0925803D0925903E09283
:103670005A03F0925B038091540390915503A091FB
:103680005603B0915703409101025091020260E04D
:1036900070E0C81AD90AEA0AFB0A4C155D056E05E6
:1036A0007F0508F04FC0840F951FA61FB71F80939A
:1036B000540390935503A0935603B093570387EE9A
:1036C000E82E86E0F82ECAECC031B8F4F70180810C
:1036D000823099F480915203909153030C2E02C0D2
:1036E000959587950A94E2F780FF07C08C2F0E947A
:1036F0009A0FBC018C2F0E943812CF5FFFEFEF1A98
:10370000FF0AC03109F78091000287FD1BC0C0E0AD
:103710002C2F30E080910002082E000C990B8217AC
:10372000930784F0129FF001139FF00D1124E65DC2
:10373000FC4F618172812481438180810E940B0A48
:10374000CF5FE6CF0E94C50DB3CBC0E0C0CBC86051
:10375000C6CBC061CCCBC062D2CBC064D8CBC06872
:10376000DECBC0E0F1CBC260F7CBC460FDCBC8605C
:1037700003CCC06109CCC0620FCCC06415CCC0685A
:103780001BCCC0E02ECCC26034CCC4603ACCC86044
:1037900040CCC06146CCC0624CCCC06452CCC06846
:1037A00058CCC0E06BCCC26071CCC46077CCC86030
:1037B0007DCCC06183CCC06289CCC0648FCCC06832
:1037C00095CCC0E0A8CCC260AECCC460B4CCC8601C
:1037D000BACCC061C0CCC062C6CCC064CCCCC0681E
:1037E000D2CCC0E0E5CCC260EBCCC460F1CCC86008
:1037F000F7CCC061FDCCC06203CDC06409CDC06808
:103800000FCDC0E022CDC26028CDC4602ECDC860EF
:1038100034CDC0613ACDC06240CDC06446CDC068F1
:103820004CCDC0E05FCDC26065CDC4606BCDC860DB
:1038300071CDC06177CDC0627DCDC06483CDC068DD
:1038400089CDC0E09CCDC260A2CDC460A8CDC860C7
:10385000AECDC061B4CDC062BACD10928D041092CD
:103860008C0488EE93E0A0E0B0E080938E04909307
:103870008F04A0939004B093910421E132E030933F
:103880008B0420938A0425EC30E030939704209336
:10389000960424EC30E0309399042093980420ECB3
:1038A00030E030939B0420939A0421EC30E0309375
:1038B0009D0420939C0422EC30E030939F042093DD
:1038C0009E0426EC30E03093A1042093A0041092D3
:1038D000A3041092A4041092A5041092A6041092BE
:1038E0002A051092290580932B0590932C05A0930F
:1038F0002D05B0932E0581E292E0909328058093E8
:103900002705E3E3F5E011821082138212823996D3
:1039100025E0EB37F207B9F780910B06ACE0B6E093
:103920009FEF48EB5BE0803378F48C93282F30E0F6
:10393000F901EE0FFF1F2E0F3F1FF901E558FA4F57
:10394000528341838F5F01C09C93139626E0AC396C
:10395000B20749F780930B061092CB0710929E0690
:103960001092A00610929F068CE996E00C94C00C71
:103970000895991B79E004C0991F961708F0961BCB
:10398000881F7A95C9F780950895EE0FFF1F881F4D
:103990008BBF0790F691E02D1994CF93DF9382307F
:1039A000910510F482E090E0E0914508F09146081E
:1039B00020E030E0C0E0D0E0309711F1408151814B
:1039C00048175907C0F04817590761F4828193815D
:1039D000209719F09B838A832BC09093460880938D
:1039E000450826C02115310519F04217530718F470
:1039F0009A01BE01DF01EF010280F381E02DDCCFEF
:103A00002115310509F1281B390B2430310590F4BB
:103A100012968D919C9113976115710521F0FB0110
:103A20009383828304C09093460880934508FD01E8
:103A3000329644C0FD01E20FF31F8193919322500F
:103A400031092D933C933AC02091430830914408AA
:103A5000232B41F420910502309106023093440853
:103A6000209343082091030230910402211531056F
:103A700041F42DB73EB74091070250910802241B34
:103A8000350BE0914308F0914408E217F307A0F4E6
:103A90002E1B3F0B2817390778F0AC014E5F5F4FA4
:103AA0002417350748F04E0F5F1F5093440840938A
:103AB00043088193919302C0E0E0F0E0CF01DF91F1
:103AC000CF9108950F931F93CF93DF93009709F43D
:103AD0008CC0FC013297138212820091450810912C
:103AE00046080115110581F420813181820F931F51
:103AF00020914308309144082817390779F5F0934D
:103B00004408E093430871C0D80140E050E0AE178C
:103B1000BF0750F412962D913C911397AD012115DA
:103B2000310509F1D901F3CF9D01DA0133832283F5
:103B300060817181860F971F8217930769F4EC01EA
:103B400028813981260F371F2E5F3F4F3183208315
:103B50008A819B8193838283452B29F4F0934608C5
:103B6000E093450842C01396FC93EE931297ED0143
:103B7000499159919E01240F351FE217F30771F403
:103B800080819181840F951F029611969C938E934C
:103B90008281938113969C938E931297E0E0F0E0DC
:103BA000D80112968D919C911397009719F0F80106
:103BB0008C01F6CF8D919C9198012E5F3F4F820F23
:103BC000931F20914308309144082817390769F45E
:103BD000309729F4109246081092450802C01382CB
:103BE00012821093440800934308DF91CF911F91F4
:103BF0000F91089581E090E0F8948DC0FB01DC0105
:103C000002C001900D9241505040D8F708956817B6
:103C1000790768F4FB01DC01E40FF51FA40FB51F61
:103C200002C002900E9241505040D8F70895E6CF5E
:103C3000DC0101C06D9341505040E0F70895FB0155
:103C4000DC014150504048F001900D920020C9F72E
:103C500001C01D9241505040E0F70895052E97FB9A
:103C600016F400940FD057FD05D024D007FC02D0E5
:103C700046F408C050954095309521953F4F4F4FE1
:103C80005F4F089590958095709561957F4F8F4F08
:103C90009F4F089531D0A59F900DB49F900DA49F84
:103CA000800D911D11240895B7FFF4CFF3DF821B1F
:103CB000930B0895A1E21A2EAA1BBB1BFD010DC098
:103CC000AA1FBB1FEE1FFF1FA217B307E407F507CC
:103CD00020F0A21BB30BE40BF50B661F771F881FA8
:103CE000991F1A9469F760957095809590959B013E
:103CF000AC01BD01CF010895A29FB001B39FC001E7
:103D0000A39F700D811D1124911DB29F700D811D07
:103D10001124911D089511E0C3E3D1E000E005C036
:103D2000802FFE0132DE2196011DC433D10780E0D1
:083D30000807B1F7F894FFCF7A
:103D3800FF13000000470880000100000000000099
:103D4800005E0DDB0C280D060D1A0DA40D000000F9
:103D5800002F130013F812920E830E820E2F557344
:103D68006572732F616A6669736865722F64657618
:103D78002F6E6F64652D706978656C2F6669726D3A
:103D8800776172652F6275696C642F6E6F64655F09
:103D9800706978656C5F6669726D6174612F6E6FAA
:103DA80064655F706978656C5F6669726D6174617E
:103DB8002E696E6F0031302D6269742061646472FF
:103DC800657373696E67206E6F7420737570706F9A
:103DD8007274656400746F6F206D616E79207175FF
:103DE8006572696573004932433A20546F6F206DDC
:103DF800616E79206279746573207265636569768E
:103E08006564004932433A20546F6F206665772015
:103E18006279746573207265636569766564004DBF
:103E2800617820736572766F73206174746163685A
:103E3800656400556E6B6E6F776E2070696E206DCD
:043E48006F6465003E
:00000001FF
