:100000000C945D000C9485000C9485000C94850084
:100010000C9485000C9485000C9485000C9485004C
:100020000C9485000C9485000C9485000C94D614D7
:100030000C9485000C9485000C9485000C9485002C
:100040000C946D130C9485000C943B130C941513B5
:100050000C9485000C9485000C9485000C9485000C
:100060000C94B7130C9485000000000024002700B6
:100070002A0000000000250028002B0004040404CE
:100080000404040402020202020203030303030342
:10009000010204081020408001020408102001021F
:1000A00004081020000000080002010000030407FB
:1000B0000000000000000000921511241FBECFEFC9
:1000C000D8E0DEBFCDBF12E0A0E0B1E0E6EAF8E3A1
:1000D00002C005900D92A431B107D9F725E0A4E143
:1000E000B2E001C01D92A63AB207E1F710E0CDE5FB
:1000F000D0E004C02197FE010E94F51ACC35D1074B
:10010000C9F70E94B3160C94511C0C940000862F62
:10011000E0911A03F0911B03309711F0BA01099492
:100120000895862FE0911803F0911903309711F08C
:10013000BA0109940895862FE0911603F0911703F0
:10014000309711F0BA0109940895862FE0911403B5
:10015000F0911503309711F0BA0109940895862F94
:10016000E0911203F0911303309711F0BA01099452
:100170000895862FE0911003F0911103309711F04C
:10018000BA01099408950895862F642FE0911C0305
:10019000F0911D03309711F0A90109940895E091A1
:1001A0001E03F0911F03309709F009940895CF932F
:1001B000DF93FC01A081B181109701F1EC01ED9179
:1001C000FC9111970190F081E02D69EFCD01099527
:1001D00088819981DC01ED91FC910190F081E02D05
:1001E00062E0099588819981DC01ED91FC91019093
:1001F000F081E02D65E0DF91CF910994DF91CF91FF
:1002000008951F93CF93DF93182FEB01809127055B
:10021000909128056817790760F4809125059091E1
:100220002605C80FD91F188380E0DF91CF911F9159
:100230000895E0915405F0915505309711F481E04F
:10024000F4CF81E080932405809140059091410591
:1002500009958091270590912805C817D90778F747
:10026000DCCFCF93DF93EC01FB0130E020E0C9014C
:10027000880F991F8C179D0778F44081DB014D93FF
:10028000BD0111979181979599279795942B9C93F0
:100290002F5F3F4F3296EBCFC901DF91CF91089589
:1002A000A0916005B0916105ED91FC9111970190CD
:1002B000F081E02D682FCD010994009721F0805C3A
:1002C0009F4F0C94D7000895AF92BF92CF92DF92C8
:1002D000EF92FF920F931F93CF93DF936C017B01FB
:1002E0008B01040F151FEB015E01AE18BF08C0178C
:1002F000D10759F06991D601ED91FC910190F081FF
:10030000E02DC6010995892B79F7C501DF91CF91C1
:100310001F910F91FF90EF90DF90CF90BF90AF9023
:100320000895FC01538D448D252F30E0842F90E0FB
:10033000821B930B541710F0CF96089501970895E0
:10034000FC01918D828D981761F0A28DAE0FBF2FA9
:10035000B11D5D968C91928D9F5F9F73928F90E0FF
:1003600008958FEF9FEF0895FC01918D828D98176E
:1003700031F0828DE80FF11D858D90E008958FEFAB
:100380009FEF0895FC01918D228D892F90E0805C74
:100390009F4F821B91098F739927089588EA93E0F4
:1003A0000E94C20121E0892B09F420E0822F0895E8
:1003B00080E090E0892B29F00E94CE0181110C94FD
:1003C00000000895FC01A48DA80FB92FB11DA35AF8
:1003D000BF4F2C91848D90E001968F739927848F65
:1003E000A689B7892C93A089B1898C918370806488
:1003F0008C93938D848D981306C00288F389E02D29
:1004000080818F7D80830895EF92FF920F931F93D9
:10041000CF93DF93EC0181E0888F9B8D8C8D9813B7
:100420001AC0E889F989808185FF15C09FB7F894C3
:10043000EE89FF896083E889F9898081837080640F
:1004400080839FBF81E090E0DF91CF911F910F915A
:10045000FF90EF900895F62E0B8D10E00F5F1F4F69
:100460000F731127E02E8C8D8E110CC00FB607FC78
:10047000FACFE889F989808185FFF5CFCE010E9406
:10048000E201F1CFEB8DEC0FFD2FF11DE35AFF4F91
:10049000F0829FB7F8940B8FEA89FB898081806294
:1004A000CFCFCF93DF93EC01888D8823B9F0AA8951
:1004B000BB89E889F9898C9185FD03C0808186FD1F
:1004C0000DC00FB607FCF7CF8C9185FFF2CF80816E
:1004D00085FFEDCFCE010E94E201E9CFDF91CF9100
:1004E000089590E0FC01EC55FF4F2491FC01E0578A
:1004F000FF4F3491FC01E458FF4FE491EE23C9F023
:10050000222339F0233001F1A8F4213019F12230EF
:1005100029F1F0E0EE0FFF1FEE58FF4FA591B491C7
:100520008FB7F894EC91611126C030953E233C932F
:100530008FBF08952730A9F02830C9F0243049F73B
:10054000809180008F7D03C0809180008F778093A1
:100550008000DFCF84B58F7784BDDBCF84B58F7DFE
:10056000FBCF8091B0008F778093B000D2CF809185
:10057000B0008F7DF9CF3E2BDACFCF93DF9390E0A1
:10058000FC01E057FF4F249184589F4FFC01849158
:100590008823C9F090E0880F991FFC01E859FF4FAC
:1005A000A591B491FC01EE58FF4FC591D491611112
:1005B0000DC09FB7F8948C91209582238C938881ED
:1005C000282328839FBFDF91CF910895623051F493
:1005D0009FB7F8943C91822F809583238C93E88178
:1005E0002E2BEFCF8FB7F894EC912E2B2C938FBF3F
:1005F000EACF8E3008F08E508770806480937C0044
:1006000080917A00806480937A0080917A0086FDE0
:10061000FCCF809178009091790008953FB7F894CD
:1006200080910C0390910D03A0910E03B0910F03E4
:1006300026B5A89B05C02F3F19F00196A11DB11D3D
:100640003FBFBA2FA92F982F8827BC01CD01620F79
:10065000711D811D911D42E0660F771F881F991F34
:100660004A95D1F708958F929F92AF92BF92CF9201
:10067000DF92EF92FF926B017C010E940E034B010F
:100680005C01C114D104E104F104B9F00E940E032D
:10069000681979098A099B09683E734081059105AB
:1006A00080F321E0C21AD108E108F10888EE880E33
:1006B00083E0981EA11CB11CE4CFFF90EF90DF9067
:1006C000CF90BF90AF909F908F9008952091E602B9
:1006D000260F3327331F21323105ECF420917E039E
:1006E000FC0190E080E0243069F082E00895A09160
:1006F000E6022191AC014C535D4FA40FB52FB11D03
:100700002C930196861798F38091E602680F609308
:10071000E60280E0089581E0089510927E0381E072
:1007200080937D031092580361E082E10E94710280
:1007300061E083E10E947102E9EBF0E080818E7F4D
:10074000808380818D7F808388E48093B80085E4F6
:100750008093BC000895CF93DF9391E09093C30200
:100760008823B9F0C091B800D091BA008091BC0044
:100770008A7B8093BC0060E082E10E94710260E0AD
:1007800083E10E9471020E948D03D093BA00C0934E
:10079000B800DF91CF9108958F929F92AF92BF9250
:1007A000CF92DF92EF92FF920F931F93CF93DF933D
:1007B000D091A703D13208F0D7C0182FC091A6035B
:1007C0000E940E036B017C0180917E0381116BC03E
:1007D00082E080937E0310937D038FEF80937C03F0
:1007E00010927B03D0937A03A6E8B3E0EAE5F3E046
:1007F00080E0D81391C01092590380915903CC0F17
:10080000C82BC093590380915803813009F088C0E8
:10081000109258030E940E036B017C0180915903D2
:100820008093BB008091800390918103A09182030B
:10083000B0918303892B8A2B8B2BA1F00E940E038E
:1008400000918003109181032091820330918303F2
:100850006C197D098E099F090617170728073907A4
:1008600008F442C08091BC0083FDD8CF85EC809312
:10087000BC000E940E036B017C0180917E038230DC
:1008800009F450C080917C038F3F09F46FC08091C0
:100890007C03803209F46CC080917C03803309F4BE
:1008A00069C084E026C08091800390918103A0916B
:1008B0008203B0918303892B8A2B8B2B09F484CF7D
:1008C0000E940E038090800390908103A090820389
:1008D000B09083036C197D098E099F0986169706CF
:1008E000A806B90608F070CF80917F030E94AB0381
:1008F00085E0109285031092A70310928403DF9184
:10090000CF911F910F91FF90EF90DF90CF90BF900C
:10091000AF909F908F9008959D9191938F5F69CF35
:1009200085EEA5CF8091800390918103A0918203F1
:10093000B0918303892B8A2B8B2B09F49ECF0E94C5
:100940000E03009180031091810320918203309166
:1009500083036C197D098E099F090617170728075D
:10096000390708F08ACFC0CF81E0C3CF80E0C1CF84
:1009700082E0BFCF83E0BDCF089508950895E09150
:10098000C2028091C102E81730F4F0E0EF55FD4F4C
:10099000808190E008958FEF9FEF08959091C202BB
:1009A0008091C1022FEF3FEF981748F4E92FF0E054
:1009B000EF55FD4F208130E09F5F9093C202C90147
:1009C00008958091C1029091C202891B990B0895EC
:1009D000CF92DF92EF92FF920F931F93CF93DF930B
:1009E0007C01CB018A0120918403222389F0EB0151
:1009F0006B01C40ED51ECC15DD0569F06991D701D8
:100A0000ED91FC910190F081E02DC7010995F3CFA4
:100A1000642F0E946603C801DF91CF911F910F914F
:100A2000FF90EF90DF90CF900895CF93DF931F92C8
:100A3000CDB7DEB76983209184032223F9F020919A
:100A4000A703203258F021E030E0FC0133832283F9
:100A500090E080E00F90DF91CF9108958091850321
:100A6000E82FF0E0EA57FC4F998190838F5F8093E5
:100A700085038093A70381E090E0ECCF61E0CE0195
:100A800001960E946603F7CF90E080E00895DF9220
:100A9000EF92FF920F931F93CF93DF93EC01D62E2B
:100AA0007A01890188818C3008F067C061E08D2D62
:100AB0000E94BD028881282F30E0F901EE0FFF1F50
:100AC000E20FF31FE756FB4F9D2D9F736081607C03
:100AD000692B608320E232E02E193F0937FF02C004
:100AE0002D5F3F4F3595279535952795298320E62E
:100AF00039E0201B310B37FF02C02D5F3F4F35958A
:100B00002795359527952A832CE0622F0E94E91AB4
:100B1000829FB001112430E020E0AB01420F531F4F
:100B2000FA01EE0FFF1FE40FF51FE756FB4F908110
:100B300096FD16C02F5F3F4F2C30310571F78111A4
:100B40000FC01092800082E0809381001092850097
:100B500010928400B19A80916F00826080936F0040
:100B6000E8818E2F90E0FC01EE0FFF1FE80FF91FC8
:100B7000E756FB4F8081806480838881DF91CF912D
:100B80001F910F91FF90EF90DF90089520919E02AA
:100B900030919F0282179307F8F49C01220F331FB4
:100BA000280F391F80919C0290919D02E0919B0239
:100BB000820F931FE80FF92FF11D6083E0919A02D5
:100BC000E80FF92FF11D508320919902820F911D9A
:100BD000FC01408380E0089581E00895109298021E
:100BE00010929F0210929E02E8E8F2E0A0E8B2E0C4
:100BF000119211921D9282E0E839F807C9F7089521
:100C00005F926F927F928F929F92AF92BF92CF929C
:100C1000DF92EF92FF920F931F93CF93DF93833076
:100C200008F061C0D1E0D80FDD0FDD0FDD0F5D2EC4
:100C3000D53110F044E1542EC62F082FD8508D2EF8
:100C4000912CC401880F991F9C012E513B4F5901D3
:100C5000D12CC12C10E077247394D515C8F58EEFF4
:100C60008D0F8231F8F4F601E80DF91DEB59FA4FBA
:100C700090819230B8F48C2F87216624639481117F
:100C800001C0612C7601EE0CFF1C913089F417290C
:100C900037E9E30EF11CF501EE0DFF1D862D90E006
:100CA00091838083770CDF5F8FEFC81AD80AD5CF86
:100CB000882371F3F701E956FF4FEA0DFB1D808190
:100CC0009181019729F362E08D2F0E94BD02E0CF50
:100CD000011119C0F8948BB16C2F68276C7F6123C8
:100CE00068276BB97894DF91CF911F910F91FF9096
:100CF000EF90DF90CF90BF90AF909F908F907F90BC
:100D00006F905F9008950130D1F4C123F89495B1AC
:100D1000812F8F73809589239C2F9F73892B85B991
:100D200088B1612F629566956695637060956823BA
:100D3000C295C695C695C370C62BC8B9D3CF1F70D0
:100D4000F89498B1812F880F880F80958923C1234B
:100D5000CC0FCC0FC82BF1CF8F929F92AF92BF9246
:100D6000CF92DF92EF92FF920F931F93CF93DF9377
:100D7000EB01843108F098C0082F10E0F801EB591E
:100D8000FA4F9081933009F49CC0943009F08CC0E4
:100D90008250823108F081C0F801E959FD4FC080CE
:100DA000D12C7601EE0CFF1C4B01603282E07807FB
:100DB0000CF03EC0F701EC0DFD1DE254FB4F8181AC
:100DC000A8E88A2E912C881A910887FD9394880CA4
:100DD000991C880C991C092C000CAA08BB0882815C
:100DE00028E532E0281B310987FD3395220F331F98
:100DF000220F331F032E000C440B550B2819390901
:100E00004A095B09DB01653B710514F0A4EBB0E016
:100E1000B7FF02C0B0E0A0E00E94B01A24EB30E0BF
:100E200040E050E00E94861A820E931EA41EB51E5A
:100E3000F701EC0DFD1DE254FB4F20812C3068F5CD
:100E4000318188E890E0831B910937FD9395880FE5
:100E5000991F880F991F881699067CF0328188E5C2
:100E600092E0831B910937FD9395880F991F880F96
:100E7000991F881699060CF4C4010297880F991FD0
:100E80004FB7F89430E0F901EE0FFF1FE20FF31FA8
:100E9000E756FB4F928381834FBF000F111FF8016C
:100EA000E758FA4FD183C083DF91CF911F910F9103
:100EB000FF90EF90DF90CF90BF90AF909F908F907A
:100EC00008957B01D82F833041F08BEF800F823063
:100ED00020F087EF800F833058F461E08D2F0E945F
:100EE000BD02E114F10461F460E08D2F0E947102F3
:100EF000000F111FF801E758FA4FF182E082D4CFBA
:100F00008FEFE816F10411F461E0EFCFF801EC5532
:100F1000FF4FE491E33021F148F4E130B9F0E230E1
:100F2000D1F080E8E816F1047CF7DECFE73011F16C
:100F3000E83041F1E430A9F780918000806280932D
:100F40008000F0928B00E0928A00D2CF84B5806856
:100F500084BDE7BCCDCF84B5806284BDE8BCC8CF7A
:100F600080918000806880938000F0928900E092F8
:100F70008800BECF8091B00080688093B000E0927E
:100F8000B300B6CF8091B00080628093B000E09251
:100F9000B400AECF9EEF980F923180F4E82FF0E0CE
:100FA000DF01AB59BA4F9C91913041F4EE0FFF1F16
:100FB000E758FA4F608371830C9471020895A82F4B
:100FC000B0E0A959BD4F9C91292F30E0F901EE0FF7
:100FD000FF1FE20FF31FE254FB4FE0812E2F30E0A2
:100FE000F901EE0FFF1FE20FF31FE756FB4F808161
:100FF0008F7B808380916502981308C0992319F034
:101000009150909365028FEF8C9308958823D9F3C4
:10101000E0916602EF5FE0936602F0E0ED5EFD4F67
:101020009083F1CFDC0170E0FB01E057FF4FE491CA
:101030001896EC93189764587F4FFB018491E82F22
:10104000F0E0EE0FFF1FEE58FF4F8591949115963B
:101050009C938E931497FB016491E62FF0E0EE0FC2
:10106000FF1FE859FF4F8591949117969C938E939B
:10107000169708955F926F927F928F929F92AF9290
:10108000BF92CF92DF92EF92FF920F931F93CF9375
:10109000DF935C016901DA015C90232B19F4CC2405
:1010A000CA94DC2C8A013A01660E771ED0E0C0E0BB
:1010B000F12CE12C87E0882E912CF5018081918123
:1010C000D8016C910C2E01C0660F0A94EAF76529CD
:1010D0006F77DC01ED91FC910190F081E02D099595
:1010E000BFEFEB1AFB0AF801608170E0C4018C1BB2
:1010F0009D0B02C0759567958A95E2F7562E21964D
:10110000C730D10558F1CE14DF0441F1D5018D91DE
:101110009C91652D6F77DC01ED91FC910190F08140
:10112000E02D0995BFEFEB1AFB0A551C5524551C01
:101130002797E6CFEC14FD0408F4BFCFDF91CF91E1
:101140001F910F91FF90EF90DF90CF90BF90AF90E5
:101150009F908F907F906F905F9008950F5F1F4FCB
:101160006016710639F7209749F3EC14FD0430F747
:10117000F5018081918161E070E001C0660FCA9540
:10118000EAF761506521DC01ED91FC910190F0815D
:10119000E02DDF91CF911F910F91FF90EF90DF90A5
:1011A000CF90BF90AF909F908F907F906F905F9007
:1011B00009941F93CF93DF9300D0CDB7DEB7182FDC
:1011C0007A83698380912205909123050097C9F065
:1011D000DC01ED91FC910190F081E02D1031B8F42B
:1011E00061157044A0F4612F606E099522E030E033
:1011F000AE014F5F5F4F62E070E082E295E00E94D7
:101200003A080F900F90DF91CF911F91089560EFF2
:1012100009958091220590912305DC01ED91FC91C7
:101220000190F081E02D6FE6099580912205909163
:101230002305DC01ED91FC910190F081E02D612FFF
:10124000099522E030E0AE014F5F5F4F62E070E051
:1012500082E295E00E943A08809122059091230550
:10126000DC01ED91FC910190F081E02D67EF099593
:10127000C8CFCF938630B0F421E030E0082E02C012
:10128000220F331F0A94E2F7409152035091530307
:10129000672B51F420953095242335233093530345
:1012A00020935203CF910895242B352B3093530371
:1012B0002093520390917F029111F4CFC82F0E9486
:1012C000F902BC018C2FCF910C94D908EF92FF92B8
:1012D0000F931F93CF93DF93C82F80912205909196
:1012E00023050097C9F17A018B01DC01ED91FC9196
:1012F0000190F081E02D60EF099580912205909199
:101300002305DC01ED91FC910190F081E02D6C2F23
:101310000995E7010E0D1F1DC017D10759F030E0E8
:1013200020E0AE0161E070E082E295E00E943A08C0
:101330002196F2CF8091220590912305DC01ED9159
:10134000FC910190F081E02D67EFDF91CF911F912B
:101350000F91FF90EF900994DF91CF911F910F9122
:10136000FF90EF900895FF920F931F93CF93DF9319
:1013700000D0CDB7DEB7082F10E0F801E05EFC4FDB
:101380009081F62EF92205581D4F411104C0F80135
:1013900090819F1511F12F2D30E03A832983A09180
:1013A0002205B09123051097B1F0682F6F70606926
:1013B000ED91FC9111970190F081E02DCD010995FF
:1013C00022E030E0AE014F5F5F4F62E070E082E20A
:1013D00095E00E943A08F801F0820F900F90DF919B
:1013E000CF911F910F91FF900895833040F5282FE2
:1013F00030E0F901ED5DFC4F6083672B01F1205E69
:101400003C4FF9016081811106C099B19C7F69232D
:1014100041E00C94B309813049F493B126B19F7334
:10142000F0E42F9F90011124922BF1CF26B130E0F0
:1014300035952795359527952F706223E9CF089527
:10144000CF92DF92EF92FF920F931F93CF93DF9390
:10145000FC01E058FF4FE080EE2009F45CC0EC0195
:10146000C05CDF4FA881B981109709F454C0FC011A
:10147000EF57FF4FC080D180F60111810081ED91BF
:10148000FC9111970190F081E02D60EFCD0109955D
:1014900088819981DC01ED91FC910190F081E02D32
:1014A00069E7099588819981DC01ED91FC910190B2
:1014B000F081E02D602F099588819981DC01ED9103
:1014C000FC910190F081E02D612F0995F12C01E054
:1014D00010E00F5F1F4FE016F10659F030E020E0FA
:1014E000A601400F511F61E070E0CE010E943A0852
:1014F000F0CF88819981DC01ED91FC910190F08120
:10150000E02D67EFDF91CF911F910F91FF90EF904A
:10151000DF90CF900994DF91CF911F910F91FF90B1
:10152000EF90DF90CF900895009711F00C94200A6F
:101530000895FC0101900020E9F73197BF01681B75
:10154000790BAC0181E70C9466094F925F926F9220
:101550007F928F929F92AF92BF92DF92EF92FF9213
:101560000F931F93CF93DF93D82E8B01D42FC22FCD
:101570006F3F760709F490C081E080938403D09296
:10158000A603109285031092A70385E494E00E94BD
:1015900015058C2F0E94CC03809163029091640208
:1015A0008230910538F0880F991F880F991F059791
:1015B0000197F1F70E940E034B015C0180917E03BD
:1015C00081116CC0CD2FD13208F0C0E281E0809350
:1015D0007E0380937D039FEF90937C0310927B03A7
:1015E0009C0F90937A0380935903909159038D2D0A
:1015F000880F892B8093590380915803813009F01B
:101600009EC0109258030E940E034B015C01809112
:1016100059038093BB008091800390918103A09136
:101620008203B0918303892B8A2B8B2BA1F00E941C
:101630000E0340908003509081036090820370906D
:101640008303681979098A099B09461657066806B3
:10165000790608F444C08091BC0083FDD8CF85ECA6
:101660008093BC000E940E034B015C0180917E03BD
:10167000813009F466C080917B038C1710F4C0910F
:101680007B03AAE5B3E0E1EAF2E080E08C1761F1C8
:101690009D9191938F5FFACF00E08CCF8091800372
:1016A00090918103A0918203B0918303892B8A2BAF
:1016B0008B2B09F483CF0E940E034090800350903F
:1016C00081036090820370908303681979098A0905
:1016D0009B09461657066806790608F06FCF809179
:1016E0007F030E94AB03C0E01092C202C093C1020C
:1016F000ED2EF12C8C2F90E0E816F9060CF043C08B
:101700008DE291E00E94990AD0922002009321027A
:1017100000E212E0C801805292408E159F05D4F578
:101720000F5F1F4F9091C1028091C202981791F1F3
:1017300085E494E00E94CE04F8018183EBCF85EE2E
:101740008FCF8091800390918103A0918203B0910B
:101750008303892B8A2B8B2B09F488CF0E940E03DD
:1017600040908003509081036090820370908303C7
:10177000681979098A099B09461657066806790689
:1017800008F074CFACCF8E159F050CF0BDCF8AE466
:1017900091E0B8CFDE5F6D2F70E040E252E087E766
:1017A000DF91CF911F910F91FF90EF90DF90BF904D
:1017B000AF909F908F907F906F905F904F900C9420
:1017C0006609CF93DF93DB01909165029C3078F539
:1017D00030916602682F70E0FB01E959FD4F332319
:1017E000E1F0C32FD0E0CD5EDD4F888180833150A2
:1017F00030936602808123E0829FC00111248254CD
:101800009B4F1A161B0674F4141615065CF49A0105
:10181000AD01DF91CF910C94470590839F5F90932A
:101820006502E8CF20E639E040E252E0F2CF86E6FA
:1018300091E0DF91CF910C94990A9F92AF92BF9261
:10184000CF92DF92EF92FF920F931F93CF93DF938C
:10185000C82ED12CE601CE51DB4FFE01ED57FF4FD4
:1018600090819F3709F49FC0963061F490917E0279
:10187000992341F06630710529F010927E029FEFA6
:10188000909300017B01182F0EEF080F023108F52D
:1018900064307105F1F0F601E959FD4F80818C301B
:1018A000C0F490E0FC01EE0FFF1FE80FF91FE254B7
:1018B000FB4FE0818E2F90E0FC01EE0FFF1FE80F41
:1018C000F91FE756FB4F808186FF03C0812F0E94DE
:1018D000DF0752EF952E910E85E0891558F061E0F3
:1018E00070E032E0E316F10411F070E060E0892D61
:1018F0000E9439090231C8F4E12FE695E695E69594
:10190000F0E0E05EFC4F2081312F377081E090E005
:1019100001C0880F3A95EAF7E114F10421F03BE0A9
:10192000E316F10401F5822B80835601AA0CBB1C3F
:10193000F501E758FA4F118210828CE0E816F104A5
:1019400008F0C4C0F701E955F34F0C94F51AC70C21
:10195000F40CB60C050D230D660D5A0D660D660DC3
:10196000660DD30CDF0C80958223DECF35E0391570
:10197000D0F0023120F460E0812F0E94BD02CD57EB
:10198000DF4F88818F3779F082E088830CC0023185
:1019900050F460E0812F0E94BD02CD57DF4F888157
:1019A0008F3709F01882DF91CF911F910F91FF902F
:1019B000EF90DF90CF90BF90AF909F90089502314D
:1019C00090F762E0812F0E94BD02CD57DF4F8881E2
:1019D0008F3711F08BE08883F501E758FA4F81E0EB
:1019E00090E091838083DFCF0231E8F660E0812FC1
:1019F0000E94710261E0812F0E94BD02CD57DF4F2E
:101A000088818F3781F281E0C0CF133041F08BEFB6
:101A1000810F823020F087EF810F833020F661E064
:101A2000812F0E94BD0261E0812F0E94BD0260E013
:101A3000812F0E947102CD57DF4F88818F3709F4C3
:101A4000B2CF83E0A2CF023108F0ADCFCD57DF4F48
:101A500088818F3711F084E08883F601E959FD4FC2
:101A600080818F3FA9F090E0FC01EE0FFF1FE80F8F
:101A7000F91FE254FB4FE0818E2F90E0FC01EE0F46
:101A8000FF1FE80FF91FE756FB4F808186FD8BCFC4
:101A90004FEF5FEF6FEF7FEF812FDF91CF911F91BE
:101AA0000F91FF90EF90DF90CF90BF90AF909F90FD
:101AB0000C94E10B1251123008F075CFCD57DF4F67
:101AC00088818F3709F46FCF86E05FCF8AE791E096
:101AD000DF91CF911F910F91FF90EF90DF90CF900A
:101AE000BF90AF909F900C94990A0F931F93CF9340
:101AF000DF9381E080937F0280917E02882329F02A
:101B000010927E028FEF80930001109223031092B7
:101B1000200310927B021092240310922103109252
:101B20007C02109225031092220310927D0207E698
:101B300012E0C0E0DFEF82EF8C0F62E070E08630F1
:101B400030F08EEF8C0F823128F461E070E08C2F42
:101B50000E941D0CF801D1938F01CF5FC43159F75A
:101B60001092530310925203109266021092650273
:101B700010927F02DF91CF911F910F91089585ED13
:101B80008093BC008091800390918103A091820397
:101B9000B09183030796A11DB11D23E0B695A795CB
:101BA000979587952A95D1F72091BC0024FD03C015
:101BB00010927E03089540918003509181036091BB
:101BC000820370918303452B462B472B69F30097C3
:101BD000A105B10541F025E32A95F1F70000019731
:101BE000A109B109E1CF80917F030C94AB036F92FF
:101BF0007F928F929F92AF92BF92CF92DF92EF929D
:101C0000FF920F931F93CF93DF93EA018F3609F46E
:101C1000F7C1162F803708F05CC0893609F481C2FD
:101C200090F4813509F48EC2DF91CF911F910F910D
:101C3000FF90EF90DF90CF90BF90AF909F908F90EC
:101C40007F906F9008958B3609F405C28D3661F749
:101C5000662351F3C88180EF0E9450018EE60E94F6
:101C600050018C2F0E945001C43108F049C2D0E0CD
:101C7000FE01EB59FA4F80810E945001CC0FDD1F0D
:101C80008E0107581A4FF80180818F770E9450010A
:101C9000F801808191819C012078232B39F0880FF5
:101CA000892F881F990B8F770E945001C758DA4FF0
:101CB000888199819C012227307C232B09F420C242
:101CC000990F880B990F982F881F8F770E945001CA
:101CD00017C2863709F46DC008F051C0803709F08B
:101CE000A3CF653008F4A0CF18818EEF810F823129
:101CF00008F09ACF0981EA80FB80CC81E12FF0E0E7
:101D0000E959FD4F80818C30C0F490E0FC01EE0F6A
:101D1000FF1FE80FF91FE254FB4FE0818E2F90E088
:101D2000FC01EE0FFF1FE80FF91FE756FB4F808104
:101D300086FF03C0812F0E94DF0760E8C69FA001D5
:101D400011244F0D511D80E8E89EB0011124600F51
:101D5000711D812F0E94E10B64E070E0812FDF9103
:101D6000CF911F910F91FF90EF90DF90CF90BF9098
:101D7000AF909F908F907F906F900C941D0C883740
:101D800009F401C18A3709F04FCF623008F44CCF13
:101D9000898190E8899F900111248881820F932F77
:101DA000911D009709F429C19093020180930101CC
:101DB0003BCF998195FF12C08BE891E0DF91CF91E5
:101DC0001F910F91FF90EF90DF90CF90BF90AF9059
:101DD0009F908F907F906F900C94990A888131E04A
:101DE00096FB222720F923279871983099F1E0F487
:101DF00091111ACF309384038093A6031092850328
:101E00001092A70302E00117E8F4FE01E00FF11DB4
:101E100061816795662767958081680F85E494E006
:101E20000E9415050E5FEFCF9031D9F1983109F07E
:101E3000FBCE2091000112160CF460C08FEF80934E
:101E40000001F2CE81E00E94CC0383E191E0019792
:101E5000F1F7EACE9A814B816630E1F430E8439F96
:101E6000B0011124690F711D4D8147954427479595
:101E70009C81490FDF91CF911F910F91FF90EF90BF
:101E8000DF90CF90BF90AF909F908F907F906F909A
:101E90000C94A50A479544274795490F6FEF7FEFAC
:101EA000E9CFE0910001E7301CF08BEA91E086CFAA
:101EB0003A819B816630D9F460E8969FA001112495
:101EC000430F511D9D819795992797953C81930FBD
:101ED000EF5FE093000135E0E302F0011124E65DDD
:101EE000FC4F808352834183938324839DCE9795B7
:101EF00099279795930F4FEF5FEFEACF90E0622F0E
:101F0000022E000C770B35E0492F50E0641775075F
:101F100064F0349FF001359FF00D1124E65DFC4F15
:101F20004081481719F09F5FEFCF90E085E0492F7F
:101F300050E0641775071CF19830F8F4FA013196F7
:101F40008E9FD0018F9FB00D1124A65DBC4F3C9198
:101F5000849FF001859FF00D1124E65DFC4F3083D6
:101F600011964D915C9112975283418313963C9147
:101F70001397338314963C9134839F5FD8CF2150BD
:101F80002093000151CE898140E8849F9001112463
:101F90008881820F932F911D009721F09093640206
:101FA0008093630280917E0281113ECEC0E08EEE6E
:101FB0008C0F823028F466E070E08C2F0E941D0C9C
:101FC000CF5FC431A1F781E080937E021092C202FC
:101FD0001092C102109285031092A7030E948D03F4
:101FE0008CEB94E09093E5028093E4028DEB94E017
:101FF0009093E9028093E80217CE81E090E0D4CE7E
:10200000623008F411CE898190E0623091F02A812B
:10201000E0E82E9F90011124822B932B633049F02E
:102020002B8130E030E4239F302D22271124822B96
:10203000932BBC018881DF91CF911F910F91FF906D
:10204000EF90DF90CF90BF90AF909F908F907F9058
:102050006F900C94AC0680EF0E9450018CE60E94B9
:102060005001CEEF84EF8C0F863050F582E00E9455
:1020700050018AE00E9450018DEF8C0F823010F1E8
:1020800089EF8C0F833020F51DC0C23158F780E0F6
:102090000E94500181E00E9450018BE00E9450019B
:1020A00081E00E94500181E00E94500181E00E9485
:1020B000500181E50E94500181E00E945001D2CF81
:1020C000C130D1F683E00E94500188E00E945001A7
:1020D000C23130F484E00E9450018EE00E94500131
:1020E00080EF8C0F823030F486E00E94500181E056
:1020F0000E9450018FE70E945001CF5FC23129F644
:1021000087EFDF91CF911F910F91FF90EF90DF90BC
:10211000CF90BF90AF909F908F907F906F900C94D6
:10212000500180EF0E9450018AE60E945001C2EFE8
:102130008FE7C63008F48C2F0E945001CF5FC63065
:10214000B9F7DECF662309F46FCD9881892F8F70A0
:10215000833009F43EC108F064C0813009F48EC1B7
:10216000823009F061CD8091620281115DCD809154
:102170006102811159CD81E08093620280E019E013
:1021800090919802891708F0B4C0282F30E0B90167
:1021900060587D4FFB019081992309F4A6C0E0911E
:1021A0009C02F0919D02129FE001139FD00D11241B
:1021B000CF5ADB4FAE81BF819C912885922B9C9397
:1021C000AC81BD81988528813981A901440F551FB3
:1021D000420F531F0A80DB81C02D9E01220F331F47
:1021E0002C0F3D1FE20FF31F3C91292F2095232335
:1021F000932B3FB7F8944E0F5F1F4E175F0709F4FC
:1022000072C0C191D8E09C9300C0C7FF2C93CC0F43
:1022100000C000C000C008F42C9300C0DA9599F704
:10222000ECCF843009F468C0853009F0FDCC998189
:10223000292F2F7109F4ACC0392F3072732E81E031
:1022400080936102022F000F020F10E0C0919E02E6
:10225000D0919F02C21BD1096E01CC0CDD1CCC0EAB
:10226000DD1EE0909C02F0909D024701800E911EC1
:10227000492F4074642E96FFB9C1C8010E94FB1A11
:102280005C01009729F0A80170E060E00E943B1C0F
:10229000CE01711002C090E080E0BC01660F771F94
:1022A000680F791F6E0D7F1DA801C5010E94201CBB
:1022B0007110B3C1A601B401C7010E94291C662098
:1022C00009F49EC1CE01880F991F8C0F9D1FA80194
:1022D000B5018E0D9F1D0E94201CC5010E94971BF9
:1022E0001092610255C03FBF7894FB0110828F5F4E
:1022F00047CF1092620298CC80916102811194CCF8
:10230000CB80D12CF12CE12C7EE0CC0CDD1CEE1C22
:10231000FF1C7A95D1F78C8190E0B0E0A0E0E5E178
:10232000880F991FAA1FBB1FEA95D1F78C0D9D1D21
:10233000AE1DBF1D29816C017D01C20ED11CE11CA7
:10234000F11C8A8190E0B0E0A0E0F7E0880F991FCF
:10235000AA1FBB1FFA95D1F7C80ED91EEA1EFB1E95
:1023600000919E0210919F02D0E0C0E0C114D10400
:10237000E104F10421F5A801440F551F400F511F3E
:1023800070E060E080919C0290919D020E943B1C55
:102390004091980250E061E070E080E892E0DF91C7
:1023A000CF911F910F91FF90EF90DF90CF90BF9052
:1023B000AF909F908F907F906F900C943B1CC017B4
:1023C000D10731F3B701A601CE010E94C6052196BF
:1023D000F6CF80916102811127CC0A81F0E80F9F2E
:1023E000C00111240981080F192F111D4D8150E0E2
:1023F00070E060E08EE0440F551F661F771F8A95DE
:10240000D1F78E8190E0B0E0A0E025E1880F991F20
:10241000AA1FBB1F2A95D1F7840F951FA61FB71FB0
:102420002B81AC01BD01420F511D611D711D8C81BD
:1024300090E0B0E0A0E037E0880F991FAA1FBB1F13
:102440003A95D1F7480F591F6A1F7B1FC8010E9498
:10245000C60540919802A8E8B2E090E080E08417B9
:1024600008F0E2CBFC012D913D9101960217130774
:10247000B0F7E058FD4F81E08083D6CB913009F072
:10248000D3CB633008F4D0CB009160020E94EE05FC
:10249000002381F0B1E5CB2EB4E0DB2EF12C6F2DC3
:1024A000C6010E941208F39429E0C20ED11C38E044
:1024B000F312F5CF6BEA169F112D11241695E8E85B
:1024C000AE2EE2E0BE2EF1E5CF2EF4E0DF2E912C11
:1024D00088248394A2E07A2E011105C069816F716E
:1024E000C6010E941208898190E075E09595879554
:1024F0007A95E1F78130910509F467C08230910542
:1025000009F468C0892B31F410929A0280929B02E0
:1025100070929902EB8040E8E49E700111248A8158
:10252000E80EF11CF601F182E08290E080E0992053
:1025300021F0F5013297808191819701280F391F91
:10254000F501219331935F01F6019383828380919A
:102550009E0290919F02E80EF91EF0929F02E09277
:102560009E02809198028F5F809398029394F9E085
:10257000CF0ED11C23961911AFCF80919C02909160
:102580009D02009731F00E94971B10929F021092BB
:102590009E02E114F10409F447CBE701CC0FDD1FE3
:1025A000CE0DDF1DCE010E94FB1A90939D028093F9
:1025B0009C020097B1F0AE0170E060E00E943B1C0D
:1025C000F0929F02E0929E022FCB10929B0280928B
:1025D0009A029ECF1092990280929B0270929A0268
:1025E00099CF10929F0210929E021ECB332309F4C2
:1025F00061CEA601B701C4010E94291CD0E0C0E051
:10260000CE01880F991F8C0F9D1FA80170E060E01C
:102610008E0D9F1D0E943B1C63CEA601B701C40115
:102620000E94291CD0E0C0E04DCE1F920F920FB641
:102630000F9211242F933F934F935F936F937F9348
:102640008F939F93AF93BF93EF93FF9388EA93E0A9
:102650000E94E201FF91EF91BF91AF919F918F9105
:102660007F916F915F914F913F912F910F900FBE8E
:102670000F901F9018951F920F920FB60F92112472
:102680002F938F939F93EF93FF93E091B803F09173
:10269000B9038081E091BE03F091BF0382FD1BC0AE
:1026A00090818091C1038F5F8F732091C203821745
:1026B00041F0E091C103F0E0E855FC4F958F809325
:1026C000C103FF91EF919F918F912F910F900FBEBA
:1026D0000F901F9018958081F4CF1F920F920FB624
:1026E0000F9211242F933F938F939F93AF93BF9398
:1026F0008091260390912703A0912803B09129038C
:1027000030910B0323E0230F2D3758F50196A11DBF
:10271000B11D20930B038093260390932703A0936E
:102720002803B093290380910C0390910D03A0918D
:102730000E03B0910F030196A11DB11D80930C03F0
:1027400090930D03A0930E03B0930F03BF91AF912D
:102750009F918F913F912F910F900FBE0F901F90DF
:10276000189526E8230F0296A11DB11DD2CF1F9206
:102770000F920FB60F9211242F933F934F935F93B5
:102780006F937F938F939F93AF93BF93EF93FF9339
:102790008091B900887F803609F44AC0F0F588320C
:1027A00009F4A7C018F5803109F49BC0B8F4882358
:1027B00009F4F9C0883009F494C0FF91EF91BF91FA
:1027C000AF919F918F917F916F915F914F913F91C9
:1027D0002F910F900FBE0F901F901895883109F41C
:1027E00088C0803251F780937C0314C0803409F490
:1027F0009DC040F48033B9F38833F9F680937C03AD
:1028000085ECB0C0803509F485C0883509F496C0E0
:10281000883499F60E94BF0DD0CF883909F48CC056
:1028200038F5883729F050F4883611F0803729F6CA
:1028300083E080937E0310920A0357C0883809F41E
:102840007BC0803919F0803809F0B7CF80910A0336
:10285000803208F071C0E0910A0381E08E0F80930E
:102860000A038091BB00F0E0E651FD4F80833DC03C
:10287000803B39F0E0F4803A09F479C0883A09F0F5
:102880009CCF84E080937E031092E7021092E602D0
:10289000E091E402F091E50209958091E602811150
:1028A0000FC081E08093E6021092C40209C0803C10
:1028B00009F4A6CF883C09F4A3CF883B09F07DCF6B
:1028C000E091E70281E08E0F8093E702F0E0EC53A5
:1028D000FD4F80818093BB009091E7028091E602DA
:1028E00029C0809159038093BB0085EC8093BC0084
:1028F00064CF90917B0380917A03981758F5E0910B
:102900007B0381E08E0F80937B03F0E0E65AFC4F5F
:102910008081E9CFE0917B0381E08E0F80937B0380
:102920008091BB00F0E0E65AFC4F808390917B03DE
:1029300080917A039817C8F285E8D8CFE0917B039D
:1029400081E08E0F80937B038091BB00F0E0E65A1C
:10295000FC4F808380917D0381115CCF81E0809367
:10296000580384EA8093BC0010927E0326CF85EC46
:102970008093BC0010927E0380910A03803230F471
:10298000E0910A03F0E0E651FD4F108260910A03E6
:1029900070E0E091E802F091E9028AEE92E0099598
:1029A00010920A030ACF10927C0334CF1F920F9229
:1029B0000FB60F9211242F933F934F935F936F9312
:1029C0007F938F939F93AF93BF93CF93DF93EF93B7
:1029D000FF938091A002C091BD04D0E087FF24C086
:1029E00010928500109284008091A0028F5F8093E6
:1029F000A0028091A002082E000C990B8C179D0755
:102A000024F48091A0028C30C4F1809184009091D4
:102A10008500049680349C4908F47AC08091840033
:102A200090918500049676C08091A002082E000C3B
:102A3000990B8C179D07C4F6E091A0028E2FEE0F24
:102A4000990BFC01EE0FFF1FE80FF91FE756FB4F34
:102A5000808186FFC9CFE091A0028E2FEE0F990BE7
:102A6000FC01EE0FFF1FE80FF91FE756FB4F8081B7
:102A700060E08F730E947102B7CF20918400309183
:102A80008500E091A0028E2FEE0F990BFC01EE0F56
:102A9000FF1FE80FF91FE756FB4F81819281820FDC
:102AA000931F9093890080938800E091A0028E2F5D
:102AB000EE0F990BFC01EE0FFF1FE80FF91FE75611
:102AC000FB4F808186FF11C0E091A0028E2FEE0F98
:102AD000990BFC01EE0FFF1FE80FF91FE756FB4FA4
:102AE000808161E08F730E947102FF91EF91DF910D
:102AF000CF91BF91AF919F918F917F916F915F9196
:102B00004F913F912F910F900FBE0F901F901895EE
:102B100080E49CE990938900809388008FEF8093F4
:102B2000A002E3CF1092AB031092AA0388EE93E0C9
:102B3000A0E0B0E08093AC039093AD03A093AE030C
:102B4000B093AF032DE031E03093A9032093A803A5
:102B500025EC30E03093B5032093B40324EC30E04F
:102B60003093B7032093B60320EC30E03093B903E1
:102B70002093B80321EC30E03093BB032093BA03D9
:102B800022EC30E03093BD032093BC0326EC30E010
:102B90003093BF032093BE031092C1031092C2036F
:102BA0001092C3031092C403109248041092470479
:102BB0008093490490934A04A0934B04B0934C042F
:102BC0008FE191E09093460480934504E1E5F4E0C1
:102BD00089E994E0118210821382128239968E174D
:102BE0009F07C1F7EEEBF4E02FEF48EB5BE080913D
:102BF000BD048C3008F0B5C091E0980F9093BD04EF
:102C0000808390E0DC01AA0FBB1FA80FB91FA75655
:102C1000BB4F12965C934E931197339684E0E23E3D
:102C2000F80729F782EE94E010922305109222050E
:102C3000909326058093250520E430E03093280505
:102C4000209327051092290510922A0510922C0531
:102C500010922B0510922D0510922F0510922E0523
:102C60001092310510923005109233051092320502
:102C700010923505109234051092370510923605E2
:102C8000109239051092380510923B0510923A05C2
:102C90001092410510924005109243051092420592
:102CA0001092450510924405109247051092460572
:102CB0001092550510925405109224051092620549
:102CC00010926405109263051092A10527E830E088
:102CD000309349052093480521E930E030934B05B6
:102CE00020934A052BE930E030934D0520934C05A5
:102CF00025EA30E030934F0520934E052FEA30E06F
:102D0000309351052093500529EB30E03093530563
:102D10002093520523EC30E030935705209356055D
:102D200024EC30E0309359052093580524E93AE02B
:102D300030935B0520935A0590933D0580933C05A5
:102D40002DE531E030935D0520935C0590933F05C0
:102D500080933E058FEC90E090935F0580935E0535
:102D6000089520835ACF789484B5826084BD84B559
:102D7000816084BD85B5826085BD85B5816085BD76
:102D800080916E00816080936E001092810080912E
:102D900081008260809381008091810081608093B6
:102DA0008100809180008160809380008091B100DB
:102DB00084608093B1008091B00081608093B00006
:102DC00080917A00846080937A0080917A0082609A
:102DD00080937A0080917A00816080937A0080915C
:102DE0007A00806880937A001092C10088E1809315
:102DF000620580916305909164050E94971BC091C4
:102E00006205D0E0CE0101960E94FB1A9093640502
:102E100080936305FC01EC0FFD1F108212E0DC01C2
:102E20001C9325E011962C93AE01425051096DEF91
:102E300071E002960E94421C8CEA96E090931B037C
:102E400080931A0380E096E090931903809318030F
:102E500089E399E0909317038093160385EF99E037
:102E600090931503809314038DE19CE090931303DA
:102E7000809312038AEC97E09093110380931003E0
:102E800087EF9DE090931D0380931C0385E79DE0F1
:102E900090931F0380931E03E091B803F091B90350
:102EA0001083E091B803F091B9031082E091B4036C
:102EB000F091B5031082E091B603F091B70380E181
:102EC00080831092C003E091BC03F091BD0386E0C3
:102ED0008083E091BA03F091BB038081806180839D
:102EE000E091BA03F091BB03808188608083E09118
:102EF000BA03F091BB03808180688083E091BA03BC
:102F0000F091BB0380818F7D80838091A105811129
:102F10004FC061E08DE00E94BD0262ED70E080E094
:102F200090E00E94330361E08DE00E94710268E24C
:102F300070E080E090E00E94330360E08DE00E944A
:102F4000710262ED70E080E090E00E94330361E086
:102F50008DE00E94710268E270E080E090E00E94E3
:102F6000330360E08DE00E9471026AEF70E080E060
:102F700090E00E943303C5E062ED70E080E090E0F5
:102F80000E94330361E08DE00E94710268E270E00C
:102F900080E090E00E94330360E08DE00E947102C7
:102FA000C15051F76DE770E080E090E00E9433037C
:102FB00088EA93E0909361058093600590932305E0
:102FC0008093220582E295E00E94D70082EE94E091
:102FD0000E94200A0E94750D0E94EE0525E0D22E67
:102FE000C0E0D0E0CC24C39402E010E0EE24E394EF
:102FF000F12C80912303882349F069B1809120034B
:1030000068236C7F40E080E00E94B3098091240334
:10301000882379F063B186B16F73B0E48B9FC001F0
:103020001124682B80912103682340E081E00E94F5
:10303000B30980912503882359F066B1809122035A
:103040008F7066956695682340E082E00E94B30920
:103050008091600590916105DC01ED91FC91008407
:10306000F185E02D0995892B09F4CEC18091600589
:1030700090916105DC01ED91FC910284F385E02DD6
:1030800009959C018F3F980719F3982F80912D0582
:10309000882309F492C0973F09F07EC010922D0555
:1030A000A0912505B09126056C916137C1F1693772
:1030B00009F05CC0E0915A05F0915B05309741F250
:1030C00080912E0590912F058330910560F430E0BA
:1030D00020E050E040E070E060E080913C0590919D
:1030E0003D050995B5CFBD016D5F7F4F03970E94E8
:1030F0003101BC016D5F7F4F80E00E940101E091D2
:103100002505F09126059F012D5F3F4F428150E03C
:10311000618170E0E0915A05F0915B05DECF80910E
:10312000560590915705892B09F492CFBD016F5F29
:103130007F4F80912E0590912F0501970E943101BC
:10314000BC016F5F7F4F80E00E9401016091250507
:10315000709126056F5F7F4FE0915605F0915705FE
:103160008091420590914305099572CFE0915805F1
:10317000F0915905309709F46BCF9D012F5F3F4FB8
:1031800040912E0550912F054150510980914405E1
:103190009091450509955CCF60912E0570912F05A2
:1031A000822F0E94010180912E0590912F0501969A
:1031B00090932F0580932E054BCF60912B05709136
:1031C0002C056115710509F4B1C027FDAFC0615030
:1031D000710970932C0560932B05822F0E940101C9
:1031E00080912B0590912C05892B09F031CF80918E
:1031F0002905882309F42CCF803D09F483C040F4CD
:10320000803949F1803C09F469C01092290520CF2A
:10321000843FE1F1853F09F44DC0803EB1F7E09174
:103220004805F0914905309781F3A0912505B091AB
:1032300026054C9120E8429FC001112411964C9123
:10324000480F592F511D60912A05809130059091AA
:1032500031050995DACFE0914A05F0914B05309799
:10326000A1F2A0912505B09126054C9120E8429F3E
:10327000C001112411964C91480F592F511D609196
:103280002A058091320590913305E3CFE0915005F6
:10329000F0915105309709F4B8CFA0912505B09170
:1032A00026054C9150E011966C91809138059091D3
:1032B0003905CFCFE0915205F0915305309709F4CD
:1032C000A4CFA0912505B09126054C9150E0119610
:1032D0006C9180913A0590913B05BBCFE0914C05F4
:1032E000F0914D05309709F490CFA0912505B0914C
:1032F00026054C9150E060912A058091340590910B
:103300003505A7CFE0914E05F0914F05309709F4B0
:103310007CCFA0912505B09126054C9150E060919D
:103320002A05809136059091370593CF903F30F470
:10333000822F8F7080932A05922F907F903FF1F11A
:1033400090F4903CB1F150F4903909F081CE109393
:103350002C0500932B05909329057ACE903D49F1D9
:10336000903EA9F375CE993F09F442C028F48CE051
:10337000890F823060F36CCE9F3F09F069CE1092C6
:103380002C0510922B051092290510922A0590E029
:1033900080E0209127053091280582179307A8F433
:1033A000E0912505F0912605E80FF91F108201969E
:1033B000F0CFF0922C05E0922B05CDCFC0922D05D9
:1033C00010922F0510922E0543CE10922D051092CB
:1033D0002F0510922E05E0915E05F0915F0580911A
:1033E000460590914705309709F432CE099530CEC5
:1033F000E0915C05F0915D05309709F429CE80914C
:103400003E0590913F05F2CF8FB7F8948090260348
:1034100090902703A0902803B09029038FBF80913C
:10342000540390915503A0915603B09157034091D6
:1034300001015091020170E060E0881A990AAA0A1D
:10344000BB0A481559056A057B0508F054C0840F6E
:10345000951FA61FB71F8093540390935503A09305
:103460005603B093570382EE882E84E0982E92EF95
:10347000B92E85E08B15C8F0F401ED57FF4F808120
:10348000823099F480915203909153030B2C02C027
:10349000959587950A94E2F780FF07C08B2D0E94CF
:1034A000F902BC018B2D0E94D908B394AFEF8A1AA0
:1034B0009A0AB6E0BB12DDCF8091000187FD1BC0E8
:1034C000B12C2B2D30E080910001082E000C990BBF
:1034D0008217930784F0D29EF001D39EF00D112441
:1034E000E65DFC4F618172812481438180810E946D
:1034F000A50AB394E6CF209709F47BCD0E94CE01B4
:10350000882309F476CD0E94000073CD052E97FB29
:103510001EF400940E949D1A57FD07D00E94B81A0D
:1035200007FC03D04EF40C949D1A509540953095AD
:1035300021953F4F4F4F5F4F08959095809570951F
:1035400061957F4F8F4F9F4F08950E94DA1AA59F74
:10355000900DB49F900DA49F800D911D112408958E
:10356000B7FF0C94A51A0E94A51A821B930B08950D
:10357000A1E21A2EAA1BBB1BFD010DC0AA1FBB1F77
:10358000EE1FFF1FA217B307E407F50720F0A21BE9
:10359000B30BE40BF50B661F771F881F991F1A9456
:1035A00069F760957095809590959B01AC01BD0180
:1035B000CF010895A29FB001B39FC001A39F700DDA
:1035C000811D1124911DB29F700D811D1124911D2B
:1035D0000895991B79E004C0991F961708F0961B6F
:1035E000881F7A95C9F780950895EE0FFF1F059003
:1035F000F491E02D09940F931F93CF93DF938230C2
:10360000910510F482E090E0E091A405F091A50509
:1036100030E020E0B0E0A0E0309799F421153105CA
:1036200009F44AC0281B390B24303105D8F58A81AA
:103630009B816115710589F1FB0193838283FE01F2
:1036400011C0408151810281138148175907E0F070
:103650004817590799F4109761F012960C93129736
:1036600013961C933296CF01DF91CF911F910F914A
:1036700008950093A4051093A505F4CF21153105F5
:1036800051F04217530738F0A901DB019A01BD013F
:10369000DF01F801C1CFEF01F9CF9093A505809329
:1036A000A405CDCFFE01E20FF31F81939193225029
:1036B000310939832883D7CF2091A2053091A30502
:1036C000232B41F420910501309106013093A3058D
:1036D0002093A205209103013091040121153105A9
:1036E00041F42DB73EB74091070150910801241BCA
:1036F000350BE091A205F091A305E217F307A0F4C2
:103700002E1B3F0B2817390778F0AC014E5F5F4F37
:103710002417350748F04E0F5F1F5093A3054093C1
:10372000A205819391939FCFF0E0E0E09CCFCF93EF
:10373000DF930097E9F0FC01329713821282A09187
:10374000A405B091A505ED0130E020E01097A1F4AB
:1037500020813181820F931F2091A2053091A30512
:103760002817390709F061C0F093A305E093A2057B
:10377000DF91CF910895EA01CE17DF07E8F54A817E
:103780005B819E0141155105B1F7E901FB83EA8395
:1037900049915991C40FD51FEC17FD0761F4808141
:1037A00091810296840F951FE90199838883828114
:1037B00093819B838A83F0E0E0E012968D919C9147
:1037C00013970097B9F52D913C911197CD01029671
:1037D000820F931F2091A2053091A3052817390766
:1037E00039F6309751F51092A5051092A405B093C3
:1037F000A305A093A205BCCFD383C283408151818E
:10380000840F951FC817D90761F44E5F5F4F8881F9
:103810009981480F591F518340838A819B819383EB
:1038200082832115310509F0B0CFF093A505E0930F
:10383000A4059ECFFD01DC01C0CF13821282D7CF39
:10384000FB01DC0102C001900D9241505040D8F7BD
:1038500008956817790768F4FB01DC01E40FF51F90
:10386000A40FB51F02C002900E9241505040D8F7ED
:1038700008950C94201CDC0101C06D934150504010
:10388000E0F70895FB01DC014150504048F0019001
:103890000D920020C9F701C01D9241505040E0F741
:0638A0000895F894FFCF2B
:1038A600FF13000000A6058000000000000402646B
:1038B6000191015102C201A001B4010000000015EE
:1038C60005E8044405BE04E104CE04BF04493243BE
:1038D6003A20546F6F206D616E792062797465733A
:1038E600207265636569766564004932433A2054FF
:1038F6006F6F2066657720627974657320726563E1
:103906006569766564004D617820736572766F73BC
:1039160020617474616368656400556E6B6E6F77C1
:103926006E2070696E206D6F64650031302D62699E
:10393600742061646472657373696E67206E6F7458
:1039460020737570706F7274656400746F6F206D8C
:10395600616E792071756572696573002F5573659F
:1039660072732F616A6669736865722F6465762F54
:103976006E6F64652D706978656C2F6669726D77F8
:103986006172652F6275696C642F6E6F64655F7016
:103996006978656C5F6669726D6174612F6E6F64BC
:1039A600655F706978656C5F6669726D6174612EBA
:0439B600696E6F00C7
:00000001FF
