:100000000C945D000C9485000C9485000C94850084
:100010000C9485000C9485000C9485000C9485004C
:100020000C9485000C9485000C9485000C9485003C
:100030000C9485000C9485000C9485000C9485002C
:100040000C945B050C9485000C9485000C94850041
:100050000C9485000C9485000C9485000C9485000C
:100060000C94A5050C9485000000000024002700D6
:100070002A0000000000250028002B0004040404CE
:100080000404040402020202020203030303030342
:10009000010204081020408001020408102001021F
:1000A00004081020000000080002010000030407FB
:1000B0000000000000000000D30611241FBECFEF97
:1000C000D8E0DEBFCDBF11E0A0E0B1E0EEEEF1E19F
:1000D00002C005900D92A831B107D9F722E0A8E13E
:1000E000B1E001C01D92A133B207E1F710E0CDE508
:1000F000D0E004C02197FE010E949807CC35D107BB
:10010000C9F70E94F5060C94F5080C94000090E0E5
:10011000FC01EC55FF4F2491FC01E057FF4F349157
:10012000FC01E458FF4FE491EE23B1F1222339F1B1
:10013000233091F038F42130A9F0223001F584B554
:100140008F7D12C0273091F02830A1F02430B9F40F
:10015000809180008F7D03C0809180008F77809395
:1001600080000DC084B58F7784BD09C08091B00038
:100170008F7703C08091B0008F7D8093B000F0E056
:10018000EE0FFF1FEE58FF4FA591B4918FB7F89473
:10019000EC91E32BEC938FBF08953FB7F8948091D7
:1001A000D5019091D601A091D701B091D80126B583
:1001B000A89B05C02F3F19F00196A11DB11D3FBF9F
:1001C000BA2FA92F982F8827820F911DA11DB11D2D
:1001D000BC01CD0142E0660F771F881F991F4A9529
:1001E000D1F708950895CF93DF93AC01E091CE014C
:1001F000F091CF013097F1F09091CD018091CC0139
:100200009817C0F090E0292F30E02617370754F4F4
:10021000D901A45CBE4FEA01C20FD31F28812C93E1
:100220009F5FF1CF1092CD016093CC01CB01DF91A4
:10023000CF910994DF91CF910895CF92DF92EF9201
:10024000FF920F931F93CF93DF936C017A018B0181
:10025000C0E0D0E0CE15DF0581F0D8016D918D01B1
:10026000D601ED91FC910190F081E02DC601099538
:10027000892B11F02196EECF7E01C701DF91CF913E
:100280001F910F91FF90EF90DF90CF90089585ED33
:100290008093BC008091BC0084FDFCCF1092C9010A
:1002A000089540917C01262F30E0240F311D21322A
:1002B0003105DCF42091C9012430C9F4FC0180E04F
:1002C00090E0861758F430917C012191DC01A45A0A
:1002D000BE4FA30FB11D2C930196F3CF80917C01EB
:1002E000680F60937C0180E0089581E0089582E0CA
:1002F00008950895E091CD018091CC01E81730F484
:10030000F0E0E45CFE4F808190E008958FEF9FEF76
:1003100008959091CD018091CC01981750F4E92F68
:10032000F0E0E45CFE4F208130E09F5F9093CD01D0
:1003300002C02FEF3FEFC90108958091CC0190E0FA
:100340002091CD01821B91090895CF93DF93CB01BA
:10035000EA01642F0E945101CE01DF91CF910895EF
:10036000CF93DF931F92CDB7DEB7698361E0CE01F3
:1003700001960E94510181E090E00F90DF91CF91B2
:100380000895089580E090E0089520913A01309119
:100390003B018217930720F5880F991F880F991F3B
:1003A000E0913801F0913901209137018E0F9F1FA4
:1003B000FC01E20FF11D708320913601FC01E20F78
:1003C000F11D608320913501FC01E20FF11D508386
:1003D00020913401FC01E20FF11D408380E008957B
:1003E00081E00895DC0170E0FB01E057FF4FE491EC
:1003F0001896EC93189764587F4FFB018491E82F6F
:10040000F0E0EE0FFF1FEE58FF4F85919491159687
:100410009C938E931497FB016491E62FF0E0EE0F0E
:10042000FF1FE859FF4F8591949117969C938E93E7
:10043000169708950F931F93CF93809333011092D3
:10044000320110923B0110923A01E2E2F1E0AAE19E
:10045000B1E0119211921D9291E0E233F907C9F7D0
:10046000882361F005EE11E0C0E06C2FC8010E9406
:10047000F201CF5F075F1F4FC830B9F7CF911F91CF
:100480000F9108950E94CE085F926F927F928F9293
:100490009F92AF92BF92CF92DF92EF92FF920F9313
:1004A0001F93CF93DF93CDB7DEB760970FB6F89465
:1004B000DEBF0FBECDBF5C0110E0E12EF12CEA14CF
:1004C000FB0494F489ED91E0103150F40E9489010D
:1004D000E1E0F0E0EC0FFD1FEE0DFF1D808302C098
:1004E0000E9489011F5FE9CF9981892F8F70833026
:1004F00009F4EEC030F4813009F43CC1823041F09F
:10050000C4C2843009F475C0853009F4F6C1BDC297
:10051000809119018111B9C2809118018111B5C270
:1005200081E08093190190E009E0809132019817F1
:1005300008F05CC0292F30E0A901465E5E4FDA0169
:100540008C91882309F44EC0E0903801F090390175
:10055000029FD001039FB00D1124AB51BE4F1696E0
:10056000ED91FC911797208118968C911897822B0A
:10057000808314966D917C9115971896DC9018974E
:100580002D913C911197220F331F220F331F12968A
:10059000ED91FC911397EE0FFF1FEE0FFF1FEE0D75
:1005A000FF1DDB018C911D2D10951823C82ECD2821
:1005B000FFB6F8942E0F3F1FE217F30789F0E19082
:1005C000DB0188E0CC9200C0E7FE1C93EE0C00C07B
:1005D00000C000C008F41C9300C08A9599F7ECCFC6
:1005E000FFBE7894DA011C929F5F9FCF1092190191
:1005F0004CC280911801811148C28D8190E0A0E029
:10060000B0E0AC01BD01E5E1440F551F661F771F47
:10061000EA95D1F79E81892F90E0A0E0B0E0FCE15F
:10062000880F991FAA1FBB1FFA95D1F7840F951F3A
:10063000A61FB71F2A81820F911DA11DB11DCC805D
:10064000D12CE12CF12C1EE0CC0CDD1CEE1CFF1C8F
:100650001A95D1F78C0D9D1DAE1DBF1D4B8150E02D
:1006600060E070E007E0440F551F661F771F0A9592
:10067000D1F76C017D01C40ED51EE61EF71EC11414
:10068000D104E104F10419F000E010E011C0409140
:100690003A0150913B01440F551F440F551F60E034
:1006A00070E080913801909139010E94EE08B9C143
:1006B00080913A0190913B010817190708F0B1C1E8
:1006C000B701A601C8010E94C5010F5F1F4FF0CFFF
:1006D000809118018111D9C18B810A8110E0B0E8A5
:1006E0008B9F000D111D1124AF81B0E020E030E0A0
:1006F00040E250E10E948D072C816B017C01C20E0B
:10070000D11CE11CF11C8E81482F50E060E070E0AC
:100710009EE0440F551F661F771F9A95D1F74C0D29
:100720005D1D6E1D7F1D8D8190E0A0E0B0E027E093
:10073000880F991FAA1FBB1F2A95D1F7480F591F71
:100740006A1F7B1FC8010E94C50140913201A2E2CD
:10075000B1E080E090E0841708F097C1FC012D9192
:100760003D91019602171307B0F7E65EFE4F81E058
:1007700080838BC1913009F088C1E2E0EA1508F06E
:1007800084C1809133010E941A028BEAA89EF12C49
:100790001124F694B2E28B2EB1E09B2E15EEA12E21
:1007A00011E0B12ECE0101966C01E12C77247394F7
:1007B00002E0602E83E0582E80913301811107C042
:1007C000D60111966C916F71C5010E94F201F6017C
:1007D000218130E0A5E035952795AA95E1F72130F4
:1007E0003105B9F03CF4232B09F5109236017092D3
:1007F000370113C02230310599F023303105B1F4AF
:100800001092370170923601609235015092340196
:100810000DC010923701709236016092350106C00A
:10082000109235017092370160923601D60113960D
:100830008C91139712960C9110E0B0E88B9F000DED
:10084000111D1124F50111830083EE2029F0F4011C
:1008500032978081918102C080E090E09801280F5A
:10086000391FD4012D933D934D01F501938382836C
:1008700080913A0190913B01080F191F10933B01A1
:1008800000933A01809132018F5F80933201E394AB
:10089000F9E0AF0EB11C23E0C20ED11CFE108CCFCC
:1008A0008091380190913901009731F00E944508FC
:1008B00010923B0110923A010115110509F4E5C0AF
:1008C0007801EE0CFF1CEE0CFF1CC7010E94AD0767
:1008D0009093390180933801009751F0A70160E0AF
:1008E00070E00E94EE0810933B0100933A01CDC0E6
:1008F00010923B0110923A01C8C08A81982F9F71D3
:1009000009F48FC0A82FA072AA2E092F000F000F84
:1009100021E02093180110E0E92EF12CB82FB074DB
:10092000BB2E86FF27C0C8010E94AD076C0100974F
:1009300029F0A80160E070E00E94EE08AA2039F0DA
:1009400060913A0170913B016E197F0902C060E02D
:1009500070E0660F771F660F771F809138019091C6
:100960003901680F791FA801C6010E94D308A110A0
:1009700076C018C0AA23B1F0809138019091390156
:1009800040913A0150913B014E195F09440F551FA8
:10099000440F551FBC01800F911F0E94DC0880E0AE
:1009A00090E02EC080903A0190903B018E189F08F5
:1009B0008091380190913901A401440F551F440FD3
:1009C000551FBC01600F711F0E94DC08BB2091F015
:1009D000880C991C880C991C8091380190913901E0
:1009E000A801B601880D991D0E94D308C6010E9476
:1009F000450815C080913A0190913B018E199F09DD
:100A0000880F991F880F991F209138013091390163
:100A1000A80160E070E0820F931F0E94EE08109220
:100A200018014091320150E061E070E08AE191E00C
:100A300060960FB6F894DEBF0FBECDBFDF91CF91A9
:100A40001F910F91FF90EF90DF90CF90BF90AF90EC
:100A50009F908F907F906F905F900C94EE088091A4
:100A600038019091390140913A0150913B014E1962
:100A70005F09440F551F440F551FBC01800F911F84
:100A80000E94DC08812C912CA3CF60960FB6F894BD
:100A9000DEBF0FBECDBFDF91CF911F910F91FF90B1
:100AA000EF90DF90CF90BF90AF909F908F907F900E
:100AB0006F905F9008951F920F920FB60F921124BE
:100AC0002F933F938F939F93AF93BF938091D101C7
:100AD0009091D201A091D301B091D4013091D00175
:100AE00023E0230F2D3720F40196A11DB11D05C071
:100AF00026E8230F0296A11DB11D2093D0018093FB
:100B0000D1019093D201A093D301B093D4018091ED
:100B1000D5019091D601A091D701B091D80101964D
:100B2000A11DB11D8093D5019093D601A093D7014B
:100B3000B093D801BF91AF919F918F913F912F9129
:100B40000F900FBE0F901F9018951F920F920FB627
:100B50000F9211242F933F934F935F936F937F9343
:100B60008F939F93AF93BF93EF93FF938091B900BF
:100B7000887F803609F49CC068F5883209F45BC030
:100B800090F4803109F454C038F4882309F4F6C095
:100B9000883009F44DC0F6C0883109F44CC0803269
:100BA00009F45DC0EFC0803409F468C048F48033B4
:100BB00009F455C0883309F0E5C080939F01D8C07F
:100BC000803509F44FC0883509F45DC0883409F0D8
:100BD000D9C0D6C0883909F4C7C0A8F4883709F449
:100BE00067C038F4883609F463C0803709F460C000
:100BF000C9C0883809F4B8C0803909F45FC08038AA
:100C000009F0C0C05BC0803B09F486C038F4803A6C
:100C100009F466C0883A09F47FC0B4C0803C09F486
:100C2000A7C0883C09F4A4C0883B09F48AC0AAC0C4
:100C30008091C20110C09091C1018091C0019817AC
:100C400070F5E091C10181E08E0F8093C101F0E069
:100C5000E056FE4F80818093BB0085EC86C0809378
:100C60009F018EC0E091C10181E08E0F8093C10190
:100C70008091BB00F0E0E056FE4F80839091C1016F
:100C80008091C0016EC0E091C10181E08E0F809320
:100C9000C1018091BB00F0E0E056FE4F808380915F
:100CA000C80181116DC081E08093C70184EA61C0F1
:100CB00083E08093C90110929E01CFCF80919E0165
:100CC000803208F051C0E0919E0181E08E0F809348
:100CD0009E018091BB00F0E0E258FE4F8083BDCFC3
:100CE00085EC8093BC001092C90180919E018032F6
:100CF00030F4E0919E01F0E0E258FE4F10826091E6
:100D00009E0170E0E091C301F091C4018EE791E093
:100D1000099510929E0136C084E08093C90110921B
:100D20007D0110927C01E091C501F091C601099509
:100D300080917C01811105C081E080937C0110923B
:100D40005C01E0917D0181E08E0F80937D01F0E0F8
:100D5000E45AFE4F80818093BB0090917D01809189
:100D60007C01981708F479CF85E88093BC000AC00D
:100D700085EC8093BC001092C90104C010929F01C1
:100D80000E944701FF91EF91BF91AF919F918F9189
:100D90007F916F915F914F913F912F910F900FBE77
:100DA0000F901F9018951092DC011092DB0188EED5
:100DB00093E0A0E0B0E08093DD019093DE01A0938A
:100DC000DF01B093E0018AE091E09093DA01809333
:100DD000D901E5EEF1E01182108213821282399678
:100DE00082E0ED32F807B9F70895789484B582600F
:100DF00084BD84B5816084BD85B5826085BD85B5BF
:100E0000816085BD80916E00816080936E0010923C
:100E100081008091810082608093810080918100B7
:100E20008160809381008091800081608093800048
:100E30008091B10084608093B1008091B0008160A6
:100E40008093B00080917A00846080937A008091D2
:100E50007A00826080937A0080917A00816080932A
:100E60007A0080917A00806880937A001092C100A5
:100E70001092CD011092CC011092CB011092CA01B8
:100E80001092C90181E08093C8011092C70182E1EC
:100E90000E94870083E10E9487008091B9008E7FC5
:100EA0008093B9008091B9008D7F8093B90088E468
:100EB0008093B80085E48093BC0082EF90E090932B
:100EC000C6018093C50183EF90E09093C4018093A5
:100ED000C30184E88093BA0084E492E09093CF0148
:100EE0008093CE0181E00E941A02C0E0D0E00E940F
:100EF000CD006B017C010E94CD00DC01CB018C197F
:100F00009D09AE09BF09883E9340A105B10598F33C
:100F1000209769F30E940000EACF0E949E07A59FD8
:100F2000900DB49F900DA49F800D911D11240895E4
:100F3000EE0FFF1F0590F491E02D0994A29FB001E0
:100F4000B39FC001A39F700D811D1124911DB29FFD
:100F5000700D811D1124911D08950F931F93CF9340
:100F6000DF938230910510F482E090E0E0912F024F
:100F7000F091300220E030E0A0E0B0E0309719F1CD
:100F8000408151810281138148175907C8F08417A5
:100F9000950769F4109731F012960C9312971396F7
:100FA0001C9327C000932F021093300222C02115FA
:100FB000310519F04217530718F49A01BD01EF01EA
:100FC000DF01F801DBCF21153105F9F0281B390BC2
:100FD0002430310580F48A819B816115710521F0EF
:100FE000FB019383828304C09093300280932F028D
:100FF000FE01329644C0FE01E20FF31F81939193EC
:1010000022503109398328833AC020912D02309132
:101010002E02232B41F420910201309103013093E1
:101020002E0220932D022091000130910101211503
:10103000310541F42DB73EB74091040150910501AF
:10104000241B350BE0912D02F0912E02E217F307DD
:10105000A0F42E1B3F0B2817390778F0AC014E5F28
:101060005F4F2417350748F04E0F5F1F50932E0235
:1010700040932D028193919302C0E0E0F0E0CF0114
:10108000DF91CF911F910F910895CF93DF93009738
:1010900009F481C0FC01329713821282A0912F02C1
:1010A000B0913002109781F420813181820F931F1B
:1010B00020912D0230912E022817390751F5F09317
:1010C0002E02E0932D0267C0ED0120E030E0CE1744
:1010D000DF0740F44A815B819E0141155105F1F023
:1010E000EA01F5CFD383C28340815181840F951FDC
:1010F000C817D90759F488819981840F951F0296E2
:10110000918380838A819B8193838283211531051A
:1011100029F4F0933002E0932F023DC0E901FB83F4
:10112000EA8349915991C40FD51FEC17FD0761F46B
:1011300080819181840F951F0296E90199838883AC
:10114000828193819B838A83E0E0F0E012968D9107
:101150009C911397009719F0FD01DC01F7CF8D9159
:101160009C9111979D012E5F3F4F820F931F2091FD
:101170002D0230912E022817390769F4309729F48F
:101180001092300210922F0202C013821282B0938A
:101190002E02A0932D02DF91CF91089581E090E07F
:1011A000F8940C94F508FB01DC0102C001900D924B
:1011B00041505040D8F708956817790768F4FB014B
:1011C000DC01E40FF51FA40FB51F02C002900E92C0
:1011D00041505040D8F708950C94D308DC0101C069
:0E11E0006D9341505040E0F70895F894FFCF12
:1011EE0000003102800000000000B001A501C20124
:0811FE0079019D0189017A01CC
:00000001FF
