:100000000C9469000C9491000C9491000C94E110F4
:100010000C94E1100C94E1100C9491000C9491005C
:100020000C9491000C9491000C9491000C94B713D3
:100030000C9491000C9491000C9491000C949100FC
:100040000C948E010C9491000C94FE010C94D80138
:100050000C9491000C9491000C9491000C949100DC
:100060000C9409120C949100ED0B120CDB0B250C77
:10007000440C760C6B0C760C760C760CA10CFC0BFD
:1000800000000000240027002A00000000002500D6
:1000900028002B00040404040404040402020202E5
:1000A000020203030303030301020408102040803B
:1000B00001020408102001020408102000000008BA
:1000C000000201000003040700000000000000001F
:1000D0007F1811241FBECFEFD8E0DEBFCDBF12E0E6
:1000E000A0E0B1E0E6EDF6E302C005900D92AE317E
:1000F000B107D9F725E0AEE1B2E001C01D92A53B02
:10010000B207E1F710E0C9E6D0E004C02197FE0194
:100110000E940C1AC836D107C9F70E94C6140C9465
:10012000691B0C940000CF92DF92EF92FF920F9325
:100130001F93CF93DF936C017A018B01C0E0D0E075
:10014000CE15DF0581F0D8016D918D01D601ED91BD
:10015000FC910190F081E02DC6010995892B11F0E9
:100160002196EECF7E01C701DF91CF911F910F91B4
:10017000FF90EF90DF90CF900895FC01538D448D58
:10018000252F30E0842F90E0821B930B541710F042
:10019000CF96089501970895FC01918D828D98174F
:1001A00061F0828DDF01A80FB11D5D968C91928D5B
:1001B0009F5F9F73928F90E008958FEF9FEF089558
:1001C000FC01918D828D981731F0828DE80FF11D21
:1001D000858D90E008958FEF9FEF08950E94331B67
:1001E00087E093E00E94470F21E0892B09F420E08B
:1001F000822F0895EF92FF920F931F93CF93DF9377
:10020000EC0181E0888F9B8D8C8D981305C0E88967
:10021000F989808185FD26C0F62E0B8D10E00F5FD9
:100220001F4F0F731127E02E8C8DE8120CC00FB6F4
:1002300007FCFACFE889F989808185FFF5CFCE01E7
:100240000E94BF10F1CF8B8DFE01E80FF11DE35A24
:10025000FF4FF0829FB7F8940B8FEA89FB8980816A
:1002600080620AC09FB7F894EE89FF896083E889AD
:10027000F98980818370806480839FBF81E090E0F2
:10028000DF91CF911F910F91FF90EF900895CF9341
:10029000DF93EC01888D8823C9F0EA89FB8980818E
:1002A00085FD05C0A889B9898C9186FD0FC00FB660
:1002B00007FCF5CF808185FFF2CFA889B9898C91A1
:1002C00085FFEDCFCE010E94BF10E7CFDF91CF9128
:1002D00008953FB7F8948091670290916802A091C9
:1002E0006902B0916A0226B5A89B05C02F3F19F09C
:1002F0000196A11DB11D3FBFBA2FA92F982F8827A6
:10030000820F911DA11DB11DBC01CD0142E0660F00
:10031000771F881F991F4A95D1F708951F920F9252
:100320000FB60F9211242F933F938F939F93AF9308
:10033000BF938091630290916402A0916502B09195
:1003400066023091620223E0230F2D3720F40196DC
:10035000A11DB11D05C026E8230F0296A11DB11DE8
:10036000209362028093630290936402A0936502DB
:10037000B09366028091670290916802A091690231
:10038000B0916A020196A11DB11D809367029093FE
:100390006802A0936902B0936A02BF91AF919F91E6
:1003A0008F913F912F910F900FBE0F901F90189536
:1003B0001F920F920FB60F9211242F933F934F93DA
:1003C0005F936F937F938F939F93AF93BF93EF93BD
:1003D000FF9387E093E00E94BF10FF91EF91BF91E0
:1003E000AF919F918F917F916F915F914F913F91CD
:1003F0002F910F900FBE0F901F9018951F920F9284
:100400000FB60F9211242F938F939F93EF93FF9327
:10041000E0911703F09118038081E0911D03F091A2
:100420001E0382FD12C09081809120038F5F8F7325
:1004300020912103821751F0E0912003F0E0E95F61
:10044000FC4F958F8093200301C08081FF91EF9135
:100450009F918F912F910F900FBE0F901F90189525
:100460006F927F928F929F92AF92BF92CF92DF92C4
:10047000EF92FF920F931F93CF93DF93EA018F3692
:1004800009F4C5C1162F803778F4893609F491C272
:1004900020F4813509F49FC254C58B3609F4E2C1BA
:1004A0008D3609F435C24DC5863761F020F48037AA
:1004B00009F44BC146C5883709F4F2C08A3709F4FC
:1004C00092C13FC52981922F987125FF03C08EE804
:1004D00091E062C0888131E026FB222720F92327A2
:1004E000983069F160F491112CC53093E302809348
:1004F00005031092E4021092060302E007C0903157
:1005000009F444C0983109F47EC01BC5011778F482
:10051000FE01E00FF11D6181679566276795808177
:10052000680F8AE694E00E943A100E5FEFCF81E0F8
:100530000E94C90D83E191E00197F1F702C54B815B
:100540006A81163069F470E030E8439F600D711DD8
:1005500011244D814795442747959C81490F06C03A
:10056000479544274795460F6FEF7FEFDF91CF9177
:100570001F910F91FF90EF90DF90CF90BF90AF90C1
:100580009F908F907F906F900C942A0AE0910001C9
:10059000E73094F08EEA91E0DF91CF911F910F91B7
:1005A000FF90EF90DF90CF90BF90AF909F908F9093
:1005B0007F906F900C94860D9B813A81663071F428
:1005C000632F70E040E8949F600D711D11249D81A0
:1005D0009795992797954C81940F06C097959927E1
:1005E0009795930F6FEF7FEFEF5FE093000135E09A
:1005F000E302F0011124EC5CFD4F80837283618380
:10060000938324839EC42091000112163CF490E051
:10061000622F022E000C770B35E00FC08FEF809316
:1006200000018FC4349FF001359FF00D1124EC5C64
:10063000FD4F4081841739F09F5F492F50E06417C8
:10064000750784F790E085E022C09830F8F4FA014D
:1006500031968E9FD0018F9FB00D1124AC5CBD4FA1
:100660003C91849FF001859FF00D1124EC5CFD4FBF
:10067000308311964D915C9112975283418313966A
:100680003C911397338314963C9134839F5F492F99
:1006900050E064177507CCF621502093000151C437
:1006A0002981888190E040E8249F800D911D1124CC
:1006B000009721F090936C0280936B028091220549
:1006C00081113FC4C0E08EEE8C0F823028F466E0CA
:1006D00070E08C2F0E944D0BCF5FC631A1F781E0F7
:1006E0008093220510926605109265051092E4022F
:1006F000109206031092E2028093E1021092BC0273
:1007000061E082E10E946D0E61E083E10E946D0E66
:100710008091B9008E7F8093B9008091B9008D7F60
:100720008093B90088E48093B80085E48093BC008E
:100730008FED9FE0909368058093670580EE9FE0C2
:1007400090936A0580936905FCC3653008F4F9C38A
:1007500018818EEF810F823108F0F3C30981EA809E
:10076000FB80CC81E12FF0E0E75FFA4F80818C3095
:10077000B0F490E0FC01EE0FFF1F8E0F9F1FFC01F5
:10078000ED51FB4F808190E0FC01EE0FFF1F8E0FBB
:100790009F1FFC01E254FB4F808186FDB8C34F2DA3
:1007A00050E080E8C89F400D511D1124602F70E07B
:1007B00090E8E99E600D711D1124812F0E940F0B9E
:1007C00064E070E0812FDF91CF911F910F91FF9036
:1007D000EF90DF90CF90BF90AF909F908F907F90E1
:1007E0006F900C944D0B623008F4ABC32981888163
:1007F00090E0E0E82E9F800D911D1124009711F4E8
:1008000081E090E090930201809301019AC36230ED
:1008100008F497C3898190E0623091F02A81F0E872
:100820002F9F90011124822B932B633049F02B8151
:1008300030E030E4239F302D22271124822B932B8C
:10084000BC018881DF91CF911F910F91FF90EF90B4
:10085000DF90CF90BF90AF909F908F907F906F90E0
:100860000C94C10880EF0E94BC0D8CE60E94BC0D68
:10087000CEEF84EF8C0F883038F482E00E94BC0DFC
:100880008AE00E94BC0D09C0C13039F483E00E94A7
:10089000BC0D88E00E94BC0D08C08DEF8C0F82302B
:1008A000A8F389EF8C0F833088F3C23130F484E0F1
:1008B0000E94BC0D8EE00E94BC0D80EF8C0F823038
:1008C00030F486E00E94BC0D81E00E94BC0D8FE7F1
:1008D0000E94BC0DCF5FC43151F1C23150F680E0AF
:1008E0000E94BC0D81E00E94BC0D8BE00E94BC0DFB
:1008F00081E00E94BC0D81E00E94BC0D81E00E945D
:10090000BC0D81E50E94BC0D81E00E94BC0DB1CF01
:10091000662309F416C3C88180EF0E94BC0D8EE6E1
:100920000E94BC0D8C2F0E94BC0DC63188F087EF51
:10093000DF91CF911F910F91FF90EF90DF90CF90BB
:10094000BF90AF909F908F907F906F900C94BC0D54
:10095000D0E0FE01E95DFB4F80810E94BC0DCC0F11
:10096000DD1F8E01035C1B4FF80180818F770E9491
:10097000BC0DF801808191819C012078232B39F0F6
:10098000880F892F881F990B8F770E94BC0DC35C3D
:10099000DB4F888199819C012227307C232B39F2FF
:1009A000990F880B990F982F881F8F770E94BC0D85
:1009B000BECF80EF0E94BC0D8AE60E94BC0DC2EF44
:1009C000C83010F08FE701C08C2F0E94BC0DCF5FA4
:1009D000C830B1F7ACCF662309F4B3C29881892F30
:1009E0008F70833009F4CEC030F4813009F41FC118
:1009F000823041F0A6C2843009F467C0853009F422
:100A0000DDC19FC280916F0281119BC280916E02F5
:100A1000811197C281E080936F0290E019E080918C
:100A20003C05981708F04EC0292F30E0A9014C5D15
:100A30005A4FFA018081882309F440C0E0904105B3
:100A4000F0904205129FE001139FD00D1124CA5867
:100A5000DB4FEE81FF8120818885822B8083AC81F2
:100A6000BD81788528813981220F331F220F331FE2
:100A7000EA81FB81EE0FFF1FEE0FFF1FEE0DFF1D42
:100A80008C91672F60956823872B7FB7F8942E0F82
:100A90003F1F2E173F0781F0C191D8E08C9300C013
:100AA000C7FF6C93CC0F00C000C000C008F46C936B
:100AB00000C0DA9599F7EDCF7FBF7894FA011082E4
:100AC0009F5FADCF10926F023CC280916E02811188
:100AD00038C28B8190E0A0E0B0E0AC01BD01AEE097
:100AE000440F551F661F771FAA95D1F79C81892F48
:100AF00090E0A0E0B0E015E1880F991FAA1FBB1F8E
:100B00001A95D1F7840F951FA61FB71F2981820F51
:100B1000911DA11DB11DCA80D12CE12CF12C07E043
:100B2000CC0CDD1CEE1CFF1C0A95D1F7C80ED91E9B
:100B3000EA1EFB1EC114D104E104F10419F0C0E067
:100B4000D0E011C04091430550914405440F551F1A
:100B5000440F551F60E070E080914105909142057F
:100B60000E94531BBDC18091430590914405C81755
:100B7000D90708F0B5C1B701A601CE010E947814CB
:100B80002196F1CF80916E028111DBC18A810981AA
:100B900010E0F0E88F9F000D111D11248D8190E071
:100BA000A0E0B0E0AC01BD012EE0440F551F661F70
:100BB000771F2A95D1F79E81892F90E0A0E0B0E0C1
:100BC00035E1880F991FAA1FBB1F3A95D1F7840FF3
:100BD000951FA61FB71F2B81820F911DA11DB11D4F
:100BE0004C8150E060E070E0E7E0440F551F661F65
:100BF000771FEA95D1F7480F591F6A1F7B1FC8015D
:100C00000E94781440913C05ACE2B5E080E090E0B1
:100C1000841708F096C1FC012D913D9101960217B1
:100C20001307B0F7EC5DFA4F81E080838AC1913001
:100C300009F087C1633008F484C190906D020E946E
:100C4000B414911013C06BEA169FB12C1124B69402
:100C50001CE2C12E15E0D12E06E714E0A12C882459
:100C6000839482E0782E93E0692E56C0B6E7EB2E8F
:100C7000B4E0FB2E00E0602FC7010E94AD0C0F5FB7
:100C800039E0E30EF11C0830B1F7DDCF898190E047
:100C9000A5E095958795AA95E1F78130910509F42E
:100CA00051C00CF041C0892B31F410923F05809265
:100CB000400570923E058B81EA80F12C40E8849FCC
:100CC000E00CF11C1124F801F182E082AA2009F461
:100CD00045C0F6013297808191819701280F391F15
:100CE000F601219331936F01F80193838283809100
:100CF000430590914405E80EF91EF0924405E092F8
:100D0000430580913C058F5F80933C05A394075F6A
:100D10001F4F2396BA1429F19110B8CF69816F71D2
:100D2000C8010E94AD0CB2CF8230910581F00397CB
:100D300011F61092400580923F0570923E05609238
:100D40003D05B9CF1092400580923F05B2CF109279
:100D50003E058092400570923F05ADCF80E090E067
:100D6000BCCF8091410590914205009731F00E94DF
:100D7000AA1A1092440510924305E114F10409F4F3
:100D8000E0C0E701CC0FDD1FCC0FDD1FCE010E94BC
:100D9000121A9093420580934105009751F0AE01DD
:100DA00060E070E00E94531BF0924405E09243051E
:100DB000C8C01092440510924305C3C08981082F12
:100DC0000F7109F48DC0F82FF072CF2EC02FCC0F09
:100DD000CC0F91E090936E02D0E010E0382F307489
:100DE000D32E86FF27C0CE010E94121A7C010097E5
:100DF00029F0AE0160E070E00E94531BCC2039F076
:100E00006091430570914405601B710B02C060E066
:100E100070E0660F771F660F771F809141059091F4
:100E20004205680F791FAE01C7010E94381BC1102F
:100E300072C018C0FF23B1F0809141059091420526
:100E40004091430550914405401B510B440F551FE1
:100E5000440F551FBC018C0F9D1F0E94411B80E059
:100E600090E02DC08091410590914205409143054D
:100E700050914405401B510B440F551F440F551F03
:100E8000BC016C0F7D1F0E94411B80914305909116
:100E90004405801B910BDD2091F0880F991F880F6E
:100EA000991F2091410530914205AE01B701820F93
:100EB000931F0E94381BC7010E94AA1A0FC0880FF7
:100EC000991F880F991F2091410530914205AE016D
:100ED00060E070E0820F931F0E94531B10926E021D
:100EE00040913C0550E061E070E084E295E0DF91E4
:100EF000CF911F910F91FF90EF90DF90CF90BF9017
:100F0000AF909F908F907F906F900C94531B812F88
:100F10000E94DC0A44CC80914105909142054091A9
:100F2000430550914405401B510B440F551F440F7E
:100F3000551FBC018C0F9D1F0E94411B80E090E05B
:100F4000ACCFDF91CF911F910F91FF90EF90DF9089
:100F5000CF90BF90AF909F908F907F906F900895AB
:100F6000833020F5282F30E0F901EF5CFD4F6083DE
:100F7000672BE1F0F901E25DFD4F9081811103C023
:100F800069B16C7F0FC0813049F463B136B16F73C2
:100F900040E4349F90011124622B04C066B16C734D
:100FA00066956695692341E00C94E8090895CF930E
:100FB000883080F540915C0250915D0221E030E084
:100FC000672B81F4B90102C0660F771F8A95E2F79B
:100FD000CB01809590958423952390935D02809317
:100FE0005C0218C0082E02C0220F331F0A94E2F7D9
:100FF000242B352B30935D0220935C0290912305C6
:10100000911108C0C82F0E94F60EBC018C2FCF9101
:101010000C94D50CCF9108958F929F92AF92BF926E
:10102000CF92DF92EF92FF920F931F93CF93DF93B4
:10103000833008F084C0982F990F990F990F58E0CA
:10104000952E990E96E1991510F446E1942E8B0198
:10105000D82FC82ECC0CCC0CCC0CC0E088248394A8
:101060005B01BB24C91430F58EEF8C0D8231F8F48E
:101070004C2D50E0FA01E95DFB4F20812230B8F49D
:10108000882D90E08A219B21DD24D394009709F4D8
:10109000D12C7A01EE0CFF1C213009F040C0C82988
:1010A000F701E35CFB4F8D2D90E091838083880CEA
:1010B000C394D8CFD11108C0F8946BB106270C7F28
:1010C000C023C627CBB929C0D130D1F40C23F89462
:1010D00095B18C2F8F7380958923902F9F73892BC7
:1010E00085B998B1C295C695C695C370C0958C2F29
:1010F00089230295069506950370C02FC82B0CC056
:10110000CF70F89488B16C2F660F660F60956823D6
:10111000C023CC0FCC0FC62BC8B9789410C0892B34
:1011200009F4BECFF701E35CFB4F80819181019709
:1011300009F4B6CF62E08C2D0E94BA0EB1CFDF91D8
:10114000CF911F910F91FF90EF90DF90CF90BF90C4
:10115000AF909F908F9008959EEF980F923180F4FA
:10116000E82FF0E0DF01A95DBB4F9C91913041F485
:10117000EE0FFF1FE35CFB4F608371830C946D0ED9
:1011800008958F929F92AF92BF92CF92DF92EF928B
:10119000FF920F931F93CF93DF93EB01863108F0FB
:1011A0000AC1082F10E0F801E95DFB4F90819330F0
:1011B00009F496C0943009F0FEC08250823108F0E4
:1011C00087C0F801E75FFA4FE080F12C6701CC0C93
:1011D000DD1C603282E078070CF042C077FD05C06C
:1011E000653B710524F4DB0104C0A0E001C0A4EB61
:1011F000B0E0F601EE0DFF1DED51FB4F818128E8B7
:1012000030E04901881A910887FD9394880C991C55
:10121000880C991C092C000CAA08BB08828128E5BF
:1012200032E0281B310987FD3395220F331F220F2F
:10123000331FA901330F660B770B9A01AB012819F5
:1012400039094A095B090E94C71924EB30E040E0E4
:1012500050E00E949D19820E931EA41EB51E01C06F
:101260004B01F601EE0DFF1DED51FB4F20812C309F
:1012700078F5318188E890E0831B910937FD9395DB
:10128000880F991F880F991F8816990684F082810C
:1012900048E552E0481B510987FD5395440F551FFF
:1012A000440F551FC401481559050CF4CA01029793
:1012B000880F991F4FB7F89430E0F901EE0FFF1F28
:1012C0002E0F3F1FF901E254FB4F928381834FBFE2
:1012D000000F111FF801E35CFB4FD183C0836BC08B
:1012E0007B01D82F833049F08BEF800F823028F0BC
:1012F00087EF800F833008F057C061E08D2F0E9488
:10130000BA0EE114F10411F460E005C08FEFE816A5
:10131000F10429F461E08D2F0E946D0E45C0F801A3
:10132000E454FF4FE491E330F9F048F4E130B9F0D0
:10133000E230A1F584B5806284BDE8BC35C0E730F9
:10134000E9F0E83019F1E43049F5809180008062DD
:1013500080938000F0928B00E0928A0025C084B5D3
:10136000806884BDE7BC20C0809180008068809345
:101370008000F0928900E092880016C08091B00051
:1013800080688093B000E092B3000EC08091B000FE
:1013900080628093B000E092B40006C080E8E81656
:1013A000F1040CF0B7CFB0CF000F111FF801E35CD0
:1013B000FB4FF182E082DF91CF911F910F91FF905F
:1013C000EF90DF90CF90BF90AF909F908F90089557
:1013D000FF920F931F93CF93DF9300D0CDB7DEB76B
:1013E000082F10E0F801E25DFD4F9081F62EF92202
:1013F000015E1A4F411104C0F8019081F91611F1F4
:101400002F2D30E03A832983A091E403B091E503C6
:101410001097B1F0682F6F706069ED91FC91119792
:101420000190F081E02DCD01099522E030E0AE0180
:101430004F5F5F4F62E070E084EE93E00E94EB103C
:10144000F801F0820F900F90DF91CF911F910F91D3
:10145000FF900895EF92FF920F931F93CF93DF9326
:10146000D82F8B01C42FF22E6F3F8FEF7807F9F042
:1014700081E08093E302D09305031092E40210927E
:1014800006038AE694E00E943A108F2D0E94C90D4F
:1014900080916B0290916C028230910550F0880F20
:1014A000991F880F991F05970197F1F702C000E077
:1014B00010E08091E2028111FCCF9C2FC13208F034
:1014C00090E281E08093E2028093E1022FEF20938B
:1014D000E0021092DF02290F2093DE028093BD020A
:1014E0008091BD022D2F220F822B8093BD0280910F
:1014F000BC02813061F41092BC028091BD028093E5
:10150000BB008091BC0083FDF8CF85EC01C085EE67
:101510008093BC008091E2028130E1F38091DF0290
:10152000891710F49091DF02EEEBF2E0A5E4B5E04C
:1015300080E0891721F021912D938F5FFACF1092CF
:10154000660580936505EC2EF12C90E0E816F9060F
:101550001CF48FEB91E005C08E159F0524F48CEDF3
:1015600091E00E94860DD0937C0200937D020CE7EF
:1015700012E0C8018C5792408E159F057CF40F5FD6
:101580001F4F9091650580916605981739F08AE69E
:1015900094E00E94F10FF8018183EBCFCE5F6C2FB6
:1015A00070E04CE752E087E7DF91CF911F910F91F8
:1015B000FF90EF900C94390DA82FB0E0A75FBA4FC1
:1015C0009C91292F30E0F901EE0FFF1F2E0F3F1FD6
:1015D000F901ED51FB4FE081F0E09F01220F331F35
:1015E000E20FF31FE254FB4F80818F7B8083809159
:1015F0000705981306C0992379F091509093070539
:101600000BC0882349F0E0910805EF5FE0930805DF
:10161000F0E0E159FD4F90838FEF8C930895DB014B
:10162000909107059C30A8F530910805682F70E06F
:10163000332369F0E32FF0E0E159FD4F8081FB0196
:10164000E75FFA4F808331503093080507C0FB01F4
:10165000E75FFA4F90839F5F90930705FB01E75F79
:10166000FA4F808190E09C01220F331F820F931F5D
:101670001A161B0634F4141615061CF49A01AD0153
:1016800004C020E639E040E252E08D519B4F0C94BB
:10169000371388EF91E00C94860D8F929F92BF9242
:1016A000CF92DF92EF92FF920F931F93CF93DF932E
:1016B000C82ED12CE601CC55DC4FFE01ED57FF4F73
:1016C00090819F3709F43DC1963041F490912205F5
:1016D000992321F06630710509F017C17B01182F9D
:1016E0000EEF080F0231F8F464307105E1F0F601F5
:1016F000E75FFA4F80818C30B0F490E0FC01EE0F90
:10170000FF1F8E0F9F1FFC01ED51FB4F808190E06A
:10171000FC01EE0FFF1F8E0F9F1FFC01E254FB4FD9
:10172000808186FDF8C052EFB52EB10E87E08B1593
:1017300058F061E070E082E0E816F10411F060E03A
:1017400070E08B2D0E94D707023118F5E12FE69546
:10175000E695E695212F2770F0E0E25DFD4FE1145C
:10176000F10421F08BE0E816F10449F481E090E007
:1017700001C0880F2A95EAF79081892B09C081E082
:1017800090E001C0880F2A95EAF78095908189231F
:1017900080834601880C991CF401E35CFB4F1182A5
:1017A00010828CE0E816F10408F0A0C0F701EC5CB0
:1017B000FF4F0C940C1A87E08B1508F4C2C002315D
:1017C00020F460E0812F0E94BA0ECD57DF4F888150
:1017D0008F3709F4B6C082E087C0023108F0B1C08B
:1017E00060E0812F0E94BA0ECD57DF4F88818F377E
:1017F00009F4A7C01882A5C0023108F0A2C062E0B7
:10180000812F0E94BA0ECD57DF4F88818F3711F09C
:101810008BE08883F401E35CFB4F81E090E09183EF
:1018200080838FC0023108F08CC060E0812F0E945D
:101830006D0E61E0812F0E94BA0ECD57DF4F888177
:101840008F3709F47EC081E04FC0133049F08BEF31
:10185000810F823028F087EF810F833008F071C04C
:1018600061E0812F0E94BA0E61E0812F0E94BA0EC2
:1018700060E0812F0E946D0ECD57DF4F88818F373A
:1018800009F45FC083E030C0023108F05AC0CD5780
:10189000DF4F88818F3711F084E08883F601E75F9E
:1018A000FA4F80818F3FD9F190E0FC01EE0FFF1FCE
:1018B0008E0F9F1FFC01ED51FB4F808190E0FC01DA
:1018C000EE0FFF1F8E0F9F1FFC01E254FB4F808124
:1018D00086FD37C024C01251123098F5CD57DF4F26
:1018E00088818F3771F186E088832BC08CE092E08D
:1018F000DF91CF911F910F91FF90EF90DF90CF90EC
:10190000BF909F908F900C94860D109222059FEFB0
:1019100090930001E3CE812F0E94DC0A04CF4FEFA9
:101920005FEF6FEF7FEF812FDF91CF911F910F91CD
:10193000FF90EF90DF90CF90BF909F908F900C948E
:101940000F0BDF91CF911F910F91FF90EF90DF90E0
:10195000CF90BF909F908F900895DC0170E0FB01C5
:10196000E855FF4FE4911896EC9318976C567F4F0B
:10197000FB018491E82FF0E0EE0FFF1FE657FF4FC9
:101980008591949115969C938E931497FB01649185
:10199000E62FF0E0EE0FFF1FE058FF4F8591949186
:1019A00017969C938E93169708951F93CF93DF936A
:1019B00000D0CDB7DEB7182F7A8369838091E40316
:1019C0009091E503009709F44EC0DC01ED91FC9184
:1019D0001031A8F46115704490F4612F606E01908D
:1019E000F081E02D099522E030E0AE014F5F5F4FBE
:1019F00062E070E084EE93E00E94EB1034C001904E
:101A0000F081E02D60EF09958091E4039091E5036A
:101A1000DC01ED91FC910190F081E02D6FE60995DC
:101A20008091E4039091E503DC01ED91FC9101903C
:101A3000F081E02D612F099522E030E0AE014F5F8B
:101A40005F4F62E070E084EE93E00E94EB108091C3
:101A5000E4039091E503DC01ED91FC910190F081AC
:101A6000E02D67EF09950F900F90DF91CF911F91B7
:101A70000895EF92FF920F931F93CF93DF93C82F98
:101A80008091E4039091E5030097C9F17A018B01FD
:101A9000DC01ED91FC910190F081E02D60EF099562
:101AA0008091E4039091E503DC01ED91FC910190BC
:101AB000F081E02D6C2F0995E7010E0D1F1DC01759
:101AC000D10759F020E030E0AE0161E070E084EE33
:101AD00093E00E94EB102196F2CF8091E403909165
:101AE000E503DC01ED91FC910190F081E02D67EFC1
:101AF000DF91CF911F910F91FF90EF900994DF91AB
:101B0000CF911F910F91FF90EF900895FC010190EC
:101B10000020E9F73197BF01681B790BAC0181E721
:101B20000C94390DCF93DF93FC01A081B181109704
:101B300001F1EC01ED91FC9111970190F081E02D04
:101B400069EFCD01099588819981DC01ED91FC91C6
:101B50000190F081E02D62E0099588819981DC0196
:101B6000ED91FC910190F081E02D65E0DF91CF9146
:101B70000994DF91CF910895A0912204B09123049C
:101B8000ED91FC9111970190F081E02D682FCD012E
:101B90000994282F30910603313208F04AC0809111
:101BA000E2028111FCCF9091050342E04093E202F2
:101BB0002093E1022FEF2093E0021092DF02309396
:101BC000DE02E5EEF2E0AEEBB2E020E0321721F00B
:101BD00041914D932F5FFACF1092BD022091BD022B
:101BE000990F922B9093BD029091BC02913061F4B9
:101BF0001092BC029091BD029093BB009091BC00EA
:101C000093FDF8CF95EC01C095EE9093BC009091B8
:101C1000E2029230E1F39091E0029F3F79F08091EF
:101C2000E002803241F08091E002803331F084E0C4
:101C300005C081E003C082E001C083E01092E402AD
:101C4000109206031092E30208951F93CF93DF933F
:101C5000182FEB018091E9039091EA036817790747
:101C6000A8F0E0911604F091170481E03097C1F0DC
:101C70008093E6038091020490910304099580917A
:101C8000E9039091EA03C817D90748F48091E70364
:101C90009091E803C80FD91F188380E001C081E04C
:101CA000DF91CF911F910895AC01FB0180E090E09E
:101CB0009C01220F331F2417350770F4DB012C9190
:101CC000208311963C91379533273795232B219309
:101CD00001966E5F7F4FECCF089590E0FC01E454D5
:101CE000FF4F2491FC01E855FF4F3491FC01EC5665
:101CF000FF4FE491EE2309F43CC0222339F1233055
:101D000091F038F42130A9F0223001F584B58F7DAF
:101D100012C0273091F02830A1F02430B9F480911E
:101D200080008F7D03C0809180008F77809380003A
:101D30000DC084B58F7784BD09C08091B0008F77C6
:101D400003C08091B0008F7D8093B000F0E0EE0F73
:101D5000FF1FE657FF4FA591B4919FB7F89461110B
:101D600004C08C913095382302C0EC913E2B3C93FB
:101D70009FBF0895CF93DF9390E0FC01E855FF4F9C
:101D80002491FC01EC56FF4F8491882361F190E08F
:101D9000880F991FFC01E058FF4FC591D491FC01B9
:101DA000E657FF4FA591B491611109C09FB7F89410
:101DB0008881209582238883EC912E230BC062308A
:101DC00061F49FB7F8948881322F309583238883FC
:101DD000EC912E2B2C939FBF06C08FB7F894E8810F
:101DE0002E2B28838FBFDF91CF9108958E3008F07E
:101DF0008E508770806480937C0080917A0080642C
:101E000080937A0080917A0086FDFCCF80917800E3
:101E10002091790090E0922B08958F929F92AF923B
:101E2000BF92CF92DF92EF92FF926B017C010E94F2
:101E300069014B015C01C114D104E104F104F1F02A
:101E40000E946901DC01CB0188199909AA09BB0923
:101E5000883E9340A105B10570F321E0C21AD10874
:101E6000E108F10888EE880E83E0981EA11CB11CE1
:101E7000C114D104E104F10419F7DDCFFF90EF9014
:101E8000DF90CF90BF90AF909F908F900895FC010E
:101E9000918D228D892F90E0805C9F4F821B91094C
:101EA0008F739927089580E090E0892B29F00E9494
:101EB000F00081110C9400000895E0912C02F09143
:101EC0002D02309709F009940895862F642FE09130
:101ED0002A02F0912B02309711F0A901099408957C
:101EE0000895862FE0912202F0912302309711F09D
:101EF000BA0109940895862FE0912402F0912502F9
:101F0000309711F0BA0109940895862FE0911E02CE
:101F1000F0911F02309711F0BA0109940895862FAD
:101F2000E0912002F0912102309711F0BA0109945A
:101F30000895862FE0912602F0912702309711F044
:101F4000BA0109940895862FE0912802F0912902A0
:101F5000309711F0BA010994089585ED8093BC0083
:101F60008091BC0084FDFCCF1092E2020895409164
:101F70008C05262F30E0240F311D21323105DCF491
:101F80002091E2022430C9F4FC0180E090E0861741
:101F900058F430918C052191DC01A459BA4FA30F5C
:101FA000B11D2C930196F3CF80918C05680F60933F
:101FB0008C0580E0089581E0089582E008950895F9
:101FC00008950895E091660580916505E81730F45D
:101FD000F0E0EB5BFA4F808190E008958FEF9FEF88
:101FE00008959091660580916505981750F4E92F42
:101FF000F0E0EB5BFA4F208130E09F5F9093660545
:1020000002C02FEF3FEFC90108958091650590E070
:1020100020916605821B91090895CF92DF92EF927D
:10202000FF920F931F93CF93DF937C01CB018A0123
:102030002091E302222389F0EB016B01C40ED51E2F
:10204000CC15DD0569F06991D701ED91FC91019006
:10205000F081E02DC7010995F3CF642F0E94B70FDF
:10206000C801DF91CF911F910F91FF90EF90DF900A
:10207000CF900895CF93DF931F92CDB7DEB76983DA
:102080002091E3022223D1F020910603203240F078
:1020900021E030E0FC013383228380E090E015C032
:1020A0008091E402E82FF0E0EB51FD4F998190839D
:1020B0008F5F8093E4028093060305C061E0CE0148
:1020C00001960E94B70F81E090E00F90DF91CF91D1
:1020D0000895089580E090E00895009721F0805CD5
:1020E0009F4F0C94920D08950F931F93CF93DF93FE
:1020F00081E08093230580912205882329F01092A6
:1021000022058FEF809300011092310210922E026F
:1021100010921F051092320210922F021092200589
:1021200010923302109230021092210509E015E05E
:10213000C0E0DFEF82EF8C0F883018F462E070E0CF
:1021400006C08EEF8C0F823128F461E070E08C2F96
:102150000E944D0BF801D1938F01CF5FC63151F72B
:1021600010925D0210925C02109208051092070511
:1021700010922305DF91CF911F910F910895FC01DB
:10218000848DDF01A80FB11DA35ABF4F2C91848D00
:1021900090E001968F739927848FA689B7892C9335
:1021A000A089B1898C91837080648C93938D848D88
:1021B000981306C00288F389E02D80818F7D80838B
:1021C00008951F920F920FB60F9211240F900FBE19
:1021D0000F901F9018953F924F925F926F927F924F
:1021E0008F929F92AF92BF92CF92DF92EF92FF9227
:1021F0000F931F93CF93DF935C016901DA013C9049
:10220000232B19F4CC24CA94DC2C7A012A01460E23
:10221000571EC0E0D0E000E010E087E0682E712C8F
:10222000E414F50409F443C00C151D0508F067C05B
:102230004701F50180819181D7016D917D010C2EBF
:1022400001C0660F0A94EAF763296F77DC01ED910C
:10225000FC910190F081E02D09950F5F1F4FF40173
:10226000608170E0C3018C1B9D0B02C07595679562
:102270008A95E2F7362E2196C730D10588F2C0162E
:10228000D10699F0D5018D919C91632D6F77DC017A
:10229000ED91FC910190F081E02D09950F5F1F4FAA
:1022A000331C3324331C2797E7CF8601B9CF2097FF
:1022B00031F10C151D0518F5F5018081918161E062
:1022C00070E001C0660FCA95EAF761506321DC0136
:1022D000ED91FC910190F081E02DDF91CF911F9164
:1022E0000F91FF90EF90DF90CF90BF90AF909F90B5
:1022F0008F907F906F905F904F903F900994DF9107
:10230000CF911F910F91FF90EF90DF90CF90BF90F2
:10231000AF909F908F907F906F905F904F903F9085
:102320000895DF92EF92FF920F931F93CF93DF9365
:10233000FC01E058FF4FD080DD2009F45DC0EC01C6
:10234000C05CDF4FA881B981109709F455C0FC012A
:10235000EF57FF4F00811181F801F180E080ED918E
:10236000FC9111970190F081E02D60EFCD0109956E
:1023700088819981DC01ED91FC910190F081E02D43
:1023800069E7099588819981DC01ED91FC910190C3
:10239000F081E02D6E2D099588819981DC01ED9108
:1023A000FC910190F081E02D6F2D09957801B2E04C
:1023B000EB0EF11C0D0D111DE016F10661F020E091
:1023C00030E0A70161E070E0CE010E94EB10EFEF7A
:1023D000EE1AFE0AF1CF88819981DC01ED91FC9122
:1023E0000190F081E02D67EFDF91CF911F910F9168
:1023F000FF90EF90DF900994DF91CF911F910F91A3
:10240000FF90EF90DF900895009711F00C949111D8
:1024100008951F920F920FB60F9211242F933F939E
:102420004F935F936F937F938F939F93AF93BF93DC
:10243000EF93FF938091B900887F803609F49CC0A8
:1024400068F5883209F45BC090F4803109F454C017
:1024500038F4882309F4F6C0883009F44DC0F6C07A
:10246000883109F44CC0803209F45DC0EFC080347B
:1024700009F468C048F4803309F455C0883309F082
:10248000E5C08093E002D8C0803509F44FC088359C
:1024900009F45DC0883409F0D9C0D6C0883909F480
:1024A000C7C0A8F4883709F467C038F4883609F43F
:1024B00063C0803709F460C0C9C0883809F4B8C067
:1024C000803909F45FC0803809F0C0C05BC0803B30
:1024D00009F486C038F4803A09F466C0883A09F4F1
:1024E0007FC0B4C0803C09F4A7C0883C09F4A4C0F4
:1024F000883B09F48AC0AAC08091BD0210C09091A7
:10250000DF028091DE02981770F5E091DF0281E032
:102510008E0F8093DF02F0E0E254FD4F80818093C4
:10252000BB0085EC86C08093E0028EC0E091DF02A4
:1025300081E08E0F8093DF028091BB00F0E0E254D7
:10254000FD4F80839091DF028091DE026EC0E091AA
:10255000DF0281E08E0F8093DF028091BB00F0E00C
:10256000E254FD4F80838091E10281116DC081E0D2
:102570008093BC0284EA61C083E08093E2021092FF
:10258000AE05CFCF8091AE05803208F051C0E0910A
:10259000AE0581E08E0F8093AE058091BB00F0E028
:1025A000E257FA4F8083BDCF85EC8093BC00109238
:1025B000E2028091AE05803230F4E091AE05F0E0A9
:1025C000E257FA4F10826091AE0570E0E091690524
:1025D000F0916A058EE895E009951092AE0536C037
:1025E00084E08093E20210928D0510928C05E091B8
:1025F0006705F0916805099580918C05811105C0EA
:1026000081E080938C0510926C05E0918D0581E04E
:102610008E0F80938D05F0E0E459FA4F808180930E
:10262000BB0090918D0580918C05981708F479CFA7
:1026300085E88093BC000AC085EC8093BC001092B2
:10264000E20204C01092E0020E94AD0FFF91EF91F0
:10265000BF91AF919F918F917F916F915F914F91BA
:102660003F912F910F900FBE0F901F901895DF9202
:10267000EF92FF920F931F93CF93DF93EC01D62E2F
:102680007A01890188818C3008F068C061E08D2D65
:102690000E94BA0E8881E82FF0E09F01220F331FBD
:1026A000E20FF31FE254FB4F9D2D9F732081207C8E
:1026B000D22ED92AD08220E232E02E193F0937FFEC
:1026C00002C02D5F3F4F3595279535952795298376
:1026D00020E639E0201B310B37FF02C02D5F3F4F52
:1026E00035952795359527952A836CE00E94001A29
:1026F0009CE0899FB001112440E050E09B01240F31
:10270000351FF901EE0FFF1F2E0F3F1FF901E25495
:10271000FB4F908196FD16C04F5F5F4F4C305105C7
:1027200069F781110FC01092800082E080938100D0
:102730001092850010928400B19A80916F0082609F
:1027400080936F00E881F0E0CF01880F991FE80FB8
:10275000F91FE254FB4F8081806480838881DF9180
:10276000CF911F910F91FF90EF90DF9008951F92EE
:102770000F920FB60F9211242F933F934F935F93B5
:102780006F937F938F939F93AF93BF93EF93FF9339
:1027900080916B0587FF05C0109285001092840020
:1027A0001BC020916B05022E000C330B8091E204BC
:1027B00090E02817390784F480916B05082E000CEF
:1027C000990BFC01EE0FFF1F8E0F9F1FFC01E254BF
:1027D000FB4F808186FD15C080916B058F5F8093D4
:1027E0006B0520916B05022E000C330B8091E204E7
:1027F00090E028173907C4F480916B058C3064F1A0
:1028000013C080916B05082E000C990BFC01EE0F94
:10281000FF1F8E0F9F1FFC01E254FB4F808160E081
:102820008F730E946D0ED8CF8091840090918500A7
:10283000049680349C4918F480E49CE905C080919A
:10284000840090918500049690938900809388007D
:102850008FEF80936B053BC0209184003091850001
:1028600080916B05082E000C990BFC01EE0FFF1FE9
:102870008E0F9F1FFC01E254FB4F81819281820FDA
:10288000931F909389008093880080916B05082E98
:10289000000C990BFC01EE0FFF1F8E0F9F1FFC0118
:1028A000E254FB4F808186FF12C080916B05082E99
:1028B000000C990BFC01EE0FFF1F8E0F9F1FFC01F8
:1028C000E254FB4F808161E08F730E946D0EFF9197
:1028D000EF91BF91AF919F918F917F916F915F9198
:1028E0004F913F912F910F900FBE0F901F90189511
:1028F00020914305309144058217930798F5880F7E
:10290000991F880F991F20914005E0914105F09192
:102910004205E80FF91FE20FF11D708320913F057A
:10292000E0914105F0914205E80FF91FE20FF11D1A
:10293000608320913E05E0914105F0914205E80F4A
:10294000F91FE20FF11D508320913D05E0914105F3
:10295000F09142058E0F9F1FFC01E20FF11D408395
:1029600080E0089581E0089510923C05109244059E
:1029700010924305ECE2F5E0A4E2B5E01192119269
:102980001D9285E0EC33F807C9F70895789484B573
:10299000826084BD84B5816084BD85B5826085BD5B
:1029A00085B5816085BD80916E00816080936E00E9
:1029B00010928100809181008260809381008091DB
:1029C000810081608093810080918000816080938C
:1029D00080008091B10084608093B1008091B0004C
:1029E00081608093B00080917A00846080937A0047
:1029F00080917A00826080937A0080917A00816071
:102A000080937A0080917A00806880937A00109297
:102A1000C10088E1809324048091250490912604CC
:102A20000E94AA1AC0912404D0E0CE0101960E940F
:102A3000121A9093260480932504FC01EC0FFD1FCD
:102A4000108212E0DC011C9325E011962C93AE015C
:102A50004250510967E771E002960E945A1B81ECCF
:102A600098E090932902809328028CE098E090935C
:102A700027028093260287ED97E0909325028093AA
:102A8000240280EB97E090932302809322028DE44E
:102A90009BE090932102809320028CEA98E090932F
:102AA0001F0280931E0280E392E090932B0280939A
:102AB0002A0284E790E190932D0280932C02E0910A
:102AC0001703F09118031083E0911703F091180396
:102AD0001082E0911303F09114031082E09115032A
:102AE000F091160380E1808310921F03E0911B0395
:102AF000F0911C0386E08083E0911903F0911A03A2
:102B0000808180618083E0911903F0911A038081B4
:102B100088608083E0911903F0911A0380818068B6
:102B20008083E0911903F0911A0380818F7D808367
:102B300080916904811140C061E08DE00E94BA0E6D
:102B4000C0E062ED70E080E090E00E940D0F61E077
:102B50008DE00E946D0E68E270E080E090E00E94DF
:102B60000D0F60E08DE00E946D0ECF5FC23049F71F
:102B70006AEF70E080E090E00E940D0FC0E062ED2F
:102B800070E080E090E00E940D0F61E08DE00E9417
:102B90006D0E68E270E080E090E00E940D0F60E052
:102BA0008DE00E946D0ECF5FC53049F76DE770E094
:102BB00080E090E00E940D0F87E093E09093230463
:102BC000809322049093E5038093E40384EE93E0E2
:102BD0000E94920D84EA93E00E9491110E94741069
:102BE0000E94B414EE24E394C2E0D0E001E010E0CF
:102BF00025E0D22E80913102882349F069B180917D
:102C00002E0268236C7F40E080E00E94E8098091FA
:102C10003202882381F083B196B1682F6F73B0E4DC
:102C20009B9FC0011124862B60912F02682340E0F6
:102C300081E00E94E80980913302882359F066B14F
:102C40006C736695669580913002682340E082E05F
:102C50000E94E8098091220490912304DC01ED9107
:102C6000FC910084F185E02D0995892B09F4CEC1F2
:102C70008091220490912304DC01ED91FC91028467
:102C8000F385E02D09959C018F3FBFEF9B0711F362
:102C9000982F8091EF03882309F492C0973F09F0A1
:102CA0007EC01092EF03A091E703B091E8036C910E
:102CB0006137C1F1693709F05CC0E0911C04F09103
:102CC0001D04309739F28091F0039091F103833025
:102CD000910538F420E030E040E050E060E070E042
:102CE0001BC0BD016D5F7F4F03970E94540EBC0156
:102CF0006D5F7F4F80E00E94250EE091E703F09129
:102D0000E8039F012D5F3F4F428150E0618170E0F9
:102D1000E0911C04F0911D048091FE039091FF034B
:102D2000099598CF8091180490911904892B09F482
:102D300091CFBD016F5F7F4F8091F0039091F103C0
:102D400001970E94540EBC016F5F7F4F80E00E948C
:102D5000250E6091E7037091E8036F5F7F4FE0916C
:102D60001804F091190480910404909105040995C8
:102D700071CFE0911A04F0911B04309709F46ACFE7
:102D80009D012F5F3F4F4091F0035091F10341505F
:102D90005109809106049091070409955BCF6091D9
:102DA000F0037091F103822F0E94250E8091F003B1
:102DB0009091F10301969093F1038093F0034ACF31
:102DC0006091ED037091EE036115710509F4AFC0D8
:102DD00027FDADC0615071097093EE036093ED0360
:102DE000822F0E94250E8091ED039091EE03892B96
:102DF00009F030CF8091EB03882309F42BCF803D7D
:102E000009F47FC030F4803939F1803C09F466C0A0
:102E10008BC0843FE1F1853F09F44DC0803E09F04D
:102E200083C0E0910A04F0910B04309709F47CC050
:102E3000A091E703B091E8038C9111964C9150E07A
:102E400020E8829F400D511D11246091EC03809178
:102E5000F2039091F30367C0E0910C04F0910D042C
:102E6000309709F461C0A091E703B091E8038C9119
:102E700011964C9150E090E8899F400D511D11240E
:102E80006091EC038091F4039091F5034CC0E091C4
:102E90001204F0911304309709F446C0A091E7039F
:102EA000B091E8034C9150E011966C918091FA0337
:102EB0009091FB0338C0E0911404F0911504309711
:102EC00099F1A091E703B091E8034C9150E011967D
:102ED0006C918091FC039091FD0325C0E0910E045C
:102EE000F0910F04309701F1A091E703B091E8034E
:102EF0004C9150E06091EC038091F6039091F703C0
:102F000012C0E0911004F0911104309769F0A09183
:102F1000E703B091E8034C9150E06091EC0380919D
:102F2000F8039091F90309951092EB0393CE903F2B
:102F300030F4822F8F708093EC03922F907F903F1C
:102F400079F158F4903C29F118F49039E9F082CEE7
:102F5000903DF9F0903EC1F07DCE993F09F449C013
:102F600028F48CE0890F823078F074CE9F3F09F00E
:102F700071CE1092EE031092ED031092EB031092BB
:102F8000EC0380E090E013C0D093EE03C093ED0318
:102F900004C01093EE030093ED039093EB035ACE1D
:102FA000E092EF031092F1031092F00353CE2091C0
:102FB000E9033091EA038217930748F4E091E703AD
:102FC000F091E803E80FF91F10820196F0CF1092FC
:102FD000EF031092F1031092F003E0912004F091BE
:102FE0002104309709F436CE8091080490910904A9
:102FF0000BC0E0911E04F0911F04309709F42ACE13
:103000008091000490910104099524CE8FB7F89423
:103010004091630250916402609165027091660272
:103020008FBF80905E0290905F02A0906002B0908F
:1030300061022091010130910201C901A0E0B0E0DC
:10304000481959096A097B0984179507A607B70724
:1030500008F052C0880D991DAA1DBB1D80935E0209
:1030600090935F02A0936002B093610287E2A82E62
:1030700084E0B82E92EFF92EA7E0AF15B8F0F50175
:103080008081823099F480915C0290915D020F2CD6
:1030900002C0959587950A94E2F780FF07C08F2DAF
:1030A0000E94F60EBC018F2D0E94D50CF394FFEF09
:1030B000AF1ABF0A28E0F212DFCF8091000187FD2E
:1030C0001BC0F12C2F2D30E080910001082E000C48
:1030D000990B8217930784F0D29EF001D39EF00DD6
:1030E0001124EC5CFD4F61817281248143818081D8
:1030F0000E942A0AF394E6CF0E94530F7BCD1092D0
:103100000A031092090348EE53E060E070E0409338
:103110000B0350930C0360930D0370930E038DE02B
:1031200091E0909308038093070385EC90E09093DF
:1031300014038093130384EC90E090931603809320
:10314000150380EC90E0909318038093170381ECB3
:1031500090E090931A038093190382EC90E090938F
:103160001C0380931B0386EC90E090931E038093D6
:103170001D0310922003109221031092220310923B
:10318000230384EA93E01092E5031092E403909302
:10319000E8038093E70320E430E03093EA032093D0
:1031A000E9031092EB031092EC031092EE031092DD
:1031B000ED031092EF031092F1031092F0031092BE
:1031C000F3031092F2031092F5031092F40310929D
:1031D000F7031092F6031092F9031092F80310927D
:1031E000FB031092FA031092FD031092FC0310925D
:1031F0000304109202041092050410920404109229
:103200000704109206041092090410920804109208
:103210001704109216041092E603109224041092E0
:103220002604109225041092690423EA3FE03093AB
:103230000B0420930A0429E93FE030930D04209306
:103240000C042BE73FE030930F0420930E0421E79A
:103250003FE030931104209310042FE83FE03093B7
:1032600013042093120425E83FE0309315042093C3
:10327000140420E73FE0309319042093180425E656
:103280003FE030931B0420931A0424E032E1309392
:103290001D0420931C049093FF038093FE032DE6EE
:1032A00030E130931F0420931E0490930104809317
:1032B00000048DE59FE090932104809320041092F8
:1032C0006D0410926C0440936E0450936F046093ED
:1032D0007004709371048FE191E090936B0480937C
:1032E0006A04E6E7F4E011821082138212823996B2
:1032F00024E0EE3BF207B9F78091E204A3EEB4E0DC
:103300009FEF48EB5BE08C3078F48C93282F30E013
:10331000F901EE0FFF1F2E0F3F1FF901E254FB4F83
:10332000528341838F5F01C09C93139625E0A730A1
:10333000B20749F78093E2040895052E97FB1EF427
:1033400000940E94B41957FD07D00E94CF1907FCC2
:1033500003D04EF40C94B4195095409530952195B6
:103360003F4F4F4F5F4F08959095809570956195B1
:103370007F4F8F4F9F4F08950E94F119A59F900D89
:10338000B49F900DA49F800D911D11240895B7FF47
:103390000C94BC190E94BC19821B930B0895A1E2E6
:1033A0001A2EAA1BBB1BFD010DC0AA1FBB1FEE1FBF
:1033B000FF1FA217B307E407F50720F0A21BB30B0A
:1033C000E40BF50B661F771F881F991F1A9469F786
:1033D00060957095809590959B01AC01BD01CF01E2
:1033E0000895A29FB001B39FC001A39F700D811DDE
:1033F0001124911DB29F700D811D1124911D0895FE
:10340000991B79E004C0991F961708F0961B881F36
:103410007A95C9F780950895EE0FFF1F0590F491F6
:10342000E02D09940F931F93CF93DF938230910582
:1034300010F482E090E0E091B305F091B40520E053
:1034400030E0A0E0B0E0309719F140815181028175
:10345000138148175907C8F08417950769F4109726
:1034600031F012960C93129713961C9327C0009379
:10347000B3051093B40522C02115310519F0421788
:10348000530718F49A01BD01EF01DF01F801DBCF0A
:1034900021153105F9F0281B390B2430310580F452
:1034A0008A819B816115710521F0FB0193838283E1
:1034B00004C09093B4058093B305FE01329644C0D6
:1034C000FE01E20FF31F819391932250310939835A
:1034D00028833AC02091B1053091B205232B41F4E5
:1034E00020910501309106013093B2052093B1057A
:1034F00020910301309104012115310541F42DB7CC
:103500003EB74091070150910801241B350BE09113
:10351000B105F091B205E217F307A0F42E1B3F0BA3
:103520002817390778F0AC014E5F5F4F2417350735
:1035300048F04E0F5F1F5093B2054093B105819341
:10354000919302C0E0E0F0E0CF01DF91CF911F91B5
:103550000F910895CF93DF93009709F481C0FC0188
:10356000329713821282A091B305B091B4051097DF
:1035700081F420813181820F931F2091B105309118
:10358000B2052817390751F5F093B205E093B1055C
:1035900067C0ED0120E030E0CE17DF0740F44A813C
:1035A0005B819E0141155105F1F0EA01F5CFD3830E
:1035B000C28340815181840F951FC817D90759F4E0
:1035C00088819981840F951F0296918380838A81D7
:1035D0009B81938382832115310529F4F093B405EF
:1035E000E093B3053DC0E901FB83EA83499159911A
:1035F000C40FD51FEC17FD0761F480819181840F02
:10360000951F0296E90199838883828193819B8328
:103610008A83E0E0F0E012968D919C9113970097D9
:1036200019F0FD01DC01F7CF8D919C9111979D015F
:103630002E5F3F4F820F931F2091B1053091B2054D
:103640002817390769F4309729F41092B4051092BD
:10365000B30502C013821282B093B205A093B105E4
:10366000DF91CF91089581E090E0F8940C94691B6C
:10367000FB01DC0102C001900D9241505040D8F78F
:1036800008956817790768F4FB01DC01E40FF51F62
:10369000A40FB51F02C002900E9241505040D8F7BF
:1036A00008950C94381BDC0101C06D9341505040CB
:1036B000E0F70895FB01DC014150504048F00190D3
:1036C0000D920020C9F701C01D9241505040E0F713
:0636D0000895F894FFCFFD
:1036D600FF13000000B505800000000000FA00930B
:1036E60000BD004701470FCC00E000000000003A93
:1036F600100D106A10E10F0510F10FE20F2F557330
:103706006572732F6367727567613230302F446557
:1037160076656C6F706D656E742F6E6F64652D7057
:103726006978656C2F6669726D776172652F62754F
:10373600696C642F6E6F64655F706978656C5F662F
:1037460069726D6174612F6E6F64655F706978650B
:103756006C5F6669726D6174612E696E6F003130DF
:103766002D6269742061646472657373696E672083
:103776006E6F7420737570706F7274656400746F09
:103786006F206D616E792071756572696573004988
:1037960032433A20546F6F206D616E7920627974DE
:1037A6006573207265636569766564004932433ADC
:1037B60020546F6F20666577206279746573207276
:1037C60065636569766564004D6178207365727618
:1037D6006F7320617474616368656400556E6B6E07
:0E37E6006F776E2070696E206D6F6465000055
:00000001FF
