:100000000C945E000C9486000C9486000C94860080
:100010000C9486000C9486000C9486000C94860048
:100020000C9486000C9486000C9486000C94860038
:100030000C9486000C9486000C9486000C94860028
:100040000C944E050C9486000C9486000C9486004B
:100050000C9486000C9486000C9486000C94860008
:100060000C9498050C9486000000000024002700E2
:100070002A0000000000250028002B0004040404CE
:100080000404040402020202020203030303030342
:10009000010204081020408001020408102001021F
:1000A00004081020000000080002010000030407FB
:1000B0000000000000000000C606830711241FBED8
:1000C000CFEFD8E0DEBFCDBF11E0A0E0B1E0E6EDBC
:1000D000F1E102C005900D92A631B107D9F722E0F7
:1000E000A6E1B1E001C01D92A033B207E1F710E034
:1000F000CDE5D0E004C02197FE010E948407CC35F5
:10010000D107C9F70E94E8060C94DE080C940000A1
:1001100090E0FC01EC55FF4F2491FC01E057FF4FAC
:100120003491FC01E458FF4FE491EE23B1F1222316
:1001300039F1233091F038F42130A9F0223001F563
:1001400084B58F7D12C0273091F02830A1F0243083
:10015000B9F4809180008F7D03C0809180008F77FB
:10016000809380000DC084B58F7784BD09C08091D5
:10017000B0008F7703C08091B0008F7D8093B00076
:10018000F0E0EE0FFF1FEE58FF4FA591B4918FB72F
:10019000F894EC913E2B3C938FBF0895E091580169
:1001A000F0915901309729F01092CE011092CD01B3
:1001B00009940895CF93DF93AC01E091D501F091BC
:1001C000D6013097F1F09091D0018091CF0198172E
:1001D000C0F090E0292F30E02617370754F4D901FA
:1001E000A85CBE4FEA01C20FD31F88818C939F5F2A
:1001F000F1CF1092D0016093CF01CB01DF91CF916D
:100200000994DF91CF910895CF92DF92EF92FF9200
:100210000F931F93CF93DF936C017A018B01C0E0A2
:10022000D0E0CE15DF0589F0D8016D918D01D601A2
:10023000ED91FC910190F081E02DC6010995892B8B
:1002400011F47E0102C02196ECCFC701DF91CF915E
:100250001F910F91FF90EF90DF90CF9008953FB7DF
:10026000F8948091C6019091C701A091C801B09106
:10027000C90126B5A89B05C02F3F19F00196A11D05
:10028000B11D3FBFBA2FA92F982F8827820F911D2C
:10029000A11DB11DBC01CD0142E0660F771F881F73
:1002A000991F4A95D1F7089585ED8093BC00809100
:1002B000BC0084FDFCCF1092CC01089540917A01DE
:1002C000262F30E0240F311D21323105DCF420913E
:1002D000CC012430C9F4FC0180E090E0861758F48A
:1002E00030917A012191DC01A65ABE4FA30FB11DB6
:1002F0002C930196F3CF80917A01680F60937A0175
:1003000080E0089581E0089582E008950895E091E5
:10031000D0018091CF01E81730F4F0E0E85CFE4FA7
:10032000808190E008958FEF9FEF08959091D00124
:100330008091CF01981750F4E92FF0E0E85CFE4F70
:10034000208130E09F5F9093D00102C02FEF3FEFFC
:10035000C90108958091CF0190E02091D001821BC6
:1003600091090895CF93DF9300D0CDB7DEB7CB01CD
:10037000642F49835A830E945E014981842F5A81E8
:10038000952F0F900F90DF91CF910895CF93DF932A
:100390001F92CDB7DEB7698361E0CE0101960E945E
:1003A0005E0181E090E00F90DF91CF9108959C0174
:1003B000220F331F820F931FE0913601F091370116
:1003C000209135018E0F9F1FFC01E20FF11D60830C
:1003D00020913401FC01E20FF11D50832091330183
:1003E000FC01E20FF11D408380E00895109232017C
:1003F0001092310110923001E0E2F1E0A8E1B1E0A9
:10040000119211921D9281E0E033F807C9F7089527
:10041000DC0170E0FB01E057FF4FE4911896EC938C
:10042000189764587F4FFB018491E82FF0E0EE0F9E
:10043000FF1FEE58FF4F8591949115969C938E93D4
:100440001497FB016491E62FF0E0EE0FFF1FE859CF
:10045000FF4F8591949117969C938E9316970895CC
:100460000F931F93CF9304EE11E0C0E06C2FC801EF
:100470000E940802CF5F075F1F4FC830B9F7CF91C6
:100480001F910F9108950E94B7085F926F927F921B
:100490008F929F92AF92BF92CF92DF92EF92FF9294
:1004A0000F931F93CF93DF93CDB7DEB760970FB64F
:1004B000F894DEBF0FBECDBF8C01B12CEB2CF12C1C
:1004C000E016F1069CF42FE088ED91E02B1550F03A
:1004D0000E949601E1E0F0E0EC0FFD1FEE0DFF1D24
:1004E000808302C00E949601B394E8CF8981982F3F
:1004F0009F70933009F4DFC030F4913009F434C1B7
:10050000923041F0B5C2943009F47AC0953009F4C4
:10051000E2C1AEC2809117018111AAC28091160179
:100520008111A6C281E08093170140E0A9E0FA2E74
:1005300080913201481708F060C0842F90E0BC0120
:10054000685E7E4FDB012C91222309F452C0C090DB
:100550003601D0903701F89ED001F99EB00D1124DC
:10056000AC51BE4F16962D913C911797F901908191
:1005700018968C911897982B908314960D911C9136
:10058000159718965C9118978D919C9111979C01E5
:10059000220F331F280F391F12968D919C911397AC
:1005A000DC01AA0FBB1F8A0F9B1FF601E80FF91F82
:1005B000D8019C91852F8095C82EC922592B9FB7B1
:1005C000F8942E0F3F1FE217F30789F0E190D8014E
:1005D00088E05C9300C0E7FECC92EE0C00C000C047
:1005E00000C008F4CC9200C08A9599F7ECCF9FBF69
:1005F0007894DB011C924F5F9BCF1092170138C299
:100600004A81CB800C818D8190911601911130C26D
:1006100090E0A0E0B0E015E1880F991FAA1FBB1F72
:100620001A95D1F710E020E030E05EE0000F111FD6
:10063000221F331F5A95D1F7800F911FA21FB31F9E
:10064000840F911DA11DB11DD12CE12CF12C67E06F
:10065000CC0CDD1CEE1CFF1C6A95D1F7C80ED91E10
:10066000EA1EFB1EC114D104E104F10491F440918F
:10067000300150913101CA01880F991F480F591F4D
:1006800060E070E080913601909137010E94D708B8
:10069000BAC100E010E0809130019091310108175B
:1006A000190708F0B0C1B701A601C8010E94D7011F
:1006B0000F5F1F4FF0CFEA809B815C814D818E815F
:1006C0000F81209116012111D3C1F12CB0E89B9F1D
:1006D000E00CF11C11242091300130913101E2161F
:1006E000F30668F510E020E030E065E1000F111F2F
:1006F000221F331F6A95D1F790E0A0E0B0E07EE0C2
:10070000880F991FAA1FBB1F7A95D1F7080F191FD1
:100710002A1F3B1F050F111D211D311D50E060E0F8
:1007200070E0E7E0440F551F661F771FEA95D1F789
:10073000400F511F621F731FC7010E94D7012091F4
:100740003201A0E2B1E080E090E0821708F090C1B1
:10075000FC014D915D910196E416F506B0F7E85E57
:10076000FE4F81E0808384C1813009F081C1033074
:1007700008F47EC18090D7010E94F60181100E948A
:1007800030028BEA089F912C1124969430E2A32E1C
:1007900031E0B32E44EEE42E41E0F42E6E01E4E0AD
:1007A000CE0ED11C712C6624639452E0552E860126
:1007B00002501109811006C0D8016C916F71C701F8
:1007C0000E940802F801808190E025E095958795C8
:1007D0002A95E1F78130910551F08230910571F051
:1007E000892B91F4109234016092350104C010926B
:1007F0003501609234015092330106C010923301EA
:100800006092350150923401F60131978081D60112
:100810002C91B0E82B9F90011124280F311DF70176
:1008200031832083772029F0F501329780819181EF
:1008300002C080E090E0280F391FD5012D933D9331
:100840005D01F701938382830091300110913101A2
:1008500080819181080F191F10933101009330019D
:10086000809132018F5F809332017394F9E0EF0E33
:10087000F11C23E0C20ED11C791099CF8091360172
:1008800090913701009731F00E941F0810923101BA
:10089000109230010115110509F4EAC07801EE0C3F
:1008A000FF1CE00EF11EC7010E948A0790933701DA
:1008B00080933601009751F0A70160E070E00E943C
:1008C000D7081093310100933001D2C0109231014A
:1008D00010923001CDC08A81982F9F7109F493C086
:1008E00085FBAA24A0F8092F000F090F21E020930F
:1008F000160110E0E92EF12C86FBBB24B0F886FF30
:1009000028C0C8010E948A076C01009729F0A8013D
:1009100060E070E00E94D708AA2039F020913001F1
:10092000309131012E193F0902C020E030E0B901B9
:10093000660F771F260F371F6091360170913701C0
:10094000620F731FA801C6010E94BC08A11079C0E4
:1009500019C0AA20B9F080913601909137014091D9
:100960003001509131014E195F099A01220F331F56
:10097000420F531FBC01800F911F0E94C50880E0E9
:1009800090E02FC080903001909031018E189F0828
:100990008091360190913701A401440F551F480DF5
:1009A000591DBC01600F711F0E94C508BB2099F042
:1009B000C401880F991F880E991E8091360190916D
:1009C0003701A801B601880D991D0E94BC08C60117
:1009D0000E941F0816C080913001909131018E193C
:1009E0009F099C01220F331F820F931F2091360114
:1009F00030913701A80160E070E0820F931F0E94E0
:100A0000D708109216014091320150E061E070E089
:100A100088E191E060960FB6F894DEBF0FBECDBFBF
:100A2000DF91CF911F910F91FF90EF90DF90CF90CA
:100A3000BF90AF909F908F907F906F905F900C943D
:100A4000D708809136019091370140913001509143
:100A500031014E195F099A01220F331F420F531FB4
:100A6000BC01800F911F0E94C508812C912CA0CF42
:100A700060960FB6F894DEBF0FBECDBFDF91CF9169
:100A80001F910F91FF90EF90DF90CF90BF90AF90AC
:100A90009F908F907F906F905F9008951F920F921C
:100AA0000FB60F9211242F933F938F939F93AF9381
:100AB000BF938091C2019091C301A091C401B091F4
:100AC000C5013091C10123E0230F2D3720F4019699
:100AD000A11DB11D05C026E8230F0296A11DB11D61
:100AE0002093C1018093C2019093C301A093C401DC
:100AF000B093C5018091C6019091C701A091C80132
:100B0000B091C9010196A11DB11D8093C6019093BA
:100B1000C701A093C801B093C901BF91AF919F9144
:100B20008F913F912F910F900FBE0F901F901895AE
:100B30001F920F920FB60F9211242F933F934F9352
:100B40005F936F937F938F939F93AF93BF93EF9335
:100B5000FF938091B900887F803609F49CC068F5C6
:100B6000883209F45BC090F4803109F454C038F441
:100B7000882309F4F6C0883009F44DC0F6C08831E6
:100B800009F44CC0803209F45DC0EFC0803409F430
:100B900068C048F4803309F455C0883309F0E5C0D3
:100BA00080939D01D8C0803509F44FC0883509F481
:100BB0005DC0883409F0D9C0D6C0883909F4C7C0EF
:100BC000A8F4883709F467C038F4883609F463C09C
:100BD000803709F460C0C9C0883809F4B8C08039CA
:100BE00009F45FC0803809F0C0C05BC0803B09F4E5
:100BF00086C038F4803A09F466C0883A09F47FC0A8
:100C0000B4C0803C09F4A7C0883C09F4A4C0883B68
:100C100009F48AC0AAC08091C00110C09091BF01A0
:100C20008091BE01981770F5E091BF0181E08E0FB1
:100C30008093BF01F0E0E256FE4F80818093BB00BD
:100C400085EC86C080939D018EC0E091BF0181E05C
:100C50008E0F8093BF018091BB00F0E0E256FE4F03
:100C600080839091BF018091BE016EC0E091BF0171
:100C700081E08E0F8093BF018091BB00F0E0E256CF
:100C8000FE4F80838091CB0181116DC081E0809304
:100C9000CA0184EA61C083E08093CC0110929C0178
:100CA000CFCF80919C01803208F051C0E0919C012F
:100CB00081E08E0F80939C018091BB00F0E0E458AE
:100CC000FE4F8083BDCF85EC8093BC001092CC0199
:100CD00080919C01803230F4E0919C01F0E0E45876
:100CE000FE4F108260919C0170E0E091D101F09183
:100CF000D2018CE791E0099510929C0136C084E006
:100D00008093CC0110927B0110927A01E091D30183
:100D1000F091D401099580917A01811105C081E09B
:100D200080937A0110925A01E0917B0181E08E0F4D
:100D300080937B01F0E0E65AFE4F80818093BB00F8
:100D400090917B0180917A01981708F479CF85E81A
:100D50008093BC000AC085EC8093BC001092CC014B
:100D600004C010929D010E945401FF91EF91BF9128
:100D7000AF919F918F917F916F915F914F913F9133
:100D80002F910F900FBE0F901F9018951092DB01BE
:100D90001092DA0188EE93E0A0E0B0E08093DC01ED
:100DA0009093DD01A093DE01B093DF018AE091E032
:100DB0009093D9018093D801E4EEF1E01182108282
:100DC00013821282399682E0EC32F807B9F708955F
:100DD000789484B5826084BD84B5816084BD85B516
:100DE000826085BD85B5816085BD80916E00816022
:100DF00080936E00109281008091810082608093C8
:100E000081008091810081608093810080918000C9
:100E10008160809380008091B10084608093B100F4
:100E20008091B00081608093B00080917A008460EE
:100E300080937A0080917A00826080937A0080911A
:100E40007A00816080937A0080917A008068809334
:100E50007A001092C10084E88093BA008EEC90E092
:100E60009093D4018093D3018AED90E09093D201C6
:100E70008093D1011092D0011092CF011092CE0137
:100E80001092CD011092CC01C1E0C093CB01109221
:100E9000CA0182E10E94880083E10E94880080915B
:100EA000B9008E7F8093B9008091B9008D7F8093C7
:100EB000B90088E48093B80085E48093BC0085E4A1
:100EC00092E09093D6018093D501C093D7010E9400
:100ED000F6010E943002C0E0D0E00E942F016B01B9
:100EE0007C010E942F01DC01CB018C199D09AE0908
:100EF000BF09883E9340A105B10598F3209769F397
:100F00000E940000EACF0895EE0FFF1F0590F491B4
:100F1000E02D0994CF93DF938230910510F482E0A5
:100F200090E0E0912E02F0912F0220E030E0C0E04E
:100F3000D0E0309711F14081518148175907C0F036
:100F40004817590761F482819381209719F09B8398
:100F50008A832BC090932F0280932E0226C02115E6
:100F6000310519F04217530718F49A01BE01DF0149
:100F7000EF010280F381E02DDCCF2115310509F16D
:100F8000281B390B2430310590F412968D919C91D9
:100F900013976115710521F0FB019383828304C0CF
:100FA00090932F0280932E02FD01329644C0FD01E2
:100FB000E20FF31F81939193225031092D933C93BB
:100FC0003AC020912C0230912D02232B41F4209124
:100FD00002013091030130932D0220932C022091C5
:100FE0000001309101012115310541F42DB73EB7C3
:100FF0004091040150910501241B350BE0912C0216
:10100000F0912D02E217F307A0F42E1B3F0B2817D7
:10101000390778F0AC014E5F5F4F2417350748F071
:101020004E0F5F1F50932D0240932C02819391939A
:1010300002C0E0E0F0E0CF01DF91CF9108950F937F
:101040001F93CF93DF93009709F48CC0FC01329774
:101050001382128200912E0210912F0201151105A8
:1010600081F420813181820F931F20912C023091D5
:101070002D022817390779F5F0932D02E0932C0201
:1010800071C0D80140E050E0AE17BF0750F412968F
:101090002D913C911397AD012115310509F1D9012D
:1010A000F3CF9D01DA013383228360817181860F42
:1010B000971F8217930769F4EC0128813981260F65
:1010C000371F2E5F3F4F318320838A819B8193831B
:1010D0008283452B29F4F0932F02E0932E0242C025
:1010E0001396FC93EE931297ED01499159919E014D
:1010F000240F351FE217F30771F480819181840F6B
:10110000951F029611969C938E93828193811396DC
:101110009C938E931297E0E0F0E0D80112968D91A7
:101120009C911397009719F0F8018C01F6CF8D91DF
:101130009C9198012E5F3F4F820F931F20912C02AC
:1011400030912D022817390769F4309729F410924D
:101150002F0210922E0202C01382128210932D02CF
:1011600000932C02DF91CF911F910F91089581E0A0
:1011700090E0F8940C94DE08FB01DC0102C00190C1
:101180000D9241505040D8F708956817790768F4D8
:10119000FB01DC01E40FF51FA40FB51F02C0029094
:1011A0000E9241505040D8F708950C94BC08DC01D1
:1011B00001C06D9341505040E0F7089510E0CDE537
:1011C000D0E004C0FE010E9484072196CE35D107ED
:0611D000C9F7F894FFCFFF
:1011D60000003002800000000000C601B201AA0132
:0611E6009601870186015D
:00000001FF
