:1000000008C1000034C1000032C1000030C100004E
:100010002EC100002CC100002AC1000028C1000030
:1000200026C1000024C1000022C1000020C1000040
:100030001EC100001CC100001AC1000018C1000050
:1000400016C1000014C1000012C1000010C1000060
:100050000EC100000CC100000AC100000DC5000067
:1000600006C1000004C1000002C1000000C1000080
:10007000FEC00000FCC00000FAC00000F8C0000094
:10008000F6C00000F4C00000F2C00000F0C00000A4
:10009000EEC00000ECC00000EAC0000037C5000060
:1000A000E6C00000E4C00000E2C00000E0C00000C4
:1000B000DEC00000DCC00000DAC00000D8C00000D4
:1000C000D6C00000D4C00000D2C00000D0C00000E4
:1000D000CEC00000CCC00000CAC00000C8C00000F4
:1000E000C6C000006501680157015B015F019F0107
:1000F0006C01700176017A017E01840188018C0116
:100100009F01920196019A0100002100240027001E
:100110002A002D0030003300010100000401070116
:100120000A0100002200250028002B002E003100CB
:10013000340002010000050108010B010505050559
:10014000070508080808020202020A0A080804044F
:10015000040401010101010101010303030303037D
:100160000303040707070C0C0C0C0C0C0C0C02020C
:10017000020206060606060606060B0B0B0B0B0B09
:100180000B0B010210202008081020401020408096
:10019000020102010804020101020408102040804B
:1001A00080402010080402018004020180402010D9
:1001B0000804020108040201010204081020408022
:1001C000010204081020408000000A0B02090C0DF7
:1001D0000E080703040100000000000000000000FA
:1001E000000000000000000000000000000000000F
:1001F00000000000121110000000000000000000CC
:100200000000000000000000000000000000B70631
:10021000CD0711241FBECFEFD1E2DEBFCDBF00E07E
:100220000CBF12E0A0E0B2E0EEE3F2E100E00BBFB1
:1002300002C007900D92A631B107D9F723E0A6E1DD
:10024000B2E001C01D92AF33B207E1F711E0C8E0A0
:10025000D1E000E005C021970109802FFE019ED664
:10026000C730D10780E00807B1F7C1D5D7C7C8CEDE
:1002700090E0FC01E853FE4F4491FC01EE57FE4F25
:100280002491FC01E45CFE4F9491992309F465C02C
:10029000442309F454C050E0FA013197E231F105EA
:1002A00008F04DC08827EE58FF4F8F4F77C68091DA
:1002B00080008F7707C0809180008F7D03C0809180
:1002C0008000877F809380003AC084B58F7702C01A
:1002D00084B58F7D84BD33C08091B0008F7703C01B
:1002E0008091B0008F7D8093B00029C080919000F4
:1002F0008F7707C0809190008F7D03C08091900020
:10030000877F809390001BC08091A0008F7707C0EB
:100310008091A0008F7D03C08091A000877F809393
:10032000A0000DC0809120018F7707C0809120012F
:100330008F7D03C080912001877F80932001E92F6A
:10034000F0E0EE0FFF1FEE5DFE4FA591B4918FB769
:10035000F894EC912E2B2C938FBF0895E0913702E7
:10036000F0913802309729F01092AD021092AC0251
:1003700019940895CF93DF93AC01E091B402F0910A
:10038000B5023097F1F09091AF028091AE029817CC
:10039000C0F090E0292F30E02617370754F4D90138
:1003A000A95EBD4FEA01C20FD31F88818C939F5F66
:1003B000F1CF1092AF026093AE02CB01DF91CF91EB
:1003C0001994DF91CF910895CF92DF92EF92FF922F
:1003D0000F931F93CF93DF936C017A018B01C0E0E1
:1003E000D0E0CE15DF0589F0D8016D918D01D601E1
:1003F000ED91FC910190F081E02DC6011995892BBA
:1004000011F47E0102C02196ECCFC701DF91CF919C
:100410001F910F91FF90EF90DF90CF9008953FB71D
:10042000F8948091A5029091A602A091A702B091A4
:10043000A80226B5A89B05C02F3F19F00196A11D63
:10044000B11D3FBFBA2FA92F982F8827820F911D6A
:10045000A11DB11DBC01CD0142E0660F771F881FB1
:10046000991F4A95D1F7089585ED8093BC0080913E
:10047000BC0084FDFCCF1092AB020895409159025C
:10048000262F30E0240F311D21323105DCF420917C
:10049000AB022430C9F4FC0180E090E0861758F4E8
:1004A000309159022191DC01A75CBD4FA30FB11D12
:1004B0002C930196F3CF80915902680F60935902F3
:1004C00080E0089581E0089582E008950895E09124
:1004D000AF028091AE02E81730F4F0E0E95EFD4F24
:1004E000808190E008958FEF9FEF08959091AF0283
:1004F0008091AE02981750F4E92FF0E0E95EFD4FCD
:10050000208130E09F5F9093AF0202C02FEF3FEF5A
:10051000C90108958091AE0290E02091AF02821B44
:1005200091090895CF93DF931F921F92CDB7DEB745
:10053000CB01642F49835A83A1DF4981842F5A81DB
:10054000952F0F900F90DF91CF910895CF93DF9368
:100550001F92CDB7DEB7698361E0CE0101968EDFD1
:1005600081E090E00F90DF91CF910895DC0170E081
:10057000FB01EE57FE4FE4911B96EC931B97645CD6
:100580007E4FFB018491E82FF0E0EE0FFF1FEE5D40
:10059000FE4F8591949118969C938E931797FB012B
:1005A0006491E62FF0E0EE0FFF1FE85FFE4F8591AC
:1005B00094911A969C938E9319970895CF93DF93F5
:1005C000EC018881998168177907F8F4FB01EE0F37
:1005D000FF1F6E0F7F1F8C81AA81BB81A60FB71FE3
:1005E000A80FB11D4C938D81AA81BB81A60FB71FA7
:1005F000A80FB11D3C938E81EA81FB81E60FF71FA6
:10060000E80FF11D208380E001C081E0DF91CF91F0
:100610000895F9D52F923F924F925F926F927F92F9
:100620008F929F92AF92BF92CF92DF92EF92FF9202
:100630000F931F93CF93DF93CDB7DEB761970FB6BC
:10064000F894DEBF0FBECDBF8C01D12CED2CF12C68
:10065000E016F1068CF42FE08FEC92E02D1548F0B7
:1006600045DFE1E0F0E0EC0FFD1FEE0DFF1D8083A4
:1006700001C03CDFD394EACF99819F70923009F496
:1006800045C020F4913009F400C1DDC1933009F474
:1006900095C0943009F0D7C18B8190E0A0E0B0E024
:1006A000AC01BD01B7E0440F551F661F771FBA9517
:1006B000D1F79C81892F90E0A0E0B0E01EE0880F88
:1006C000991FAA1FBB1F1A95D1F7840F951FA61F4C
:1006D000B71F2A81820F911DA11DB11DCD80D12C84
:1006E000E12CF12C05E1CC0CDD1CEE1CFF1C0A9565
:1006F000D1F7C80ED91EEA1EFB1E0BED12E086EBE9
:10070000A82E82E0B82E7724739440C08091160200
:10071000811199C181E080931602EBEDF2E066EB66
:1007200072E046EE52E080819181892B39F0DB0145
:100730008C9181114FC102C0DFBE7894DB011D9204
:10074000BD013C96445F5F4FB3E0EB33FB0759F7C5
:100750001092160278C1C114D104E104F104E9F445
:10076000CA01880F991F480F591F60E070E082810D
:1007700093814DD5F5017082045F1F4FFFEFAF1AD3
:10078000BF0A23E00B33120709F45DC1F801408171
:1007900051814115510581F3DECF812C912CD80177
:1007A0008D919C918816990628F7A7019601B401AE
:1007B000C80104DFFFEF8F1A9F0AF1CF8B816A8196
:1007C00070E030E8839F600D711D11243C812D8104
:1007D000CE808F81EEEBF2E010E0419151916417F1
:1007E000750790F590E0A0E0B0E045E1880F991F13
:1007F000AA1FBB1F4A95D1F7D12CE12CF12C5EE04A
:10080000CC0CDD1CEE1CFF1C5A95D1F78C0D9D1DE8
:10081000AE1DBF1D830F911DA11DB11DC22ED12C78
:10082000E12CF12CE7E0CC0CDD1CEE1CFF1CEA9562
:10083000D1F79C01AD012C0D3D1D4E1D5F1D111109
:1008400007C08BED92E019C01F5F183031F6FBC076
:10085000A12F012E000CBB0BFD01EE0FFF1FE45476
:10086000FD4F80819181681B790BECE0EA9FC0010C
:10087000EB9F900D112485529D4FA0DEE12FF0E0FB
:10088000EA54FD4F81E08083DEC0033008F4DBC012
:100890008BEA089F012D11240695098B4EEB642EDF
:1008A00042E0742E0BED12E04E0184E0880E911CA4
:1008B00050EEA52E52E0B52E6FEDC62E62E0D62E7C
:1008C00071EEE72E72E0F72E512CE2E04E2E809171
:1008D000CE02D40112971D01811104C06C916F7179
:1008E000C80144DEF101808190E035E0959587955F
:1008F0003A95E1F78130910559F08230910579F010
:10090000892BA1F4D5011C9221E0F601208305C0BA
:10091000F6011082E1E0D501EC93D70106C0F701A2
:100920001082E1E0D601EC93D5014C92F4013197AD
:100930008081F4012080F0E82F9E10011124280E00
:10094000311CD80112968D919C911397009709F054
:10095000C2D3F8013182208221143104B1F0A10107
:10096000440F551F240E351EC10120D3D801139604
:100970009C938E931297009729F0A10160E070E09C
:1009800046D403C0F80111821082552029F0F301EA
:1009900032972081318102C020E030E0D8018D9172
:1009A0009C91820F931FF301819391933F01539484
:1009B000045F1F4FF3E08F0E911C2CE0A20EB11CC0
:1009C0003CE0C30ED11C8CE0E80EF11C29895212C8
:1009D0007ECF39C021853285D9019C91DA018C9175
:1009E000892BD9018C93A780B084DA018C91208166
:1009F00031818901000F111F020F131FE280F38064
:100A0000D5012C91382F30953223C22EC82ADFB65B
:100A1000F894C701080F191F8017910709F48CCEAD
:100A2000DC01FD90CD01D50128E0CC9200C0F7FE9D
:100A30003C93FF0C00C000C000C008F43C9300C011
:100A40002A9599F7E9CF61960FB6F894DEBF0FBEED
:100A5000CDBFDF91CF911F910F91FF90EF90DF906D
:100A6000CF90BF90AF909F908F907F906F905F904E
:100A70004F903F902F9008951F920F920FB60F92B4
:100A800011242F933F938F939F93AF93BF938091A4
:100A9000A1029091A202A091A302B091A402309170
:100AA000A00223E0230F2D3720F40196A11DB11DD4
:100AB00005C026E8230F0296A11DB11D2093A002B8
:100AC0008093A1029093A202A093A302B093A402E8
:100AD0008091A5029091A602A091A702B091A802D0
:100AE0000196A11DB11D8093A5029093A602A0932B
:100AF000A702B093A802BF91AF919F918F913F91B0
:100B00002F910F900FBE0F901F9018951F920F926C
:100B10000FB60F9211240BB60F922F933F934F9362
:100B20005F936F937F938F939F93AF93BF93EF9355
:100B3000FF938091B900887F803609F49CC068F5E6
:100B4000883209F45BC090F4803109F454C038F461
:100B5000882309F4F6C0883009F44DC0F5C0883107
:100B600009F44CC0803209F45DC0EEC0803409F451
:100B700068C048F4803309F455C0883309F0E4C0F4
:100B800080937C02D8C0803509F44FC0883509F4C1
:100B90005DC0883409F0D8C0D6C0883909F4C7C010
:100BA000A8F4883709F467C038F4883609F463C0BC
:100BB000803709F460C0C8C0883809F4B8C08039EB
:100BC00009F45FC0803809F0BFC05BC0803B09F406
:100BD00086C038F4803A09F466C0883A09F47FC0C8
:100BE000B3C0803C09F4A7C0883C09F4A4C0883B8A
:100BF00009F48AC0A9C080919F0210C090919E0202
:100C000080919D02981770F5E0919E0281E08E0F11
:100C100080939E02F0E0E358FD4F80818093BB00FB
:100C200085EC86C080937C028EC0E0919E0281E0BC
:100C30008E0F80939E028091BB00F0E0E358FD4F41
:100C4000808390919E0280919D026EC0E0919E02F1
:100C500081E08E0F80939E028091BB00F0E0E3580C
:100C6000FD4F80838091AA0281116DC081E0809345
:100C7000A90284EA61C083E08093AB0210927B02F8
:100C8000CFCF80917B02803208F051C0E0917B028F
:100C900081E08E0F80937B028091BB00F0E0E55AEB
:100CA000FD4F8083BDCF85EC8093BC001092AB02DA
:100CB00080917B02803230F4E0917B02F0E0E55AD3
:100CC000FD4F108260917B0270E0E091B002F091E4
:100CD000B1028BE592E0199510927B0235C084E059
:100CE0008093AB0210925A0210925902E091B20224
:100CF000F091B302199580915902811105C081E0EC
:100D00008093590210923902E0915A0281E08E0FCD
:100D100080935A02F0E0E75CFD4F80818093BB0036
:100D200090915A0280915902981708F479CF85E87A
:100D30008093BC0009C085EC8093BC001092AB028C
:100D400003C010927C0290DBFF91EF91BF91AF91B5
:100D50009F918F917F916F915F914F913F912F91D3
:100D60000F900BBE0F900FBE0F901F901895EF9233
:100D7000FF920F931F93CF93DF931092D2021092A2
:100D8000D10288EE93E0A0E0B0E08093D30290938C
:100D9000D402A093D502B093D6028AE092E0909359
:100DA000D0028093CF020BED12E0C0E0D0E0EE2441
:100DB000E39482E0F82EF80182819381009709F094
:100DC0008AD1F80111821082FE01E552FD4F158291
:100DD000E482F6822C96045F1F4FC036D10559F786
:100DE000DF91CF911F910F91FF90EF90089578942C
:100DF00084B5826084BD84B5816084BD85B5826020
:100E000085BD85B5816085BD80916E0081608093D0
:100E10006E00109281008091810082608093810039
:100E20008091810081608093810080918000816049
:100E3000809380008091B10084608093B1008091A4
:100E4000B00081608093B0008091910082608093B7
:100E50009100809191008160809391008091900039
:100E60008160809390008091A10082608093A100B6
:100E70008091A10081608093A1008091A000816099
:100E80008093A00080912101826080932101809154
:100E900021018160809321018091200181608093F4
:100EA000200180917A00846080937A0080917A009A
:100EB000826080937A0080917A00816080937A00CA
:100EC00080917A00806880937A001092C10084E853
:100ED0008093BA008EEA91E09093B3028093B202BD
:100EE0008AEB91E09093B1028093B0021092AF022E
:100EF0001092AE021092AD021092AC021092AB02B0
:100F0000C1E0C093AA021092A90284E1B1D985E19F
:100F1000AFD98091B9008E7F8093B9008091B900DC
:100F20008D7F8093B90088E48093B80085E4809336
:100F3000BC008AE093E09093B5028093B402C09322
:100F4000CE02EEEBF2E0A6EBB2E0119211921D920E
:100F500022E0EE3CF207C9F70BED12E0C0E06C2F87
:100F6000C80104DBCF5F045F1F4FC830C1F7C0E08A
:100F7000D0E055DA6B017C0152DADC01CB018C192F
:100F80009D09AE09BF09883E9340A105B105A0F3B4
:100F9000209779F30E940000ECCF0895EE0FFF1F19
:100FA000881F8BBF0790F691E02D1994CF93DF93A4
:100FB0008230910510F482E090E0E0913D03F091E1
:100FC0003E0320E030E0C0E0D0E0309711F14081F6
:100FD000518148175907C0F04817590761F48281B9
:100FE0009381209719F09B838A832BC090933E03B3
:100FF00080933D0326C02115310519F04217530790
:1010000018F49A01BE01DF01EF010280F381E02DA7
:10101000DCCF2115310509F1281B390B24303105AE
:1010200090F412968D919C9113976115710521F0A2
:10103000FB019383828304C090933E0380933D031E
:10104000FD01329644C0FD01E20FF31F819391939D
:10105000225031092D933C933AC020913B033091AB
:101060003C03232B41F42091020230910302309380
:101070003C0320933B032091000230910102211593
:10108000310541F42DB73EB740910402509105025D
:10109000241B350BE0913B03F0913C03E217F3076F
:1010A000A0F42E1B3F0B2817390778F0AC014E5FD8
:1010B0005F4F2417350748F04E0F5F1F50933C03D6
:1010C00040933B038193919302C0E0E0F0E0CF01B5
:1010D000DF91CF9108950F931F93CF93DF930097E4
:1010E00009F48CC0FC0132971382128200913D03F7
:1010F00010913E030115110581F420813181820F89
:10110000931F20913B0330913C032817390779F551
:10111000F0933C03E0933B0371C0D80140E050E002
:10112000AE17BF0750F412962D913C911397AD0165
:101130002115310509F1D901F3CF9D01DA0133837E
:10114000228360817181860F971F8217930769F44C
:10115000EC0128813981260F371F2E5F3F4F3183E5
:1011600020838A819B8193838283452B29F4F0938A
:101170003E03E0933D0342C01396FC93EE93129717
:10118000ED01499159919E01240F351FE217F30794
:1011900071F480819181840F951F029611969C9322
:1011A0008E938281938113969C938E931297E0E0A5
:1011B000F0E0D80112968D919C911397009719F049
:1011C000F8018C01F6CF8D919C9198012E5F3F4FD5
:1011D000820F931F20913B0330913C03281739075E
:1011E00069F4309729F410923E0310923D0302C037
:1011F0001382128210933C0300933B03DF91CF9143
:101200001F910F91089581E090E0F89407C0DC01F0
:1012100001C06D9341505040E0F7089511E0C8E0DF
:10122000D1E000E005C0802FFE01B8DE2196011D4F
:0E123000C930D10780E00807B1F7F894FFCF6E
:10123E0000003F03800000000000A60292028A0216
:06124E0076026702660251
:00000001FF
