:1000000008C1000035C1000033C1000031C100004B
:100010002FC100002DC100002BC1000029C100002C
:1000200027C1000025C1000023C1000021C100003C
:100030001FC100001DC100001BC1000019C100004C
:1000400017C1000015C1000013C1000011C100005C
:100050000FC100000DC100000BC10000E8C5000089
:1000600007C1000005C1000003C1000001C100007C
:10007000FFC00000FDC00000FBC00000F9C0000090
:10008000F7C00000F5C00000F3C00000F1C00000A0
:10009000EFC00000EDC00000EBC0000012C6000081
:1000A000E7C00000E5C00000E3C00000E1C00000C0
:1000B000DFC00000DDC00000DBC00000D9C00000D0
:1000C000D7C00000D5C00000D3C00000D1C00000E0
:1000D000CFC00000CDC00000CBC00000C9C00000F0
:1000E000C7C000006601690158015C016001A00100
:1000F0006D01710177017B017F01850189018D010E
:10010000A001930197019B0100002100240027001A
:100110002A002D0030003300010100000401070116
:100120000A0100002200250028002B002E003100CB
:10013000340002010000050108010B010505050559
:10014000070508080808020202020A0A080804044F
:10015000040401010101010101010303030303037D
:100160000303040707070C0C0C0C0C0C0C0C02020C
:10017000020206060606060606060B0B0B0B0B0B09
:100180000B0B010210202008081020401020408096
:10019000020102010804020101020408102040804B
:1001A00080402010080402018004020180402010D9
:1001B0000804020108040201010204081020408022
:1001C000010204081020408000000A0B02090C0DF7
:1001D0000E080703040100000000000000000000FA
:1001E000000000000000000000000000000000000F
:1001F00000000000121110000000000000000000CC
:100200000000000000000000000000000000920755
:10021000760811241FBECFEFD1E2DEBFCDBF00E0D4
:100220000CBF12E0A0E0B2E0E4ECF3E100E00BBFB1
:1002300002C007900D92A631B107D9F723E0A6E1DD
:10024000B2E001C01D92A033B207E1F711E0C8E0AF
:10025000D1E000E005C021970109802FFE0147D7BA
:10026000C730D10780E00807B1F77ED60C94D109DA
:10027000C7CE90E0FC01E853FE4F4491FC01EE57DD
:10028000FE4F2491FC01E45CFE4F9491992309F404
:1002900065C0442309F454C050E0FA013197E231BB
:1002A000F10508F04DC08827EE58FF4F8F4F1FC74C
:1002B000809180008F7707C0809180008F7D03C080
:1002C00080918000877F809380003AC084B58F77CB
:1002D00002C084B58F7D84BD33C08091B0008F771C
:1002E00003C08091B0008F7D8093B00029C08091C1
:1002F00090008F7707C0809190008F7D03C0809120
:100300009000877F809390001BC08091A0008F7722
:1003100007C08091A0008F7D03C08091A000877FDF
:100320008093A0000DC0809120018F7707C080913D
:1003300020018F7D03C080912001877F8093200161
:10034000E92FF0E0EE0FFF1FEE5DFE4FA591B49197
:100350008FB7F894EC912E2B2C938FBF0895E091DA
:100360005802F0915902309729F01092CE02109263
:10037000CD0219940895CF93DF93AC01E091D5029B
:10038000F091D6023097F1F09091D0028091CF0297
:100390009817C0F090E0292F30E02617370754F463
:1003A000D901A85CBD4FEA01C20FD31F88818C938D
:1003B0009F5FF1CF1092D0026093CF02CB01DF910B
:1003C000CF911994DF91CF910895CF92DF92EF9260
:1003D000FF920F931F93CF93DF936C017A018B01F0
:1003E000C0E0D0E0CE15DF0589F0D8016D918D0118
:1003F000D601ED91FC910190F081E02DC601199597
:10040000892B11F47E0102C02196ECCFC701DF9148
:10041000CF911F910F91FF90EF90DF90CF900895B3
:100420003FB7F8948091C6029091C702A091C8028C
:10043000B091C90226B5A89B05C02F3F19F00196BF
:10044000A11DB11D3FBFBA2FA92F982F8827820F5A
:10045000911DA11DB11DBC01CD0142E0660F771FAA
:10046000881F991F4A95D1F7089585ED8093BC00A8
:100470008091BC0084FDFCCF1092CC020895409185
:100480007A02262F30E0240F311D21323105DCF4B1
:100490002091CC022430C9F4FC0180E090E0861762
:1004A00058F430917A022191DC01A65ABD4FA30F76
:1004B000B11D2C930196F3CF80917A02680F60935F
:1004C0007A0280E0089581E0089582E00895089519
:1004D000E091D0028091CF02E81730F4F0E0E85CC0
:1004E000FD4F808190E008958FEF9FEF08959091E8
:1004F000D0028091CF02981750F4E92FF0E0E85C29
:10050000FD4F208130E09F5F9093D00202C02FEF1B
:100510003FEFC90108958091CF0290E02091D00271
:10052000821B91090895CF93DF931F921F92CDB73D
:10053000DEB7CB01642F49835A83A1DF4981842F21
:100540005A81952F0F900F90DF91CF910895CF93FF
:10055000DF931F92CDB7DEB7698361E0CE010196CC
:100560008EDF81E090E00F90DF91CF9108959C01A4
:10057000220F331F820F931FE0913602F091370252
:10058000209135028E0F9F1FFC01E20FF11D608349
:1005900020913402FC01E20FF11D508320913302BF
:1005A000FC01E20FF11D408380E0089510923202B9
:1005B0001092310210923002E0E2F2E0A8E1B2E0E3
:1005C000119211921D9282E0E033F807C9F7089565
:1005D000DC0170E0FB01EE57FE4FE4911896EC93BE
:1005E0001897645C7E4FFB018491E82FF0E0EE0FDA
:1005F000FF1FEE5DFE4F8591949115969C938E930F
:100600001497FB016491E62FF0E0EE0FFF1FE85F07
:10061000FE4F8591949117969C938E93169708950B
:100620000F931F93CF9304EE12E0C0E06C2FC8012C
:10063000CFDFCF5F075F1F4FC830C1F7CF911F914A
:100640000F91089589D65F926F927F928F929F92B9
:10065000AF92BF92CF92DF92EF92FF920F931F93D0
:10066000CF93DF93CDB7DEB760970FB6F894DEBFB8
:100670000FBECDBF8C01B12CEB2CF12CE016F10696
:100680008CF42FE088ED92E02B1548F030DFE1E0AC
:10069000F0E0EC0FFD1FEE0DFF1D808301C027DF92
:1006A000B394EACF8981982F9F70933009F4DDC00D
:1006B00030F4913009F431C1923041F0A2C294304B
:1006C00009F47AC0953009F4D9C19BC28091170210
:1006D000811197C280911602811193C281E08093AB
:1006E000170240E0A9E0FA2E80913202481708F084
:1006F00060C0842F90E0BC01685E7D4FDB012C91CF
:10070000222309F452C0C0903602D0903702F89EDE
:10071000D001F99EB00D1124AC51BD4F16962D910C
:100720003C911797F901908118968C911897982B06
:10073000908314960D911C91159718965C911897BB
:100740008D919C9111979C01220F331F280F391F07
:1007500012968D919C911397DC01AA0FBB1F8A0FF3
:100760009B1FF601E80FF91FD8019C91852F8095FA
:10077000C82EC922592B9FB7F8942E0F3F1FE2179E
:10078000F30789F0E190D80188E05C9300C0E7FEB0
:10079000CC92EE0C00C000C000C008F4CC9200C0A7
:1007A0008A9599F7ECCF9FBF7894DB011C924F5F3D
:1007B0009BCF1092170225C24A81CB800C818D817C
:1007C0009091160291111DC290E0A0E0B0E015E1F9
:1007D000880F991FAA1FBB1F1A95D1F710E020E0C0
:1007E00030E05EE0000F111F221F331F5A95D1F732
:1007F000800F911FA21FB31F840F911DA11DB11D5A
:10080000D12CE12CF12C67E0CC0CDD1CEE1CFF1C84
:100810006A95D1F7C80ED91EEA1EFB1EC114D10479
:10082000E104F10489F44091300250913102CA018F
:10083000880F991F480F591F60E070E080913602C1
:1008400090913702A7D5AAC100E010E08091300254
:10085000909131020817190708F0A0C1B701A6014D
:10086000C80185DE0F5F1F4FF1CFEA809B815C815D
:100870004D818E810F81209116022111C2C1F12C70
:10088000B0E89B9FE00CF11C1124209130023091C4
:100890003102E216F30660F510E020E030E065E199
:1008A000000F111F221F331F6A95D1F790E0A0E0BF
:1008B000B0E07EE0880F991FAA1FBB1F7A95D1F781
:1008C000080F191F2A1F3B1F050F111D211D311D68
:1008D00050E060E070E0E7E0440F551F661F771FAF
:1008E000EA95D1F7400F511F621F731FC7013FDE0A
:1008F00020913202A0E2B2E080E090E0821708F09E
:1009000080C1FC014D915D910196E416F506B0F7AA
:10091000E85EFD4F81E0808374C1813009F071C1D0
:10092000033008F46EC18090D70240DE811078DE7B
:100930008BEA089F912C1124969430E2A32E32E08A
:10094000B32E44EEE42E42E0F42E6E01E4E0CE0E2F
:10095000D11C712C6624639452E0552E86010250FE
:100960001109811005C0D8016C916F71C70130DE8B
:10097000F801808190E025E0959587952A95E1F72B
:100980008130910551F08230910571F0892B91F4FD
:10099000109234026092350204C0109235026092C7
:1009A00034025092330206C0109233026092350234
:1009B00050923402F60131978081D6012C91B0E833
:1009C0002B9F90011124280F311DF70131832083C3
:1009D000772029F0F50132978081918102C080E073
:1009E00090E0280F391FD5012D933D935D01F7014C
:1009F0009383828300913002109131028081918132
:100A0000080F191F109331020093300280913202B7
:100A10008F5F809332027394F9E0EF0EF11C23E0B4
:100A2000C20ED11C79109ACF809136029091370274
:100A3000009729F0F9D3109231021092300201157B
:100A4000110509F4DEC07801EE0CFF1CE00EF11E6A
:100A5000C70155D39093370280933602009749F02F
:100A6000A70160E070E096D4109331020093300249
:100A7000C8C01092310210923002C3C08A81982FF0
:100A80009F7109F48BC085FBAA24A0F8092F000FE1
:100A9000090F21E02093160210E0E92EF12C86FBCD
:100AA000BB24B0F886FF25C0C80129D36C0100978C
:100AB00021F0A80160E070E06DD4AA2039F0209107
:100AC0003002309131022E193F0902C020E030E09F
:100AD000B901660F771F260F371F6091360270919C
:100AE0003702620F731FA801C6013AD4A11073C068
:100AF00018C0AA20B1F0809136029091370240913F
:100B00003002509131024E195F099A01220F331FB2
:100B1000420F531FBC01800F911F2BD480E090E047
:100B20002CC080903002909031028E189F088091E6
:100B3000360290913702A401440F551F480D591DEC
:100B4000BC01600F711F15D4BB2089F0C401880F50
:100B5000991F880E991E8091360290913702A80144
:100B6000B601880D991DFCD3C6015ED315C08091D6
:100B70003002909131028E199F099C01220F331F80
:100B8000820F931F2091360230913702A80160E056
:100B900070E0820F931FFED3109216024091320232
:100BA00050E061E070E088E192E060960FB6F89462
:100BB000DEBF0FBECDBFDF91CF911F910F91FF9090
:100BC000EF90DF90CF90BF90AF909F908F907F90ED
:100BD0006F905F90DFC38091360290913702409111
:100BE0003002509131024E195F099A01220F331FD2
:100BF000420F531FBC01800F911FBBD3812C912C3E
:100C0000A5CF60960FB6F894DEBF0FBECDBFDF91C3
:100C1000CF911F910F91FF90EF90DF90CF90BF90F9
:100C2000AF909F908F907F906F905F9008951F92EC
:100C30000F920FB60F9211242F933F938F939F9390
:100C4000AF93BF938091C2029091C302A091C4025E
:100C5000B091C5023091C10223E0230F2D3720F45B
:100C60000196A11DB11D05C026E8230F0296A11D06
:100C7000B11D2093C1028093C2029093C302A0933E
:100C8000C402B093C5028091C6029091C702A091A0
:100C9000C802B091C9020196A11DB11D8093C60280
:100CA0009093C702A093C802B093C902BF91AF91BD
:100CB0009F918F913F912F910F900FBE0F901F909A
:100CC00018951F920F920FB60F9211240BB60F9228
:100CD0002F933F934F935F936F937F938F939F9344
:100CE000AF93BF93EF93FF938091B900887F8036D5
:100CF00009F49CC068F5883209F45BC090F4803137
:100D000009F454C038F4882309F4F6C0883009F493
:100D10004DC0F5C0883109F44CC0803209F45DC083
:100D2000EEC0803409F468C048F4803309F455C03B
:100D3000883309F0E4C080939D02D8C0803509F45F
:100D40004FC0883509F45DC0883409F0D8C0D6C0DA
:100D5000883909F4C7C0A8F4883709F467C038F4A3
:100D6000883609F463C0803709F460C0C8C0883889
:100D700009F4B8C0803909F45FC0803809F0BFC0F9
:100D80005BC0803B09F486C038F4803A09F466C041
:100D9000883A09F47FC0B3C0803C09F4A7C0883CFE
:100DA00009F4A4C0883B09F48AC0A9C08091C0029C
:100DB00010C09091BF028091BE02981770F5E0912B
:100DC000BF0281E08E0F8093BF02F0E0E256FD4F3C
:100DD00080818093BB0085EC86C080939D028EC08D
:100DE000E091BF0281E08E0F8093BF028091BB0033
:100DF000F0E0E256FD4F80839091BF028091BE02E9
:100E00006EC0E091BF0281E08E0F8093BF0280919F
:100E1000BB00F0E0E256FD4F80838091CB02811150
:100E20006DC081E08093CA0284EA61C083E0809350
:100E3000CC0210929C02CFCF80919C02803208F0AD
:100E400051C0E0919C0281E08E0F80939C028091C2
:100E5000BB00F0E0E458FD4F8083BDCF85EC80936C
:100E6000BC001092CC0280919C02803230F4E09160
:100E70009C02F0E0E458FD4F108260919C0270E00B
:100E8000E091D102F091D2028CE792E01995109294
:100E90009C0235C084E08093CC0210927B021092B9
:100EA0007A02E091D302F091D402199580917A02EE
:100EB000811105C081E080937A0210925A02E0917C
:100EC0007B0281E08E0F80937B02F0E0E65AFD4FBB
:100ED00080818093BB0090917B0280917A02981769
:100EE00008F479CF85E88093BC0009C085EC809335
:100EF000BC001092CC0203C010929D02B6DAFF91A2
:100F0000EF91BF91AF919F918F917F916F915F9181
:100F10004F913F912F910F900BBE0F900FBE0F90EE
:100F20001F9018951092DB021092DA0288EE93E07F
:100F3000A0E0B0E08093DC029093DD02A093DE029B
:100F4000B093DF028AE092E09093D9028093D802B6
:100F5000E4EEF2E01182108213821282399683E06D
:100F6000EC32F807B9F70895789484B5826084BDAF
:100F700084B5816084BD85B5826085BD85B581609D
:100F800085BD80916E00816080936E00109281001B
:100F900080918100826080938100809181008160D6
:100FA0008093810080918000816080938000809197
:100FB000B10084608093B1008091B0008160809323
:100FC000B0008091910082608093910080919100A7
:100FD0008160809391008091900081608093900067
:100FE0008091A10082608093A1008091A100816026
:100FF0008093A1008091A00081608093A0008091E7
:101000002101826080932101809121018160809380
:1010100021018091200181608093200180917A00DC
:10102000846080937A0080917A00826080937A0055
:1010300080917A00816080937A0080917A00806844
:1010400080937A001092C10084E88093BA008FEAFE
:1010500091E09093D4028093D3028BEB91E0909334
:10106000D2028093D1021092D0021092CF0210923D
:10107000CE021092CD021092CC02C1E0C093CB02FE
:101080001092CA0284E1F5D885E1F3D88091B900C5
:101090008E7F8093B9008091B9008D7F8093B900D5
:1010A00088E48093B80085E48093BC0083E293E0F9
:1010B0009093D6028093D502C093D70277DAB0DA44
:1010C000C0E0D0E0ADD96B017C01AAD9DC01CB0135
:1010D0008C199D09AE09BF09883E9340A105B10551
:1010E000A0F3209779F30E940000ECCF0895EE0F53
:1010F000FF1F881F8BBF0790F691E02D1994CF93A7
:10110000DF938230910510F482E090E0E0912E03AD
:10111000F0912F0320E030E0C0E0D0E0309711F1F3
:101120004081518148175907C0F04817590761F4A9
:1011300082819381209719F09B838A832BC090939F
:101140002F0380932E0326C02115310519F0421775
:10115000530718F49A01BE01DF01EF010280F38109
:10116000E02DDCCF2115310509F1281B390B243086
:10117000310590F412968D919C911397611571052C
:1011800021F0FB019383828304C090932F0380930B
:101190002E03FD01329644C0FD01E20FF31F81933F
:1011A0009193225031092D933C933AC020912C0306
:1011B00030912D03232B41F4209102023091030240
:1011C00030932D0320932C032091000230910102D3
:1011D0002115310541F42DB73EB7409104025091DD
:1011E0000502241B350BE0912C03F0912D03E2172F
:1011F000F307A0F42E1B3F0B2817390778F0AC013A
:101200004E5F5F4F2417350748F04E0F5F1F509316
:101210002D0340932C038193919302C0E0E0F0E012
:10122000CF01DF91CF9108950F931F93CF93DF9359
:10123000009709F48CC0FC0132971382128200914E
:101240002E0310912F030115110581F420813181A6
:10125000820F931F20912C0330912D0328173907FB
:1012600079F5F0932D03E0932C0371C0D80140E091
:1012700050E0AE17BF0750F412962D913C91139792
:10128000AD012115310509F1D901F3CF9D01DA0135
:101290003383228360817181860F971F82179307A2
:1012A00069F4EC0128813981260F371F2E5F3F4FEB
:1012B000318320838A819B8193838283452B29F408
:1012C000F0932F03E0932E0342C01396FC93EE930A
:1012D0001297ED01499159919E01240F351FE21794
:1012E000F30771F480819181840F951F0296119606
:1012F0009C938E938281938113969C938E931297E5
:10130000E0E0F0E0D80112968D919C911397009740
:1013100019F0F8018C01F6CF8D919C9198012E5F08
:101320003F4F820F931F20912C0330912D032817DC
:10133000390769F4309729F410922F0310922E0385
:1013400002C01382128210932D0300932C03DF91AD
:10135000CF911F910F91089581E090E0F89421C002
:10136000FB01DC0102C001900D9241505040D8F7C2
:1013700008956817790768F4FB01DC01E40FF51F95
:10138000A40FB51F02C002900E9241505040D8F7F2
:101390000895E6CFDC0101C06D9341505040E0F765
:1013A000089511E0C8E0D1E000E005C0802FFE0103
:1013B0009EDE2196011DC930D10780E00807B1F7F4
:0413C000F894FFCFCF
:1013C40000003003800000000000A70293028B029B
:0613D400770268026702C7
:00000001FF
