:1000000007C1000034C1000032C1000030C100004F
:100010002EC100002CC100002AC1000028C1000030
:1000200026C1000024C1000022C1000020C1000040
:100030001EC100001CC100001AC1000018C1000050
:1000400016C1000014C1000012C1000010C1000060
:100050000EC100000CC100000AC10000E7C500008D
:1000600006C1000004C1000002C1000000C1000080
:10007000FEC00000FCC00000FAC00000F8C0000094
:10008000F6C00000F4C00000F2C00000F0C00000A4
:10009000EEC00000ECC00000EAC0000011C6000085
:1000A000E6C00000E4C00000E2C00000E0C00000C4
:1000B000DEC00000DCC00000DAC00000D8C00000D4
:1000C000D6C00000D4C00000D2C00000D0C00000E4
:1000D000CEC00000CCC00000CAC00000C8C00000F4
:1000E000C6C000006501680157015B015F019F0107
:1000F0006C01700176017A017E01840188018C0116
:100100009F01920196019A0100002100240027001E
:100110002A002D0030003300010100000401070116
:100120000A0100002200250028002B002E003100CB
:10013000340002010000050108010B010505050559
:10014000070508080808020202020A0A080804044F
:10015000040401010101010101010303030303037D
:100160000303040707070C0C0C0C0C0C0C0C02020C
:10017000020206060606060606060B0B0B0B0B0B09
:100180000B0B010210202008081020401020408096
:10019000020102010804020101020408102040804B
:1001A00080402010080402018004020180402010D9
:1001B0000804020108040201010204081020408022
:1001C000010204081020408000000A0B02090C0DF7
:1001D0000E080703040100000000000000000000FA
:1001E000000000000000000000000000000000000F
:1001F00000000000121110000000000000000000CC
:100200000000000000000000000000000000910756
:1002100011241FBECFEFD1E2DEBFCDBF00E00CBF87
:1002200012E0A0E0B2E0E6E8F3E100E00BBF02C0BC
:1002300007900D92A831B107D9F723E0A8E1B2E009
:1002400001C01D92A133B207E1F711E0C8E0D1E08F
:1002500000E005C021970109802FFE0144D7C73077
:10026000D10780E00807B1F77ED60C94C109C8CE4B
:1002700090E0FC01E853FE4F4491FC01EE57FE4F25
:100280002491FC01E45CFE4F9491992309F465C02C
:10029000442309F454C050E0FA013197E231F105EA
:1002A00008F04DC08827EE58FF4F8F4F1CC7809134
:1002B00080008F7707C0809180008F7D03C0809180
:1002C0008000877F809380003AC084B58F7702C01A
:1002D00084B58F7D84BD33C08091B0008F7703C01B
:1002E0008091B0008F7D8093B00029C080919000F4
:1002F0008F7707C0809190008F7D03C08091900020
:10030000877F809390001BC08091A0008F7707C0EB
:100310008091A0008F7D03C08091A000877F809393
:10032000A0000DC0809120018F7707C0809120012F
:100330008F7D03C080912001877F80932001E92F6A
:10034000F0E0EE0FFF1FEE5DFE4FA591B4918FB769
:10035000F894EC91E22BEC938FBF08953FB7F8949B
:100360008091D5029091D602A091D702B091D80287
:1003700026B5A89B05C02F3F19F00196A11DB11D00
:100380003FBFBA2FA92F982F8827820F911DA11D3B
:10039000B11DBC01CD0142E0660F771F881F991F78
:1003A0004A95D1F708950895CF93DF93AC01E0917A
:1003B000CE02F091CF023097F1F09091CD02809172
:1003C000CC029817C0F090E0292F30E026173707AD
:1003D00054F4D901A45CBD4FEA01C20FD31F288198
:1003E0002C939F5FF1CF1092CD026093CC02CB0192
:1003F000DF91CF911994DF91CF910895CF92DF9241
:10040000EF92FF920F931F93CF93DF936C017A01CA
:100410008B01C0E0D0E0CE15DF0581F0D8016D91F1
:100420008D01D601ED91FC910190F081E02DC60186
:100430001995892B11F02196EECF7E01C701DF912E
:10044000CF911F910F91FF90EF90DF90CF90089583
:1004500085ED8093BC008091BC0084FDFCCF1092A0
:10046000C902089540917C02262F30E0240F311DEF
:1004700021323105DCF42091C9022430C9F4FC0199
:1004800080E090E0861758F430917C022191DC01E5
:10049000A45ABD4FA30FB11D2C930196F3CF8091A9
:1004A0007C02680F60937C0280E0089581E00895EB
:1004B00082E008950895E091CD028091CC02E81782
:1004C00030F4F0E0E45CFD4F808190E008958FEF20
:1004D0009FEF08959091CD028091CC02981750F42F
:1004E000E92FF0E0E45CFD4F208130E09F5F9093C6
:1004F000CD0202C02FEF3FEFC90108958091CC02D9
:1005000090E02091CD02821B91090895CF93DF9353
:10051000CB01EA01642FA6DFCE01DF91CF910895D0
:10052000CF93DF931F92CDB7DEB7698361E0CE0131
:10053000019698DF81E090E00F90DF91CF910895D0
:10054000089580E090E0089520913A0230913B02B6
:100550008217930720F5880F991F880F991FE09144
:100560003802F0913902209137028E0F9F1FFC0153
:10057000E20FF11D708320913602FC01E20FF11DA4
:10058000608320913502FC01E20FF11D5083209120
:100590003402FC01E20FF11D408380E0089581E008
:1005A0000895DC0170E0FB01EE57FE4FE4911896D0
:1005B000EC931897645C7E4FFB018491E82FF0E088
:1005C000EE0FFF1FEE5DFE4F8591949115969C9363
:1005D0008E931497FB016491E62FF0E0EE0FFF1F5E
:1005E000E85FFE4F8591949117969C938E93169792
:1005F00008950F931F93CF9380933302109232028A
:1006000010923B0210923A02E2E2F2E0AAE1B2E07A
:10061000119211921D9292E0E233F907C9F78823F3
:1006200059F005EE12E0C0E06C2FC801BADFCF5FD1
:10063000075F1F4FC830C1F7CF911F910F910895E9
:100640007BD65F926F927F928F929F92AF92BF9272
:10065000CF92DF92EF92FF920F931F93CF93DF938E
:10066000CDB7DEB760970FB6F894DEBF0FBECDBF33
:100670005C0110E0E12EF12CEA14FB0484F489ED16
:1006800092E0103148F426DFE1E0F0E0EC0FFD1FCE
:10069000EE0DFF1D808301C01DDF1F5FEBCF998131
:1006A000892F8F70833009F4DBC030F4813009F476
:1006B0002BC1823041F0A4C2843009F475C085306A
:1006C00009F4E0C19DC280911902811199C2809103
:1006D0001802811195C281E08093190290E009E02F
:1006E00080913202981708F05CC0292F30E0A901F0
:1006F000465E5D4FDA018C91882309F44EC0E0908C
:100700003802F0903902029FD001039FB00D1124EE
:10071000AB51BD4F1696ED91FC911797208118961D
:100720008C911897822B808314966D917C911597EC
:100730001896DC9018972D913C911197220F331F3A
:10074000220F331F1296ED91FC911397EE0FFF1FAE
:10075000EE0FFF1FEE0DFF1DDB018C911D2D10957F
:100760001823C82ECD28FFB6F8942E0F3F1FE2178E
:10077000F30789F0E190DB0188E0CC9200C0E7FE4E
:100780001C93EE0C00C000C000C008F41C9300C015
:100790008A9599F7ECCFFFBE7894DA011C929F5F9F
:1007A0009FCF109219022CC280911802811128C289
:1007B0008C8190E0A0E0B0E0AC01BD01EEE0440F20
:1007C000551F661F771FEA95D1F79D81892F90E00D
:1007D000A0E0B0E0F5E1880F991FAA1FBB1FFA95B2
:1007E000D1F7840F951FA61FB71F2A81820F911D75
:1007F000A11DB11DCB80D12CE12CF12C17E0CC0C2C
:10080000DD1CEE1CFF1C1A95D1F7C80ED91EEA1E7E
:10081000FB1EC114D104E104F10419F000E010E062
:1008200010C040913A0250913B02440F551F440FB3
:10083000551F60E070E080913802909139029AD59E
:10084000ADC180913A0290913B020817190708F058
:10085000A5C1B701A601C80177DE0F5F1F4FF1CF19
:10086000809118028111CCC18B810A8110E0B0E81F
:100870008B9F000D111D11248E8190E0A0E0B0E04F
:10088000AC01BD019EE0440F551F661F771F9A956E
:10089000D1F79F81892F90E0A0E0B0E025E1880F9B
:1008A000991FAA1FBB1F2A95D1F7840F951FA61F5A
:1008B000B71F2C81820F911DA11DB11D4D8150E0EC
:1008C00060E070E037E0440F551F661F771F3A95D0
:1008D000D1F7480F591F6A1F7B1FC80135DE4091B1
:1008E0003202A2E2B2E080E090E0841708F088C112
:1008F000FC012D913D91019602171307B0F7E65EBA
:10090000FD4F81E080837CC1913009F079C1E2E044
:10091000EA1508F075C1809133026BDE8BEAA89E60
:10092000F12C1124F694B2E28B2EB2E09B2E15EE40
:10093000A12E12E0B12ECE0101966C01E12C77249C
:10094000739402E0602E83E0582E8091330281116F
:1009500006C0D60111966C916F71C50122DEF601B9
:10096000218130E0A5E035952795AA95E1F7213062
:100970003105B9F03CF4232B09F510923602709240
:10098000370213C02230310599F023303105B1F41C
:100990001092370270923602609235025092340201
:1009A0000DC010923702709236026092350206C076
:1009B000109235027092370260923602D601139679
:1009C0008C91139712960C9110E0B0E88B9F000D5C
:1009D000111D1124F50111830083EE2029F0F4018B
:1009E00032978081918102C080E090E09801280FC9
:1009F000391FD4012D933D934D01F50193838283DB
:100A000080913A0290913B02080F191F10933B020C
:100A100000933A02809132028F5F80933202E39416
:100A2000F9E0AF0EB11C23E0C20ED11CFE108DCF39
:100A30008091380290913902009729F0F4D31092F6
:100A40003B0210923A020115110509F4D9C0780150
:100A5000EE0CFF1CEE0CFF1CC7014DD39093390226
:100A600080933802009749F0A70160E070E082D4DB
:100A700010933B0200933A02C3C010923B021092C3
:100A80003A02BEC08A81982F9F7109F487C0A82FAF
:100A9000A072AA2E092F000F000F21E02093180248
:100AA00010E0E92EF12CB82FB074BB2E86FF24C0C5
:100AB000C80121D36C01009721F0A80160E070E02B
:100AC00059D4AA2039F060913A0270913B026E1914
:100AD0007F0902C060E070E0660F771F660F771F26
:100AE0008091380290913902680F791FA801C601E0
:100AF00027D4A11070C017C0AA23A9F08091380292
:100B00009091390240913A0250913B024E195F098F
:100B1000440F551F440F551FBC01800F911F19D45E
:100B200080E090E02BC080903A0290903B028E18BB
:100B30009F088091380290913902A401440F551FFB
:100B4000440F551FBC01600F711F03D4BB2081F0FF
:100B5000880C991C880C991C80913802909139025C
:100B6000A801B601880D991DEBD3C6015CD314C052
:100B700080913A0290913B028E199F09880F991F2C
:100B8000880F991F2091380230913902A80160E046
:100B900070E0820F931FEED3109218024091320240
:100BA00050E061E070E08AE192E060960FB6F89460
:100BB000DEBF0FBECDBFDF91CF911F910F91FF9090
:100BC000EF90DF90CF90BF90AF909F908F907F90ED
:100BD0006F905F90CFC3809138029091390240911D
:100BE0003A0250913B024E195F09440F551F440FC2
:100BF000551FBC01800F911FACD3812C912CA8CF25
:100C000060960FB6F894DEBF0FBECDBFDF91CF91D7
:100C10001F910F91FF90EF90DF90CF90BF90AF901A
:100C20009F908F907F906F905F9008951F920F928A
:100C30000FB60F9211242F933F938F939F93AF93EF
:100C4000BF938091D1029091D202A091D302B09132
:100C5000D4023091D00223E0230F2D3720F40196E7
:100C6000A11DB11D05C026E8230F0296A11DB11DCF
:100C70002093D0028093D1029093D202A093D3020A
:100C8000B093D4028091D5029091D602A091D70260
:100C9000B091D8020196A11DB11D8093D502909309
:100CA000D602A093D702B093D802BF91AF919F9183
:100CB0008F913F912F910F900FBE0F901F9018951D
:100CC0001F920F920FB60F9211240BB60F922F9313
:100CD0003F934F935F936F937F938F939F93AF93C4
:100CE000BF93EF93FF938091B900887F803609F41A
:100CF0009CC068F5883209F45BC090F4803109F437
:100D000054C038F4882309F4F6C0883009F44DC083
:100D1000F5C0883109F44CC0803209F45DC0EEC0E2
:100D2000803409F468C048F4803309F455C088332E
:100D300009F0E4C080939F02D8C0803509F44FC009
:100D4000883509F45DC0883409F0D8C0D6C0883928
:100D500009F4C7C0A8F4883709F467C038F48836A6
:100D600009F463C0803709F460C0C8C0883809F44A
:100D7000B8C0803909F45FC0803809F0BFC05BC0DB
:100D8000803B09F486C038F4803A09F466C0883A9A
:100D900009F47FC0B3C0803C09F4A7C0883C09F4C3
:100DA000A4C0883B09F48AC0A9C08091C20210C0C7
:100DB0009091C1028091C002981770F5E091C10234
:100DC00081E08E0F8093C102F0E0E056FD4F8081FC
:100DD0008093BB0085EC86C080939F028EC0E0911B
:100DE000C10281E08E0F8093C1028091BB00F0E0D0
:100DF000E056FD4F80839091C1028091C0026EC089
:100E0000E091C10281E08E0F8093C1028091BB000E
:100E1000F0E0E056FD4F80838091C80281116DC0E3
:100E200081E08093C70284EA61C083E08093C902B5
:100E300010929E02CFCF80919E02803208F051C066
:100E4000E0919E0281E08E0F80939E028091BB0014
:100E5000F0E0E258FD4F8083BDCF85EC8093BC006D
:100E60001092C90280919E02803230F4E0919E027D
:100E7000F0E0E258FD4F108260919E0270E0E09138
:100E8000C302F091C4028EE792E0199510929E027F
:100E900035C084E08093C90210927D0210927C02DA
:100EA000E091C502F091C602199580917C028111F2
:100EB00005C081E080937C0210925C02E0917D028B
:100EC00081E08E0F80937D02F0E0E45AFD4F808137
:100ED0008093BB0090917D0280917C02981708F46A
:100EE00079CF85E88093BC0009C085EC8093BC0075
:100EF0001092C90203C010929F02AADAFF91EF91EB
:100F0000BF91AF919F918F917F916F915F914F9121
:100F10003F912F910F900BBE0F900FBE0F901F901F
:100F200018951092DC021092DB0288EE93E0A0E0AC
:100F3000B0E08093DD029093DE02A093DF02B093D5
:100F4000E0028AE092E09093DA028093D902E5EE23
:100F5000F2E01182108213821282399683E0ED3220
:100F6000F807B9F70895789484B5826084BD84B594
:100F7000816084BD85B5826085BD85B5816085BD94
:100F800080916E00816080936E001092810080914C
:100F900081008260809381008091810081608093D4
:100FA0008100809180008160809380008091B100F9
:100FB00084608093B1008091B00081608093B00024
:100FC0008091910082608093910080919100816076
:100FD0008093910080919000816080939000809137
:100FE000A10082608093A1008091A1008160809324
:100FF000A1008091A00081608093A00080912101D8
:101000008260809321018091210181608093210180
:101010008091200181608093200180917A0084601A
:1010200080937A0080917A00826080937A00809128
:101030007A00816080937A0080917A008068809342
:101040007A001092C1001092CD021092CC02109240
:10105000CB021092CA021092C90281E08093C802AA
:101060001092C70284E104D985E102D98091B900C8
:101070008E7F8093B9008091B9008D7F8093B900F5
:1010800088E48093B80085E48093BC0083ED91E010
:101090009093C6028093C50284ED91E09093C402C0
:1010A0008093C30284E88093BA0081E293E0909336
:1010B000CF028093CE0281E09CDAC0E0D0E04ED92E
:1010C0006B017C014BD9DC01CB018C199D09AE0968
:1010D000BF09883E9340A105B105A0F3209779F39D
:1010E0000E940000ECCFEE0FFF1F881F8BBF079000
:1010F000F691E02D19940F931F93CF93DF938230D5
:10110000910510F482E090E0E0912F03F09130031C
:1011100020E030E0A0E0B0E0309719F1408151814B
:101120000281138148175907C8F08417950769F49D
:10113000109731F012960C93129713961C9327C0B8
:1011400000932F031093300322C02115310519F0AD
:101150004217530718F49A01BD01EF01DF01F801AE
:10116000DBCF21153105F9F0281B390B243031056F
:1011700080F48A819B816115710521F0FB019383C5
:10118000828304C09093300380932F03FE01329634
:1011900044C0FE01E20FF31F819391932250310965
:1011A000398328833AC020912D0330912E03232BBD
:1011B00041F4209102023091030230932E032093D8
:1011C0002D0320910002309101022115310541F4D7
:1011D0002DB73EB74091040250910502241B350BF8
:1011E000E0912D03F0912E03E217F307A0F42E1BDC
:1011F0003F0B2817390778F0AC014E5F5F4F24177B
:10120000350748F04E0F5F1F50932E0340932D0378
:101210008193919302C0E0E0F0E0CF01DF91CF91A4
:101220001F910F910895CF93DF93009709F481C028
:10123000FC01329713821282A0912F03B0913003E8
:10124000109781F420813181820F931F20912D030B
:1012500030912E032817390751F5F0932E03E093B0
:101260002D0367C0ED0120E030E0CE17DF0740F42A
:101270004A815B819E0141155105F1F0EA01F5CFEC
:10128000D383C28340815181840F951FC817D9072A
:1012900059F488819981840F951F029691838083E8
:1012A0008A819B81938382832115310529F4F093F0
:1012B0003003E0932F033DC0E901FB83EA834991AA
:1012C0005991C40FD51FEC17FD0761F480819181FE
:1012D000840F951F0296E901998388838281938107
:1012E0009B838A83E0E0F0E012968D919C911397A6
:1012F000009719F0FD01DC01F7CF8D919C911197BA
:101300009D012E5F3F4F820F931F20912D0330913F
:101310002E032817390769F4309729F41092300307
:1013200010922F0302C013821282B0932E03A09357
:101330002D03DF91CF91089581E090E0F89421C0D2
:10134000FB01DC0102C001900D9241505040D8F7E2
:1013500008956817790768F4FB01DC01E40FF51FB5
:10136000A40FB51F02C002900E9241505040D8F712
:101370000895E6CFDC0101C06D9341505040E0F785
:061380000895F894FFCF70
:101386000000310380000000000090028602A102E6
:081396005A027E026A025B02AA
:00000001FF
