:100000000C942E010C945F010C945F010C945F0121
:100010000C945F010C945F010C945F010C945F01E0
:100020000C945F010C945F010C945F010C945F01D0
:100030000C945F010C945F010C945F010C945F01C0
:100040000C945F010C945F010C945F010C945F01B0
:100050000C945F010C945F010C945F010C94640696
:100060000C945F010C945F010C945F010C945F0190
:100070000C945F010C945F010C945F010C945F0180
:100080000C945F010C945F010C945F010C945F0170
:100090000C945F010C945F010C945F010C94AE060C
:1000A0000C945F010C945F010C945F010C945F0150
:1000B0000C945F010C945F010C945F010C945F0140
:1000C0000C945F010C945F010C945F010C945F0130
:1000D0000C945F010C945F010C945F010C945F0120
:1000E0000C945F010C94EC010C9461010C940E02D1
:1000F0000C94D2070C9483020C94DF010C94C10180
:100100000C94BC010C9400020C9408020C94A502FF
:100110000C94AC020C94D3010C94E8010C94FA01F9
:100120000C9492020C94B7020C94F2010C94DB0133
:100130000C94D7010C9404020C9412020C94E2016A
:100140000C9462010C949A030C94C8020C94F6016E
:100150000C94820200002100240027002A002D00B8
:100160003000330001010000040107010A01000012
:100170002200250028002B002E003100340002014F
:100180000000050108010B01050505050705080824
:100190000808020202020A0A080804040404010111
:1001A0000101010101010303030303030303040726
:1001B00007070C0C0C0C0C0C0C0C020202020606BD
:1001C0000606060606060B0B0B0B0B0B0B0B0102B0
:1001D0001020200808102040102040800201020159
:1001E0000804020101020408102040808040201011
:1001F000080402018004020180402010080402016A
:1002000008040201010204081020408001020408D1
:100210001020408000000A0B02090C0D0E08070395
:1002200004010000000000000000000000000000C9
:1002300000000000000000000000000000000000BE
:10024000121110000000000000000000000000007B
:1002500000000000000000000000D20711241FBEB3
:10026000CFEFD1E2DEBFCDBF00E00CBF12E0A0E0D7
:10027000B2E0EAEDF3E100E00BBF02C007900D929F
:10028000A831B107D9F723E0A8E1B2E001C01D927F
:10029000A633B207E1F711E0CEE2D1E000E006C0FC
:1002A00021970109802FFE010E949C08CD32D107C1
:1002B00080E00807A9F70E94F4070C94EB090C945E
:1002C00000000895CF93DF93AC01E091DC02F09140
:1002D000DD023097F1F09091DB028091DA029817FD
:1002E000C0F090E0292F30E02617370754F4D901E9
:1002F000A55CBD4F240F351FE90128812C939F5F1A
:10030000F1CF1092DB026093DA02CB01DF91CF9143
:100310001994DF91CF910895282F30E0F901EC5E18
:10032000FD4F9491F901E253FE4F449128573E4FFF
:10033000F9012491222309F435C0992311F1915038
:100340009231F8F4E92FF0E08827E655FE4F8F4F01
:100350000C949C08DB01DF01BC01D301D701C10172
:10036000E201E801EC01F201F601FA0100020402E7
:10037000C10108020E021202809180008F778093E3
:100380008000E22FF0E0EE0FFF1FE259FE4FA59133
:10039000B4918FB7F894EC91611148C040954E2309
:1003A0004C938FBF0895809180008F7DE8CF80911E
:1003B0008000877FE4CF84B58F7784BDE2CF84B59A
:1003C0008F7DFBCF8091B0008F778093B000D9CF25
:1003D0008091B0008F7DF9CF809190008F778093CE
:1003E0009000CFCF809190008F7DF9CF80919000C9
:1003F000877FF5CF8091A0008F778093A000C1CF39
:100400008091A0008F7DF9CF8091A000877FF5CFEC
:10041000809120018F7780932001B3CF80912001BC
:100420008F7DF9CF80912001877FF5CF4E2BB8CFFC
:100430003FB7F8948091D0029091D102A091D2025E
:10044000B091D30226B5A89B05C02F3F19F00196A5
:10045000A11DB11D3FBFBA2FA92F982F8827BC011E
:10046000CD01620F711D811D911D42E0660F771F46
:10047000881F991F4A95D1F7089520918102260F70
:100480003327331F21323105ECF42091A502FC0102
:1004900090E080E0243069F082E00895A09181022C
:1004A0002191AC014F595D4FA40FB52FB11D2C9375
:1004B0000196861798F380918102680F60938102FC
:1004C00080E0089581E008951092A50281E0809374
:1004D000A7021092A60261E084E10E948C0161E013
:1004E00085E10E948C01E9EBF0E080818E7F8083C2
:1004F00080818D7F808388E48093B80085E4809339
:10050000BC0008950895E091DB028091DA02E817BB
:1005100030F4F0E0E55CFD4F808190E008958FEFCE
:100520009FEF08959091DB028091DA022FEF3FEF69
:10053000981748F4E92FF0E0E55CFD4F208130E0AA
:100540009F5F9093DB02C90108958091DA02909138
:10055000DB02891B990B0895CF93DF93CB01EA014E
:10056000642F0E943D02CE01DF91CF910895CF9379
:10057000DF931F92CDB7DEB7698361E0CE010196AC
:100580000E943D0281E090E00F90DF91CF910895AD
:1005900090E080E008952091390230913A0282176C
:1005A0009307F8F49C01220F331F280F391F809105
:1005B000370290913802E0913602820F931FE80FC4
:1005C000F92FF11D6083E0913502E80FF92FF11D3D
:1005D000508320913402820F911DFC01408380E002
:1005E000089581E00895DC0170E0FB01E253FE4FC5
:1005F000E4911896EC93189768577E4FFB0184910D
:10060000E82FF0E0EE0FFF1FE259FE4F8591949125
:1006100015969C938E931497FB016491E62FF0E05E
:10062000EE0FFF1FEC5AFE4F8591949117969C9305
:100630008E93169708950F931F93CF938093330251
:100640001092320210923A0210923902E2E2F2E083
:10065000AAE1B2E0119211921D9292E0E233F90701
:10066000C9F7882361F00AEE12E0C0E06C2FC801E0
:100670000E94F302CF5F075F1F4FC830B9F7CF91D9
:100680001F910F910895CF93DF9385ED8093BC0068
:1006900080915D0290915E02A0915F02B091600234
:1006A0000796A11DB11D23E0B695A795979587954F
:1006B0002A95D1F72091BC0024FD03C01092A50219
:1006C00036C040915D0250915E0260915F02709170
:1006D0006002452B462B472B69F30097A105B10516
:1006E00041F025E32A95F1F700000197A109B1092E
:1006F000E1CF80915C0291E090935B028823B9F096
:10070000C091B800D091BA008091BC008A7B8093E0
:10071000BC0060E084E10E948C0160E085E10E9401
:100720008C010E946402D093BA00C093B800DF919C
:10073000CF9108954F925F926F927F928F929F9286
:10074000AF92BF92CF92DF92EF92FF920F931F93DF
:10075000CF93DF93CDB7DEB760970FB6F894DEBFC7
:100760000FBECDBF6C0110E0E12EF12CEC14FD04A6
:1007700094F48EED92E0103158F40E949202E1E080
:10078000F0E0EC0FFD1FEE0DFF1D80831F5FECCF2F
:100790000E949202FBCF9981892F8F70833009F4D8
:1007A00069C1E8F4813009F4BAC1823009F478C033
:1007B00060960FB6F894DEBF0FBECDBFDF91CF912C
:1007C0001F910F91FF90EF90DF90CF90BF90AF906F
:1007D0009F908F907F906F905F904F90089584309E
:1007E00009F4D2C0853021F79A81292F2F7109F49D
:1007F00017C1F92FF0725F2E81E080931802E22E6C
:10080000EE0CE20EF12C0091390210913A02021B1B
:1008100011095801AA0CBB1CA00EB11EC0903702D2
:10082000D090380236016E0C7F1C292F2074422E86
:1008300096FF2BC2C7010E94A4084C01009729F023
:10084000A70170E060E00E94E409C801511002C0F5
:1008500090E080E0BC01660F771F680F791F6C0D78
:100860007D1DA701C4010E94C909511025C2A5011F
:10087000B301C6010E94D209442009F410C2C80184
:10088000880F991F800F911FA701B4018C0D9D1D2A
:100890000E94C909C4010E94400910921802C0C0F8
:1008A00080911902811184CF80911802811180CF2B
:1008B00081E08093190210E009E08091320218175C
:1008C00008F05FC0812F90E0AC01465E5D4FDA0119
:1008D0002C91222309F451C0C0903702D0903802E5
:1008E000089FD001099FB00D1124A651BD4F169647
:1008F0002D913C911797F901808118969C9118973A
:10090000892B808314966D917C91159718968C9104
:1009100018972D913C9111977901EE0CFF1C2E0D2B
:100920003F1D1296ED90FC90D701AA0FBB1FAE0D94
:10093000BF1DF601EA0FFB1FDB01FC90982F90957D
:100940009F21C82ECF28FFB6F8942E0F3F1F2E17D9
:100950003F0789F0E190DB0188E0CC9200C0E7FE20
:100960009C93EE0C00C000C000C008F49C9300C033
:100970008A9599F7ECCFFFBE7894DA011C921F5F3D
:100980009CCF1092190214CF80911802811110CFC0
:10099000CC80D12CF12CE12C7EE0CC0CDD1CEE1CAB
:1009A000FF1C7A95D1F78D8190E0B0E0A0E0E5E101
:1009B000880F991FAA1FBB1FEA95D1F78C0D9D1DAB
:1009C000AE1DBF1D2A816C017D01C20ED11CE11C30
:1009D000F11C8B8190E0B0E0A0E0F7E0880F991F58
:1009E000AA1FBB1FFA95D1F7C80ED91EEA1EFB1E1F
:1009F000A0903902B0903A0210E000E0C114D10496
:100A0000E104F10461F5A501440F551F4A0D5B1D7A
:100A100070E060E080913702909138020E94E40912
:100A20004091320250E061E070E08AE192E060962D
:100A30000FB6F894DEBF0FBECDBFDF91CF911F91EF
:100A40000F91FF90EF90DF90CF90BF90AF909F906D
:100A50008F907F906F905F904F900C94E4090A15EF
:100A60001B05F1F2B701A601C8010E94CB020F5F7E
:100A70001F4FF5CF8091180281119ACE0B81B0E8FB
:100A80000B9FC00111240A81080F192F111D4E81DF
:100A900050E070E060E0BEE0440F551F661F771F16
:100AA000BA95D1F78F8190E0B0E0A0E025E1880F02
:100AB000991FAA1FBB1F2A95D1F7840F951FA61F48
:100AC000B71F2C81AC01BD01420F511D611D711D6D
:100AD0008D8190E0B0E0A0E037E0880F991FAA1F59
:100AE000BB1F3A95D1F7480F591F6A1F7B1FC801DA
:100AF0000E94CB0240913202A2E2B2E090E080E09C
:100B0000841708F055CEFC012D913D9101960217F6
:100B10001307B0F7E65EFD4F81E0808349CE913048
:100B200009F046CEE2E0EC1508F042CE80913302A7
:100B30000E941B038BEAC89EF12C1124F694E2E27A
:100B40008E2EE2E09E2EFAEEAF2EF2E0BF2ECE0108
:100B500001966C01E12C77247394A2E06A2E8091B7
:100B60003302811107C0D60111966C916F71C501D6
:100B70000E94F302F601818190E075E095958795DA
:100B80007A95E1F78130910509F46EC082309105C4
:100B900009F46FC0892B31F410923502709236023D
:100BA00060923402D60113960C91B0E80B9F80013D
:100BB0001124F6018281080F111DD5010D931C939C
:100BC00090E080E0EE2021F0F40132978081918165
:100BD0009801280F391FF401219331934F01D5015A
:100BE00013969C938E9312978091390290913A02BA
:100BF000080F191F10933A020093390280913202B4
:100C00008F5F80933202E394B9E0AB0EB11CE3E056
:100C1000CE0ED11CFE10A3CF8091370290913802E6
:100C2000009731F00E94400910923A021092390266
:100C30000115110509F4BCCD7801EE0CFF1CE00E86
:100C4000F11EC7010E94A4089093380280933702D6
:100C50000097B1F0A70170E060E00E94E4091093F2
:100C60003A0200933902A4CD1092360270923502F6
:100C700097CF10923402709236026092350292CF72
:100C800010923A021092390293CDFF2309F4EFCD6E
:100C9000A501B601C3010E94D20910E000E0C8011D
:100CA000880F991F800F911FA70170E060E08C0DE5
:100CB0009D1D0E94E409F1CDA501B601C3010E946A
:100CC000D20910E000E0DBCD1F920F920FB60F9219
:100CD00011242F933F938F939F93AF93BF93809152
:100CE000CC029091CD02A091CE02B091CF02309172
:100CF000CB0223E0230F2D3758F50196A11DB11D1E
:100D00002093CB028093CC029093CD02A093CE028D
:100D1000B093CF028091D0029091D102A091D202E3
:100D2000B091D3020196A11DB11D8093D002909382
:100D3000D102A093D202B093D302BF91AF919F9101
:100D40008F913F912F910F900FBE0F901F9018958C
:100D500026E8230F0296A11DB11DD2CF1F920F923C
:100D60000FB60F9211240BB60F922F933F934F9310
:100D70005F936F937F938F939F93AF93BF93EF9303
:100D8000FF938091B900887F803609F44DC008F048
:100D900040C0883209F4A9C028F5803109F49DC00B
:100DA000C8F4882309F4FBC0883009F496C0FF9189
:100DB000EF91BF91AF919F918F917F916F915F91D3
:100DC0004F913F912F910F900BBE0F900FBE0F9040
:100DD0001F901895883109F488C0803241F78093BC
:100DE000A40214C0803409F49DC040F48033B9F3E8
:100DF0008833E9F68093A40285ECB0C0803509F40D
:100E000085C0883509F496C0883489F60E9443036A
:100E1000CECF883909F48CC038F5883729F050F4E2
:100E2000883611F0803719F683E08093A50210927E
:100E3000A30257C0883809F47BC0803919F0803884
:100E400009F0B5CF8091A302803208F071C0E09123
:100E5000A30281E08E0F8093A3028091BB00F0E09B
:100E6000ED57FD4F80833DC0803B39F0E0F4803A80
:100E700009F479C0883A09F09ACF84E08093A502FA
:100E80001092820210928102E091D602F091D70274
:100E900019958091810281110FC081E080938102B8
:100EA0001092610209C0803C09F4A6CF883C09F485
:100EB000A3CF883B09F07BCFE091820281E08E0FC7
:100EC00080938202F0E0EF59FD4F80818093BB0058
:100ED000909182028091810229C08091CA02809300
:100EE000BB0085EC8093BC0062CF9091C9028091D9
:100EF000C802981758F5E091C90281E08E0F8093DF
:100F0000C902F0E0E855FD4F8081E9CFE091C902C8
:100F100081E08E0F8093C9028091BB00F0E0E8551C
:100F2000FD4F80839091C9028091C8029817C8F242
:100F300085E8D8CFE091C90281E08E0F8093C90285
:100F40008091BB00F0E0E855FD4F80838091A702BF
:100F500081115CCF81E08093A60284EA8093BC007B
:100F60001092A50224CF85EC8093BC001092A502BC
:100F70008091A302803230F4E091A302F0E0ED57BB
:100F8000FD4F10826091A30270E0E091D402F091D5
:100F9000D50283E892E019951092A30208CF10922F
:100FA000A40234CF1092E1021092E00288EE93E0A6
:100FB000A0E0B0E08093E2029093E302A093E40209
:100FC000B093E5028AE092E09093DF028093DE0224
:100FD000EAEEF2E01182108213821282399683E0E7
:100FE000E233F807B9F70895789484B5826084BD38
:100FF00084B5816084BD85B5826085BD85B581601D
:1010000085BD80916E00816080936E00109281009A
:101010008091810082608093810080918100816055
:101020008093810080918000816080938000809116
:10103000B10084608093B1008091B00081608093A2
:10104000B000809191008260809391008091910026
:1010500081608093910080919000816080939000E6
:101060008091A10082608093A1008091A1008160A5
:101070008093A1008091A00081608093A000809166
:101080002101826080932101809121018160809300
:1010900021018091200181608093200180917A005C
:1010A000846080937A0080917A00826080937A00D5
:1010B00080917A00816080937A0080917A008068C4
:1010C00080937A001092C1001092DB021092DA0233
:1010D0001092D9021092D8020E94640281E691E037
:1010E0009093D7028093D60282E691E09093D50246
:1010F0008093D40284E88093BA008AE993E09093C5
:10110000DD028093DC0281E00E941B03C0E0D0E09E
:101110000E9418026B017C010E9418026C197D0963
:101120008E099F09683E734081059105A8F32097B9
:1011300079F30E940000ECCFEE0FFF1F881F8BBFDA
:101140000790F691E02D19940F931F93CF93DF939F
:101150008230910510F482E090E0E0913403F09148
:10116000350330E020E0B0E0A0E0309799F421159D
:10117000310509F44AC0281B390B24303105D8F554
:101180008A819B816115710589F1FB0193838283BB
:10119000FE0111C040815181028113814817590716
:1011A000E0F04817590799F4109761F012960C93E4
:1011B000129713961C933296CF01DF91CF911F9116
:1011C0000F9108950093340310933503F4CF211544
:1011D000310551F04217530738F0A901DB019A019C
:1011E000BD01DF01F801C1CFEF01F9CF90933503C5
:1011F00080933403CDCFFE01E20FF31F81939193CF
:101200002250310939832883D7CF2091320330917E
:101210003303232B41F420910202309103023093D7
:1012200033032093320320910002309101022115F3
:10123000310541F42DB73EB74091040250910502AB
:10124000241B350BE0913203F0913303E217F307CF
:10125000A0F42E1B3F0B2817390778F0AC014E5F26
:101260005F4F2417350748F04E0F5F1F509333032D
:1012700040933203819391939FCFF0E0E0E09CCFC5
:10128000CF93DF930097E9F0FC013297138212822B
:10129000A0913403B0913503ED0130E020E01097C8
:1012A000A1F420813181820F931F2091320330916C
:1012B00033032817390709F061C0F0933303E09333
:1012C0003203DF91CF910895EA01CE17DF07E8F5E9
:1012D0004A815B819E0141155105B1F7E901FB830C
:1012E000EA8349915991C40FD51FEC17FD0761F4AA
:1012F000808191810296840F951FE90199838883EB
:10130000828193819B838A83F0E0E0E012968D9145
:101310009C9113970097B9F52D913C911197CD01B0
:101320000296820F931F20913203309133032817C6
:10133000390739F6309751F510923503109234037E
:10134000B0933303A0933203BCCFD383C2834081D5
:101350005181840F951FC817D90761F44E5F5F4F05
:1013600088819981480F591F518340838A819B81CD
:10137000938382832115310509F0B0CFF0933503B3
:10138000E09334039ECFFD01DC01C0CF13821282B3
:10139000D7CFFB01DC0102C001900D9241505040BB
:1013A000D8F708956817790768F4FB01DC01E40FAA
:1013B000F51FA40FB51F02C002900E92415050407D
:1013C000D8F708950C94C909DC0101C06D93415010
:0A13D0005040E0F70895F894FFCFB5
:1013DA0000003603800000000000B702AC02C80219
:0813EA008202A50292028302B7
:00000001FF
