:100000000C9405010C942D010C942D010C942D01E0
:100010000C942D010C942D010C942D010C942D01A8
:100020000C942D010C94DE060C94D6030C94480419
:100030000C942D010C942D010C942D010C942D0188
:100040000C942D010C9467190C942D010C942D0126
:100050000C942D010C942D010C942D010C949B1AE1
:100060000C942D010C94AC060C9486060C942D0176
:100070000C942D010C942D010C942D010C942D0148
:100080000C942D010C942D010C942D010C942D0138
:100090000C94B9170C942D010C942D010C942D0186
:1000A0000C942D010C942D010C942D01870E8A0EB9
:1000B000790E7D0E830EAB0EAB0EAB0E8E0E920E36
:1000C000960E9C0EA00EAB0EA60E77127C1281121D
:1000D0008B129512DF12DF12DF129F12A912B312D8
:1000E000BD12CA12DF12D212FD142415ED143815F8
:1000F0005A158E1582158E158E158E15B5150D1582
:10010000080B0002020201000904000001020200C3
:100110000005240010010524010101042402060544
:1001200024060001070581031000400904010002B4
:100130000A00000007050202400000070583024094
:1001400000000403090412010002EF0201404123F0
:10015000368000010102030141726475696E6F20EF
:100160004C4C430041726475696E6F204C656F6E34
:100170006172646F00070605040100080A0B0C0D8C
:100180000900000000240027002A002D0030000094
:10019000000000250028002B002E00310000000088
:1001A000002300260029002C002F0004040404046E
:1001B000030405020202020403020202020606060A
:1001C00006060604040202020404040802011040A8
:1001D00080401020408040800802040180402010B0
:1001E0000201108010204040200000000200090F92
:1001F0000000030401000C000000000000000000EB
:100200000000000000000000292011241FBECFEFD5
:10021000DAE0DEBFCDBF12E0A0E0B1E0EAE5F6E44F
:1002200002C005900D92A234B107D9F726E0A2E4EE
:10023000B2E001C01D92A236B207E1F711E0C5E0BD
:10024000D1E004C02197FE010E94CE21C430D10725
:10025000C9F70E94E51A0C942B230C9400004091DE
:100260008E0250918F0220918C0230918D024217A4
:100270005307B4F49091E8009570E1F39091E80091
:1002800092FD19C08093F10080918E0290918F02AF
:1002900001968F739927892B19F48EEF8093E800CC
:1002A00080918E0290918F02019690938F0280939D
:1002B0008E0281E0089580E00895DF92EF92FF9230
:1002C0000F931F93CF93DF93D82E8A017B01E40E07
:1002D000F51EEB01CE15DF0571F0D7FE03C0FE0160
:1002E000849101C088810E942F0121968111F2CF53
:1002F0008FEF9FEF01C0C801DF91CF911F910F9148
:10030000FF90EF90DF900895615030F02091F10060
:10031000FC0120830196F8CF289884E68093970209
:100320000895CF92DF92EF92FF920F931F93CF9396
:10033000DF936C017A018B01C0E0D0E0CE15DF05C0
:1003400081F0D8016D918D01D601ED91FC91019064
:10035000F081E02DC6010995892B11F02196EECF91
:100360007E01C701DF91CF911F910F91FF90EF9018
:10037000DF90CF900895FC01538D448D252F30E000
:10038000842F90E0821B930B541710F0CF960895A2
:1003900001970895FC01918D828D981761F0828DEF
:1003A000DF01A80FB11D5D968C91928D9F5F9F73A9
:1003B000928F90E008958FEF9FEF0895FC01918D4B
:1003C000828D981731F0828DE80FF11D858D90E0B8
:1003D00008958FEF9FEF0895FC01918D228D892F55
:1003E00090E0805C9F4F821B91098F73992708953D
:1003F00084EE92E00E94EC0121E0892B09F420E0D8
:10040000822F0895FC01848DDF01A80FB11DA35A2E
:10041000BF4F2C91848D90E001968F739927848F24
:10042000A689B7892C93A089B1898C9182748C9309
:10043000938D848D981306C00288F389E02D808106
:100440008F7D80830895EF92FF920F931F93CF9338
:10045000DF93EC0181E0888F9B8D8C8D981305C014
:10046000E889F989808185FD26C0F62E0B8D10E084
:100470000F5F1F4F0F731127E02E8C8DE8120CC0F9
:100480000FB607FCFACFE889F989808185FFF5CF9F
:10049000CE010E940202F1CF8B8DFE01E80FF11D0B
:1004A000E35AFF4FF0829FB7F8940B8FEA89FB89DC
:1004B0008081806209C09FB7F894EE89FF896083CC
:1004C000E889F9898081827480839FBF81E090E010
:1004D000DF91CF911F910F91FF90EF900895CF93EF
:1004E000DF93EC01888D8823C9F0EA89FB8980813C
:1004F00085FD05C0A889B9898C9186FD0FC00FB60E
:1005000007FCF5CF808185FFF2CFA889B9898C914E
:1005100085FFEDCFCE010E940202E7CFDF91CF91A0
:10052000089580E090E0892B29F00E94F801811164
:100530000C9400000895CF93DF931F92CDB7DEB7E0
:100540006983DC01ED91FC910280F381E02D41E0B3
:1005500050E0BE016F5F7F4F09950F90DF91CF9103
:10056000089583E08093E9008091F200882319F0D8
:100570008AE38093E8000895FC018485958597FDC2
:100580000BC09FB7F89482E08093E9008091F2005D
:100590009FBF90E0019608959FB7F89482E0809302
:1005A000E9008091F2009FBF90E008950E94F5223B
:1005B0000F931F93CF93DF931F92CDB7DEB782E0E7
:1005C000898342E450E060E071E080E80E945D01D0
:1005D0000E948310DC0112960D911C911397011556
:1005E000110589F0D801ED91FC910280F381E02D95
:1005F000BE016F5F7F4FC801099597FD04C0F801E8
:1006000000851185ECCF89810F90DF91CF911F91EB
:100610000F9108958F929F92AF92BF92CF92DF92E7
:10062000EF92FF920F931F93CF93DF936C017B01A7
:100630008A0180910701882309F45CC080919802A7
:10064000882309F457C08091420280FF05C0809141
:10065000E00082608093E000E801B12C8AEFA82ED0
:1006600093E0892E2AE3922E209711F4BB20D9F132
:100670000E94721081110AC0AA94AA20D9F161E0E7
:1006800070E080E090E00E945611EECF282F30E01D
:10069000C217D3070CF48C2F9FB7F8948092E9000F
:1006A0002091E80025FF1DC0282F30E0C21BD30B8E
:1006B000F701815020F041914093F100FACFE20E12
:1006C000F31EBB2019F09092E8000AC08091E80068
:1006D00085FD07C09092E800BB24B394209709F0F1
:1006E000B12C9FBFC1CF5D9884E680939102101614
:1006F000110644F081E090E0F6019383828380E06C
:1007000090E001C0C801DF91CF911F910F91FF9040
:10071000EF90DF90CF90BF90AF909F908F90089513
:100720000E94721090E008950F931F93CF93DF9370
:100730001F92CDB7DEB78C01FC018485958597FFAC
:100740000EC0CE0101960E944410019719F48981D0
:1007500090E002C08FEF9FEFF80195878487F80142
:10076000848595850F90DF91CF911F910F9108950A
:10077000CF93DF931F92CDB7DEB7FC0184859585BB
:1007800097FD05C02FEF3FEF358724870BC0CE01C3
:1007900001960E944410019719F4898190E002C0EB
:1007A0008FEF9FEF0F90DF91CF9108951F920F92DF
:1007B0000FB60F9211248F939F938091E100909137
:1007C000E100937F9093E10083FF0FC01092E90056
:1007D00091E09093EB001092EC0092E39093ED0087
:1007E0001092980298E09093F00082FF20C093E06E
:1007F0009093E9009091F200992319F09AE3909375
:10080000E80090919102992339F0909191029150D2
:1008100090939102992389F190919702992339F04D
:1008200090919702915090939702992341F184FF00
:1008300010C08091E2008E7E81608093E200809102
:10084000E1008F7E8093E100809142028E7E806184
:1008500011C080FF16C08091E2008E7E806180937F
:10086000E2008091E1008E7E8093E100809142025F
:100870008E7E81608093420204C05D9ACDCF289A1B
:10088000D6CF9F918F910F900FBE0F901F9018950C
:100890001F920F920FB60F921124CF92DF92EF9218
:1008A000FF920F931F932F933F934F935F936F93F9
:1008B0007F938F939F93AF93BF93EF93FF93CF93C8
:1008C000DF93CDB7DEB76C97DEBFCDBF1092E900E6
:1008D0008091E80083FFFBC168E0CE0145960E944D
:1008E000840182EF8093E8008D8987FF05C0909195
:1008F000E80090FFFCCF03C09EEF9093E800982F94
:10090000907609F0C6C09E894F89588D2F89F88C42
:1009100091110CC0803829F4809143028093F1003A
:1009200002C01092F1001092F10045C1913051F4D3
:10093000811141C14130510509F03DC1809143020F
:100940008D7F0BC0933061F4811135C14130510569
:1009500009F031C1809143028260809343022BC130
:10096000953049F48091E80080FFFCCF822F8068A9
:100970008093E30020C1963009F05EC00B8D1C8D82
:1009800022E01092E90010928F0210928E02F21271
:1009900032C010928D0210928C020E94D80299E00F
:1009A000BE016F5F7F4FDB01E92F1D92EA95E9F7EA
:1009B0009983FA8291E09E8390EA98879AEF9987CB
:1009C00020918E0230918F02275F3F4F3C832B8313
:1009D0008D831092E90010928F0210928E02109374
:1009E0008D0200938C0249E050E080E00E945D019E
:1009F0000E94D802E0C010938D0200938C020E94E6
:100A00008310DC0112960D911C91139701151105AD
:100A100009F4BBC0D801ED91FC910480F581E02D73
:100A2000BE016B5E7F4FC8010995009709F0C7C0F2
:100A3000F80100851185EACF973009F445C1983057
:100A400021F481E08093F100B6C0993009F0B3C081
:100A5000837009F039C1E6E1F1E081E031E096E32D
:100A60002081211109C08EE78093EA001092EA00EC
:100A70008F89809398029FC08093E9003093EB00A8
:100A800021912093EC009093ED008F5F873041F728
:100A9000EACF8B8D9C8D1092E90010928F021092FC
:100AA0008E0290938D0280938C02898D811153C0A8
:100AB0008E899D89913A49F4813209F005C147E058
:100AC00050E060E071E080E0BBC0913209F0FCC012
:100AD000833269F48F89988DA0E0B0E080930B0198
:100AE00090930C01A0930D01B0930E0164C080326D
:100AF00069F48091E80082FFFCCF67E080E091E03C
:100B00000E9484018BEF8093E80055C0823209F087
:100B100052C08F8980930701EEEFFFE78591949192
:100B20008B3F9C4D19F0E0E0F8E002C0EEEFFAE0F8
:100B30008091000190910101A0910201B091030107
:100B4000803B9440A105B10509F09EC0809107014A
:100B500080FF79C099C00E948310FC01028113813B
:100B60000115110509F4B0C0D801ED91FC91019077
:100B7000F081E02DBE016B5E7F4FC80109958111A8
:100B80001AC0F80100851185EBCFF1E0FF1609F4DA
:100B90004EC0F3E0FF1298C08F89882309F44AC041
:100BA000823089F440E860E184E691E00E94F41F1D
:100BB000882309F489C08EEF8093E80088C0181656
:100BC0001906CCF381C0813029F440E86BE088E558
:100BD00091E0ECCF833009F077C00E948310DC01F4
:100BE0001296ED90FC9013978E010F5F1F4F6801D6
:100BF000E114F10479F0D701ED91FC910680F781C1
:100C0000E02DB801C7010995080F111DF701E08417
:100C1000F184EECFD8011C92F60101900020E9F793
:100C20003197BF016C197D0940E0C601BFCF66E472
:100C300071E002C062E471E0FB01449150E080E8A1
:100C40000E945D01B8CFEE3F2AE0F20751F08081AB
:100C500091818737A7E79A0721F09093FF0A809345
:100C6000FE0A87E797E791838083809160008093F5
:100C700090029BE088E10FB6F894A89580936000FD
:100C80000FBE9093600097CF8081918187379747FF
:100C900009F091CFA89580916000886180936000F1
:100CA0008091900280936000EE3FBAE0FB0739F03C
:100CB0008091FE0A9091FF0A918380837CCF1092ED
:100CC000FF0A1092FE0A77CF81E28093EB006C96C8
:100CD0000FB6F894DEBF0FBECDBFDF91CF91FF916D
:100CE000EF91BF91AF919F918F917F916F915F91A4
:100CF0004F913F912F911F910F91FF90EF90DF90B7
:100D0000CF900F900FBE0F901F9018951F920F92CB
:100D10000FB60F9211242F933F934F935F936F93CE
:100D20007F938F939F93AF93BF93EF93FF9384EE43
:100D300092E00E940202FF91EF91BF91AF919F91CB
:100D40008F917F916F915F914F913F912F910F9074
:100D50000FBE0F901F9018951F920F920FB60F9213
:100D600011242F938F939F93EF93FF93E091F402BD
:100D7000F091F5028081E091FA02F091FB0282FD90
:100D800012C090818091FD028F5F8F732091FE02CF
:100D9000821751F0E091FD02F0E0EC51FD4F958F8C
:100DA0008093FD0201C08081FF91EF919F918F910F
:100DB0002F910F900FBE0F901F9018951F920F92BA
:100DC0000FB60F9211240F900FBE0F901F90189521
:100DD0003F924F925F926F927F928F929F92AF92CB
:100DE000BF92CF92DF92EF92FF920F931F93CF9318
:100DF000DF935C016901DA013C90232B19F4CC24C8
:100E0000CA94DC2C7A012A01460E571EC0E0D0E0BD
:100E100000E010E087E0682E712CE414F50409F47A
:100E200043C00C151D0508F067C04701F50180811E
:100E30009181D7016D917D010C2E01C0660F0A943E
:100E4000EAF763296F77DC01ED91FC910190F08165
:100E5000E02D09950F5F1F4FF401608170E0C30121
:100E60008C1B9D0B02C0759567958A95E2F7362E0F
:100E70002196C730D10588F2C016D10699F0D50168
:100E80008D919C91632D6F77DC01ED91FC91019028
:100E9000F081E02D09950F5F1F4F331C3324331C65
:100EA0002797E7CF8601B9CF209731F10C151D05A3
:100EB00018F5F5018081918161E070E001C0660F55
:100EC000CA95EAF761506321DC01ED91FC91019034
:100ED000F081E02DDF91CF911F910F91FF90EF9066
:100EE000DF90CF90BF90AF909F908F907F906F904A
:100EF0005F904F903F900994DF91CF911F910F9198
:100F0000FF90EF90DF90CF90BF90AF909F908F9029
:100F10007F906F905F904F903F9008956F927F9277
:100F20008F929F92AF92BF92CF92DF92EF92FF92F9
:100F30000F931F93CF93DF93EA018F3609F4C3C158
:100F4000162F803778F4893609F48EC220F4813563
:100F500009F49CC251C58B3609F4E0C18D3609F401
:100F600042C24AC5863761F020F4803709F44BC18C
:100F700043C5883709F4F2C08A3709F490C13CC5EB
:100F80002981922F987125FF03C083EB91E062C005
:100F9000888131E026FB222720F92327983069F148
:100FA00060F4911129C53093C0028093E20210923F
:100FB000C1021092E30202E007C0903109F444C07C
:100FC000983109F47EC018C5011778F4FE01E00FCE
:100FD000F11D61816795662767958081680F8FEAAB
:100FE00094E00E94C5160E5FEFCF81E00E94A00F33
:100FF00083E191E00197F1F7FFC44B816A811630DC
:1010000069F470E030E8439F600D711D11244D813B
:101010004795442747959C81490F06C0479544272B
:101020004795460F6FEF7FEFDF91CF911F910F91A3
:10103000FF90EF90DF90CF90BF90AF909F908F90F8
:101040007F906F900C943A13E0910801E73094F090
:1010500083ED91E0DF91CF911F910F91FF90EF9081
:10106000DF90CF90BF90AF909F908F907F906F90C8
:101070000C945D0F9B813A81663071F4632F70E0B0
:1010800040E8949F600D711D11249D8197959927CB
:1010900097954C81940F06C0979599279795930F34
:1010A0006FEF7FEFEF5FE093080135E0E302F001BF
:1010B0001124E45AFD4F80837283618393832483D8
:1010C0009BC42091080112163CF490E0622F022E7E
:1010D000000C770B35E00FC08FEF809308018CC4B4
:1010E000349FF001359FF00D1124E45AFD4F4081EB
:1010F000841739F09F5F492F50E06417750784F714
:1011000090E085E022C09830F8F4FA0131968E9F85
:10111000D0018F9FB00D1124A45ABD4F3C91849FE4
:10112000F001859FF00D1124E45AFD4F3083119694
:101130004D915C9112975283418313963C91139782
:10114000338314963C9134839F5F492F50E064179A
:101150007507CCF62150209308014EC4298188815F
:1011600090E040E8249F800D911D1124009721F00C
:1011700090939302809392028091C80581113CC4A0
:10118000C0E08EEF8C0F823028F466E070E08C2F88
:101190000E945D14CF5FCE31A1F781E08093C80536
:1011A00010920C0610920B061092C1021092E302EC
:1011B0001092BF028093BE021092990261E082E019
:1011C0000E94C01061E083E00E94C0108091B900CD
:1011D0008E7F8093B9008091B9008D7F8093B90094
:1011E00088E48093B80085E48093BC008AE696E1A9
:1011F00090930E0680930D068BE696E19093100671
:1012000080930F06F9C3653008F4F6C318811E31C8
:1012100008F0F2C30981EA80FB80CC81E12FF0E085
:10122000EA55FA4F80818C30B0F490E0FC01EE0F6B
:10123000FF1F8E0F9F1FFC01E85DFA4F808190E039
:10124000FC01EE0FFF1F8E0F9F1FFC01ED5FFA4F99
:10125000808186FDB7C34F2D50E080E8C89F400DC8
:10126000511D1124602F70E090E8E99E600D711D02
:101270001124812F0E941F1464E070E0812FDF9100
:10128000CF911F910F91FF90EF90DF90CF90BF9083
:10129000AF909F908F907F906F900C945D14623010
:1012A00008F4AAC32981888190E0E0E82E9F800D90
:1012B000911D1124009711F481E090E090930A01B0
:1012C0008093090199C3623008F496C3898190E044
:1012D000623091F02A81F0E82F9F90011124822B37
:1012E000932B633049F02B8130E030E4239F302D85
:1012F00022271124822B932BBC018881DF91CF916F
:101300001F910F91FF90EF90DF90CF90BF90AF9023
:101310009F908F907F906F900C94A31180EF0E940C
:10132000930F8CE60E94930FC0E080E00E94930F21
:1013300081E00E94930F8BE00E94930F81E00E9456
:10134000930F81E00E94930F81E00E94930F81E54B
:101350000E94930F81E00E94930F8EEE8C0F8C30D1
:1013600038F482E00E94930F8AE00E94930F09C034
:10137000C33039F483E00E94930F88E00E94930FFA
:101380000AC08BEF8C0F8230A8F387EF8C0F83306D
:1013900088F3CD3079F384E00E94930F8EE00E94B1
:1013A000930F8EEF8C0F823030F486E00E94930F03
:1013B00081E00E94930F8FE70E94930FCF5FCE31A1
:1013C00009F0B3CF87EFDF91CF911F910F91FF907D
:1013D000EF90DF90CF90BF90AF909F908F907F90D5
:1013E0006F900C94930F662309F406C3C88180EFB5
:1013F0000E94930F8EE60E94930F8C2F0E94930FF2
:10140000CE3100F7D0E0FE01EC5AFB4F80810E9404
:10141000930FCC0FDD1F8E010E581B4FF8018081FA
:101420008F770E94930FF801808191819C01207831
:10143000232B39F0880F892F881F990B8F770E94F3
:10144000930FCE58DB4F888199819C012227307CF5
:10145000232B09F4B7CF990F880B990F982F881F6A
:101460008F770E94930FAECF80EF0E94930F8AE692
:101470000E94930FCEEECC3010F08FE701C08C2F7E
:101480000E94930FCF5FCC30B1F79CCF662309F455
:10149000B3C29881892F8F70833009F4CEC030F4A5
:1014A000813009F41FC1823041F0A6C2843009F4B2
:1014B00067C0853009F4DDC19FC280919602811119
:1014C0009BC280919502811197C281E08093960220
:1014D00090E019E08091E205981708F04EC0292F9E
:1014E00030E0A90146535A4FFA018081882309F45C
:1014F00040C0E090E705F090E805129FE001139FDF
:10150000D00D1124C554DB4FEE81FF8120818885E9
:10151000822B8083AC81BD81788528813981220F1F
:10152000331F220F331FEA81FB81EE0FFF1FEE0FE7
:10153000FF1FEE0DFF1D8C91672F60956823872B91
:101540007FB7F8942E0F3F1F2E173F0781F0C191F0
:10155000D8E08C9300C0C7FF6C93CC0F00C000C0D4
:1015600000C008F46C9300C0DA9599F7EDCF7FBF07
:101570007894FA0110829F5FADCF109296023CC220
:1015800080919502811138C28B8190E0A0E0B0E09B
:10159000AC01BD01AEE0440F551F661F771FAA9531
:1015A000D1F79C81892F90E0A0E0B0E015E1880F91
:1015B000991FAA1FBB1F1A95D1F7840F951FA61F4D
:1015C000B71F2981820F911DA11DB11DCA80D12C89
:1015D000E12CF12C07E0CC0CDD1CEE1CFF1C0A9565
:1015E000D1F7C80ED91EEA1EFB1EC114D104E104B6
:1015F000F10419F0C0E0D0E011C04091E90550912C
:10160000EA05440F551F440F551F60E070E08091BC
:10161000E7059091E8050E941523BDC18091E90579
:101620009091EA05C817D90708F0B5C1B701A6011E
:10163000CE010E94281A2196F1CF80919502811146
:10164000DBC18A81098110E0F0E88F9F000D111D38
:1016500011248D8190E0A0E0B0E0AC01BD012EE04E
:10166000440F551F661F771F2A95D1F79E81892F3A
:1016700090E0A0E0B0E035E1880F991FAA1FBB1FE2
:101680003A95D1F7840F951FA61FB71F2B81820FA4
:10169000911DA11DB11D4C8150E060E070E0E7E0BC
:1016A000440F551F661F771FEA95D1F7480F591F42
:1016B0006A1F7B1FC8010E94281A4091E205A2ED13
:1016C000B5E080E090E0841708F096C1FC012D9110
:1016D0003D91019602171307B0F7E653FA4F81E0E8
:1016E00080838AC1913009F087C1633008F484C1D6
:1016F000909094020E94641A911013C06BEA169F96
:10170000B12C1124B69412EDC12E15E0D12E0BEBA5
:1017100014E0A12C8824839482E0782E93E0692E33
:1017200056C0BBEBEB2EB4E0FB2E00E0602FC701F0
:101730000E94C0150F5F39E0E30EF11C0830B1F7CD
:10174000DDCF898190E0A5E095958795AA95E1F791
:101750008130910509F451C00CF041C0892B31F45E
:101760001092E5058092E6057092E4058B81EA808F
:10177000F12C40E8849FE00CF11C1124F801F18267
:10178000E082AA2009F445C0F60132978081918158
:101790009701280F391FF601219331936F01F8014A
:1017A000938382838091E9059091EA05E80EF91E02
:1017B000F092EA05E092E9058091E2058F5F80935F
:1017C000E205A394075F1F4F2396BA1429F19110E5
:1017D000B8CF69816F71C8010E94C015B2CF823045
:1017E000910581F0039711F61092E6058092E505C8
:1017F0007092E4056092E305B9CF1092E6058092FD
:10180000E505B2CF1092E4058092E6057092E505F9
:10181000ADCF80E090E0BCCF8091E7059091E805E6
:10182000009731F00E946C221092EA051092E905AF
:10183000E114F10409F4E0C0E701CC0FDD1FCC0F87
:10184000DD1FCE010E94D4219093E8058093E70527
:10185000009751F0AE0160E070E00E941523F09215
:10186000EA05E092E905C8C01092EA051092E90580
:10187000C3C08981082F0F7109F48DC0F82FF07251
:10188000CF2EC02FCC0FCC0F91E090939502D0E0DB
:1018900010E0382F3074D32E86FF27C0CE010E946F
:1018A000D4217C01009729F0AE0160E070E00E9435
:1018B0001523CC2039F06091E9057091EA05601B91
:1018C000710B02C060E070E0660F771F660F771F34
:1018D0008091E7059091E805680F791FAE01C70177
:1018E0000E94FA22C11072C018C0FF23B1F080918B
:1018F000E7059091E8054091E9055091EA05401B04
:10190000510B440F551F440F551FBC018C0F9D1FD9
:101910000E94032380E090E02DC08091E705909124
:10192000E8054091E9055091EA05401B510B440F31
:10193000551F440F551FBC016C0F7D1F0E940323D0
:101940008091E9059091EA05801B910BDD2091F0D3
:10195000880F991F880F991F2091E7053091E8059E
:10196000AE01B701820F931F0E94FA22C7010E94A5
:101970006C220FC0880F991F880F991F2091E705CF
:101980003091E805AE0160E070E0820F931F0E9485
:101990001523109295024091E20550E061E070E05D
:1019A0008AEC95E0DF91CF911F910F91FF90EF901E
:1019B000DF90CF90BF90AF909F908F907F906F906F
:1019C0000C941523812F0E94EC1345CC8091E705E0
:1019D0009091E8054091E9055091EA05401B510BB3
:1019E000440F551F440F551FBC018C0F9D1F0E94B3
:1019F000032380E090E0ACCFDF91CF911F910F9156
:101A0000FF90EF90DF90CF90BF90AF909F908F901E
:101A10007F906F9008950F931F93CF93DF9384303F
:101A200008F071C0282F30E0F901E85AFD4F6083BB
:101A3000672B09F468C0082FF901EC5AFD4F10819B
:101A4000D22FDD0FDD0FDD0F10FF4DC08D2F0E9457
:101A50009710892B09F447C0C1E011FF07C081E04E
:101A60008D0F0E949710892B09F03FC012FF06C00E
:101A700082E08D0F0E949710892BC9F513FF06C0D5
:101A800083E08D0F0E949710892B99F514FF06C0F3
:101A900084E08D0F0E949710892B69F515FF06C011
:101AA00085E08D0F0E949710892B39F5D83191F080
:101AB00016FF06C086E08D0F0E949710892BF9F45F
:101AC000D73141F017FF06C087E08D0F0E949710B5
:101AD000892BB9F441E06C2F802FDF91CF911F91BA
:101AE0000F910C94F812C0E0B8CFC260BFCFC460B1
:101AF000C5CFC860CBCFC061D1CFC062D7CFC064E3
:101B0000DFCFC068E7CFDF91CF911F910F9108958C
:101B1000CF938C3080F5409184025091850221E072
:101B200030E0672B81F4B90102C0660F771F8A95F8
:101B3000E2F7CB01809590958423952390938502BD
:101B40008093840218C0082E02C0220F331F0A940B
:101B5000E2F7242B352B3093850220938402909159
:101B6000C905911108C0C82F0E942B11BC018C2FF0
:101B7000CF910C94AC0ECF9108958F929F92AF921B
:101B8000BF92CF92DF92EF92FF920F931F93CF936A
:101B9000DF93843008F096C0982F990F990F990F12
:101BA00058E0C52EC90E9EE19C1510F44EE1C42EDE
:101BB0008B01C82FCC0FCC0FCC0FDC2ED0E099249A
:101BC00093945B01BB24DC1410F54D2D50E0FA0119
:101BD000EC5AFB4F20812230B8F4892D90E08A2105
:101BE0009B2188248394009709F4812C7A01EE0CC0
:101BF000FF1C213009F056C0D929F701EE58FB4FE0
:101C0000882D90E091838083990CD394DCCFD0FF12
:101C100005C0602F61708C2F0E94C010D1FF06C0DC
:101C2000602F627081E08C0F0E94C010D2FF06C04E
:101C3000602F647082E08C0F0E94C010D3FF06C03A
:101C4000602F687083E08C0F0E94C010D4FF06C024
:101C5000602F607184E08C0F0E94C010D5FF06C019
:101C6000602F607285E08C0F0E94C010D6FF06C006
:101C7000602F607486E08C0F0E94C010D7FF22C0D6
:101C8000602F607887E08C0FDF91CF911F910F91CB
:101C9000FF90EF90DF90CF90BF90AF909F908F908C
:101CA0000C94C010892B09F4A8CFF701EE58FB4F14
:101CB00080819181019709F4A0CF62E08D2D0E946F
:101CC000EF109BCFDF91CF911F910F91FF90EF907D
:101CD000DF90CF90BF90AF909F908F90089590E04D
:101CE000FC013197EF30F105B0F5EA5AFF4F0C9443
:101CF000CE21809180008F7703C0809180008F7DFE
:101D000080938000089580918000877FF9CF84B50B
:101D10008F7702C084B58F7D84BD08958091900037
:101D20008F7707C0809190008F7D03C080919000D5
:101D3000877F8093900008958091C0008F7703C0C3
:101D40008091C0008F7D8093C00008958091C20073
:101D5000877F8093C20008951F93CF93DF9300D0B5
:101D6000CDB7DEB7182F7A836983809111049091E3
:101D70001204009709F44EC0DC01ED91FC91103182
:101D8000A8F46115704490F4612F606E0190F081A9
:101D9000E02D099522E030E0AE014F5F5F4F62E039
:101DA00070E081E194E00E94E80634C00190F08187
:101DB000E02D60EF09958091110490911204DC01EF
:101DC000ED91FC910190F081E02D6FE609958091F5
:101DD000110490911204DC01ED91FC910190F081CD
:101DE000E02D612F099522E030E0AE014F5F5F4F9B
:101DF00062E070E081E194E00E94E80680911104C5
:101E000090911204DC01ED91FC910190F081E02DA4
:101E100067EF09950F900F90DF91CF911F91089573
:101E2000EF92FF920F931F93CF93DF93C82F809170
:101E30001104909112040097C9F17A018B01DC0121
:101E4000ED91FC910190F081E02D60EF099580917A
:101E5000110490911204DC01ED91FC910190F0814C
:101E6000E02D6C2F0995E7010E0D1F1DC017D1073E
:101E700059F020E030E0AE0161E070E081E194E0F3
:101E80000E94E8062196F2CF8091110490911204ED
:101E9000DC01ED91FC910190F081E02D67EFDF9185
:101EA000CF911F910F91FF90EF900994DF91CF9107
:101EB0001F910F91FF90EF900895FC010190002079
:101EC000E9F73197BF01681B790BAC0181E70C94EE
:101ED000100FCF93DF93FC01A081B181109701F126
:101EE000EC01ED91FC9111970190F081E02D69EFEB
:101EF000CD01099588819981DC01ED91FC910190DA
:101F0000F081E02D62E0099588819981DC01ED91F5
:101F1000FC910190F081E02D65E0DF91CF91099473
:101F2000DF91CF910895A0914F04B0915004ED91AD
:101F3000FC9111970190F081E02D682FCD0109945B
:101F4000282F3091E302313208F04AC08091BF025D
:101F50008111FCCF9091E20242E04093BF022093B6
:101F6000BE022FEF2093BD021092BC023093BB0241
:101F7000E2ECF2E0ABE9B2E020E0321721F041916F
:101F80004D932F5FFACF10929A0220919A02990FE7
:101F9000922B90939A0290919902913061F4109251
:101FA000990290919A029093BB009091BC0093FD8E
:101FB000F8CF95EC01C095EE9093BC009091BF02D4
:101FC0009230E1F39091BD029F3F79F08091BD0284
:101FD000803241F08091BD02803331F084E005C051
:101FE00081E003C082E001C083E01092C102109240
:101FF000E3021092C00208951F93CF93DF93182F2E
:10200000EB01809116049091170468177907A8F0E6
:10201000E0914304F091440481E03097C1F0809353
:10202000130480912F049091300409958091160437
:1020300090911704C817D90748F48091140490911F
:102040001504C80FD91F188380E001C081E0DF911B
:10205000CF911F910895AC01FB0180E090E09C01BD
:10206000220F331F2417350770F4DB012C912083D6
:1020700011963C91379533273795232B2193019661
:102080006E5F7F4FECCF089520919802211103C01D
:102090008FEF9FEF08955FB7F89422E02093E90057
:1020A0002091F20030E01216130614F421E030E023
:1020B000422FFC0184E6415038F028988093970223
:1020C0009091F1009193F7CF2115310521F0809186
:1020D000F200882319F05FBFC90108958BE6809351
:1020E000E800F9CF2FB7F89483E08093E90090914E
:1020F000E800892F807295FF04C09091F20080E47F
:10210000891B2FBF08958091500581110DC082E079
:1021100080934C0584E080934D0510924F051092FA
:102120004E0581E0809350058CE495E00895CF93AF
:10213000DF93282F30E0F901E751FE4F8491F90138
:10214000E653FE4FD491F901E555FE4FC491CC23DF
:1021500091F081110E946F0EEC2FF0E0EE0FFF1F47
:10216000E356FE4FA591B491EC91ED2381E090E010
:1021700021F480E002C080E090E0DF91CF910895EB
:102180001F93CF93DF93282F30E0F901E751FE4FE3
:102190008491F901E653FE4FD491F901E555FE4FC4
:1021A000C491CC23C1F0162F81110E946F0EEC2F29
:1021B000F0E0EE0FFF1FE157FE4FA591B4919FB7DE
:1021C000F894111104C08C91D095D82302C0EC91E1
:1021D000DE2BDC939FBFDF91CF911F910895CF93AA
:1021E000DF9390E0FC01E653FE4F2491FC01E5559E
:1021F000FE4F8491882361F190E0880F991FFC01C4
:10220000EF57FE4FC591D491FC01E157FE4FA591C8
:10221000B491611109C09FB7F894888120958223F9
:102220008883EC912E230BC0623061F49FB7F89441
:102230008881322F309583238883EC912E2B2C9329
:102240009FBF06C08FB7F894E8812E2B28838FBFDD
:10225000DF91CF910895823108F08251E82FF0E0AC
:10226000EB58FE4FE49180917B00E3FB222720F99D
:1022700030E095E0220F331F9A95E1F78F7D282BF0
:1022800020937B00E770E064E0937C0080917A000B
:10229000806480937A0080917A0086FDFCCF8091E3
:1022A00078002091790090E0922B08958F929F9270
:1022B000AF92BF92CF92DF92EF92FF926B017C01BF
:1022C0000E94761A4B015C01C114D104E104F104AF
:1022D000F1F00E94761ADC01CB0188199909AA094C
:1022E000BB09883E9340A105B10570F321E0C21AF5
:1022F000D108E108F10888EE880E83E0981EA11C41
:10230000B11CC114D104E104F10419F7DDCFFF9031
:10231000EF90DF90CF90BF90AF909F908F900895F7
:102320008E3180F4E82FF0E0DF01AC5ABB4F9C9176
:10233000913041F4EE0FFF1FEE58FB4F6083718325
:102340000C94C01008958F929F92AF92BF92CF923B
:10235000DF92EF92FF920F931F93CF93DF93EB01E6
:102360008E3108F038C1082F10E0F801EC5AFB4F0D
:102370009081933009F48CC0943009F02CC1F8019D
:10238000EA55FA4FE080F12C6701CC0CDD1C60327D
:1023900082E078070CF042C077FD05C0653B71050F
:1023A00024F4DB0104C0A0E001C0A4EBB0E0F6011E
:1023B000EE0DFF1DE85DFA4F818128E830E049010C
:1023C000881A910887FD9394880C991C880C991C95
:1023D000092C000CAA08BB08828128E532E0281BE2
:1023E000310987FD3395220F331F220F331FA901B7
:1023F000330F660B770B9A01AB01281939094A098B
:102400005B090E94892124EB30E040E050E00E940B
:102410005F21820E931EA41EB51E01C04B01F60162
:10242000EE0DFF1DE85DFA4F20812C3008F0CCC086
:10243000318188E890E0831B910937FD9395880FDF
:10244000991F880F991F8816990684F0828148E5A4
:1024500052E0481B510987FD5395440F551F440F07
:10246000551FC401481559050CF4CA010297880F7D
:10247000991F4FB7F89430E0F901EE0FFF1F2E0FB0
:102480003F1FF901ED5FFA4F928381834FBF9CC0DC
:10249000F82E83E0081759F08BEF800F823038F068
:1024A00087EF800F833018F08DE008138DC061E056
:1024B0008F2D0E94EF10209711F460E004C0CF3FF1
:1024C000D10529F461E08F2D0E94C0107DC0F80174
:1024D000E751FE4FE4918E2F90E0FC013197EF30F1
:1024E000F10508F06CC0EB59FF4F0C94CE2184B578
:1024F000806884BDC7BD68C084B5806284BDC8BD26
:1025000063C080918000806880938000D0938900B0
:10251000C093880059C080918000806280938000C1
:10252000D0938B00C0938A004FC080918000886058
:1025300080938000D0938D00C0938C0045C0809123
:102540009000806880939000D0939900C093980089
:102550003BC080919000806280939000D0939B005C
:10256000C0939A0031C08091900088608093900061
:10257000D0939D00C0939C0027C08091C0008068CC
:102580008093C0008091C0008F7B8093C000C09377
:10259000CF001AC08091C00080628093C000C093B9
:1025A000D00012C08091C20088608093C2008091E8
:1025B000C2008B7F8093C200C093D20005C0C03898
:1025C000D1050CF07FCF79CF000F111FF801EE5825
:1025D000FB4FD183C083DF91CF911F910F91FF906B
:1025E000EF90DF90CF90BF90AF909F908F90089525
:1025F000FF920F931F93CF93DF9300D0CDB7DEB739
:10260000082F10E0F801EC5AFD4F9081F62EF922C8
:102610000C531A4F411104C0F8019081F91611F1C1
:102620002F2D30E03A832983A0911104B091120438
:102630001097B1F0682F6F706069ED91FC91119760
:102640000190F081E02DCD01099522E030E0AE014E
:102650004F5F5F4F62E070E081E194E00E94E80626
:10266000F801F0820F900F90DF91CF911F910F91A1
:10267000FF900895EF92FF920F931F93CF93DF93F4
:10268000D82F8B01C42FF22E6F3F8FEF7807F9F010
:1026900081E08093C002D093E2021092C1021092B6
:1026A000E3028FEA94E00E94C5168F2D0E94A00FCE
:1026B00080919202909193028230910550F0880FA0
:1026C000991F880F991F05970197F1F702C000E045
:1026D00010E08091BF028111FCCF9C2FC13208F025
:1026E00090E281E08093BF028093BE022FEF20939F
:1026F000BD021092BC02290F2093BB0280939A0264
:1027000080919A022D2F220F822B80939A02809122
:102710009902813061F41092990280919A0280931B
:10272000BB008091BC0083FDF8CF85EC01C085EE35
:102730008093BC008091BF028130E1F38091BC02A4
:10274000891710F49091BC02EBE9F2E0ABEEB5E032
:1027500080E0891721F021912D938F5FFACF10929D
:102760000C0680930B06EC2EF12C90E0E816F9068F
:102770001CF484EE91E005C08E159F0524F481E0E1
:1027800092E00E945D0FD09364050093650504E616
:1027900015E0C801845695408E159F057CF40F5FA7
:1027A0001F4F90910B0680910C06981739F08FEA15
:1027B00094E00E947C16F8018183EBCFCE5F6C2FF2
:1027C00070E044E655E087E7DF91CF911F910F91CC
:1027D000FF90EF900C94100FA82FB0E0AA55BA4FBD
:1027E0009C91292F30E0F901EE0FFF1F2E0F3F1FA4
:1027F000F901E85DFA4FE081F0E09F01220F331FFD
:10280000E20FF31FED5FFA4F80818F7B8083809111
:10281000A405981306C0992379F091509093A405CC
:102820000BC0882349F0E091A505EF5FE093A50573
:10283000F0E0E95AFA4F90838FEF8C930895DB0113
:102840009091A4059C30A8F53091A505682F70E003
:10285000332369F0E32FF0E0E95AFA4F8081FB015E
:10286000EA55FA4F808331503093A50507C0FB012C
:10287000EA55FA4F90839F5F9093A405FB01EA55B8
:10288000FA4F808190E09C01220F331F820F931F2B
:102890001A161B0634F4141615061CF49A01AD0121
:1028A00004C020E639E040E252E0885D9A4F0C9483
:1028B000E7188DE192E00C945D0FAF92BF92CF923A
:1028C000DF92EF92FF920F931F93CF93DF93C82E67
:1028D000D12C86010F521C4FF801ED57FF4F90810C
:1028E0009F3709F442C17B01C82F963069F480916B
:1028F000C805882349F06630710509F432C1109289
:10290000C8058FEF80930801CE3100F584E0E8160A
:10291000F104E1F0F601EA55FA4F80818C30B0F411
:1029200090E0FC01EE0FFF1F8E0F9F1FFC01E85D82
:10293000FA4F808190E0FC01EE0FFF1F8E0F9F1F6A
:10294000FC01ED5FFA4F808186FDF6C0DEEEDC0F04
:10295000DC3060F461E070E082E0E816F10411F030
:1029600060E070E08D2F0E94880D02C0CE3118F516
:10297000EC2FE695E695E6952C2F2770F0E0EC5AC3
:10298000FD4FE114F10421F08BE0E816F10449F465
:1029900081E090E001C0880F2A95EAF79081892BA9
:1029A00009C081E090E001C0880F2A95EAF7809580
:1029B0009081892380835601AA0CBB1CF501EE5837
:1029C000FB4F118210828CE0E816F10408F0A6C0DB
:1029D000F701EC58FF4F0C94CE21DC3008F0C5C055
:1029E00060E08C2F0E94EF10F801ED57FF4F8081BF
:1029F0008F3709F4BAC082E08FC0CE3108F0B5C07D
:102A000060E08C2F0E94EF10F801ED57FF4F80819E
:102A10008F3709F4AAC01082A8C0CE3108F0A5C033
:102A200062E08C2F0E94EF10F801ED57FF4F80817C
:102A30008F3711F08BE08083F501EE58FB4F81E07A
:102A400090E09183808391C0CE3108F08EC060E029
:102A50008C2F0E94C01061E08C2F0E94EF10F801B3
:102A6000ED57FF4F80818F3709F47FC081E054C05C
:102A7000C33059F08BEF8C0F823038F087EF8C0F1A
:102A8000833018F0CD3009F070C061E08C2F0E94C7
:102A9000EF1061E08C2F0E94EF1060E08C2F0E94FD
:102AA000C010F801ED57FF4F80818F3709F45DC0EA
:102AB00083E032C0CE3108F058C0F801ED57FF4F27
:102AC00080818F3711F084E08083F601EA55FA4F58
:102AD00080818F3FA9F190E0FC01EE0FFF1F8E0F68
:102AE0009F1FFC01E85DFA4F808190E0FC01EE0F32
:102AF000FF1F8E0F9F1FFC01ED5FFA4F808186FD47
:102B000034C01EC0C250C23080F5F801ED57FF4FEF
:102B100080818F3751F186E0808327C081E392E086
:102B2000DF91CF911F910F91FF90EF90DF90CF90A9
:102B3000BF90AF900C945D0F8C2F0E94EC1306CFCA
:102B40004FEF5FEF6FEF7FEF8C2FDF91CF911F91F2
:102B50000F91FF90EF90DF90CF90BF90AF900C94CB
:102B60001F14CE3108F4D6CEF1CEDF91CF911F9154
:102B70000F91FF90EF90DF90CF90BF90AF900895AE
:102B8000DC0170E0FB01E653FE4FE4911896EC93F4
:102B9000189765557E4FFB018491E82FF0E0EE0F0A
:102BA000FF1FE157FE4F8591949115969C938E934C
:102BB0001497FB016491E62FF0E0EE0FFF1FEF5733
:102BC000FE4F8591949117969C938E931697089536
:102BD000E0915202F0915302309709F00994089560
:102BE000862F642FE0915002F0915102309711F03E
:102BF000A901099408950895862FE0914802F09163
:102C00004902309711F0BA0109940895862FE09196
:102C10004A02F0914B02309711F0BA0109940895DD
:102C2000862FE0914402F0914502309711F0BA01ED
:102C300009940895862FE0914602F091470230975B
:102C400011F0BA0109940895862FE0914C02F09199
:102C50004D02309711F0BA0109940895862FE09142
:102C60004E02F0914F02309711F0BA010994089585
:102C700085ED8093BC008091BC0084FDFCCF109258
:102C8000BF02089540913206262F30E0240F311DF7
:102C900021323105DCF42091BF022430C9F4FC015B
:102CA00080E090E0861758F4309132062191DC01E3
:102CB000AE5EB94FA30FB11D2C930196F3CF809157
:102CC0003206680F6093320680E0089581E008952F
:102CD00082E00895089508950895E0910C0680918A
:102CE0000B06E81730F4F0E0E551FA4F808190E0F0
:102CF00008958FEF9FEF089590910C0680910B0639
:102D0000981750F4E92FF0E0E551FA4F208130E0B8
:102D10009F5F90930C0602C02FEF3FEFC90108950B
:102D200080910B0690E020910C06821B910908957A
:102D3000CF92DF92EF92FF920F931F93CF93DF9387
:102D40007C01CB018A012091C002222389F0EB0192
:102D50006B01C40ED51ECC15DD0569F06991D70154
:102D6000ED91FC910190F081E02DC7010995F3CF21
:102D7000642F0E944216C801DF91CF911F910F91DD
:102D8000FF90EF90DF90CF900895CF93DF931F9245
:102D9000CDB7DEB769832091C0022223D1F0209104
:102DA000E302203240F021E030E0FC013383228353
:102DB00080E090E015C08091C102E82FF0E0EE5372
:102DC000FD4F998190838F5F8093C1028093E302CE
:102DD00005C061E0CE0101960E94421681E090E0BC
:102DE0000F90DF91CF910895089580E090E00895CD
:102DF000009721F0805C9F4F0C94690F08950F930A
:102E00001F93CF93DF9381E08093C9058091C8051C
:102E1000882329F01092C8058FEF80930801E8E518
:102E2000F2E0C4E5D2E0A4ECB5E0119219921D9253
:102E300082E0EC35F807C9F706EA15E0C0E0DFEFFD
:102E40008EEE8C0F8C3018F462E070E002C061E00E
:102E500070E08C2F0E945D14F801D1938F01CF5F39
:102E6000CE3171F710928502109284021092A5055E
:102E70001092A4051092C905DF91CF911F910F9177
:102E80000895DF92EF92FF920F931F93CF93DF93FA
:102E9000FC01E058FF4FD080DD2009F45DC0EC015B
:102EA000C05CDF4FA881B981109709F455C0FC01BF
:102EB000EF57FF4F00811181F801F180E080ED9123
:102EC000FC9111970190F081E02D60EFCD01099503
:102ED00088819981DC01ED91FC910190F081E02DD8
:102EE00069E7099588819981DC01ED91FC91019058
:102EF000F081E02D6E2D099588819981DC01ED919D
:102F0000FC910190F081E02D6F2D09957801B2E0E0
:102F1000EB0EF11C0D0D111DE016F10661F020E025
:102F200030E0A70161E070E0CE010E94E806EFEF1B
:102F3000EE1AFE0AF1CF88819981DC01ED91FC91B6
:102F40000190F081E02D67EFDF91CF911F910F91FC
:102F5000FF90EF90DF900994DF91CF911F910F9137
:102F6000FF90EF90DF900895009711F00C944117B7
:102F700008951F920F920FB60F9211242F933F9333
:102F80004F935F936F937F938F939F93AF93BF9371
:102F9000EF93FF938091B900887F803609F49CC03D
:102FA00068F5883209F45BC090F4803109F454C0AC
:102FB00038F4882309F4F6C0883009F44DC0F6C00F
:102FC000883109F44CC0803209F45DC0EFC0803410
:102FD00009F468C048F4803309F455C0883309F017
:102FE000E5C08093BD02D8C0803509F44FC0883554
:102FF00009F45DC0883409F0D9C0D6C0883909F415
:10300000C7C0A8F4883709F467C038F4883609F4D3
:1030100063C0803709F460C0C9C0883809F4B8C0FB
:10302000803909F45FC0803809F0C0C05BC0803BC4
:1030300009F486C038F4803A09F466C0883A09F485
:103040007FC0B4C0803C09F4A7C0883C09F4A4C088
:10305000883B09F48AC0AAC080919A0210C090915E
:10306000BC028091BB02981770F5E091BC0281E030
:103070008E0F8093BC02F0E0E556FD4F8081809377
:10308000BB0085EC86C08093BD028EC0E091BC027F
:1030900081E08E0F8093BC028091BB00F0E0E5568A
:1030A000FD4F80839091BC028091BB026EC0E09185
:1030B000BC0281E08E0F8093BC028091BB00F0E0E7
:1030C000E556FD4F80838091BE0281116DC081E085
:1030D0008093990284EA61C083E08093BF021092DA
:1030E0005406CFCF80915406803208F051C0E09151
:1030F000540681E08E0F809354068091BB00F0E06F
:10310000EC5CF94F8083BDCF85EC8093BC001092BE
:10311000BF0280915406803230F4E0915406F0E012
:10312000EC5CF94F10826091540670E0E0910F065C
:10313000F091100684E396E009951092540636C08B
:1031400084E08093BF021092330610923206E09121
:103150000D06F0910E06099580913206811105C089
:1031600081E08093320610921206E091330681E0EE
:103170008E0F80933306F0E0EE5EF94F80818093EE
:10318000BB009091330680913206981708F479CFEE
:1031900085E88093BC000AC085EC8093BC00109247
:1031A000BF0204C01092BD020E943816FF91EF9139
:1031B000BF91AF919F918F917F916F915F914F914F
:1031C0003F912F910F900FBE0F901F901895DF9297
:1031D000EF92FF920F931F93CF93DF93EC01D62EC4
:1031E0007A01890188818C3008F068C061E08D2DFA
:1031F0000E94EF108881E82FF0E09F01220F331F1B
:10320000E20FF31FED5FFA4F9D2D9F732081207C0D
:10321000D22ED92AD08220E232E02E193F0937FF80
:1032200002C02D5F3F4F359527953595279529830A
:1032300020E639E0201B310B37FF02C02D5F3F4FE6
:1032400035952795359527952A836CE00E94C221F4
:103250009CE0899FB001112440E050E09B01240FC5
:10326000351FF901EE0FFF1F2E0F3F1FF901ED5F14
:10327000FA4F908196FD16C04F5F5F4F4C3051055D
:1032800069F781110FC01092800082E08093810065
:103290001092850010928400B19A80916F00826034
:1032A00080936F00E881F0E0CF01880F991FE80F4D
:1032B000F91FED5FFA4F8081806480838881DF9100
:1032C000CF911F910F91FF90EF90DF9008951F9283
:1032D0000F920FB60F9211242F933F934F935F934A
:1032E0006F937F938F939F93AF93BF93EF93FF93CE
:1032F0008091110687FF05C010928500109284000E
:103300001BC020911106022E000C330B8091270563
:1033100090E02817390784F480911106082E000CDC
:10332000990BFC01EE0FFF1F8E0F9F1FFC01ED5F3D
:10333000FA4F808186FD15C0809111068F5F8093C2
:10334000110620911106022E000C330B80912705E7
:1033500090E028173907C4F4809111068C3064F18D
:1033600013C080911106082E000C990BFC01EE0F82
:10337000FF1F8E0F9F1FFC01ED5FFA4F808160E001
:103380008F730E94C010D8CF8091840090918500E7
:10339000049680349C4918F480E49CE905C080912F
:1033A0008400909185000496909389008093880012
:1033B0008FEF809311063BC02091840030918500EF
:1033C00080911106082E000C990BFC01EE0FFF1FD7
:1033D0008E0F9F1FFC01ED5FFA4F81819281820F5A
:1033E000931F909389008093880080911106082E86
:1033F000000C990BFC01EE0FFF1F8E0F9F1FFC01AD
:10340000ED5FFA4F808186FF12C080911106082E71
:10341000000C990BFC01EE0FFF1F8E0F9F1FFC018C
:10342000ED5FFA4F808161E08F730E94C010FF91C1
:10343000EF91BF91AF919F918F917F916F915F912C
:103440004F913F912F910F900FBE0F901F901895A5
:103450002091E9053091EA058217930798F5880FC6
:10346000991F880F991F2091E605E091E705F091DB
:10347000E805E80FF91FE20FF11D70832091E505C3
:10348000E091E705F091E805E80FF91FE20FF11D63
:1034900060832091E405E091E705F091E805E80FED
:1034A000F91FE20FF11D50832091E305E091E7053C
:1034B000F091E8058E0F9F1FFC01E20FF11D408384
:1034C00080E0089581E008951092E2051092EA05E7
:1034D0001092E905E2EDF5E0AAECB5E01192119247
:1034E0001D9285E0E23EF807C9F708953FB7F894CA
:1034F00080915A0690915B06A0915C06B0915D06A2
:1035000026B5A89B05C02F3F19F00196A11DB11D3E
:103510003FBFBA2FA92F982F8827820F911DA11D79
:10352000B11DBC01CD0142E0660F771F881F991FB6
:103530004A95D1F708951F920F920FB60F9211245A
:103540002F933F938F939F93AF93BF938091550693
:1035500090915606A0915706B091580630915906A1
:1035600023E0230F2D3720F40196A11DB11D05C0C6
:1035700026E8230F0296A11DB11D209359068093C2
:10358000550690935606A0935706B093580680911F
:103590005A0690915B06A0915C06B0915D0601967B
:1035A000A11DB11D80935A0690935B06A0935C0603
:1035B000B0935D06BF91AF919F918F913F912F91F5
:1035C0000F900FBE0F901F901895789484B582606D
:1035D00084BD84B5816084BD85B5826085BD85B5B7
:1035E000816085BD80916E00816080936E00109235
:1035F00081008091810082608093810080918100B0
:103600008160809381008091800081608093800040
:1036100080919100826080939100809191008160FF
:1036200080939100809190008160809390008091C0
:10363000C10084608093C1008091C100826080934A
:10364000C1008091C10081608093C1008091C3005E
:1036500081608093C3008091C00082608093C0002D
:103660008091C20081608093C20080917A00846062
:1036700080937A0080917A00826080937A008091B2
:103680007A00816080937A0080917A0080688093CC
:103690007A00109298021092430210924202809196
:1036A000D70081608093D70080EA8093D80089B5E5
:1036B000806189BD89B5826089BD09B400FEFDCFF6
:1036C00061E070E080E090E00E9456118091D800A7
:1036D0008F7C80618093D8008091E000807F809310
:1036E000E0008091E1008E7E8093E1008DE0809388
:1036F000E200559A209A88E1809351048091520407
:10370000909153040E946C22C0915104D0E0CE01EC
:1037100001960E94D4219093530480935204FC019B
:10372000EC0FFD1F108222E0DC012C9325E01196A6
:103730002C93AE01425051096CE971E002960E944F
:103740001C2383EA91E190934F0280934E028DEB0C
:103750009DE090934D0280934C0288E89DE0909309
:103760004B0280934A028BE09DE090934902809344
:1037700048028DE594E1909347028093460280E9E8
:1037800091E190934502809344028EE897E09093F4
:103790005102809350028FEF96E1909353028093F1
:1037A00052028FEF9FEF90938E0380938D03809151
:1037B000AE04811140C061E08DE00E94EF10C0E0D6
:1037C00062ED70E080E090E00E94561161E08DE0D3
:1037D0000E94C01068E270E080E090E00E94561104
:1037E00060E08DE00E94C010CF5FC23049F76AEF01
:1037F00070E080E090E00E945611C0E062ED70E061
:1038000080E090E00E94561161E08DE00E94C010BF
:1038100068E270E080E090E00E94561160E08DE088
:103820000E94C010CF5FC53049F76DE770E080E0BF
:1038300090E00E94561181E893E0909350048093A9
:103840004F04909312048093110481E194E00E944C
:10385000690F81ED93E00E944117C09107016AE072
:1038600070E080E090E00E945611CC23B1F30E94FA
:10387000FF160E94641AD5E0DD24D39402E010E024
:10388000EE24E394F12C80915802882309F448C077
:10389000C0905402C0FE6CC380E00E949710892B38
:1038A00009F466C3C1E0C1FE06C081E00E94971022
:1038B000892B09F05FC3C2FE06C082E00E94971008
:1038C000892B09F059C3C3FE06C083E00E949710FC
:1038D000892B09F053C3C4FE06C084E00E949710F0
:1038E000892B09F04DC3C5FE06C085E00E949710E4
:1038F000892B09F047C3C6FE06C086E00E949710D8
:10390000892B09F041C3C7FE06C087E00E949710CB
:10391000892B09F03BC340E06C2F80E00E94F81235
:1039200080915902882309F448C0C0905502C0FE16
:103930002FC388E00E949710892B09F429C3C1E0A6
:10394000C1FE06C089E00E949710892B09F022C3AE
:10395000C2FE06C08AE00E949710892B09F01CC3A2
:10396000C3FE06C08BE00E949710892B09F016C396
:10397000C4FE06C08CE00E949710892B09F010C38A
:10398000C5FE06C08DE00E949710892B09F00AC37E
:10399000C6FE06C08EE00E949710892B09F004C372
:1039A000C7FE06C08FE00E949710892B09F0FEC267
:1039B00040E06C2F81E00E94F81280915A02882327
:1039C00009F448C0C0905602C0FEF2C280E10E94D5
:1039D0009710892B09F4ECC2C1E0C1FE06C081E159
:1039E0000E949710892B09F0E5C2C2FE06C082E151
:1039F0000E949710892B09F0DFC2C3FE06C083E145
:103A00000E949710892B09F0D9C2C4FE06C084E138
:103A10000E949710892B09F0D3C2C5FE06C085E12C
:103A20000E949710892B09F0CDC2C6FE06C086E120
:103A30000E949710892B09F0C7C2C7FE06C087E114
:103A40000E949710892B09F0C1C240E06C2F82E0E0
:103A50000E94F81280915B028823C1F1C090570246
:103A6000C0FEB6C288E10E949710892B09F4B0C24B
:103A7000C1E0C1FE06C089E10E949710892B09F0C0
:103A8000A9C2C2FE06C08AE10E949710892B09F0E4
:103A9000A3C2C3FE06C08BE10E949710892B09F0D8
:103AA0009DC2C4FE06C08CE10E949710892B09F0CC
:103AB00097C2C5FE06C08DE10E949710892B09F0C0
:103AC00091C240E06C2F83E00E94F81280914F0475
:103AD00090915004DC01ED91FC910084F185E02D82
:103AE0000995892B09F4CEC180914F04909150041F
:103AF000DC01ED91FC910284F385E02D09959C0198
:103B00008F3FBFEF9B0711F3982F80911C048823F0
:103B100009F492C0973F09F07EC010921C04A09156
:103B20001404B09115046C916137C1F1693709F043
:103B30005CC0E0914904F0914A04309739F28091D9
:103B40001D0490911E048330910538F420E030E08C
:103B500040E050E060E070E01BC0BD016D5F7F4F52
:103B600003970E942B10BC016D5F7F4F80E00E9485
:103B7000FC0FE0911404F09115049F012D5F3F4F5D
:103B8000428150E0618170E0E0914904F0914A0483
:103B900080912B0490912C04099598CF8091450435
:103BA00090914604892B09F491CFBD016F5F7F4F3F
:103BB00080911D0490911E0401970E942B10BC015E
:103BC0006F5F7F4F80E00E94FC0F60911404709142
:103BD00015046F5F7F4FE0914504F091460480919A
:103BE000310490913204099571CFE0914704F0912E
:103BF0004804309709F46ACF9D012F5F3F4F4091F1
:103C00001D0450911E04415051098091330490913C
:103C1000340409955BCF60911D0470911E04822FBE
:103C20000E94FC0F80911D0490911E0401969093B8
:103C30001E0480931D044ACF60911A0470911B04E6
:103C40006115710509F4AFC027FDADC06150710960
:103C500070931B0460931A04822F0E94FC0F8091C2
:103C60001A0490911B04892B09F030CF809118041D
:103C7000882309F42BCF803D09F47FC030F48039CC
:103C800039F1803C09F466C08BC0843FE1F1853F87
:103C900009F44DC0803E09F083C0E0913704F091F3
:103CA0003804309709F47CC0A0911404B091150435
:103CB0008C9111964C9150E090E8899F400D511DD8
:103CC00011246091190480911F049091200467C011
:103CD000E0913904F0913A04309709F461C0A09161
:103CE0001404B09115048C9111964C9150E0A0E809
:103CF0008A9F400D511D1124609119048091210467
:103D0000909122044CC0E0913F04F0914004309720
:103D100009F446C0A0911404B09115044C9150E0F0
:103D200011966C91809127049091280438C0E091FD
:103D30004104F0914204309799F1A0911404B0919C
:103D400015044C9150E011966C918091290490914A
:103D50002A0425C0E0913B04F0913C04309701F126
:103D6000A0911404B09115044C9150E06091190495
:103D7000809123049091240412C0E0913D04F091BD
:103D80003E04309769F0A0911404B09115044C9151
:103D900050E06091190480912504909126040995C2
:103DA0001092180493CE903F30F4822F8F7080933E
:103DB0001904922F907F903F79F158F4903C29F1AB
:103DC00018F49039E9F082CE903DF9F0903EC1F0C0
:103DD0007DCE993F09F449C028F48CE0890F8230E8
:103DE00078F074CE9F3F09F071CE10921B041092B0
:103DF0001A04109218041092190480E090E013C085
:103E000010931B0400931A0404C0F0921B04E09268
:103E10001A04909318045ACED0921C0410921E04D7
:103E200010921D0453CE209116043091170482176E
:103E3000930748F4E0911404F0911504E80FF91F7A
:103E400010820196F0CF10921C0410921E04109262
:103E50001D04E0914D04F0914E04309709F436CEE4
:103E600080913504909136040BC0E0914B04F091A1
:103E70004C04309709F42ACE80912D0490912E04A1
:103E8000099524CE8FB7F894409155065091560667
:103E900060915706709158068FBF8090860290906F
:103EA0008702A0908802B090890220910901309188
:103EB0000A01C901A0E0B0E0481959096A097B0963
:103EC00084179507A607B70708F04FC0880D991DFE
:103ED000AA1DBB1D8093860290938702A09388023F
:103EE000B093890284E5A82E84E0B82ECEEECC30C3
:103EF000B8F4F5018081823099F480918402909128
:103F000085020C2E02C0959587950A94E2F780FFF2
:103F100007C08C2F0E942B11BC018C2F0E94AC0E6D
:103F2000CF5FFFEFAF1ABF0ACC3009F780910801CD
:103F300087FD1BC0C0E02C2F30E080910801082EC7
:103F4000000C990B8217930784F0D29FF001D39F46
:103F5000F00D1124E45AFD4F618172812481438167
:103F600080810E943A13CF5FE6CF0E9491028BCCF2
:103F7000C0E099CCC2609FCCC460A5CCC860ABCC7B
:103F8000C061B1CCC062B7CCC064BDCCC068C3CC8A
:103F9000C0E0D6CCC260DCCCC460E2CCC860E8CC67
:103FA000C061EECCC062F4CCC064FACCC06800CD75
:103FB000C0E013CDC26019CDC4601FCDC86025CD4F
:103FC000C0612BCDC06231CDC06437CDC0683DCD5E
:103FD000C0E04FCDC26055CDC4605BCDC86061CD3F
:103FE000C06167CDC0626DCDDF92EF92FF920F93FB
:103FF0001F93CF93DF93D82EF92EE42E062F10E0D7
:10400000C8010196880F0E942F0183E00E942F01B2
:10401000CD2DDF2D0C0F1D1FC017D10789F0E7FE36
:1040200003C0FE01849101C088810E942F01F82EF7
:1040300080E00E942F018F2121968111EDCF01C0D8
:1040400081E0DF91CF911F910F91FF90EF90DF9072
:1040500008951092E7021092E60288EE93E0A0E045
:10406000B0E08093E8029093E902A093EA02B09353
:10407000EB0220E231E03093E5022093E4022DECE4
:1040800030E03093F1022093F0022CEC30E03093DA
:10409000F3022093F20228EC30E03093F5022093F3
:1040A000F40229EC30E03093F7022093F6022AEC78
:1040B00030E03093F9022093F8022EEC30E0309398
:1040C000FB022093FA021092FD021092FE0210925F
:1040D000FF021092000310928403109283038093D6
:1040E000850390938603A0938703B093880322E30C
:1040F00031E030938203209381032FEF3FEF309321
:104100008E0320938D0321ED33E010921204109260
:104110001104309315042093140440E450E05093AC
:104120001704409316041092180410921904109268
:104130001B0410921A0410921C0410921E04109278
:104140001D041092200410921F0410922204109259
:104150002104109224041092230410922604109239
:104160002504109228041092270410922A04109219
:1041700029041092300410922F04109232041092ED
:1041800031041092340410923304109236041092C9
:1041900035041092440410924304109213041092B8
:1041A000510410925304109252041092AE044EE245
:1041B00056E1509338044093370444E256E150935B
:1041C0003A044093390446E056E150933C0440934E
:1041D0003B044CEF55E150933E0440933D044AE1CB
:1041E00056E15093400440933F0440E156E1509320
:1041F0004204409341044BEF55E1509346044093F1
:10420000450440EF55E1509348044093470444EB84
:1042100057E150934A044093490430932C0420936F
:104220002B0448EF56E150934C0440934B043093D9
:104230002E0420932D0428EE35E130934E04209374
:104240004D041092B2041092B1048093B304909381
:10425000B404A093B504B093B60484E491E09093C1
:10426000B0048093AF04EBEBF4E011821082138270
:104270001282399625E0E330F207B9F780912705DD
:10428000A8E2B5E09FEF48EB5BE08C3078F48C93CC
:10429000282F30E0F901EE0FFF1F2E0F3F1FF9010D
:1042A000ED5FFA4F528341838F5F01C09C93139659
:1042B00025E0AC34B20749F7809327050895052E11
:1042C00097FB1EF400940E94762157FD07D00E94B0
:1042D000912107FC03D04EF40C9476215095409523
:1042E000309521953F4F4F4F5F4F089590958095A2
:1042F000709561957F4F8F4F9F4F08950E94B32116
:10430000A59F900DB49F900DA49F800D911D112429
:104310000895B7FF0C947E210E947E21821B930B8F
:104320000895A1E21A2EAA1BBB1BFD010DC0AA1FF6
:10433000BB1FEE1FFF1FA217B307E407F50720F00E
:10434000A21BB30BE40BF50B661F771F881F991F89
:104350001A9469F760957095809590959B01AC01D2
:10436000BD01CF010895A29FB001B39FC001A39FDB
:10437000700D811D1124911DB29F700D811D11249E
:10438000911D0895991B79E004C0991F961708F0B4
:10439000961B881F7A95C9F780950895EE0FFF1F29
:1043A0000590F491E02D09940F931F93CF93DF9321
:1043B0008230910510F482E090E0E0916006F09187
:1043C000610620E030E0A0E0B0E0309719F14081D4
:1043D00051810281138148175907C8F08417950746
:1043E00069F4109731F012960C93129713961C9360
:1043F00027C0009360061093610622C02115310585
:1044000019F04217530718F49A01BD01EF01DF01BB
:10441000F801DBCF21153105F9F0281B390B2430C9
:10442000310580F48A819B816115710521F0FB01C2
:104430009383828304C09093610680936006FE019B
:10444000329644C0FE01E20FF31F819391932250F4
:104450003109398328833AC020915E0630915F0686
:10446000232B41F4209111013091120130935F060A
:1044700020935E0620910F01309110012115310526
:1044800041F42DB73EB74091130150911401241B04
:10449000350BE0915E06F0915F06E217F307A0F49A
:1044A0002E1B3F0B2817390778F0AC014E5F5F4F8A
:1044B0002417350748F04E0F5F1F50935F06409357
:1044C0005E068193919302C0E0E0F0E0CF01DF91BE
:1044D000CF911F910F910895CF93DF93009709F427
:1044E00081C0FC01329713821282A0916006B091C4
:1044F0006106109781F420813181820F931F2091F2
:104500005E0630915F062817390751F5F0935F0674
:10451000E0935E0667C0ED0120E030E0CE17DF07D4
:1045200040F44A815B819E0141155105F1F0EA0199
:10453000F5CFD383C28340815181840F951FC81763
:10454000D90759F488819981840F951F0296918328
:1045500080838A819B81938382832115310529F48D
:10456000F0936106E09360063DC0E901FB83EA83B6
:1045700049915991C40FD51FEC17FD0761F4808153
:104580009181840F951F0296E90199838883828126
:1045900093819B838A83E0E0F0E012968D919C9159
:1045A0001397009719F0FD01DC01F7CF8D919C91D5
:1045B00011979D012E5F3F4F820F931F20915E0642
:1045C00030915F062817390769F4309729F4109263
:1045D00061061092600602C013821282B0935F06D9
:1045E000A0935E06DF91CF91089581E090E0F8946A
:1045F0000C942B23FB01DC0102C001900D92415071
:104600005040D8F708956817790768F4FB01DC017A
:10461000E40FF51FA40FB51F02C002900E92415087
:104620005040D8F708950C94FA22DC0101C06D9334
:1046300041505040E0F70895FB01DC0141505040EB
:1046400048F001900D920020C9F701C01D92415021
:0A4650005040E0F70895F894FFCF02
:10465A0000E1000000000000FF1300FFFFFFFF0061
:10466A00006206800000C180810000000000000096
:10467A0023029101BB016F02EC01CA01DE010000B5
:10468A0000009B020A039003B102BC02B803940320
:10469A0000000000C5169816F5166C1690167C16C2
:1046AA006D162F55736572732F6367727567613262
:1046BA0030302F446576656C6F706D656E742F6E41
:1046CA006F64652D706978656C2F6669726D7761A4
:1046DA0072652F6275696C642F6E6F64655F7069AD
:1046EA0078656C5F6669726D6174612F6E6F64655F
:1046FA005F706978656C5F6669726D6174612E6955
:10470A006E6F0031302D6269742061646472657362
:10471A0073696E67206E6F7420737570706F727430
:10472A00656400746F6F206D616E792071756572B2
:10473A00696573004932433A20546F6F206D616E88
:10474A007920627974657320726563656976656438
:10475A00004932433A20546F6F20666577206279A8
:10476A00746573207265636569766564004D617866
:10477A0020736572766F732061747461636865640F
:10478A0000556E6B6E6F776E2070696E206D6F6468
:02479A006500B8
:00000001FF
