:100000000C945D000C9485000C9485000C94850084
:100010000C9485000C9485000C9485000C9485004C
:100020000C9485000C9485000C9485000C9485003C
:100030000C9485000C9485000C9485000C9485002C
:100040000C944A050C9485000C9485000C94850052
:100050000C9485000C9485000C9485000C9485000C
:100060000C9494050C9485000000000024002700E7
:100070002A0000000000250028002B0004040404CE
:100080000404040402020202020203030303030342
:10009000010204081020408001020408102001021F
:1000A00004081020000000080002010000030407FB
:1000B0000000000000000000B30611241FBECFEFB7
:1000C000D8E0DEBFCDBF11E0A0E0B1E0EEE3F1E1AA
:1000D00002C005900D92A831B107D9F722E0A8E13E
:1000E000B1E001C01D92A633B207E1F710E0CDE503
:1000F000D0E004C02197FE010E945007CC35D10703
:10010000C9F70E94D5060C949D080C940000089530
:10011000CF93DF93AC01E091DC01F091DD013097EA
:10012000F1F09091DB018091DA019817C0F090E036
:10013000292F30E02617370754F4D901A55CBE4FAC
:10014000240F351FE90128812C939F5FF1CF109276
:10015000DB016093DA01CB01DF91CF910994DF914C
:10016000CF91089590E0FC01EC55FF4F2491FC01E4
:10017000E057FF4F3491FC01E458FF4FE491EE2328
:10018000C9F0222339F0233001F1A8F4213019F10C
:10019000223029F1F0E0EE0FFF1FEE58FF4FA5913E
:1001A000B4918FB7F894EC91611126C030953E233D
:1001B0003C938FBF08952730A9F02830C9F0243030
:1001C00049F7809180008F7D03C0809180008F77F8
:1001D00080938000DFCF84B58F7784BDDBCF84B57B
:1001E0008F7DFBCF8091B0008F778093B000D2CF0E
:1001F0008091B0008F7DF9CF3E2BDACF3FB7F894D6
:100200008091D0019091D101A091D201B091D30100
:1002100026B5A89B05C02F3F19F00196A11DB11D61
:100220003FBFBA2FA92F982F8827BC01CD01620F9D
:10023000711D811D911D42E0660F771F881F991F58
:100240004A95D1F7089520918101260F3327331F56
:1002500021323105ECF42091A501FC0190E080E011
:10026000243069F082E00895A09181012191AC01D0
:100270004F595E4FA40FB52FB11D2C9301968617D1
:1002800098F380918101680F6093810180E0089567
:1002900081E008951092A50181E08093A70110925A
:1002A000A60161E082E10E94B20061E083E10E9468
:1002B000B200E9EBF0E080818E7F808380818D7FCA
:1002C000808388E48093B80085E48093BC0008951F
:1002D0000895E091DB018091DA01E81730F4F0E055
:1002E000E55CFE4F808190E008958FEF9FEF0895C9
:1002F0009091DB018091DA012FEF3FEF981748F4DE
:10030000E92FF0E0E55CFE4F208130E09F5F9093A5
:10031000DB01C90108958091DA019091DB01891B0D
:10032000990B0895CF93DF93CB01EA01642F0E94CC
:100330002301CE01DF91CF910895CF93DF931F92D8
:10034000CDB7DEB7698361E0CE0101960E9423013B
:1003500081E090E00F90DF91CF91089590E080E0F0
:1003600008952091390130913A0182179307F8F4EA
:100370009C01220F331F280F391F80913701909164
:100380003801E0913601820F931FE80FF92FF11D1C
:100390006083E0913501E80FF92FF11D5083209122
:1003A0003401820F911DFC01408380E0089581E0BB
:1003B0000895DC0170E0FB01E057FF4FE4911896CF
:1003C000EC93189764587F4FFB018491E82FF0E07D
:1003D000EE0FFF1FEE58FF4F8591949115969C9359
:1003E0008E931497FB016491E62FF0E0EE0FFF1F50
:1003F000E859FF4F8591949117969C938E93169789
:1004000008950F931F93CF9380933301109232017D
:1004100010923A0110923901E2E2F1E0AAE1B1E072
:10042000119211921D9291E0E233F907C9F78823E6
:1004300061F00AEE11E0C0E06C2FC8010E94D90102
:10044000CF5F075F1F4FC830B9F7CF911F910F9152
:100450000895CF93DF9385ED8093BC0080915D017B
:1004600090915E01A0915F01B09160010796A11D7E
:10047000B11D23E0B695A795979587952A95D1F755
:100480002091BC0024FD03C01092A50136C040910C
:100490005D0150915E0160915F0170916001452B9B
:1004A000462B472B69F30097A105B10541F025E3E1
:1004B0002A95F1F700000197A109B109E1CF8091D8
:1004C0005C0191E090935B018823B9F0C091B80082
:1004D000D091BA008091BC008A7B8093BC0060E020
:1004E00082E10E94B20060E083E10E94B2000E94BB
:1004F0004A01D093BA00C093B800DF91CF9108951C
:100500004F925F926F927F928F929F92AF92BF9223
:10051000CF92DF92EF92FF920F931F93CF93DF93CF
:10052000CDB7DEB760970FB6F894DEBF0FBECDBF74
:100530006C0110E0E12EF12CEC14FD0494F48EED2E
:1005400091E0103158F40E947801E1E0F0E0EC0F06
:10055000FD1FEE0DFF1D80831F5FECCF0E94780111
:10056000FBCF9981892F8F70833009F469C1E8F43A
:10057000813009F4BAC1823009F478C060960FB6B0
:10058000F894DEBF0FBECDBFDF91CF911F910F91C9
:10059000FF90EF90DF90CF90BF90AF909F908F90A3
:1005A0007F906F905F904F900895843009F4D2C08F
:1005B000853021F79A81292F2F7109F417C1F92F5E
:1005C000F0725F2E81E080931801E22EEE0CE20EB5
:1005D000F12C0091390110913A01021B11095801C7
:1005E000AA0CBB1CA00EB11EC0903701D0903801E0
:1005F00036016E0C7F1C292F2074422E96FF2BC2D1
:10060000C7010E9456074C01009729F0A70170E02E
:1006100060E00E949608C801511002C090E080E09E
:10062000BC01660F771F680F791F6C0D7D1DA70138
:10063000C4010E947B08511025C2A501B301C60167
:100640000E948408442009F410C2C801880F991F31
:10065000800F911FA701B4018C0D9D1D0E947B0886
:10066000C4010E94F20710921801C0C080911901C4
:10067000811184CF80911801811180CF81E0809316
:10068000190110E009E080913201181708F05FC0ED
:10069000812F90E0AC01465E5E4FDA012C9122235F
:1006A00009F451C0C0903701D0903801089FD001A3
:1006B000099FB00D1124A651BE4F16962D913C9165
:1006C0001797F901808118969C911897892B808340
:1006D00014966D917C91159718968C9118972D9181
:1006E0003C9111977901EE0CFF1C2E0D3F1D1296C7
:1006F000ED90FC90D701AA0FBB1FAE0DBF1DF601F8
:10070000EA0FFB1FDB01FC90982F90959F21C82ECC
:10071000CF28FFB6F8942E0F3F1F2E173F0789F002
:10072000E190DB0188E0CC9200C0E7FE9C93EE0CE8
:1007300000C000C000C008F49C9300C08A9599F7DF
:10074000ECCFFFBE7894DA011C921F5F9CCF109211
:10075000190114CF80911801811110CFCC80D12CB8
:10076000F12CE12C7EE0CC0CDD1CEE1CFF1C7A95FC
:10077000D1F78D8190E0B0E0A0E0E5E1880F991F0E
:10078000AA1FBB1FEA95D1F78C0D9D1DAE1DBF1D85
:100790002A816C017D01C20ED11CE11CF11C8B81F0
:1007A00090E0B0E0A0E0F7E0880F991FAA1FBB1F00
:1007B000FA95D1F7C80ED91EEA1EFB1EA09039018A
:1007C000B0903A0110E000E0C114D104E104F1045A
:1007D00061F5A501440F551F4A0D5B1D70E060E0F7
:1007E00080913701909138010E9496084091320122
:1007F00050E061E070E08AE191E060960FB6F89415
:10080000DEBF0FBECDBFDF91CF911F910F91FF9043
:10081000EF90DF90CF90BF90AF909F908F907F90A0
:100820006F905F904F900C9496080A151B05F1F29B
:10083000B701A601C8010E94B1010F5F1F4FF5CF9C
:100840008091180181119ACE0B81B0E80B9FC001F5
:1008500011240A81080F192F111D4E8150E070E0FC
:1008600060E0BEE0440F551F661F771FBA95D1F7B1
:100870008F8190E0B0E0A0E025E1880F991FAA1FCA
:10088000BB1F2A95D1F7840F951FA61FB71F2C8178
:10089000AC01BD01420F511D611D711D8D8190E0A4
:1008A000B0E0A0E037E0880F991FAA1FBB1F3A9560
:1008B000D1F7480F591F6A1F7B1FC8010E94B10161
:1008C00040913201A2E2B1E090E080E0841708F0AC
:1008D00055CEFC012D913D91019602171307B0F7FB
:1008E000E65EFE4F81E0808349CE913009F046CE2E
:1008F000E2E0EC1508F042CE809133010E94010243
:100900008BEAC89EF12C1124F694E2E28E2EE1E0EF
:100910009E2EFAEEAF2EF1E0BF2ECE0101966C01B5
:10092000E12C77247394A2E06A2E80913301811127
:1009300007C0D60111966C916F71C5010E94D90153
:10094000F601818190E075E0959587957A95E1F7BC
:100950008130910509F46EC08230910509F46FC0B1
:10096000892B31F410923501709236016092340176
:10097000D60113960C91B0E80B9F80011124F6016B
:100980008281080F111DD5010D931C9390E080E02A
:10099000EE2021F0F4013297808191819801280F97
:1009A000391FF401219331934F01D50113969C9384
:1009B0008E9312978091390190913A01080F191F77
:1009C00010933A0100933901809132018F5F809337
:1009D0003201E394B9E0AB0EB11CE3E0CE0ED11CC2
:1009E000FE10A3CF8091370190913801009731F02C
:1009F0000E94F20710923A01109239010115110577
:100A000009F4BCCD7801EE0CFF1CE00EF11EC7010D
:100A10000E94560790933801809337010097B1F0F8
:100A2000A70170E060E00E94960810933A010093DD
:100A30003901A4CD109236017092350197CF1092F2
:100A40003401709236016092350192CF10923A01D2
:100A50001092390193CDFF2309F4EFCDA501B60122
:100A6000C3010E94840810E000E0C801880F991FAC
:100A7000800F911FA70170E060E08C0D9D1D0E940A
:100A80009608F1CDA501B601C3010E94840810E0CB
:100A900000E0DBCD1F920F920FB60F9211242F931F
:100AA0003F938F939F93AF93BF938091CC0190918D
:100AB000CD01A091CE01B091CF013091CB0123E0C7
:100AC000230F2D3758F50196A11DB11D2093CB01A1
:100AD0008093CC019093CD01A093CE01B093CF0130
:100AE0008091D0019091D101A091D201B091D30118
:100AF0000196A11DB11D8093D0019093D101A093C7
:100B0000D201B093D301BF91AF919F918F913F914B
:100B10002F910F900FBE0F901F90189526E8230F6E
:100B20000296A11DB11DD2CF1F920F920FB60F9248
:100B300011242F933F934F935F936F937F938F93E2
:100B40009F93AF93BF93EF93FF938091B900887FFA
:100B5000803609F44AC0F0F5883209F4A7C018F5C8
:100B6000803109F49BC0B8F4882309F4F9C08830B7
:100B700009F494C0FF91EF91BF91AF919F918F9134
:100B80007F916F915F914F913F912F910F900FBE89
:100B90000F901F901895883109F488C0803251F762
:100BA0008093A40114C0803409F49DC040F48033C4
:100BB000B9F38833F9F68093A40185ECB0C0803591
:100BC00009F485C0883509F496C0883499F60E94E6
:100BD0002902D0CF883909F48CC038F5883729F03C
:100BE00050F4883611F0803729F683E08093A50110
:100BF0001092A30157C0883809F47BC0803919F0DE
:100C0000803809F0B7CF8091A301803208F071C01D
:100C1000E091A30181E08E0F8093A3018091BB003E
:100C2000F0E0ED57FE4F80833DC0803B39F0E0F4AB
:100C3000803A09F479C0883A09F09CCF84E0809327
:100C4000A5011092820110928101E091D601F091EC
:100C5000D70109958091810181110FC081E08093B6
:100C600081011092610109C0803C09F4A6CF883C43
:100C700009F4A3CF883B09F07DCFE091820181E0A8
:100C80008E0F80938201F0E0EF59FE4F80818093B8
:100C9000BB00909182018091810129C08091CA019D
:100CA0008093BB0085EC8093BC0064CF9091C90118
:100CB0008091C801981758F5E091C90181E08E0F25
:100CC0008093C901F0E0E855FE4F8081E9CFE091C3
:100CD000C90181E08E0F8093C9018091BB00F0E0D3
:100CE000E855FE4F80839091C9018091C801981703
:100CF000C8F285E8D8CFE091C90181E08E0F8093DA
:100D0000C9018091BB00F0E0E855FE4F80838091DF
:100D1000A70181115CCF81E08093A60184EA8093D2
:100D2000BC001092A50126CF85EC8093BC001092E8
:100D3000A5018091A301803230F4E091A301F0E09D
:100D4000ED57FE4F10826091A30170E0E091D40155
:100D5000F091D50183E891E009951092A3010ACFA3
:100D60001092A40134CF1092E1011092E00188EEBC
:100D700093E0A0E0B0E08093E2019093E301A093C0
:100D8000E401B093E5018AE091E09093DF01809364
:100D9000DE01EAEEF1E011821082138212823996AE
:100DA00082E0E233F807B9F70895789484B5826059
:100DB00084BD84B5816084BD85B5826085BD85B5FF
:100DC000816085BD80916E00816080936E0010927D
:100DD00081008091810082608093810080918100F8
:100DE0008160809381008091800081608093800089
:100DF0008091B10084608093B1008091B0008160E7
:100E00008093B00080917A00846080937A00809112
:100E10007A00826080937A0080917A00816080936A
:100E20007A0080917A00806880937A001092C100E5
:100E30001092DB011092DA011092D9011092D801C0
:100E40000E944A0187E890E09093D7018093D601F1
:100E500088E890E09093D5018093D40184E8809352
:100E6000BA0080E892E09093DD018093DC0181E09C
:100E70000E940102C0E0D0E00E94FE006B017C01F4
:100E80000E94FE006C197D098E099F09683E73401F
:100E900081059105A8F3209779F30E940000ECCF1B
:100EA000EE0FFF1F0590F491E02D09940F931F930F
:100EB000CF93DF938230910510F482E090E0E091CF
:100EC0003402F091350230E020E0B0E0A0E030974D
:100ED00099F42115310509F44AC0281B390B243037
:100EE0003105D8F58A819B816115710589F1FB0176
:100EF00093838283FE0111C040815181028113815D
:100F000048175907E0F04817590799F4109761F00E
:100F100012960C93129713961C933296CF01DF9181
:100F2000CF911F910F9108950093340210933502D1
:100F3000F4CF2115310551F04217530738F0A901BC
:100F4000DB019A01BD01DF01F801C1CFEF01F9CF4B
:100F50009093350280933402CDCFFE01E20FF31F50
:100F6000819391932250310939832883D7CF2091DF
:100F7000320230913302232B41F42091020130914F
:100F8000030130933302209332022091000130910B
:100F900001012115310541F42DB73EB740910401FF
:100FA00050910501241B350BE0913202F091330280
:100FB000E217F307A0F42E1B3F0B2817390778F030
:100FC000AC014E5F5F4F2417350748F04E0F5F1F8F
:100FD0005093330240933202819391939FCFF0E07C
:100FE000E0E09CCFCF93DF930097E9F0FC013297CC
:100FF00013821282A0913402B0913502ED0130E0EB
:1010000020E01097A1F420813181820F931F20915D
:101010003202309133022817390709F061C0F0938A
:101020003302E0933202DF91CF910895EA01CE17A7
:10103000DF07E8F54A815B819E0141155105B1F753
:10104000E901FB83EA8349915991C40FD51FEC173D
:10105000FD0761F4808191810296840F951FE9015B
:1010600099838883828193819B838A83F0E0E0E087
:1010700012968D919C9113970097B9F52D913C9103
:101080001197CD010296820F931F20913202309169
:1010900033022817390739F6309751F51092350287
:1010A00010923402B0933302A0933202BCCFD383A8
:1010B000C28340815181840F951FC817D90761F4FD
:1010C0004E5F5F4F88819981480F591F518340833C
:1010D0008A819B81938382832115310509F0B0CFEA
:1010E000F0933502E09334029ECFFD01DC01C0CFC6
:1010F00013821282D7CFFB01DC0102C001900D9256
:1011000041505040D8F708956817790768F4FB01FB
:10111000DC01E40FF51FA40FB51F02C002900E9270
:1011200041505040D8F708950C947B08DC0101C071
:0E1130006D9341505040E0F70895F894FFCFC2
:10113E00000036028000000000009D019201AE0109
:08114E0068018B0178016901C1
:00000001FF
