:100000000C94DC000C9404010C9404010C94040185
:100010000C9404010C9404010C9404010C9404014C
:100020000C9404010C9404010C946D090C94DF09E8
:100030000C9404010C9404010C9404010C9404012C
:100040000C9404010C9404010C9404010C9404011C
:100050000C9404010C9404010C9404010C94CF053D
:100060000C9404010C9404010C9404010C940401FC
:100070000C9404010C9404010C9404010C940401EC
:100080000C9404010C9404010C9404010C940401DC
:100090000C9419060C9404010C9404010C940401B2
:1000A0000C9404010C9404010C9404019E08A10812
:1000B000900894089808C208C208C208A508A908B0
:1000C000AD08B308B708C208BD080000000024004E
:1000D00027002A002D003000080B00020202010058
:1000E000090400000102020000052400100105249B
:1000F000010101042402060524060001070581030D
:1001000010004009040100020A0000000705020275
:1001100040000007058302400000040309041201A7
:100120000002EF0201404123378000010102030178
:1001300041726475696E6F204C4C43004172647566
:10014000696E6F204D6963726F000000000025002A
:1001500028002B002E0031000404040404030405CD
:100160000202020204030202020206060606060654
:10017000040402020204040408020110408040103A
:1001800020408040800802040180402010020110BD
:100190008010204040200000000200090F000003F2
:1001A0000401000C0000000000000000000000003E
:1001B0000000000000002C0D11241FBECFEFDAE07C
:1001C000DEBFCDBF11E0A0E0B1E0E0EAFDE102C09A
:1001D00005900D92AE33B107D9F722E0AEE3B1E05E
:1001E00001C01D92AD3BB207E1F710E0CCEDD0E0CD
:1001F00004C02197FE010E94660DCB3DD107C9F7CF
:100200000E941D0C0C94CE0E0C9400000895CF9308
:10021000DF93AC01E091F401F091F5013097F1F03A
:100220009091F3018091F2019817C0F090E0292F8E
:1002300030E02617370754F4D901AE59BE4FEA0112
:10024000C20FD31F28812C939F5FF1CF1092F3012F
:100250006093F201CB01DF91CF910994DF91CF91AF
:100260000895CF92DF92EF92FF920F931F93CF9357
:10027000DF936C017A018B01C0E0D0E0CE15DF0581
:1002800081F0D8016D918D01D601ED91FC91019025
:10029000F081E02DC6010995892B11F02196EECF52
:1002A0007E01C701DF91CF911F910F91FF90EF90D9
:1002B000DF90CF90089585ED8093BC008091BC00C5
:1002C00084FDFCCF1092EF0108954091A201262FEA
:1002D00030E0240F311D21323105DCF42091EF0193
:1002E0002430C9F4FC0180E090E0861758F4309186
:1002F000A2012191DC01AE57BE4FA30FB11D2C937B
:100300000196F3CF8091A201680F6093A20180E073
:10031000089581E0089582E008950895E091F30141
:100320008091F201E81730F4F0E0EE59FE4F808141
:1003300090E008958FEF9FEF08959091F3018091E1
:10034000F201981750F4E92FF0E0EE59FE4F2081AA
:1003500030E09F5F9093F30102C02FEF3FEFC901A0
:1003600008958091F20190E02091F301821B9109A0
:100370000895CF93DF93CB01EA01642F0E946501BA
:10038000CE01DF91CF910895CF93DF931F92CDB728
:10039000DEB7698361E0CE0101960E94650181E0CC
:1003A00090E00F90DF91CF910895089580E090E064
:1003B000089520916001309161018217930720F523
:1003C000880F991F880F991FE0915E01F0915F01DE
:1003D00020915D018E0F9F1FFC01E20FF11D7083C4
:1003E00020915C01FC01E20FF11D608320915B0113
:1003F000FC01E20FF11D508320915A01FC01E20F34
:10040000F11D408380E0089581E00895DC0170E0F3
:10041000FB01E958FE4FE4911896EC931897685A3F
:100420007E4FFB018491E82FF0E0EE0FFF1FE65BAB
:10043000FE4F8591949115969C938E931497FB0192
:100440006491E62FF0E0EE0FFF1FE653FF4F85911A
:10045000949117969C938E93169708950F931F93DC
:10046000CF9380935901109258011092610110921C
:100470006001E8E4F1E0A0E4B1E0119211921D9274
:1004800091E0E835F907C9F7882361F003E112E04C
:10049000C0E06C2FC8010E940602CF5F075F1F4FAC
:1004A000C830B9F7CF911F910F9108950E94A70E00
:1004B0005F926F927F928F929F92AF92BF92CF92F4
:1004C000DF92EF92FF920F931F93CF93DF93CDB7FD
:1004D000DEB760970FB6F894DEBF0FBECDBF5C01EC
:1004E00010E0E12EF12CEA14FB0494F487E092E092
:1004F000103150F40E949D01E1E0F0E0EC0FFD1F8F
:10050000EE0DFF1D808302C00E949D011F5FE9CF99
:100510009981892F8F70833009F4EEC030F48130D7
:1005200009F43CC1823041F0C4C2843009F475C082
:10053000853009F4F6C1BDC280913F018111B9C275
:1005400080913E018111B5C281E080933F0190E02E
:1005500009E080915801981708F05CC0292F30E01D
:10056000A901405C5E4FDA018C91882309F44EC0EA
:10057000E0905E01F0905F01029FD001039FB00DFB
:100580001124AD5EBD4F1696ED91FC911797208119
:1005900018968C911897822B808314966D917C917C
:1005A00015971896DC9018972D913C911197220F72
:1005B000331F220F331F1296ED91FC911397EE0F0C
:1005C000FF1FEE0FFF1FEE0DFF1DDB018C911D2D98
:1005D00010951823C82ECD28FFB6F8942E0F3F1F74
:1005E000E217F30789F0E190DB0188E0CC9200C0CC
:1005F000E7FE1C93EE0C00C000C000C008F41C9382
:1006000000C08A9599F7ECCFFFBE7894DA011C926E
:100610009F5F9FCF10923F014CC280913E0181119C
:1006200048C28D8190E0A0E0B0E0AC01BD01E5E101
:10063000440F551F661F771FEA95D1F79E81892FBA
:1006400090E0A0E0B0E0FCE1880F991FAA1FBB1F5B
:10065000FA95D1F7840F951FA61FB71F2A81820F25
:10066000911DA11DB11DCC80D12CE12CF12C1EE0DF
:10067000CC0CDD1CEE1CFF1C1A95D1F78C0D9D1DBA
:10068000AE1DBF1D4B8150E060E070E007E0440FFD
:10069000551F661F771F0A95D1F76C017D01C40EA7
:1006A000D51EE61EF71EC114D104E104F10419F0B1
:1006B00000E010E011C04091600150916101440FD1
:1006C000551F440F551F60E070E080915E019091CE
:1006D0005F010E94C70EB9C18091600190916101D4
:1006E0000817190708F0B1C1B701A601C8010E9497
:1006F000D9010F5F1F4FF0CF80913E018111D9C109
:100700008B810A8110E0B0E88B9F000D111D112430
:10071000AF81B0E020E030E040E250E10E946C0D9B
:100720002C816B017C01C20ED11CE11CF11C8E815D
:10073000482F50E060E070E09EE0440F551F661FB8
:10074000771F9A95D1F74C0D5D1D6E1D7F1D8D8114
:1007500090E0A0E0B0E027E0880F991FAA1FBB1F20
:100760002A95D1F7480F591F6A1F7B1FC8010E94A5
:10077000D90140915801A8E4B1E080E090E08417ED
:1007800008F097C1FC012D913D91019602171307C6
:10079000B0F7E05CFE4F81E080838BC1913009F0BF
:1007A00088C1E2E0EA1508F084C1809159010E94F5
:1007B0002E028BEAA89EF12C1124F694B8E48B2E1D
:1007C000B1E09B2E13E1A12E12E0B12ECE010196D5
:1007D0006C01E12C7724739402E0602E83E0582EA4
:1007E00080915901811107C0D60111966C916F71EA
:1007F000C5010E940602F601218130E0A5E0359591
:100800002795AA95E1F721303105B9F03CF4232B67
:1008100009F510925C0170925D0113C02230310520
:1008200099F023303105B1F410925D0170925C01B2
:1008300060925B0150925A010DC010925D0170925E
:100840005C0160925B0106C010925B0170925D01D9
:1008500060925C01D60113968C91139712960C91BD
:1008600010E0B0E88B9F000D111D1124F5011183DC
:100870000083EE2029F0F40132978081918102C03B
:1008800080E090E09801280F391FD4012D933D930B
:100890004D01F50193838283809160019091610104
:1008A000080F191F10936101009360018091580196
:1008B0008F5F80935801E394F9E0AF0EB11C23E001
:1008C000C20ED11CFE108CCF80915E0190915F0111
:1008D000009731F00E941E0E10926101109260018B
:1008E0000115110509F4E5C07801EE0CFF1CEE0CB2
:1008F000FF1CC7010E94860D90935F0180935E01EB
:10090000009751F0A70160E070E00E94C70E1093BD
:10091000610100936001CDC01092610110926001ED
:10092000C8C08A81982F9F7109F48FC0A82FA07228
:10093000AA2E092F000F000F21E020933E0110E0A6
:10094000E92EF12CB82FB074BB2E86FF27C0C8014A
:100950000E94860D6C01009729F0A80160E070E00C
:100960000E94C70EAA2039F0609160017091610168
:100970006E197F0902C060E070E0660F771F660F96
:10098000771F80915E0190915F01680F791FA80128
:10099000C6010E94AC0EA11076C018C0AA23B1F007
:1009A00080915E0190915F014091600150916101E1
:1009B0004E195F09440F551F440F551FBC01800F8E
:1009C000911F0E94B50E80E090E02EC080906001E3
:1009D000909061018E189F0880915E0190915F0157
:1009E000A401440F551F440F551FBC01600F711F18
:1009F0000E94B50EBB2091F0880C991C880C991CA4
:100A000080915E0190915F01A801B601880D991D4A
:100A10000E94AC0EC6010E941E0E15C0809160019E
:100A2000909161018E199F09880F991F880F991F56
:100A300020915E0130915F01A80160E070E0820FBB
:100A4000931F0E94C70E10923E014091580150E042
:100A500061E070E080E491E060960FB6F894DEBF4C
:100A60000FBECDBFDF91CF911F910F91FF90EF90FF
:100A7000DF90CF90BF90AF909F908F907F906F90BE
:100A80005F900C94C70E80915E0190915F01409140
:100A90006001509161014E195F09440F551F440FC9
:100AA000551FBC01800F911F0E94B50E812C912C07
:100AB000A3CF60960FB6F894DEBF0FBECDBFDF9117
:100AC000CF911F910F91FF90EF90DF90CF90BF904B
:100AD000AF909F908F907F906F905F90089540911E
:100AE0000102509102022091FF0130910002421751
:100AF0005307B4F49091E8009570E1F39091E80009
:100B000092FD19C08093F100809101029091020240
:100B100001968F739927892B19F48EEF8093E80043
:100B200080910102909102020196909302028093BB
:100B3000010281E0089580E00895615030F0209135
:100B4000F100FC0120830196F8CF289A84E6809377
:100B5000050208953FB7F8948091FB019091FC0144
:100B6000A091FD01B091FE0126B5A89B05C02F3FC5
:100B700019F00196A11DB11D3FBFBA2FA92F982FC3
:100B80008827820F911DA11DB11DBC01CD0142E03E
:100B9000660F771F881F991F4A95D1F708951F92F6
:100BA0000F920FB60F9211242F933F938F939F9321
:100BB000AF93BF938091F7019091F801A091F90153
:100BC000B091FA013091F60123E0230F2D3720F484
:100BD0000196A11DB11D05C026E8230F0296A11D97
:100BE000B11D2093F6018093F7019093F801A09333
:100BF000F901B093FA018091FB019091FC01A09161
:100C0000FD01B091FE010196A11DB11D8093FB0174
:100C10009093FC01A093FD01B093FE01BF91AF91B1
:100C20009F918F913F912F910F900FBE0F901F902A
:100C300018951F920F920FB60F9211242F933F9386
:100C40004F935F936F937F938F939F93AF93BF93D4
:100C5000EF93FF938091B900887F803609F49CC0A0
:100C600068F5883209F45BC090F4803109F454C00F
:100C700038F4882309F4F6C0883009F44DC0F6C072
:100C8000883109F44CC0803209F45DC0EFC0803473
:100C900009F468C048F4803309F455C0883309F07A
:100CA000E5C08093C501D8C0803509F44FC08835B0
:100CB00009F45DC0883409F0D9C0D6C0883909F478
:100CC000C7C0A8F4883709F467C038F4883609F437
:100CD00063C0803709F460C0C9C0883809F4B8C05F
:100CE000803909F45FC0803809F0C0C05BC0803B28
:100CF00009F486C038F4803A09F466C0883A09F4E9
:100D00007FC0B4C0803C09F4A7C0883C09F4A4C0EB
:100D1000883B09F48AC0AAC08091E80110C0909174
:100D2000E7018091E601981770F5E091E70181E015
:100D30008E0F8093E701F0E0EA53FE4F80818093AD
:100D4000BB0085EC86C08093C5018EC0E091E701B1
:100D500081E08E0F8093E7018091BB00F0E0EA53C1
:100D6000FE4F80839091E7018091E6016EC0E09193
:100D7000E70181E08E0F8093E7018091BB00F0E0F6
:100D8000EA53FE4F80838091EE0181116DC081E0B6
:100D90008093ED0184EA61C083E08093EF011092BB
:100DA000C401CFCF8091C401803208F051C0E091DE
:100DB000C40181E08E0F8093C4018091BB00F0E0FC
:100DC000EC55FE4F8083BDCF85EC8093BC00109224
:100DD000EF018091C401803230F4E091C401F0E071
:100DE000EC55FE4F10826091C40170E0E091E90182
:100DF000F091EA0184EA91E009951092C40136C0AD
:100E000084E08093EF011092A3011092A201E0917F
:100E1000EB01F091EC0109958091A201811105C0CF
:100E200081E08093A20110928201E091A30181E010
:100E30008E0F8093A301F0E0EE57FE4F80818093E8
:100E4000BB009091A3018091A201981708F479CF7B
:100E500085E88093BC000AC085EC8093BC001092AA
:100E6000EF0104C01092C5010E945B01FF91EF9158
:100E7000BF91AF919F918F917F916F915F914F91B2
:100E80003F912F910F900FBE0F901F9018952091BA
:100E90000602211103C08FEF9FEF08955FB7F8940A
:100EA00022E02093E9002091F20030E012161306B0
:100EB00014F421E030E0422FFC0184E6415038F088
:100EC000289A809305029091F1009193F7CF211514
:100ED000310521F08091F200882319F05FBFC9012C
:100EE00008958BE68093E800F9CF2FB7F89483E05C
:100EF0008093E9009091E800892F807295FF04C0EB
:100F00009091F20080E4891B2FBF089580916102C7
:100F100081110DC082E080935D0284E080935E02C7
:100F20001092600210925F0281E0809361028DE571
:100F300092E00895CF93DF931F92CDB7DEB7698318
:100F4000DC01ED91FC910280F381E02D41E050E065
:100F5000BE016F5F7F4F09950F90DF91CF9108958C
:100F600083E08093E9008091F200882319F08AE3FE
:100F70008093E80008950E94750790E00895CF934C
:100F8000DF931F92CDB7DEB7FC018485958597FD71
:100F900005C02FEF3FEF358724870BC0CE010196A8
:100FA0000E944707019719F4898190E002C08FEFF2
:100FB0009FEF0F90DF91CF9108950F931F93CF93E1
:100FC000DF931F92CDB7DEB78C01FC018485958538
:100FD00097FF0EC0CE0101960E944707019719F4B2
:100FE000898190E002C08FEF9FEFF8019587848799
:100FF000F801848595850F90DF91CF911F910F9116
:101000000895FC018485958597FD0BC09FB7F894E2
:1010100082E08093E9008091F2009FBF90E001960A
:1010200008959FB7F89482E08093E9008091F200E0
:101030009FBF90E00895DF92EF92FF920F931F936E
:10104000CF93DF93D82E8A017B01E40EF51EEB01CE
:10105000CE15DF0571F0D7FE03C0FE01849101C0FB
:1010600088810E946F0521968111F2CF8FEF9FEF4B
:1010700001C0C801DF91CF911F910F91FF90EF90B8
:10108000DF9008950F931F93CF93DF931F92CDB7F7
:10109000DEB782E0898342E450E068ED70E080E8EA
:1010A0000E941B080E948607DC0112960D911C917C
:1010B00013970115110589F0D801ED91FC9102807B
:1010C000F381E02DBE016F5F7F4FC801099597FD49
:1010D00004C0F80100851185ECCF89810F90DF9164
:1010E000CF911F910F91089590E0FC01EA56FE4FB9
:1010F0004491FC01E958FE4F2491FC01E85AFE4F4F
:101100008491882309F44CC04423E1F150E0FA01B2
:101110003197EF30F105B0F5EA5AFF4F0C94660DA8
:10112000909180009F7707C0909180009F7D03C0C1
:1011300090918000977F9093800024C094B59F7712
:1011400002C094B59F7D94BD1DC0909190009F7783
:1011500007C0909190009F7D03C090919000977F71
:10116000909390000FC09091C0009F7703C0909122
:10117000C0009F7D9093C00005C09091C200977FF2
:101180009093C200E82FF0E0EE0FFF1FE65BFE4FEA
:10119000A591B4918FB7F894EC91E22BEC938FBFAB
:1011A0000895CF92DF92EF92FF920E94AA056B0101
:1011B0007C010E94AA05DC01CB018C199D09AE09B6
:1011C000BF09883E9340A105B10598F3FF90EF90C9
:1011D000DF90CF9008958F929F92AF92BF92CF925F
:1011E000DF92EF92FF920F931F93CF93DF936C01E7
:1011F0007B018A0180910B01882309F458C08091FA
:101200000602882309F453C08091040280FF05C0C0
:101210008091E00082608093E000E801B12C8AEFC9
:10122000A82E93E0892E2AE3922E209711F4BB205A
:10123000B9F10E947507811106C0AA94AA20B9F1DC
:101240000E94D108F2CF282F30E0C217D3070CF448
:101250008C2F9FB7F8948092E9002091E80025FF39
:101260001DC0282F30E0C21BD30BF701815020F0A6
:1012700041914093F100FACFE20EF31EBB2019F02A
:101280009092E8000AC08091E80085FD07C0909226
:10129000E800BB24B394209709F0B12C9FBFC5CFC1
:1012A0005D9A84E680935C021016110644F081E09A
:1012B00090E0F6019383828380E090E001C0C80152
:1012C000DF91CF911F910F91FF90EF90DF90CF9022
:1012D000BF90AF909F908F9008951F920F920FB67E
:1012E0000F9211248F939F938091E1009091E100E0
:1012F000937F9093E10083FF0FC01092E90091E08B
:101300009093EB001092EC0092E39093ED0010921A
:10131000060298E09093F00082FF20C093E0909343
:10132000E9009091F200992319F09AE39093E80074
:1013300090915C02992339F090915C0291509093C6
:101340005C02992389F190910502992339F09091DB
:101350000502915090930502992341F184FF10C03A
:101360008091E2008E7E81608093E2008091E100B6
:101370008F7E8093E100809104028E7E806111C097
:1013800080FF16C08091E2008E7E80618093E20033
:101390008091E1008E7E8093E100809104028E7E38
:1013A00081608093040204C05D98CDCF2898D6CF89
:1013B0009F918F910F900FBE0F901F9018951F92C5
:1013C0000F920FB60F921124CF92DF92EF92FF92FD
:1013D0000F931F932F933F934F935F936F937F933D
:1013E0008F939F93AF93BF93EF93FF93CF93DF932D
:1013F000CDB7DEB76C97DEBFCDBF1092E90080910C
:10140000E80083FFFBC168E0CE0145960E949D0580
:1014100082EF8093E8008D8987FF05C09091E800F6
:1014200090FFFCCF03C09EEF9093E800982F90763A
:1014300009F0C6C09E894F89588D2F89F88C91116B
:101440000CC0803829F4809103028093F10002C01F
:101450001092F1001092F10045C1913051F48111C8
:1014600041C14130510509F03DC1809103028D7F9A
:101470000BC0933061F4811135C14130510509F041
:1014800031C1809103028260809303022BC19530A9
:1014900049F48091E80080FFFCCF822F8068809320
:1014A000E30020C1963009F05EC00B8D1C8D22E058
:1014B0001092E9001092020210920102F21232C060
:1014C000109200021092FF010E94420899E0BE01B2
:1014D0006F5F7F4FDB01E92F1D92EA95E9F7998352
:1014E000FA8291E09E8390EA98879AEF99872091FB
:1014F000010230910202275F3F4F3C832B838D8393
:101500001092E90010920202109201021093000260
:101510000093FF0149E050E080E00E941B080E9418
:101520004208E0C0109300020093FF010E9486076A
:10153000DC0112960D911C9113970115110509F408
:10154000BBC0D801ED91FC910480F581E02DBE0176
:101550006B5E7F4FC8010995009709F0C7C0F8017D
:1015600000851185EACF973009F445C1983021F400
:1015700081E08093F100B6C0993009F0B3C0837068
:1015800009F039C1E3E1F1E081E031E096E3208147
:10159000211109C08EE78093EA001092EA008F893A
:1015A000809306029FC08093E9003093EB00219165
:1015B0002093EC009093ED008F5F873041F7EACFE6
:1015C0008B8D9C8D1092E900109202021092010204
:1015D000909300028093FF01898D811153C08E8901
:1015E0009D89913A49F4813209F005C147E050E004
:1015F00064E071E080E0BBC0913209F0FCC083324E
:1016000069F48F89988DA0E0B0E0809300019093F9
:101610000101A0930201B093030164C0803269F418
:101620008091E80082FFFCCF67E084E091E00E94B7
:101630009D058BEF8093E80055C0823209F052C0BF
:101640008F8980930B01EEEFFFE7859194918B3F9B
:101650009C4D19F0E0E0F8E002C0EEEFFAE0809176
:10166000040190910501A0910601B0910701803B12
:101670009440A105B10509F09EC080910B0180FF47
:1016800079C099C00E948607FC010281138101156F
:10169000110509F4B0C0D801ED91FC910190F081E1
:1016A000E02DBE016B5E7F4FC801099581111AC004
:1016B000F80100851185EBCFF1E0FF1609F44EC06B
:1016C000F3E0FF1298C08F89882309F44AC0823062
:1016D00089F440E86DE08CE391E00E94F70C8823E8
:1016E00009F489C08EEF8093E80088C018161906A7
:1016F000CCF381C0813029F440E86BE080E391E0D5
:10170000ECCF833009F077C00E948607DC01129687
:10171000ED90FC9013978E010F5F1F4F6801E1144D
:10172000F10479F0D701ED91FC910680F781E02D6D
:10173000B801C7010995080F111DF701E084F18474
:10174000EECFD8011C92F60101900020E9F7319705
:10175000BF016C197D0940E0C601BFCF6EE171E0A9
:1017600002C06AE171E0FB01449150E080E80E9410
:101770001B08B8CFEE3F2AE0F20751F0808191813B
:101780008737A7E79A0721F09093FF0A8093FE0A14
:1017900087E797E7918380838091600080935B0265
:1017A0009BE088E10FB6F894A895809360000FBE87
:1017B0009093600097CF808191818737974709F098
:1017C00091CFA8958091600088618093600080919E
:1017D0005B0280936000EE3FBAE0FB0739F0809136
:1017E000FE0A9091FF0A918380837CCF1092FF0ABA
:1017F0001092FE0A77CF81E28093EB006C960FB6D1
:10180000F894DEBF0FBECDBFDF91CF91FF91EF9176
:10181000BF91AF919F918F917F916F915F914F9108
:101820003F912F911F910F91FF90EF90DF90CF90FC
:101830000F900FBE0F901F901895789484B582601A
:1018400084BD84B5816084BD85B5826085BD85B564
:10185000816085BD80916E00816080936E001092E2
:10186000810080918100826080938100809181005D
:1018700081608093810080918000816080938000EE
:1018800080919100826080939100809191008160AD
:10189000809391008091900081608093900080916E
:1018A000C10084608093C1008091C10082608093F8
:1018B000C1008091C10081608093C1008091C3000C
:1018C00081608093C3008091C00082608093C000DB
:1018D0008091C20081608093C20080917A00846010
:1018E00080937A0080917A00826080937A00809160
:1018F0007A00816080937A0080917A00806880937A
:101900007A00109206021092030210920402809153
:10191000D70081608093D70080EA8093D80089B592
:10192000806189BD89B5826089BD09B400FEFDCFA3
:101930000E94D1088091D8008F7C80618093D8006C
:101940008091E000807F8093E0008091E1008E7EB6
:101950008093E1008DE08093E200559A209A5D9893
:1019600028981092F3011092F2011092F101109256
:10197000F0011092EF0181E08093EE011092ED01F1
:1019800082E00E94740883E00E9474088091B9008C
:101990008E7F8093B9008091B9008D7F8093B900CC
:1019A00088E48093B80085E48093BC0086E091E0F1
:1019B0009093EC018093EB0187E091E09093EA0132
:1019C0008093E90184E88093BA0088E592E09093DF
:1019D000F5018093F40181E00E942E02C0E0D0E086
:1019E0000E94D1082097E1F30E940000F9CFDF9216
:1019F000EF92FF920F931F93CF93DF93D82EF92E80
:101A0000E42E062F10E0C8010196880F0E946F0592
:101A100083E00E946F05CD2DDF2D0C0F1D1FC01719
:101A2000D10789F0E7FE03C0FE01849101C08881DF
:101A30000E946F05F82E80E00E946F058F2121968D
:101A40008111EDCF01C081E0DF91CF911F910F9106
:101A5000FF90EF90DF90089510926C0210926B024D
:101A600088EE93E0A0E0B0E080936D0290936E0268
:101A7000A0936F02B09370022DE131E030936A02BF
:101A8000209369022FEF3FEF309376022093750287
:101A900010920A021092090280930B0290930C029A
:101AA000A0930D02B0930E028FE291E09093080292
:101AB00080930702E3E1F2E0118210821382128226
:101AC000399682E0EB35F807B9F70895EE0FFF1F5E
:101AD0000590F491E02D09940E94770DA59F900D3B
:101AE000B49F900DA49F800D911D11240895A29F75
:101AF000B001B39FC001A39F700D811D1124911DE2
:101B0000B29F700D811D1124911D08950F931F9395
:101B1000CF93DF938230910510F482E090E0E09162
:101B2000BB02F091BC0220E030E0A0E0B0E03097D2
:101B300019F1408151810281138148175907C8F07A
:101B40008417950769F4109731F012960C93129749
:101B500013961C9327C00093BB021093BC0222C0B3
:101B60002115310519F04217530718F49A01BD01E8
:101B7000EF01DF01F801DBCF21153105F9F0281B5A
:101B8000390B2430310580F48A819B816115710500
:101B900021F0FB019383828304C09093BC02809365
:101BA000BB02FE01329644C0FE01E20FF31F819397
:101BB000919322503109398328833AC02091B90288
:101BC0003091BA02232B41F420910E0130910F0184
:101BD0003093BA022093B90220910C0130910D018B
:101BE0002115310541F42DB73EB7409110015091B8
:101BF0001101241B350BE091B902F091BA02E217F2
:101C0000F307A0F42E1B3F0B2817390778F0AC011F
:101C10004E5F5F4F2417350748F04E0F5F1F5093FC
:101C2000BA024093B9028193919302C0E0E0F0E0E0
:101C3000CF01DF91CF911F910F910895CF93DF9343
:101C4000009709F481C0FC01329713821282A0919F
:101C5000BB02B091BC02109781F420813181820FC8
:101C6000931F2091B9023091BA022817390751F514
:101C7000F093BA02E093B90267C0ED0120E030E0D2
:101C8000CE17DF0740F44A815B819E014115510563
:101C9000F1F0EA01F5CFD383C28340815181840FF3
:101CA000951FC817D90759F488819981840F951F0A
:101CB0000296918380838A819B81938382832115FD
:101CC000310529F4F093BC02E093BB023DC0E90169
:101CD000FB83EA8349915991C40FD51FEC17FD0787
:101CE00061F480819181840F951F0296E9019983A7
:101CF0008883828193819B838A83E0E0F0E012965F
:101D00008D919C911397009719F0FD01DC01F7CF9D
:101D10008D919C9111979D012E5F3F4F820F931FD4
:101D20002091B9023091BA022817390769F4309727
:101D300029F41092BC021092BB0202C013821282DC
:101D4000B093BA02A093B902DF91CF91089581E0D8
:101D500090E0F8940C94CE0EFB01DC0102C00190DF
:101D60000D9241505040D8F708956817790768F4EC
:101D7000FB01DC01E40FF51FA40FB51F02C00290A8
:101D80000E9241505040D8F708950C94AC0EDC01EF
:101D900001C06D9341505040E0F70895F894FFCF93
:101DA000FFFFFFFF00E10000000000000000BD0297
:101DB000800000C18081000000000000009A07EB55
:101DC00008BB07B0070108BF07DD0700000000C41B
:0E1DD00001B901D6018D01B1019D018E010006
:00000001FF
