:100000000C94E6000C940E010C940E010C940E015D
:100010000C940E010C940E010C940E010C940E0124
:100020000C940E010C940E010C94CF0B0C943C0616
:100030000C940E010C940E010C940E010C940E0104
:100040000C940E010C940E010C940E010C940E01F4
:100050000C940E010C940E010C940E010C949E084D
:100060000C940E010C940E010C940E010C940E01D4
:100070000C940E010C940E010C940E010C940E01C4
:100080000C940E010C940E010C940E010C940E01B4
:100090000C94E8080C940E010C940E010C940E01C3
:1000A0000C940E010C940E010C940E01E70AEA0A5E
:1000B000D90ADD0AE10A0B0B0B0B0B0BEE0AF20A55
:1000C000F60AFC0A000B0B0B060B000000002400D4
:1000D00027002A002D003000080B00020202010058
:1000E000090400000102020000052400100105249B
:1000F000010101042402060524060001070581030D
:1001000010004009040100020A0000000705020275
:100110004000000705830240000004030904417207
:100120006475696E6F204C4C430041726475696E52
:100130006F204D6963726F001201000200000040E1
:100140004123378000010102030112010002EF0286
:10015000014041233780000101020301000000003B
:10016000250028002B002E003100040404040403A1
:100170000405020202020403020202020606060647
:10018000060604040202020404040802011040806E
:10019000401020408040800802040180402010026E
:1001A00001108010204040200000000200090F00D4
:1001B00000030401000C000000000000000000002B
:1001C0000000000000000000290D280D11241FBEB2
:1001D000CFEFDAE0DEBFCDBF11E0A0E0B1E0E4E9AF
:1001E000FDE102C005900D92AA33B107D9F722E0D4
:1001F000AAE3B1E001C01D92AB3BB207E1F710E00A
:10020000C5EED0E004C02197FE010E94630DC43EFC
:10021000D107C9F70E94410C0C94BD0E0C9400004C
:100220004091FF01509100022091FD013091FE01AB
:1002300042175307B4F49091E8009570E1F3909160
:10024000E80092FD19C08093F1008091FF01909128
:10025000000201968F739927892B19F48EEF8093F2
:10026000E8008091FF0190910002019690930002B6
:100270008093FF0181E0089580E00895CF92DF929E
:10028000EF92FF920F931F93CF93DF931F92CDB7FF
:10029000DEB7182F062FE42E862F880F8E5F9983E6
:1002A0000E94100183E00E941001F12EC12E99815D
:1002B000D92E8C2D8F19801798F4F601E7FE02C015
:1002C000849101C080810E941001182F80E00E945B
:1002D00010018123FFEFCF1ADF0A8111EACF01C09D
:1002E00081E00F90DF91CF911F910F91FF90EF90E0
:1002F000DF90CF900895DF92EF92FF920F931F93BC
:10030000CF93DF93D82E8A017B01E40EF51EEB011B
:10031000CE15DF0571F0D7FE03C0FE01849101C048
:1003200088810E94100121968111F2CF8FEF9FEFFB
:1003300001C0C801DF91CF911F910F91FF90EF9005
:10034000DF900895615030F02091F100FC0120838E
:100350000196F8CF289A84E6809304020895E091EC
:100360007C01F0917D01309729F01092F2011092FA
:10037000F10109940895CF93DF93AC01E091F90165
:10038000F091FA013097F1F09091F4018091F3012E
:100390009817C0F090E0292F30E02617370754F463
:1003A000D901A45ABE4FEA01C20FD31F88818C9392
:1003B0009F5FF1CF1092F4016093F301CB01DF91C5
:1003C000CF910994DF91CF910895CF92DF92EF9270
:1003D000FF920F931F93CF93DF936C017A018B01F0
:1003E000C0E0D0E0CE15DF0589F0D8016D918D0118
:1003F000D601ED91FC910190F081E02DC6010995A7
:10040000892B11F47E0102C02196ECCFC701DF9148
:10041000CF911F910F91FF90EF90DF90CF900895B3
:1004200085ED8093BC008091BC0084FDFCCF1092D0
:10043000F001089540919E01262F30E0240F311DD8
:1004400021323105DCF42091F0012430C9F4FC01A3
:1004500080E090E0861758F430919E012191DC01F4
:10046000A258BE4FA30FB11D2C930196F3CF8091DC
:100470009E01680F60939E0180E0089581E00895D9
:1004800082E008950895E091F4018091F301E81766
:1004900030F4F0E0E45AFE4F808190E008958FEF51
:1004A0009FEF08959091F4018091F301981750F413
:1004B000E92FF0E0E45AFE4F208130E09F5F9093F7
:1004C000F40102C02FEF3FEFC90108958091F301BD
:1004D00090E02091F401821B91090895CF93DF935E
:1004E00000D0CDB7DEB7CB01642F49835A830E9479
:1004F0001A024981842F5A81952F0F900F90DF9116
:10050000CF910895CF93DF931F92CDB7DEB7698364
:1005100061E0CE0101960E941A0281E090E00F9006
:10052000DF91CF9108959C01220F331F820F931FFB
:10053000E0915A01F0915B01209159018E0F9F1FAC
:10054000FC01E20FF11D608320915801FC01E20FD4
:10055000F11D508320915701FC01E20FF11D4083F2
:1005600080E00895109256011092550110925401A6
:10057000E4E4F1E0ACE3B1E0119211921D9281E06C
:10058000E435F807C9F70895DC0170E0FB01E7578F
:10059000FE4FE4911896EC93189766597E4FFB0135
:1005A0008491E82FF0E0EE0FFF1FE45AFE4F859193
:1005B000949115969C938E931497FB016491E62F6A
:1005C000F0E0EE0FFF1FE653FF4F859194911796D1
:1005D0009C938E93169708950F931F93CF9302E1E8
:1005E00012E0C0E06C2FC8010E94C402CF5F075F19
:1005F0001F4FC830B9F7CF911F910F9108950F93F6
:100600001F93CF93DF931F92CDB7DEB782E089832C
:1006100042E450E068ED70E080E80E947B010E94B7
:10062000BB0BDC0112960D911C911397011511055E
:1006300069F0D801ED91FC910280F381E02DBE01BB
:100640006F5F7F4FC801099597FF07C089810F90A1
:10065000DF91CF911F910F910895F80100851185C9
:10066000E5CF0E94960E5F926F927F928F929F923B
:10067000AF92BF92CF92DF92EF92FF920F931F93B0
:10068000CF93DF93CDB7DEB760970FB6F894DEBF98
:100690000FBECDBF8C01B12CEB2CF12CE016F10676
:1006A0009CF42FE086E092E02B1550F00E9452025D
:1006B000E1E0F0E0EC0FFD1FEE0DFF1D808302C0B6
:1006C0000E945202B394E8CF8981982F9F70933093
:1006D00009F4DFC030F4913009F434C1923041F0B4
:1006E000B5C2943009F47AC0953009F4E2C1AEC2C3
:1006F00080913B018111AAC280913A018111A6C269
:1007000081E080933B0140E0A9E0FA2E8091560100
:10071000481708F060C0842F90E0BC01645C7E4FF5
:10072000DB012C91222309F452C0C0905A01D090D1
:100730005B01F89ED001F99EB00D1124AE5EBD4F55
:1007400016962D913C911797F901908118968C91EE
:100750001897982B908314960D911C9115971896C5
:100760005C9118978D919C9111979C01220F331FDA
:10077000280F391F12968D919C911397DC01AA0FB7
:10078000BB1F8A0F9B1FF601E80FF91FD8019C9130
:10079000852F8095C82EC922592B9FB7F8942E0F0C
:1007A0003F1FE217F30789F0E190D80188E05C93DE
:1007B00000C0E7FECC92EE0C00C000C000C008F400
:1007C000CC9200C08A9599F7ECCF9FBF7894DB015B
:1007D0001C924F5F9BCF10923B0138C24A81CB8065
:1007E0000C818D8190913A01911130C290E0A0E08E
:1007F000B0E015E1880F991FAA1FBB1F1A95D1F70A
:1008000010E020E030E05EE0000F111F221F331FD8
:100810005A95D1F7800F911FA21FB31F840F911D0E
:10082000A11DB11DD12CE12CF12C67E0CC0CDD1CFD
:10083000EE1CFF1C6A95D1F7C80ED91EEA1EFB1EDE
:10084000C114D104E104F10491F440915401509198
:100850005501CA01880F991F480F591F60E070E0C9
:1008600080915A0190915B010E94B60EBAC100E0DE
:1008700010E080915401909155010817190708F074
:10088000B0C1B701A601C8010E9493020F5F1F4FBC
:10089000F0CFEA809B815C814D818E810F81209118
:1008A0003A012111D3C1F12CB0E89B9FE00CF11C5F
:1008B00011242091540130915501E216F30668F598
:1008C00010E020E030E065E1000F111F221F331F10
:1008D0006A95D1F790E0A0E0B0E07EE0880F991F24
:1008E000AA1FBB1F7A95D1F7080F191F2A1F3B1F9C
:1008F000050F111D211D311D50E060E070E0E7E0A3
:10090000440F551F661F771FEA95D1F7400F511FFF
:10091000621F731FC7010E94930220915601A4E435
:10092000B1E080E090E0821708F090C1FC014D91A9
:100930005D910196E416F506B0F7E45CFE4F81E0A8
:10094000808384C1813009F081C1033008F47EC105
:100950008090FB010E94B20281100E94EC028BEA9F
:10096000089F912C1124969434E4A32E31E0B32EE9
:1009700042E1E42E42E0F42E6E01E4E0CE0ED11C02
:10098000712C6624639452E0552E860102501109A1
:10099000811006C0D8016C916F71C7010E94C4021A
:1009A000F801808190E025E0959587952A95E1F7FB
:1009B0008130910551F08230910571F0892B91F4CD
:1009C000109258016092590104C01092590160922E
:1009D00058015092570106C0109257016092590178
:1009E00050925801F60131978081D6012C91B0E8E0
:1009F0002B9F90011124280F311DF7013183208393
:100A0000772029F0F50132978081918102C080E042
:100A100090E0280F391FD5012D933D935D01F7011B
:100A200093838283009154011091550180819181BB
:100A3000080F191F1093550100935401809156011E
:100A40008F5F809356017394F9E0EF0EF11C23E061
:100A5000C20ED11C791099CF80915A0190915B01FF
:100A6000009731F00E94FE0D109255011092540132
:100A70000115110509F4EAC07801EE0CFF1CE00E27
:100A8000F11EC7010E94690D90935B0180935A018A
:100A9000009751F0A70160E070E00E94B60E10933D
:100AA000550100935401D2C0109255011092540187
:100AB000CDC08A81982F9F7109F493C085FBAA2429
:100AC000A0F8092F000F090F21E020933A0110E050
:100AD000E92EF12C86FBBB24B0F886FF28C0C801A4
:100AE0000E94690D6C01009729F0A80160E070E098
:100AF0000E94B60EAA2039F0209154013091550180
:100B00002E193F0902C020E030E0B901660F771FBF
:100B1000260F371F60915A0170915B01620F731F9E
:100B2000A801C6010E949B0EA11079C019C0AA207D
:100B3000B9F080915A0190915B014091540150911C
:100B400055014E195F099A01220F331F420F531F9F
:100B5000BC01800F911F0E94A40E80E090E02FC086
:100B600080905401909055018E189F0880915A01F1
:100B700090915B01A401440F551F480D591DBC0104
:100B8000600F711F0E94A40EBB2099F0C401880F52
:100B9000991F880E991E80915A0190915B01A801BE
:100BA000B601880D991D0E949B0EC6010E94FE0D84
:100BB00016C080915401909155018E199F099C0196
:100BC000220F331F820F931F20915A0130915B0136
:100BD000A80160E070E0820F931F0E94B60E109291
:100BE0003A014091560150E061E070E08CE391E001
:100BF00060960FB6F894DEBF0FBECDBFDF91CF91E8
:100C00001F910F91FF90EF90DF90CF90BF90AF902A
:100C10009F908F907F906F905F900C94B60E809114
:100C20005A0190915B0140915401509155014E1928
:100C30005F099A01220F331F420F531FBC01800F1F
:100C4000911F0E94A40E812C912CA0CF60960FB60C
:100C5000F894DEBF0FBECDBFDF91CF911F910F91F2
:100C6000FF90EF90DF90CF90BF90AF909F908F90CC
:100C70007F906F905F9008951F920F920FB60F9222
:100C80001124CF92DF92EF92FF920F931F932F9335
:100C90003F934F935F936F937F938F939F93AF9304
:100CA000BF93EF93FF93CF93DF93CDB7DEB76C97EE
:100CB000DEBFCDBF1092E9008091E80083FFFAC14A
:100CC00068E0CE0145960E94A20182EF8093E80081
:100CD0008D8987FF05C09091E80090FFFCCF03C08D
:100CE0009EEF9093E800982F907609F0C6C09E89F9
:100CF0002F89188D91110CC0803829F4809102023F
:100D00008093F10002C01092F1001092F10047C1EF
:100D1000422F50E0512B913051F4811140C14130AC
:100D2000510509F03CC1809102028D7F0BC09330C8
:100D300061F4811134C14130510509F030C1809115
:100D400002028260809302022AC1953041F48091B0
:100D5000E80080FFFCCF20682093E30020C196309C
:100D600009F05FC0EB8CFC8C1092E900109200023D
:100D70001092FF01123091F51092FE011092FD01C8
:100D80000E94FF0299E0BE016F5F7F4FDB01E92FF8
:100D90001D92EA95E9F799831A8391E09E8390EA80
:100DA00098879AEF99872091FF0130910002275F81
:100DB0003F4F3C832B838D831092E90010920002F9
:100DC0001092FF01F092FE01E092FD0149E050E037
:100DD00080E00E947B010E94FF02E1C0F092FE01D0
:100DE000E092FD010E94BB0BDC011296ED90FC909D
:100DF0001397E114F10409F4C0C0D701ED91FC91FF
:100E00000480F581E02DBE016B5E7F4FC70109951F
:100E1000009719F00CF0C3C0C6C0F701E084F1845C
:100E2000E8CF973009F4BFC0983021F481E0809377
:100E3000F100B5C0993009F0B2C0837009F0B3C0B9
:100E4000E3E1F1E081E021E036E39081992361F074
:100E50008093E9002093EB0091919093EC00309304
:100E6000ED008F5F873089F78EE78093EA0010925C
:100E7000EA008F898093050292C08B8D9C8D109221
:100E8000E900109200021092FF019093FE018093FE
:100E9000FD01898D811156C08E899D89913A59F441
:100EA000813209F080C047E050E064E071E080E00A
:100EB0000E947B0174C0913209F075C0833289F4BD
:100EC000888D90E0982F88272F89822BA0E0B0E0B2
:100ED0008093000190930101A0930201B09303015C
:100EE0005EC0803269F48091E80082FFFCCF67E049
:100EF00084E091E00E94A2018BEF8093E80006C09D
:100F0000823209F04CC08F8980930B0180910102DD
:100F1000882319F0EEEFFAE002C0E0E0F8E08091FB
:100F2000040190910501A0910601B0910701803B59
:100F30009440A105B10509F088C080910B0180FFA4
:100F4000A0C083C00E94BB0BDC0112960D911C91C6
:100F500013970115110539F1D801ED91FC9101901C
:100F6000F081E02DBE016B5E7F4FC80109958111B4
:100F700016C0F80100851185ECCF1130C1F0133097
:100F800091F48F89882309F455C08230E9F440E850
:100F90006DE08AE291E00E943E01882321F08EEF0D
:100FA0008093E80087C081E28093EB0083C08B8D43
:100FB0009C8D089711F41093FC018091FC01811124
:100FC00036C068E371E038C0813029F440E86BE056
:100FD0008EE191E0E0CF833031F70E94BB0BDC0162
:100FE0001296ED90FC9013978E010F5F1F4F6801D2
:100FF000E114F10479F0D701ED91FC910680F781BD
:10100000E02DB801C7010995080F111DF701E08413
:10101000F184EECFD8011C92F60101900020E9F78F
:101020003197BF016C197D0940E0C601B4CF6AE475
:1010300071E002C06AE171E06115710509F4B3CF96
:10104000FB01449150E080E833CF0FB6F894A895A7
:1010500080916000886180936000109260000FBEF4
:10106000A895EE3F2AE0F20739F08091FE0A9091B0
:10107000FF0A9183808393CF1092FF0A1092FE0A99
:101080008ECFEE3F8AE0F80731F080819181909316
:10109000FF0A8093FE0A87E797E7918380839BE0AE
:1010A00088E10FB6F894A895809360000FBE9093E6
:1010B000600075CF6C960FB6F894DEBF0FBECDBF43
:1010C000DF91CF91FF91EF91BF91AF919F918F9160
:1010D0007F916F915F914F913F912F911F910F9150
:1010E000FF90EF90DF90CF900F900FBE0F901F906A
:1010F00018953FB7F8948091EA019091EB01A09187
:10110000EC01B091ED0126B5A89B05C02F3F19F069
:101110000196A11DB11D3FBFBA2FA92F982F882777
:10112000820F911DA11DB11DBC01CD0142E0660FD2
:10113000771F881F991F4A95D1F708951F920F9224
:101140000FB60F9211242F933F938F939F93AF93DA
:10115000BF938091E6019091E701A091E801B091E1
:10116000E9013091E50123E0230F2D3720F40196AA
:10117000A11DB11D05C026E8230F0296A11DB11DBA
:101180002093E5018093E6019093E701A093E801A5
:10119000B093E9018091EA019091EB01A091EC01FB
:1011A000B091ED010196A11DB11D8093EA019093CC
:1011B000EB01A093EC01B093ED01BF91AF919F9132
:1011C0008F913F912F910F900FBE0F901F90189508
:1011D0001F920F920FB60F9211242F933F934F93AC
:1011E0005F936F937F938F939F93AF93BF93EF938F
:1011F000FF938091B900887F803609F49CC068F520
:10120000883209F45BC090F4803109F454C038F49A
:10121000882309F4F6C0883009F44DC0F6C088313F
:1012200009F44CC0803209F45DC0EFC0803409F489
:1012300068C048F4803309F455C0883309F0E5C02C
:101240008093C101D8C0803509F44FC0883509F4B6
:101250005DC0883409F0D9C0D6C0883909F4C7C048
:10126000A8F4883709F467C038F4883609F463C0F5
:10127000803709F460C0C9C0883809F4B8C0803923
:1012800009F45FC0803809F0C0C05BC0803B09F43E
:1012900086C038F4803A09F466C0883A09F47FC001
:1012A000B4C0803C09F4A7C0883C09F4A4C0883BC2
:1012B00009F48AC0AAC08091E40110C09091E301B2
:1012C0008091E201981770F5E091E30181E08E0FC3
:1012D0008093E301F0E0EE53FE4F80818093BB00EA
:1012E00085EC86C08093C1018EC0E091E30181E06E
:1012F0008E0F8093E3018091BB00F0E0EE53FE4F30
:1013000080839091E3018091E2016EC0E091E3015E
:1013100081E08E0F8093E3018091BB00F0E0EE53FB
:10132000FE4F80838091EF0181116DC081E0809339
:10133000EE0184EA61C083E08093F0011092C00165
:10134000CFCF8091C001803208F051C0E091C00140
:1013500081E08E0F8093C0018091BB00F0E0E056E9
:10136000FE4F8083BDCF85EC8093BC001092F001CE
:101370008091C001803230F4E091C001F0E0E0568D
:10138000FE4F10826091C00170E0E091F501F09194
:10139000F60180EA91E009951092C00136C084E020
:1013A0008093F00110929F0110929E01E091F7014D
:1013B000F091F801099580919E01811105C081E0AD
:1013C00080939E0110927E01E0919F0181E08E0F3B
:1013D00080939F01F0E0E258FE4F80818093BB0034
:1013E00090919F0180919E01981708F479CF85E82C
:1013F0008093BC000AC085EC8093BC001092F00181
:1014000004C01092C1010E941002FF91EF91BF91A0
:10141000AF919F918F917F916F915F914F913F918C
:101420002F910F900FBE0F901F901895FC01809187
:101430000502811103C08FEF9FEF08959FB7F894C5
:1014400082E08093E9002091F20030E0121613064A
:1014500014F421E030E02115310559F0289A84E692
:10146000809304028091F10080838091F2008823B0
:1014700019F09FBFC90108958BE68093E800F9CF6A
:10148000CF93DF931F92CDB7DEB76983DC01ED9177
:10149000FC910280F381E02D41E050E0BE016F5FDE
:1014A0007F4F09950F90DF91CF91089583E080934E
:1014B000E9008091F200882319F08AE38093E80024
:1014C0000895CF93DF931F92CDB7DEB7FC018485DB
:1014D000958597FD05C02FEF3FEF358724870BC01B
:1014E000CE0101960E94160A019719F4898190E0B5
:1014F00002C08FEF9FEF0F90DF91CF9108950F9370
:101500001F93CF93DF931F92CDB7DEB78C01FC0101
:101510008485958597FF0EC0CE0101960E94160A1C
:10152000019719F4298130E002C02FEF3FEFF80155
:1015300035872487F801848595850F90DF91CF91B9
:101540001F910F910895FC018485958597FD0BC02F
:101550009FB7F89482E08093E9008091F2009FBFEA
:1015600090E0019608959FB7F89482E08093E90097
:101570008091F2009FBF90E0089590E0FC01E85553
:10158000FE4F4491FC01E757FE4F2491FC01E659C0
:10159000FE4F8491882309F44CC04423E1F150E0CC
:1015A000FA013197EF30F105B0F5EA5AFF4F0C948C
:1015B000630D909180009F7707C0909180009F7D80
:1015C00003C090918000977F9093800024C094B5D1
:1015D0009F7702C094B59F7D94BD1DC090919000EF
:1015E0009F7707C0909190009F7D03C090919000DD
:1015F000977F909390000FC09091C0009F7703C099
:101600009091C0009F7D9093C00005C09091C20052
:10161000977F9093C200E82FF0E0EE0FFF1FE45A8F
:10162000FE4FA591B4918FB7F894EC912E2B2C938B
:101630008FBF0895CF92DF92EF92FF920E947908B8
:101640006B017C010E947908DC01CB018C199D099A
:10165000AE09BF09883E9340A105B10598F3FF90FC
:10166000EF90DF90CF9008958F929F92AF92BF92AC
:10167000CF92DF92EF92FF920F931F93CF93DF935E
:101680005C016B018A0180910B01882309F459C028
:1016900080910502882309F454C08091030280FFE1
:1016A00005C08091E00082608093E000E8018AEF4D
:1016B000F82E93E0E92E2FE3822E3AE3932E209723
:1016C000C9F18FB7F894E092E9009091E80095FF96
:1016D00006C09091F200282D291B922F01C090E0A6
:1016E0008FBF911106C0FA94FF2059F10E941A0B86
:1016F000E6CF292F30E0C217D3070CF49C2F8FB709
:10170000F894E092E9002091E80025FF11C0292F0C
:1017100030E0C21BD30BF601915020F04191409371
:10172000F100FACFC20ED31E9091E80095FF13C0CE
:101730008FBFC5CF5D9A84E680935A0210161106BA
:1017400044F081E090E0F5019383828380E090E0B3
:1017500005C0C80103C09092E800EACFDF91CF91A5
:101760001F910F91FF90EF90DF90CF90BF90AF90BF
:101770009F908F90089580915F0281110DC082E04B
:1017800080935B0284E080935C0210925E02109270
:101790005D0281E080935F028BE592E008951F92E5
:1017A0000F920FB60F9211248F939F938091E100B7
:1017B0009091E100937F9093E10083FF0FC010921E
:1017C000E90091E09093EB001092EC0092E390938B
:1017D000ED001092050298E09093F00082FF20C087
:1017E00093E09093E9009091F200992319F09AE325
:1017F0009093E80090915A02992339F090915A02FF
:10180000915090935A02992389F19091040299235F
:1018100039F090910402915090930402992341F180
:1018200084FF10C08091E2008E7E81608093E20090
:101830008091E1008F7E8093E100809103028E7E93
:10184000806111C080FF16C08091E2008E7E8061B1
:101850008093E2008091E1008E7E8093E100809190
:1018600003028E7E81608093030204C05D98CDCF19
:101870002898D6CF9F918F910F900FBE0F901F90F9
:101880001895789484B5826084BD84B5816084BDE8
:1018900085B5826085BD85B5816085BD80916E000E
:1018A000816080936E00109281008091810082603F
:1018B000809381008091810081608093810080917C
:1018C000800081608093800080919100826080938D
:1018D00091008091910081608093910080919000AF
:1018E0008160809390008091C10084608093C100EA
:1018F0008091C10082608093C1008091C1008160AD
:101900008093C1008091C30081608093C300809167
:10191000C00082608093C0008091C200816080938B
:10192000C20080917A00846080937A0080917A006E
:10193000826080937A0080917A00816080937A003F
:1019400080917A00806880937A001092050210924C
:101950000202109203028091D70081608093D70029
:1019600080EA8093D80089B5806189BD89B582609D
:1019700089BD09B400FEFDCF0E941A0B8091D800EA
:101980008F7C80618093D8008091E000807F80937D
:10199000E0008091E1008E7E8093E1008DE08093F5
:1019A000E200559A209A5D982898EEEFFFE785911E
:1019B00094918B3F9C4D19F481E08093010284E85F
:1019C0008093BA008FEA91E09093F8018093F70139
:1019D0008BEB91E09093F6018093F5011092F40166
:1019E0001092F3011092F2011092F1011092F001A5
:1019F000C1E0C093EF011092EE0182E00E94BD0AA7
:101A000083E00E94BD0A8091B9008E7F8093B90067
:101A10008091B9008D7F8093B90088E48093B800ED
:101A200085E48093BC0083E393E09093FA01809374
:101A3000F901C093FB010E94B2020E94EC02C0E0D7
:101A4000D0E00E941A0B2097E1F30E940000F9CF2A
:101A5000089510926A021092690288EE93E0A0E065
:101A6000B0E080936B0290936C02A0936D02B093F0
:101A70006E022DE131E030936802209367022FEF70
:101A80003FEF309374022093730210920902109278
:101A9000080280930A0290930B02A0930C02B09369
:101AA0000D028DE291E09093070280930602E2E13D
:101AB000F2E01182108213821282399682E0EA35B6
:101AC000F807B9F70895EE0FFF1F0590F491E02D88
:101AD0000994CF93DF938230910510F482E090E077
:101AE000E091B902F091BA0220E030E0C0E0D0E02D
:101AF000309711F14081518148175907C0F04817BC
:101B0000590761F482819381209719F09B838A831E
:101B10002BC09093BA028093B90226C021153105DB
:101B200019F04217530718F49A01BE01DF01EF01C3
:101B30000280F381E02DDCCF2115310509F1281B4E
:101B4000390B2430310590F412968D919C911397A6
:101B50006115710521F0FB019383828304C090938A
:101B6000BA028093B902FD01329644C0FD01E20F32
:101B7000F31F81939193225031092D933C933AC0E6
:101B80002091B7023091B802232B41F420910E012D
:101B900030910F013093B8022093B70220910C01CD
:101BA00030910D012115310541F42DB73EB740911B
:101BB000100150911101241B350BE091B702F091F7
:101BC000B802E217F307A0F42E1B3F0B28173907C2
:101BD00078F0AC014E5F5F4F2417350748F04E0F89
:101BE0005F1F5093B8024093B7028193919302C054
:101BF000E0E0F0E0CF01DF91CF9108950F931F93C4
:101C0000CF93DF93009709F48CC0FC0132971382C5
:101C100012820091B9021091BA020115110581F4E6
:101C200020813181820F931F2091B7023091B80239
:101C30002817390779F5F093B802E093B70271C01D
:101C4000D80140E050E0AE17BF0750F412962D9136
:101C50003C911397AD012115310509F1D901F3CF5D
:101C60009D01DA013383228360817181860F971F82
:101C70008217930769F4EC0128813981260F371FF9
:101C80002E5F3F4F318320838A819B8193838283A0
:101C9000452B29F4F093BA02E093B90242C013969F
:101CA000FC93EE931297ED01499159919E01240FF7
:101CB000351FE217F30771F480819181840F951F1E
:101CC000029611969C938E938281938113969C9396
:101CD0008E931297E0E0F0E0D80112968D919C91DE
:101CE0001397009719F0F8018C01F6CF8D919C9114
:101CF00098012E5F3F4F820F931F2091B7023091C2
:101D0000B8022817390769F4309729F41092BA02FB
:101D10001092B90202C0138212821093B80200938B
:101D2000B702DF91CF911F910F91089581E090E06C
:101D3000F8940C94BD0EFB01DC0102C001900D92E1
:101D400041505040D8F708956817790768F4FB01AF
:101D5000DC01E40FF51FA40FB51F02C002900E9224
:101D600041505040D8F708950C949B0EDC0101C0FF
:101D70006D9341505040E0F7089510E0C5EED0E07B
:101D800004C0FE010E94630D2196C63ED107C9F72B
:041D9000F894FFCFF5
:101D9400FFFFFFFF00E10000000000000000BB02A5
:101DA400800000C1808100000000000000400A346F
:101DB4000BA30A610A7F0A560A0000000082026E21
:0A1DC40002660252024302420200CE
:00000001FF
